{
  "contractName": "DOTC",
  "abi": [
    {
      "inputs": [
        {
          "internalType": "uint256",
          "name": "initialSupply",
          "type": "uint256"
        }
      ],
      "stateMutability": "nonpayable",
      "type": "constructor"
    },
    {
      "anonymous": false,
      "inputs": [
        {
          "indexed": true,
          "internalType": "address",
          "name": "owner",
          "type": "address"
        },
        {
          "indexed": true,
          "internalType": "address",
          "name": "spender",
          "type": "address"
        },
        {
          "indexed": false,
          "internalType": "uint256",
          "name": "value",
          "type": "uint256"
        }
      ],
      "name": "Approval",
      "type": "event"
    },
    {
      "anonymous": false,
      "inputs": [
        {
          "indexed": true,
          "internalType": "address",
          "name": "previousOwner",
          "type": "address"
        },
        {
          "indexed": true,
          "internalType": "address",
          "name": "newOwner",
          "type": "address"
        }
      ],
      "name": "OwnershipTransferred",
      "type": "event"
    },
    {
      "anonymous": false,
      "inputs": [
        {
          "indexed": true,
          "internalType": "address",
          "name": "from",
          "type": "address"
        },
        {
          "indexed": true,
          "internalType": "address",
          "name": "to",
          "type": "address"
        },
        {
          "indexed": false,
          "internalType": "uint256",
          "name": "value",
          "type": "uint256"
        }
      ],
      "name": "Transfer",
      "type": "event"
    },
    {
      "inputs": [
        {
          "internalType": "address",
          "name": "owner",
          "type": "address"
        },
        {
          "internalType": "address",
          "name": "spender",
          "type": "address"
        }
      ],
      "name": "allowance",
      "outputs": [
        {
          "internalType": "uint256",
          "name": "",
          "type": "uint256"
        }
      ],
      "stateMutability": "view",
      "type": "function"
    },
    {
      "inputs": [
        {
          "internalType": "address",
          "name": "spender",
          "type": "address"
        },
        {
          "internalType": "uint256",
          "name": "amount",
          "type": "uint256"
        }
      ],
      "name": "approve",
      "outputs": [
        {
          "internalType": "bool",
          "name": "",
          "type": "bool"
        }
      ],
      "stateMutability": "nonpayable",
      "type": "function"
    },
    {
      "inputs": [
        {
          "internalType": "address",
          "name": "account",
          "type": "address"
        }
      ],
      "name": "balanceOf",
      "outputs": [
        {
          "internalType": "uint256",
          "name": "",
          "type": "uint256"
        }
      ],
      "stateMutability": "view",
      "type": "function"
    },
    {
      "inputs": [],
      "name": "decimals",
      "outputs": [
        {
          "internalType": "uint8",
          "name": "",
          "type": "uint8"
        }
      ],
      "stateMutability": "view",
      "type": "function"
    },
    {
      "inputs": [
        {
          "internalType": "address",
          "name": "spender",
          "type": "address"
        },
        {
          "internalType": "uint256",
          "name": "subtractedValue",
          "type": "uint256"
        }
      ],
      "name": "decreaseAllowance",
      "outputs": [
        {
          "internalType": "bool",
          "name": "",
          "type": "bool"
        }
      ],
      "stateMutability": "nonpayable",
      "type": "function"
    },
    {
      "inputs": [
        {
          "internalType": "address",
          "name": "spender",
          "type": "address"
        },
        {
          "internalType": "uint256",
          "name": "addedValue",
          "type": "uint256"
        }
      ],
      "name": "increaseAllowance",
      "outputs": [
        {
          "internalType": "bool",
          "name": "",
          "type": "bool"
        }
      ],
      "stateMutability": "nonpayable",
      "type": "function"
    },
    {
      "inputs": [],
      "name": "name",
      "outputs": [
        {
          "internalType": "string",
          "name": "",
          "type": "string"
        }
      ],
      "stateMutability": "view",
      "type": "function"
    },
    {
      "inputs": [],
      "name": "owner",
      "outputs": [
        {
          "internalType": "address",
          "name": "",
          "type": "address"
        }
      ],
      "stateMutability": "view",
      "type": "function"
    },
    {
      "inputs": [],
      "name": "renounceOwnership",
      "outputs": [],
      "stateMutability": "nonpayable",
      "type": "function"
    },
    {
      "inputs": [],
      "name": "symbol",
      "outputs": [
        {
          "internalType": "string",
          "name": "",
          "type": "string"
        }
      ],
      "stateMutability": "view",
      "type": "function"
    },
    {
      "inputs": [],
      "name": "totalSupply",
      "outputs": [
        {
          "internalType": "uint256",
          "name": "",
          "type": "uint256"
        }
      ],
      "stateMutability": "view",
      "type": "function"
    },
    {
      "inputs": [
        {
          "internalType": "address",
          "name": "recipient",
          "type": "address"
        },
        {
          "internalType": "uint256",
          "name": "amount",
          "type": "uint256"
        }
      ],
      "name": "transfer",
      "outputs": [
        {
          "internalType": "bool",
          "name": "",
          "type": "bool"
        }
      ],
      "stateMutability": "nonpayable",
      "type": "function"
    },
    {
      "inputs": [
        {
          "internalType": "address",
          "name": "sender",
          "type": "address"
        },
        {
          "internalType": "address",
          "name": "recipient",
          "type": "address"
        },
        {
          "internalType": "uint256",
          "name": "amount",
          "type": "uint256"
        }
      ],
      "name": "transferFrom",
      "outputs": [
        {
          "internalType": "bool",
          "name": "",
          "type": "bool"
        }
      ],
      "stateMutability": "nonpayable",
      "type": "function"
    },
    {
      "inputs": [
        {
          "internalType": "address",
          "name": "newOwner",
          "type": "address"
        }
      ],
      "name": "transferOwnership",
      "outputs": [],
      "stateMutability": "nonpayable",
      "type": "function"
    },
    {
      "inputs": [
        {
          "internalType": "uint256[]",
          "name": "amounts",
          "type": "uint256[]"
        },
        {
          "internalType": "address[]",
          "name": "addrs",
          "type": "address[]"
        }
      ],
      "name": "TranferBath",
      "outputs": [
        {
          "internalType": "bool",
          "name": "",
          "type": "bool"
        }
      ],
      "stateMutability": "nonpayable",
      "type": "function"
    }
  ],
  "bytecode": "0x608060405260016007553480156200001657600080fd5b50604051620026853803806200268583398181016040528101906200003c919062000435565b6040518060400160405280601981526020017f446563656e7472616c697a6564204f54432054726164696e67000000000000008152506040518060400160405280600381526020017f444f5400000000000000000000000000000000000000000000000000000000008152508160039080519060200190620000c09291906200036e565b508060049080519060200190620000d99291906200036e565b505050600160058190555062000104620000f86200011d60201b60201c565b6200012560201b60201c565b620001163382620001eb60201b60201c565b5062000619565b600033905090565b6000600660009054906101000a900473ffffffffffffffffffffffffffffffffffffffff16905081600660006101000a81548173ffffffffffffffffffffffffffffffffffffffff021916908373ffffffffffffffffffffffffffffffffffffffff1602179055508173ffffffffffffffffffffffffffffffffffffffff168173ffffffffffffffffffffffffffffffffffffffff167f8be0079c531659141344cd1fd0a4f28419497f9722a3daafe3b4186f6b6457e060405160405180910390a35050565b600073ffffffffffffffffffffffffffffffffffffffff168273ffffffffffffffffffffffffffffffffffffffff1614156200025e576040517f08c379a00000000000000000000000000000000000000000000000000000000081526004016200025590620004b4565b60405180910390fd5b62000272600083836200036460201b60201c565b806002600082825462000286919062000504565b92505081905550806000808473ffffffffffffffffffffffffffffffffffffffff1673ffffffffffffffffffffffffffffffffffffffff1681526020019081526020016000206000828254620002dd919062000504565b925050819055508173ffffffffffffffffffffffffffffffffffffffff16600073ffffffffffffffffffffffffffffffffffffffff167fddf252ad1be2c89b69c2b068fc378daa952ba7f163c4a11628f55a4df523b3ef83604051620003449190620004d6565b60405180910390a362000360600083836200036960201b60201c565b5050565b505050565b505050565b8280546200037c906200056b565b90600052602060002090601f016020900481019282620003a05760008555620003ec565b82601f10620003bb57805160ff1916838001178555620003ec565b82800160010185558215620003ec579182015b82811115620003eb578251825591602001919060010190620003ce565b5b509050620003fb9190620003ff565b5090565b5b808211156200041a57600081600090555060010162000400565b5090565b6000815190506200042f81620005ff565b92915050565b6000602082840312156200044857600080fd5b600062000458848285016200041e565b91505092915050565b600062000470601f83620004f3565b91507f45524332303a206d696e7420746f20746865207a65726f2061646472657373006000830152602082019050919050565b620004ae8162000561565b82525050565b60006020820190508181036000830152620004cf8162000461565b9050919050565b6000602082019050620004ed6000830184620004a3565b92915050565b600082825260208201905092915050565b6000620005118262000561565b91506200051e8362000561565b9250827fffffffffffffffffffffffffffffffffffffffffffffffffffffffffffffffff03821115620005565762000555620005a1565b5b828201905092915050565b6000819050919050565b600060028204905060018216806200058457607f821691505b602082108114156200059b576200059a620005d0565b5b50919050565b7f4e487b7100000000000000000000000000000000000000000000000000000000600052601160045260246000fd5b7f4e487b7100000000000000000000000000000000000000000000000000000000600052602260045260246000fd5b6200060a8162000561565b81146200061657600080fd5b50565b61205c80620006296000396000f3fe608060405234801561001057600080fd5b50600436106100f55760003560e01c8063715018a611610097578063a457c2d711610066578063a457c2d71461028a578063a9059cbb146102ba578063dd62ed3e146102ea578063f2fde38b1461031a576100f5565b8063715018a61461021457806376bd5e381461021e5780638da5cb5b1461024e57806395d89b411461026c576100f5565b806323b872dd116100d357806323b872dd14610166578063313ce5671461019657806339509351146101b457806370a08231146101e4576100f5565b806306fdde03146100fa578063095ea7b31461011857806318160ddd14610148575b600080fd5b610102610336565b60405161010f9190611bcf565b60405180910390f35b610132600480360381019061012d91906114dd565b6103c8565b60405161013f9190611bb4565b60405180910390f35b6101506103e6565b60405161015d9190611db1565b60405180910390f35b610180600480360381019061017b919061148e565b6103f0565b60405161018d9190611bb4565b60405180910390f35b61019e6104e8565b6040516101ab9190611dcc565b60405180910390f35b6101ce60048036038101906101c991906114dd565b6104f1565b6040516101db9190611bb4565b60405180910390f35b6101fe60048036038101906101f99190611429565b61059d565b60405161020b9190611db1565b60405180910390f35b61021c6105e5565b005b61023860048036038101906102339190611519565b61066d565b6040516102459190611bb4565b60405180910390f35b6102566107fb565b6040516102639190611b70565b60405180910390f35b610274610825565b6040516102819190611bcf565b60405180910390f35b6102a4600480360381019061029f91906114dd565b6108b7565b6040516102b19190611bb4565b60405180910390f35b6102d460048036038101906102cf91906114dd565b6109a2565b6040516102e19190611bb4565b60405180910390f35b61030460048036038101906102ff9190611452565b6109c0565b6040516103119190611db1565b60405180910390f35b610334600480360381019061032f9190611429565b610a47565b005b60606003805461034590611ef7565b80601f016020809104026020016040519081016040528092919081815260200182805461037190611ef7565b80156103be5780601f10610393576101008083540402835291602001916103be565b820191906000526020600020905b8154815290600101906020018083116103a157829003601f168201915b5050505050905090565b60006103dc6103d5610b3f565b8484610b47565b6001905092915050565b6000600254905090565b60006103fd848484610d12565b6000600160008673ffffffffffffffffffffffffffffffffffffffff1673ffffffffffffffffffffffffffffffffffffffff1681526020019081526020016000206000610448610b3f565b73ffffffffffffffffffffffffffffffffffffffff1673ffffffffffffffffffffffffffffffffffffffff168152602001908152602001600020549050828110156104c8576040517f08c379a00000000000000000000000000000000000000000000000000000000081526004016104bf90611cb1565b60405180910390fd5b6104dc856104d4610b3f565b858403610b47565b60019150509392505050565b60006012905090565b60006105936104fe610b3f565b84846001600061050c610b3f565b73ffffffffffffffffffffffffffffffffffffffff1673ffffffffffffffffffffffffffffffffffffffff16815260200190815260200160002060008873ffffffffffffffffffffffffffffffffffffffff1673ffffffffffffffffffffffffffffffffffffffff1681526020019081526020016000205461058e9190611e19565b610b47565b6001905092915050565b60008060008373ffffffffffffffffffffffffffffffffffffffff1673ffffffffffffffffffffffffffffffffffffffff168152602001908152602001600020549050919050565b6105ed610b3f565b73ffffffffffffffffffffffffffffffffffffffff1661060b6107fb565b73ffffffffffffffffffffffffffffffffffffffff1614610661576040517f08c379a000000000000000000000000000000000000000000000000000000000815260040161065890611cd1565b60405180910390fd5b61066b6000610f93565b565b6000600260055414156106b5576040517f08c379a00000000000000000000000000000000000000000000000000000000081526004016106ac90611d71565b60405180910390fd5b60026005819055506000838390509050600086869050905080821461070f576040517f08c379a000000000000000000000000000000000000000000000000000000000815260040161070690611c91565b60405180910390fd5b60005b828110156107e4576107d1868683818110610756577f4e487b7100000000000000000000000000000000000000000000000000000000600052603260045260246000fd5b905060200201602081019061076b9190611429565b8989848181106107a4577f4e487b7100000000000000000000000000000000000000000000000000000000600052603260045260246000fd5b905060200201353073ffffffffffffffffffffffffffffffffffffffff166110599092919063ffffffff16565b80806107dc90611f29565b915050610712565b600193505050506001600581905550949350505050565b6000600660009054906101000a900473ffffffffffffffffffffffffffffffffffffffff16905090565b60606004805461083490611ef7565b80601f016020809104026020016040519081016040528092919081815260200182805461086090611ef7565b80156108ad5780601f10610882576101008083540402835291602001916108ad565b820191906000526020600020905b81548152906001019060200180831161089057829003601f168201915b5050505050905090565b600080600160006108c6610b3f565b73ffffffffffffffffffffffffffffffffffffffff1673ffffffffffffffffffffffffffffffffffffffff16815260200190815260200160002060008573ffffffffffffffffffffffffffffffffffffffff1673ffffffffffffffffffffffffffffffffffffffff16815260200190815260200160002054905082811015610983576040517f08c379a000000000000000000000000000000000000000000000000000000000815260040161097a90611d91565b60405180910390fd5b61099761098e610b3f565b85858403610b47565b600191505092915050565b60006109b66109af610b3f565b8484610d12565b6001905092915050565b6000600160008473ffffffffffffffffffffffffffffffffffffffff1673ffffffffffffffffffffffffffffffffffffffff16815260200190815260200160002060008373ffffffffffffffffffffffffffffffffffffffff1673ffffffffffffffffffffffffffffffffffffffff16815260200190815260200160002054905092915050565b610a4f610b3f565b73ffffffffffffffffffffffffffffffffffffffff16610a6d6107fb565b73ffffffffffffffffffffffffffffffffffffffff1614610ac3576040517f08c379a0000000000000000000000000000000000000000000000000000000008152600401610aba90611cd1565b60405180910390fd5b600073ffffffffffffffffffffffffffffffffffffffff168173ffffffffffffffffffffffffffffffffffffffff161415610b33576040517f08c379a0000000000000000000000000000000000000000000000000000000008152600401610b2a90611c11565b60405180910390fd5b610b3c81610f93565b50565b600033905090565b600073ffffffffffffffffffffffffffffffffffffffff168373ffffffffffffffffffffffffffffffffffffffff161415610bb7576040517f08c379a0000000000000000000000000000000000000000000000000000000008152600401610bae90611d11565b60405180910390fd5b600073ffffffffffffffffffffffffffffffffffffffff168273ffffffffffffffffffffffffffffffffffffffff161415610c27576040517f08c379a0000000000000000000000000000000000000000000000000000000008152600401610c1e90611c31565b60405180910390fd5b80600160008573ffffffffffffffffffffffffffffffffffffffff1673ffffffffffffffffffffffffffffffffffffffff16815260200190815260200160002060008473ffffffffffffffffffffffffffffffffffffffff1673ffffffffffffffffffffffffffffffffffffffff168152602001908152602001600020819055508173ffffffffffffffffffffffffffffffffffffffff168373ffffffffffffffffffffffffffffffffffffffff167f8c5be1e5ebec7d5bd14f71427d1e84f3dd0314c0f7b2291e5b200ac8c7c3b92583604051610d059190611db1565b60405180910390a3505050565b600073ffffffffffffffffffffffffffffffffffffffff168373ffffffffffffffffffffffffffffffffffffffff161415610d82576040517f08c379a0000000000000000000000000000000000000000000000000000000008152600401610d7990611cf1565b60405180910390fd5b600073ffffffffffffffffffffffffffffffffffffffff168273ffffffffffffffffffffffffffffffffffffffff161415610df2576040517f08c379a0000000000000000000000000000000000000000000000000000000008152600401610de990611bf1565b60405180910390fd5b610dfd8383836110df565b60008060008573ffffffffffffffffffffffffffffffffffffffff1673ffffffffffffffffffffffffffffffffffffffff16815260200190815260200160002054905081811015610e83576040517f08c379a0000000000000000000000000000000000000000000000000000000008152600401610e7a90611c51565b60405180910390fd5b8181036000808673ffffffffffffffffffffffffffffffffffffffff1673ffffffffffffffffffffffffffffffffffffffff16815260200190815260200160002081905550816000808573ffffffffffffffffffffffffffffffffffffffff1673ffffffffffffffffffffffffffffffffffffffff1681526020019081526020016000206000828254610f169190611e19565b925050819055508273ffffffffffffffffffffffffffffffffffffffff168473ffffffffffffffffffffffffffffffffffffffff167fddf252ad1be2c89b69c2b068fc378daa952ba7f163c4a11628f55a4df523b3ef84604051610f7a9190611db1565b60405180910390a3610f8d8484846110e4565b50505050565b6000600660009054906101000a900473ffffffffffffffffffffffffffffffffffffffff16905081600660006101000a81548173ffffffffffffffffffffffffffffffffffffffff021916908373ffffffffffffffffffffffffffffffffffffffff1602179055508173ffffffffffffffffffffffffffffffffffffffff168173ffffffffffffffffffffffffffffffffffffffff167f8be0079c531659141344cd1fd0a4f28419497f9722a3daafe3b4186f6b6457e060405160405180910390a35050565b6110da8363a9059cbb60e01b8484604051602401611078929190611b8b565b604051602081830303815290604052907bffffffffffffffffffffffffffffffffffffffffffffffffffffffff19166020820180517bffffffffffffffffffffffffffffffffffffffffffffffffffffffff83818316178352505050506110e9565b505050565b505050565b505050565b600061114b826040518060400160405280602081526020017f5361666545524332303a206c6f772d6c6576656c2063616c6c206661696c65648152508573ffffffffffffffffffffffffffffffffffffffff166111b09092919063ffffffff16565b90506000815111156111ab578080602001905181019061116b919061158e565b6111aa576040517f08c379a00000000000000000000000000000000000000000000000000000000081526004016111a190611d51565b60405180910390fd5b5b505050565b60606111bf84846000856111c8565b90509392505050565b60608247101561120d576040517f08c379a000000000000000000000000000000000000000000000000000000000815260040161120490611c71565b60405180910390fd5b611216856112dc565b611255576040517f08c379a000000000000000000000000000000000000000000000000000000000815260040161124c90611d31565b60405180910390fd5b6000808673ffffffffffffffffffffffffffffffffffffffff16858760405161127e9190611b59565b60006040518083038185875af1925050503d80600081146112bb576040519150601f19603f3d011682016040523d82523d6000602084013e6112c0565b606091505b50915091506112d08282866112ef565b92505050949350505050565b600080823b905060008111915050919050565b606083156112ff5782905061134f565b6000835111156113125782518084602001fd5b816040517f08c379a00000000000000000000000000000000000000000000000000000000081526004016113469190611bcf565b60405180910390fd5b9392505050565b60008135905061136581611fe1565b92915050565b60008083601f84011261137d57600080fd5b8235905067ffffffffffffffff81111561139657600080fd5b6020830191508360208202830111156113ae57600080fd5b9250929050565b60008083601f8401126113c757600080fd5b8235905067ffffffffffffffff8111156113e057600080fd5b6020830191508360208202830111156113f857600080fd5b9250929050565b60008151905061140e81611ff8565b92915050565b6000813590506114238161200f565b92915050565b60006020828403121561143b57600080fd5b600061144984828501611356565b91505092915050565b6000806040838503121561146557600080fd5b600061147385828601611356565b925050602061148485828601611356565b9150509250929050565b6000806000606084860312156114a357600080fd5b60006114b186828701611356565b93505060206114c286828701611356565b92505060406114d386828701611414565b9150509250925092565b600080604083850312156114f057600080fd5b60006114fe85828601611356565b925050602061150f85828601611414565b9150509250929050565b6000806000806040858703121561152f57600080fd5b600085013567ffffffffffffffff81111561154957600080fd5b611555878288016113b5565b9450945050602085013567ffffffffffffffff81111561157457600080fd5b6115808782880161136b565b925092505092959194509250565b6000602082840312156115a057600080fd5b60006115ae848285016113ff565b91505092915050565b6115c081611e6f565b82525050565b6115cf81611e81565b82525050565b60006115e082611de7565b6115ea8185611dfd565b93506115fa818560208601611ec4565b80840191505092915050565b600061161182611df2565b61161b8185611e08565b935061162b818560208601611ec4565b61163481611fd0565b840191505092915050565b600061164c602383611e08565b91507f45524332303a207472616e7366657220746f20746865207a65726f206164647260008301527f65737300000000000000000000000000000000000000000000000000000000006020830152604082019050919050565b60006116b2602683611e08565b91507f4f776e61626c653a206e6577206f776e657220697320746865207a65726f206160008301527f64647265737300000000000000000000000000000000000000000000000000006020830152604082019050919050565b6000611718602283611e08565b91507f45524332303a20617070726f766520746f20746865207a65726f20616464726560008301527f73730000000000000000000000000000000000000000000000000000000000006020830152604082019050919050565b600061177e602683611e08565b91507f45524332303a207472616e7366657220616d6f756e742065786365656473206260008301527f616c616e636500000000000000000000000000000000000000000000000000006020830152604082019050919050565b60006117e4602683611e08565b91507f416464726573733a20696e73756666696369656e742062616c616e636520666f60008301527f722063616c6c00000000000000000000000000000000000000000000000000006020830152604082019050919050565b600061184a601783611e08565b91507f616d6f756e7473206164647273206e6f7420657175616c0000000000000000006000830152602082019050919050565b600061188a602883611e08565b91507f45524332303a207472616e7366657220616d6f756e742065786365656473206160008301527f6c6c6f77616e63650000000000000000000000000000000000000000000000006020830152604082019050919050565b60006118f0602083611e08565b91507f4f776e61626c653a2063616c6c6572206973206e6f7420746865206f776e65726000830152602082019050919050565b6000611930602583611e08565b91507f45524332303a207472616e736665722066726f6d20746865207a65726f20616460008301527f64726573730000000000000000000000000000000000000000000000000000006020830152604082019050919050565b6000611996602483611e08565b91507f45524332303a20617070726f76652066726f6d20746865207a65726f2061646460008301527f72657373000000000000000000000000000000000000000000000000000000006020830152604082019050919050565b60006119fc601d83611e08565b91507f416464726573733a2063616c6c20746f206e6f6e2d636f6e74726163740000006000830152602082019050919050565b6000611a3c602a83611e08565b91507f5361666545524332303a204552433230206f7065726174696f6e20646964206e60008301527f6f742073756363656564000000000000000000000000000000000000000000006020830152604082019050919050565b6000611aa2601f83611e08565b91507f5265656e7472616e637947756172643a207265656e7472616e742063616c6c006000830152602082019050919050565b6000611ae2602583611e08565b91507f45524332303a2064656372656173656420616c6c6f77616e63652062656c6f7760008301527f207a65726f0000000000000000000000000000000000000000000000000000006020830152604082019050919050565b611b4481611ead565b82525050565b611b5381611eb7565b82525050565b6000611b6582846115d5565b915081905092915050565b6000602082019050611b8560008301846115b7565b92915050565b6000604082019050611ba060008301856115b7565b611bad6020830184611b3b565b9392505050565b6000602082019050611bc960008301846115c6565b92915050565b60006020820190508181036000830152611be98184611606565b905092915050565b60006020820190508181036000830152611c0a8161163f565b9050919050565b60006020820190508181036000830152611c2a816116a5565b9050919050565b60006020820190508181036000830152611c4a8161170b565b9050919050565b60006020820190508181036000830152611c6a81611771565b9050919050565b60006020820190508181036000830152611c8a816117d7565b9050919050565b60006020820190508181036000830152611caa8161183d565b9050919050565b60006020820190508181036000830152611cca8161187d565b9050919050565b60006020820190508181036000830152611cea816118e3565b9050919050565b60006020820190508181036000830152611d0a81611923565b9050919050565b60006020820190508181036000830152611d2a81611989565b9050919050565b60006020820190508181036000830152611d4a816119ef565b9050919050565b60006020820190508181036000830152611d6a81611a2f565b9050919050565b60006020820190508181036000830152611d8a81611a95565b9050919050565b60006020820190508181036000830152611daa81611ad5565b9050919050565b6000602082019050611dc66000830184611b3b565b92915050565b6000602082019050611de16000830184611b4a565b92915050565b600081519050919050565b600081519050919050565b600081905092915050565b600082825260208201905092915050565b6000611e2482611ead565b9150611e2f83611ead565b9250827fffffffffffffffffffffffffffffffffffffffffffffffffffffffffffffffff03821115611e6457611e63611f72565b5b828201905092915050565b6000611e7a82611e8d565b9050919050565b60008115159050919050565b600073ffffffffffffffffffffffffffffffffffffffff82169050919050565b6000819050919050565b600060ff82169050919050565b60005b83811015611ee2578082015181840152602081019050611ec7565b83811115611ef1576000848401525b50505050565b60006002820490506001821680611f0f57607f821691505b60208210811415611f2357611f22611fa1565b5b50919050565b6000611f3482611ead565b91507fffffffffffffffffffffffffffffffffffffffffffffffffffffffffffffffff821415611f6757611f66611f72565b5b600182019050919050565b7f4e487b7100000000000000000000000000000000000000000000000000000000600052601160045260246000fd5b7f4e487b7100000000000000000000000000000000000000000000000000000000600052602260045260246000fd5b6000601f19601f8301169050919050565b611fea81611e6f565b8114611ff557600080fd5b50565b61200181611e81565b811461200c57600080fd5b50565b61201881611ead565b811461202357600080fd5b5056fea2646970667358221220934583343dcf803d978edd70e6620a6c8fba65818c5fb9ba7c1eed7c8091ef3b64736f6c63430008000033",
  "immutableReferences": {},
  "source": "// SPDX-License-Identifier: MIT\r\npragma solidity ^0.8.0;\r\n\r\nimport \"@openzeppelin/contracts/token/ERC20/utils/SafeERC20.sol\";\r\nimport \"@openzeppelin/contracts/token/ERC20/ERC20.sol\";\r\nimport \"@openzeppelin/contracts/security/ReentrancyGuard.sol\";\r\nimport \"@openzeppelin/contracts/access/Ownable.sol\";\r\ncontract DOTC  is ERC20,ReentrancyGuard,Ownable {\r\n  using SafeERC20 for IERC20;\r\n  uint256 private aproveunlocked=1;\r\n  constructor(uint256 initialSupply) ERC20(\"Decentralized OTC Trading\", \"DOT\") {\r\n    _mint(msg.sender, initialSupply);\r\n  }\r\n\r\n  function TranferBath(uint256[] calldata amounts,address[] calldata addrs) public nonReentrant returns  (bool) {\r\n    uint len=addrs.length;\r\n    uint len2=amounts.length;\r\n    require(len==len2,\"amounts addrs not equal\");\r\n    uint i=0;\r\n        for(i=0;i<len;i++){\r\n        IERC20(address(this)).safeTransfer(addrs[i],amounts[i]);\r\n        }\r\n        return true;\r\n    }\r\n\r\n   \r\n}\r\n",
  "sourcePath": "/c/Users/dx/Ethereum Studio/ECR/contracts/EUSDT.sol",
  "compiler": {
    "name": "solc",
    "version": "0.8.0+commit.c7dfd78e.Emscripten.clang"
  },
  "schemaVersion": "3.4.2",
  "updatedAt": "2022-03-06T17:07:52.224Z",
  "devdoc": {
    "kind": "dev",
    "methods": {
      "allowance(address,address)": {
        "details": "See {IERC20-allowance}."
      },
      "approve(address,uint256)": {
        "details": "See {IERC20-approve}. Requirements: - `spender` cannot be the zero address."
      },
      "balanceOf(address)": {
        "details": "See {IERC20-balanceOf}."
      },
      "decimals()": {
        "details": "Returns the number of decimals used to get its user representation. For example, if `decimals` equals `2`, a balance of `505` tokens should be displayed to a user as `5,05` (`505 / 10 ** 2`). Tokens usually opt for a value of 18, imitating the relationship between Ether and Wei. This is the value {ERC20} uses, unless this function is overridden; NOTE: This information is only used for _display_ purposes: it in no way affects any of the arithmetic of the contract, including {IERC20-balanceOf} and {IERC20-transfer}."
      },
      "decreaseAllowance(address,uint256)": {
        "details": "Atomically decreases the allowance granted to `spender` by the caller. This is an alternative to {approve} that can be used as a mitigation for problems described in {IERC20-approve}. Emits an {Approval} event indicating the updated allowance. Requirements: - `spender` cannot be the zero address. - `spender` must have allowance for the caller of at least `subtractedValue`."
      },
      "increaseAllowance(address,uint256)": {
        "details": "Atomically increases the allowance granted to `spender` by the caller. This is an alternative to {approve} that can be used as a mitigation for problems described in {IERC20-approve}. Emits an {Approval} event indicating the updated allowance. Requirements: - `spender` cannot be the zero address."
      },
      "name()": {
        "details": "Returns the name of the token."
      },
      "owner()": {
        "details": "Returns the address of the current owner."
      },
      "renounceOwnership()": {
        "details": "Leaves the contract without owner. It will not be possible to call `onlyOwner` functions anymore. Can only be called by the current owner. NOTE: Renouncing ownership will leave the contract without an owner, thereby removing any functionality that is only available to the owner."
      },
      "symbol()": {
        "details": "Returns the symbol of the token, usually a shorter version of the name."
      },
      "totalSupply()": {
        "details": "See {IERC20-totalSupply}."
      },
      "transfer(address,uint256)": {
        "details": "See {IERC20-transfer}. Requirements: - `recipient` cannot be the zero address. - the caller must have a balance of at least `amount`."
      },
      "transferFrom(address,address,uint256)": {
        "details": "See {IERC20-transferFrom}. Emits an {Approval} event indicating the updated allowance. This is not required by the EIP. See the note at the beginning of {ERC20}. Requirements: - `sender` and `recipient` cannot be the zero address. - `sender` must have a balance of at least `amount`. - the caller must have allowance for ``sender``'s tokens of at least `amount`."
      },
      "transferOwnership(address)": {
        "details": "Transfers ownership of the contract to a new account (`newOwner`). Can only be called by the current owner."
      }
    },
    "version": 1
  },
  "userdoc": {
    "kind": "user",
    "methods": {},
    "version": 1
  }
}