{
  "contractName": "ERCContract",
  "abi": [
    {
      "inputs": [
        {
          "internalType": "address",
          "name": "_eusdtAddress",
          "type": "address"
        }
      ],
      "stateMutability": "nonpayable",
      "type": "constructor"
    },
    {
      "anonymous": false,
      "inputs": [
        {
          "indexed": true,
          "internalType": "address",
          "name": "previousOwner",
          "type": "address"
        },
        {
          "indexed": true,
          "internalType": "address",
          "name": "newOwner",
          "type": "address"
        }
      ],
      "name": "OwnershipTransferred",
      "type": "event"
    },
    {
      "anonymous": false,
      "inputs": [
        {
          "indexed": false,
          "internalType": "address[]",
          "name": "users",
          "type": "address[]"
        }
      ],
      "name": "SetWhiteListEvent",
      "type": "event"
    },
    {
      "anonymous": false,
      "inputs": [
        {
          "indexed": false,
          "internalType": "uint256",
          "name": "_identifier",
          "type": "uint256"
        },
        {
          "indexed": false,
          "internalType": "address",
          "name": "_seller",
          "type": "address"
        },
        {
          "indexed": false,
          "internalType": "string",
          "name": "_sellObject",
          "type": "string"
        },
        {
          "indexed": false,
          "internalType": "uint256",
          "name": "_stackAmount",
          "type": "uint256"
        },
        {
          "indexed": false,
          "internalType": "address",
          "name": "_allowbuyer",
          "type": "address"
        },
        {
          "indexed": false,
          "internalType": "uint256",
          "name": "_transactionOrderBiuldTime",
          "type": "uint256"
        }
      ],
      "name": "TransactionOrderBuildEvent",
      "type": "event"
    },
    {
      "inputs": [
        {
          "internalType": "uint256",
          "name": "",
          "type": "uint256"
        }
      ],
      "name": "AllTransactionOrders",
      "outputs": [
        {
          "internalType": "uint256",
          "name": "identifier",
          "type": "uint256"
        },
        {
          "internalType": "string",
          "name": "sellObject",
          "type": "string"
        },
        {
          "internalType": "uint256",
          "name": "stackAmount",
          "type": "uint256"
        },
        {
          "internalType": "address",
          "name": "seller",
          "type": "address"
        },
        {
          "internalType": "address",
          "name": "allowbuyer",
          "type": "address"
        },
        {
          "internalType": "address",
          "name": "buyer",
          "type": "address"
        },
        {
          "internalType": "uint256",
          "name": "buyerstackAmount",
          "type": "uint256"
        },
        {
          "internalType": "bool",
          "name": "sellLock",
          "type": "bool"
        },
        {
          "internalType": "bool",
          "name": "buyLock",
          "type": "bool"
        },
        {
          "internalType": "bool",
          "name": "receiveUSD",
          "type": "bool"
        },
        {
          "internalType": "bool",
          "name": "receiveObject",
          "type": "bool"
        },
        {
          "internalType": "uint256",
          "name": "transactionOrderBiuldTime",
          "type": "uint256"
        }
      ],
      "stateMutability": "view",
      "type": "function"
    },
    {
      "inputs": [],
      "name": "EUSDTAddress",
      "outputs": [
        {
          "internalType": "address",
          "name": "",
          "type": "address"
        }
      ],
      "stateMutability": "view",
      "type": "function"
    },
    {
      "inputs": [
        {
          "internalType": "address",
          "name": "",
          "type": "address"
        }
      ],
      "name": "TransactionBan",
      "outputs": [
        {
          "internalType": "bool",
          "name": "",
          "type": "bool"
        }
      ],
      "stateMutability": "view",
      "type": "function"
    },
    {
      "inputs": [
        {
          "internalType": "address",
          "name": "",
          "type": "address"
        }
      ],
      "name": "TransactionOrdersLen",
      "outputs": [
        {
          "internalType": "uint256",
          "name": "",
          "type": "uint256"
        }
      ],
      "stateMutability": "view",
      "type": "function"
    },
    {
      "inputs": [
        {
          "internalType": "address",
          "name": "",
          "type": "address"
        },
        {
          "internalType": "uint256",
          "name": "",
          "type": "uint256"
        }
      ],
      "name": "UserTransactionOrders",
      "outputs": [
        {
          "internalType": "uint256",
          "name": "",
          "type": "uint256"
        }
      ],
      "stateMutability": "view",
      "type": "function"
    },
    {
      "inputs": [],
      "name": "WhiteListIndex",
      "outputs": [
        {
          "internalType": "uint256",
          "name": "",
          "type": "uint256"
        }
      ],
      "stateMutability": "view",
      "type": "function"
    },
    {
      "inputs": [],
      "name": "allTax",
      "outputs": [
        {
          "internalType": "uint256",
          "name": "",
          "type": "uint256"
        }
      ],
      "stateMutability": "view",
      "type": "function"
    },
    {
      "inputs": [],
      "name": "allTransactionOrderIndex",
      "outputs": [
        {
          "internalType": "uint256",
          "name": "",
          "type": "uint256"
        }
      ],
      "stateMutability": "view",
      "type": "function"
    },
    {
      "inputs": [],
      "name": "cancelOrderTax",
      "outputs": [
        {
          "internalType": "uint256",
          "name": "",
          "type": "uint256"
        }
      ],
      "stateMutability": "view",
      "type": "function"
    },
    {
      "inputs": [],
      "name": "owner",
      "outputs": [
        {
          "internalType": "address",
          "name": "",
          "type": "address"
        }
      ],
      "stateMutability": "view",
      "type": "function"
    },
    {
      "inputs": [],
      "name": "renounceOwnership",
      "outputs": [],
      "stateMutability": "nonpayable",
      "type": "function"
    },
    {
      "inputs": [],
      "name": "taxRate",
      "outputs": [
        {
          "internalType": "uint256",
          "name": "",
          "type": "uint256"
        }
      ],
      "stateMutability": "view",
      "type": "function"
    },
    {
      "inputs": [
        {
          "internalType": "address",
          "name": "newOwner",
          "type": "address"
        }
      ],
      "name": "transferOwnership",
      "outputs": [],
      "stateMutability": "nonpayable",
      "type": "function"
    },
    {
      "inputs": [
        {
          "internalType": "uint256",
          "name": "_txrate",
          "type": "uint256"
        }
      ],
      "name": "SetTxRate",
      "outputs": [
        {
          "internalType": "bool",
          "name": "",
          "type": "bool"
        }
      ],
      "stateMutability": "nonpayable",
      "type": "function"
    },
    {
      "inputs": [
        {
          "internalType": "string",
          "name": "_sellObject",
          "type": "string"
        },
        {
          "internalType": "uint256",
          "name": "_stackAmount",
          "type": "uint256"
        },
        {
          "internalType": "address",
          "name": "_allowbuyer",
          "type": "address"
        }
      ],
      "name": "Sell",
      "outputs": [
        {
          "internalType": "bool",
          "name": "",
          "type": "bool"
        }
      ],
      "stateMutability": "nonpayable",
      "type": "function"
    },
    {
      "inputs": [
        {
          "internalType": "uint256",
          "name": "_identifier",
          "type": "uint256"
        },
        {
          "internalType": "address",
          "name": "_allowbuyer",
          "type": "address"
        }
      ],
      "name": "setallowbuyer",
      "outputs": [
        {
          "internalType": "bool",
          "name": "",
          "type": "bool"
        }
      ],
      "stateMutability": "nonpayable",
      "type": "function"
    },
    {
      "inputs": [
        {
          "internalType": "uint256",
          "name": "_identifier",
          "type": "uint256"
        }
      ],
      "name": "Buy",
      "outputs": [
        {
          "internalType": "bool",
          "name": "",
          "type": "bool"
        }
      ],
      "stateMutability": "nonpayable",
      "type": "function"
    },
    {
      "inputs": [
        {
          "internalType": "uint256",
          "name": "_identifier",
          "type": "uint256"
        }
      ],
      "name": "SellLock",
      "outputs": [
        {
          "internalType": "bool",
          "name": "",
          "type": "bool"
        }
      ],
      "stateMutability": "nonpayable",
      "type": "function"
    },
    {
      "inputs": [
        {
          "internalType": "uint256",
          "name": "_identifier",
          "type": "uint256"
        }
      ],
      "name": "BuyLock",
      "outputs": [
        {
          "internalType": "bool",
          "name": "",
          "type": "bool"
        }
      ],
      "stateMutability": "nonpayable",
      "type": "function"
    },
    {
      "inputs": [
        {
          "internalType": "uint256",
          "name": "_identifier",
          "type": "uint256"
        }
      ],
      "name": "ReceiveUSDLock",
      "outputs": [
        {
          "internalType": "bool",
          "name": "",
          "type": "bool"
        }
      ],
      "stateMutability": "nonpayable",
      "type": "function"
    },
    {
      "inputs": [
        {
          "internalType": "uint256",
          "name": "_identifier",
          "type": "uint256"
        }
      ],
      "name": "ReceiveObjectLock",
      "outputs": [
        {
          "internalType": "bool",
          "name": "",
          "type": "bool"
        }
      ],
      "stateMutability": "nonpayable",
      "type": "function"
    },
    {
      "inputs": [
        {
          "internalType": "uint256",
          "name": "_identifier",
          "type": "uint256"
        }
      ],
      "name": "SellerCancelOrder",
      "outputs": [
        {
          "internalType": "bool",
          "name": "",
          "type": "bool"
        }
      ],
      "stateMutability": "nonpayable",
      "type": "function"
    },
    {
      "inputs": [
        {
          "internalType": "uint256",
          "name": "_identifier",
          "type": "uint256"
        }
      ],
      "name": "BuyerCancelOrder",
      "outputs": [
        {
          "internalType": "bool",
          "name": "",
          "type": "bool"
        }
      ],
      "stateMutability": "nonpayable",
      "type": "function"
    },
    {
      "inputs": [
        {
          "internalType": "address",
          "name": "_to",
          "type": "address"
        }
      ],
      "name": "withdrawTax",
      "outputs": [
        {
          "internalType": "bool",
          "name": "",
          "type": "bool"
        }
      ],
      "stateMutability": "nonpayable",
      "type": "function"
    },
    {
      "inputs": [
        {
          "internalType": "address[]",
          "name": "users",
          "type": "address[]"
        }
      ],
      "name": "setWhiteList",
      "outputs": [
        {
          "internalType": "bool",
          "name": "",
          "type": "bool"
        }
      ],
      "stateMutability": "nonpayable",
      "type": "function"
    },
    {
      "inputs": [],
      "name": "getWhiteList",
      "outputs": [
        {
          "internalType": "address[]",
          "name": "",
          "type": "address[]"
        }
      ],
      "stateMutability": "view",
      "type": "function"
    },
    {
      "inputs": [
        {
          "internalType": "address",
          "name": "user",
          "type": "address"
        }
      ],
      "name": "isInWhiteList",
      "outputs": [
        {
          "internalType": "bool",
          "name": "",
          "type": "bool"
        }
      ],
      "stateMutability": "view",
      "type": "function"
    }
  ],
  "bytecode": "0x608060405260016003556b204fce5e3e250261100000006004556064600b5561012c600c556000600e553480156200003657600080fd5b50604051620059a9380380620059a983398181016040528101906200005c9190620001ae565b6200007c62000070620000cb60201b60201c565b620000d360201b60201c565b6001808190555080600260006101000a81548173ffffffffffffffffffffffffffffffffffffffff021916908373ffffffffffffffffffffffffffffffffffffffff1602179055505062000228565b600033905090565b60008060009054906101000a900473ffffffffffffffffffffffffffffffffffffffff169050816000806101000a81548173ffffffffffffffffffffffffffffffffffffffff021916908373ffffffffffffffffffffffffffffffffffffffff1602179055508173ffffffffffffffffffffffffffffffffffffffff168173ffffffffffffffffffffffffffffffffffffffff167f8be0079c531659141344cd1fd0a4f28419497f9722a3daafe3b4186f6b6457e060405160405180910390a35050565b600081519050620001a8816200020e565b92915050565b600060208284031215620001c157600080fd5b6000620001d18482850162000197565b91505092915050565b6000620001e782620001ee565b9050919050565b600073ffffffffffffffffffffffffffffffffffffffff82169050919050565b6200021981620001da565b81146200022557600080fd5b50565b61577180620002386000396000f3fe608060405234801561001057600080fd5b50600436106101a85760003560e01c806366d0f4d1116100f957806396bfc22911610097578063e41b044d11610071578063e41b044d14610564578063e5f45e4d14610594578063e6b2de05146105b2578063f2fde38b146105e2576101a8565b806396bfc229146104d4578063b625fd3214610504578063cc38655414610534576101a8565b8063771a3a1d116100d3578063771a3a1d14610438578063775b9c13146104565780638896d3d4146104865780638da5cb5b146104b6576101a8565b806366d0f4d1146103f25780636fe8d33b14610410578063715018a61461042e576101a8565b806331a38170116101665780633e328218116101405780633e328218146103275780634c75b7071461035757806353361d70146103875780635b11bfff146103b7576101a8565b806331a38170146102a957806333ce06b6146102d95780633726796b146102f7576101a8565b8062e4d347146101ad57806307e1b6e6146101cb57806309a9d76c146101fb57806312417e6c1461021957806318fae3361461024957806327071df514610279575b600080fd5b6101b56105fe565b6040516101c29190615212565b60405180910390f35b6101e560048036038101906101e0919061424f565b610604565b6040516101f29190615212565b60405180910390f35b61020361061c565b6040516102109190614e13565b60405180910390f35b610233600480360381019061022e919061438a565b610762565b6040516102409190614e35565b60405180910390f35b610263600480360381019061025e919061438a565b610c0a565b6040516102709190614e35565b60405180910390f35b610293600480360381019061028e919061438a565b610cdc565b6040516102a09190614e35565b60405180910390f35b6102c360048036038101906102be9190614278565b610f99565b6040516102d09190615212565b60405180910390f35b6102e1610fbe565b6040516102ee9190615212565b60405180910390f35b610311600480360381019061030c91906143dc565b610fc4565b60405161031e9190614e35565b60405180910390f35b610341600480360381019061033c919061438a565b611513565b60405161034e9190614e35565b60405180910390f35b610371600480360381019061036c919061424f565b611cd9565b60405161037e9190614e35565b60405180910390f35b6103a1600480360381019061039c919061438a565b611eb1565b6040516103ae9190614e35565b60405180910390f35b6103d160048036038101906103cc919061438a565b612331565b6040516103e99c9b9a99989796959493929190615295565b60405180910390f35b6103fa6124ad565b6040516104079190615212565b60405180910390f35b6104186124b3565b6040516104259190614d6f565b60405180910390f35b6104366124d9565b005b610440612561565b60405161044d9190615212565b60405180910390f35b610470600480360381019061046b91906142b4565b612567565b60405161047d9190614e35565b60405180910390f35b6104a0600480360381019061049b919061438a565b6126fb565b6040516104ad9190614e35565b60405180910390f35b6104be612b85565b6040516104cb9190614d6f565b60405180910390f35b6104ee60048036038101906104e9919061424f565b612bae565b6040516104fb9190614e35565b60405180910390f35b61051e6004803603810190610519919061431e565b612c4f565b60405161052b9190614e35565b60405180910390f35b61054e6004803603810190610549919061438a565b613459565b60405161055b9190614e35565b60405180910390f35b61057e6004803603810190610579919061424f565b613752565b60405161058b9190614e35565b60405180910390f35b61059c613772565b6040516105a99190615212565b60405180910390f35b6105cc60048036038101906105c7919061438a565b613778565b6040516105d99190614e35565b60405180910390f35b6105fc60048036038101906105f7919061424f565b613a35565b005b600c5481565b60076020528060005260406000206000915090505481565b60606000600e5467ffffffffffffffff811115610662577f4e487b7100000000000000000000000000000000000000000000000000000000600052604160045260246000fd5b6040519080825280602002602001820160405280156106905781602001602082028036833780820191505090505b50905060005b600e5481101561075a57600d600082815260200190815260200160002060009054906101000a900473ffffffffffffffffffffffffffffffffffffffff1682828151811061070d577f4e487b7100000000000000000000000000000000000000000000000000000000600052603260045260246000fd5b602002602001019073ffffffffffffffffffffffffffffffffffffffff16908173ffffffffffffffffffffffffffffffffffffffff16815250508080610752906155e0565b915050610696565b508091505090565b60006001600354146107a9576040517f08c379a00000000000000000000000000000000000000000000000000000000081526004016107a090615192565b60405180910390fd5b6000600381905550600015156107c56107c0613b2d565b613b35565b151514610807576040517f08c379a00000000000000000000000000000000000000000000000000000000081526004016107fe906151d2565b60405180910390fd5b6000600860008481526020019081526020016000206002015411610860576040517f08c379a000000000000000000000000000000000000000000000000000000000815260040161085790614eb2565b60405180910390fd5b600115156008600084815260200190815260200160002060070160029054906101000a900460ff161515146108ca576040517f08c379a00000000000000000000000000000000000000000000000000000000081526004016108c190615072565b60405180910390fd5b600015156008600084815260200190815260200160002060070160039054906101000a900460ff16151514610934576040517f08c379a000000000000000000000000000000000000000000000000000000000815260040161092b90614f52565b60405180910390fd5b61093c613b2d565b73ffffffffffffffffffffffffffffffffffffffff166008600084815260200190815260200160002060050160009054906101000a900473ffffffffffffffffffffffffffffffffffffffff1673ffffffffffffffffffffffffffffffffffffffff16146109df576040517f08c379a00000000000000000000000000000000000000000000000000000000081526004016109d690615172565b60405180910390fd5b60016008600084815260200190815260200160002060070160036101000a81548160ff0219169083151502179055506000600860008481526020019081526020016000206002015490506000600860008581526020019081526020016000206006015490506000610a6f600b54610a6161271086613b4890919063ffffffff16565b613b5e90919063ffffffff16565b90506000610a9c600b54610a8e61271086613b4890919063ffffffff16565b613b5e90919063ffffffff16565b9050610ac5610ab48284613b7490919063ffffffff16565b600a54613b7490919063ffffffff16565b600a81905550610b606008600088815260200190815260200160002060030160009054906101000a900473ffffffffffffffffffffffffffffffffffffffff16610b188487613b8a90919063ffffffff16565b600260009054906101000a900473ffffffffffffffffffffffffffffffffffffffff1673ffffffffffffffffffffffffffffffffffffffff16613ba09092919063ffffffff16565b610bf56008600088815260200190815260200160002060050160009054906101000a900473ffffffffffffffffffffffffffffffffffffffff16610bad8386613b8a90919063ffffffff16565b600260009054906101000a900473ffffffffffffffffffffffffffffffffffffffff1673ffffffffffffffffffffffffffffffffffffffff16613ba09092919063ffffffff16565b60019450505050506001600381905550919050565b6000610c14613b2d565b73ffffffffffffffffffffffffffffffffffffffff16610c32612b85565b73ffffffffffffffffffffffffffffffffffffffff1614610c88576040517f08c379a0000000000000000000000000000000000000000000000000000000008152600401610c7f90614ff2565b60405180910390fd5b6127108210610ccc576040517f08c379a0000000000000000000000000000000000000000000000000000000008152600401610cc390614f92565b60405180910390fd5b81600b8190555060019050919050565b6000600160035414610d23576040517f08c379a0000000000000000000000000000000000000000000000000000000008152600401610d1a90615192565b60405180910390fd5b600060038190555060001515610d3f610d3a613b2d565b613b35565b151514610d81576040517f08c379a0000000000000000000000000000000000000000000000000000000008152600401610d78906151d2565b60405180910390fd5b6000600860008481526020019081526020016000206002015411610dda576040517f08c379a0000000000000000000000000000000000000000000000000000000008152600401610dd190614eb2565b60405180910390fd5b600115156008600084815260200190815260200160002060070160019054906101000a900460ff16151514610e44576040517f08c379a0000000000000000000000000000000000000000000000000000000008152600401610e3b90615132565b60405180910390fd5b600015156008600084815260200190815260200160002060070160029054906101000a900460ff16151514610eae576040517f08c379a0000000000000000000000000000000000000000000000000000000008152600401610ea590614ef2565b60405180910390fd5b610eb6613b2d565b73ffffffffffffffffffffffffffffffffffffffff166008600084815260200190815260200160002060030160009054906101000a900473ffffffffffffffffffffffffffffffffffffffff1673ffffffffffffffffffffffffffffffffffffffff1614610f59576040517f08c379a0000000000000000000000000000000000000000000000000000000008152600401610f5090615172565b60405180910390fd5b60016008600084815260200190815260200160002060070160026101000a81548160ff021916908315150217905550600190506001600381905550919050565b6006602052816000526040600020602052806000526040600020600091509150505481565b600a5481565b600080600860008581526020019081526020016000206040518061018001604052908160008201548152602001600182018054611000906155ae565b80601f016020809104026020016040519081016040528092919081815260200182805461102c906155ae565b80156110795780601f1061104e57610100808354040283529160200191611079565b820191906000526020600020905b81548152906001019060200180831161105c57829003601f168201915b50505050508152602001600282015481526020016003820160009054906101000a900473ffffffffffffffffffffffffffffffffffffffff1673ffffffffffffffffffffffffffffffffffffffff1673ffffffffffffffffffffffffffffffffffffffff1681526020016004820160009054906101000a900473ffffffffffffffffffffffffffffffffffffffff1673ffffffffffffffffffffffffffffffffffffffff1673ffffffffffffffffffffffffffffffffffffffff1681526020016005820160009054906101000a900473ffffffffffffffffffffffffffffffffffffffff1673ffffffffffffffffffffffffffffffffffffffff1673ffffffffffffffffffffffffffffffffffffffff168152602001600682015481526020016007820160009054906101000a900460ff161515151581526020016007820160019054906101000a900460ff161515151581526020016007820160029054906101000a900460ff161515151581526020016007820160039054906101000a900460ff1615151515815260200160088201548152505090506000816040015111611257576040517f08c379a000000000000000000000000000000000000000000000000000000000815260040161124e90614eb2565b60405180910390fd5b61125f613b2d565b73ffffffffffffffffffffffffffffffffffffffff16816060015173ffffffffffffffffffffffffffffffffffffffff16146112d0576040517f08c379a00000000000000000000000000000000000000000000000000000000081526004016112c7906151f2565b60405180910390fd5b600015158160e0015115151461131b576040517f08c379a000000000000000000000000000000000000000000000000000000000815260040161131290614e72565b60405180910390fd5b82816080019073ffffffffffffffffffffffffffffffffffffffff16908173ffffffffffffffffffffffffffffffffffffffff1681525050806008600086815260200190815260200160002060008201518160000155602082015181600101908051906020019061138d929190613fcd565b506040820151816002015560608201518160030160006101000a81548173ffffffffffffffffffffffffffffffffffffffff021916908373ffffffffffffffffffffffffffffffffffffffff16021790555060808201518160040160006101000a81548173ffffffffffffffffffffffffffffffffffffffff021916908373ffffffffffffffffffffffffffffffffffffffff16021790555060a08201518160050160006101000a81548173ffffffffffffffffffffffffffffffffffffffff021916908373ffffffffffffffffffffffffffffffffffffffff16021790555060c0820151816006015560e08201518160070160006101000a81548160ff0219169083151502179055506101008201518160070160016101000a81548160ff0219169083151502179055506101208201518160070160026101000a81548160ff0219169083151502179055506101408201518160070160036101000a81548160ff0219169083151502179055506101608201518160080155905050600191505092915050565b600060016003541461155a576040517f08c379a000000000000000000000000000000000000000000000000000000000815260040161155190615192565b60405180910390fd5b600060038190555060001515611576611571613b2d565b613b35565b1515146115b8576040517f08c379a00000000000000000000000000000000000000000000000000000000081526004016115af906151d2565b60405180910390fd5b600560006115c4613b2d565b73ffffffffffffffffffffffffffffffffffffffff1673ffffffffffffffffffffffffffffffffffffffff16815260200190815260200160002060009054906101000a900460ff161561164c576040517f08c379a000000000000000000000000000000000000000000000000000000000815260040161164390614fd2565b60405180910390fd5b600073ffffffffffffffffffffffffffffffffffffffff166008600084815260200190815260200160002060030160009054906101000a900473ffffffffffffffffffffffffffffffffffffffff1673ffffffffffffffffffffffffffffffffffffffff1614156116f2576040517f08c379a00000000000000000000000000000000000000000000000000000000081526004016116e990615092565b60405180910390fd5b600060086000848152602001908152602001600020600201541161174b576040517f08c379a000000000000000000000000000000000000000000000000000000000815260040161174290614eb2565b60405180910390fd5b600015156008600084815260200190815260200160002060070160009054906101000a900460ff161515146117b5576040517f08c379a00000000000000000000000000000000000000000000000000000000081526004016117ac90614e72565b60405180910390fd5b600073ffffffffffffffffffffffffffffffffffffffff166008600084815260200190815260200160002060040160009054906101000a900473ffffffffffffffffffffffffffffffffffffffff1673ffffffffffffffffffffffffffffffffffffffff16146118cb57611827613b2d565b73ffffffffffffffffffffffffffffffffffffffff166008600084815260200190815260200160002060040160009054906101000a900473ffffffffffffffffffffffffffffffffffffffff1673ffffffffffffffffffffffffffffffffffffffff16146118ca576040517f08c379a00000000000000000000000000000000000000000000000000000000081526004016118c1906150b2565b60405180910390fd5b5b600061190a60016118fc60036008600088815260200190815260200160002060020154613b4890919063ffffffff16565b613b5e90919063ffffffff16565b905080600260009054906101000a900473ffffffffffffffffffffffffffffffffffffffff1673ffffffffffffffffffffffffffffffffffffffff166370a08231611953613b2d565b6040518263ffffffff1660e01b815260040161196f9190614d6f565b60206040518083038186803b15801561198757600080fd5b505afa15801561199b573d6000803e3d6000fd5b505050506040513d601f19601f820116820180604052508101906119bf91906143b3565b1015611a00576040517f08c379a00000000000000000000000000000000000000000000000000000000081526004016119f790614f32565b60405180910390fd5b80600260009054906101000a900473ffffffffffffffffffffffffffffffffffffffff1673ffffffffffffffffffffffffffffffffffffffff1663dd62ed3e611a47613b2d565b306040518363ffffffff1660e01b8152600401611a65929190614d8a565b60206040518083038186803b158015611a7d57600080fd5b505afa158015611a91573d6000803e3d6000fd5b505050506040513d601f19601f82011682018060405250810190611ab591906143b3565b1015611af6576040517f08c379a0000000000000000000000000000000000000000000000000000000008152600401611aed90615012565b60405180910390fd5b611b4c611b01613b2d565b3083600260009054906101000a900473ffffffffffffffffffffffffffffffffffffffff1673ffffffffffffffffffffffffffffffffffffffff16613c26909392919063ffffffff16565b600073ffffffffffffffffffffffffffffffffffffffff166008600085815260200190815260200160002060050160009054906101000a900473ffffffffffffffffffffffffffffffffffffffff1673ffffffffffffffffffffffffffffffffffffffff1614611c5057611c4f6008600085815260200190815260200160002060050160009054906101000a900473ffffffffffffffffffffffffffffffffffffffff166008600086815260200190815260200160002060060154600260009054906101000a900473ffffffffffffffffffffffffffffffffffffffff1673ffffffffffffffffffffffffffffffffffffffff16613ba09092919063ffffffff16565b5b611c58613b2d565b6008600085815260200190815260200160002060050160006101000a81548173ffffffffffffffffffffffffffffffffffffffff021916908373ffffffffffffffffffffffffffffffffffffffff16021790555080600860008581526020019081526020016000206006018190555060019150506001600381905550919050565b6000611ce3613b2d565b73ffffffffffffffffffffffffffffffffffffffff16611d01612b85565b73ffffffffffffffffffffffffffffffffffffffff1614611d57576040517f08c379a0000000000000000000000000000000000000000000000000000000008152600401611d4e90614ff2565b60405180910390fd5b600160035414611d9c576040517f08c379a0000000000000000000000000000000000000000000000000000000008152600401611d9390615192565b60405180910390fd5b600060038190555060001515611db8611db3613b2d565b613b35565b151514611dfa576040517f08c379a0000000000000000000000000000000000000000000000000000000008152600401611df190614f72565b60405180910390fd5b60001515611e0783613b35565b151514611e49576040517f08c379a0000000000000000000000000000000000000000000000000000000008152600401611e4090615032565b60405180910390fd5b611e9882600a54600260009054906101000a900473ffffffffffffffffffffffffffffffffffffffff1673ffffffffffffffffffffffffffffffffffffffff16613ba09092919063ffffffff16565b6000600a81905550600190506001600381905550919050565b6000600160035414611ef8576040517f08c379a0000000000000000000000000000000000000000000000000000000008152600401611eef90615192565b60405180910390fd5b600060038190555060001515611f14611f0f613b2d565b613b35565b151514611f56576040517f08c379a0000000000000000000000000000000000000000000000000000000008152600401611f4d906151d2565b60405180910390fd5b600073ffffffffffffffffffffffffffffffffffffffff166008600084815260200190815260200160002060030160009054906101000a900473ffffffffffffffffffffffffffffffffffffffff1673ffffffffffffffffffffffffffffffffffffffff161415611ffc576040517f08c379a0000000000000000000000000000000000000000000000000000000008152600401611ff390615092565b60405180910390fd5b612004613b2d565b73ffffffffffffffffffffffffffffffffffffffff166008600084815260200190815260200160002060050160009054906101000a900473ffffffffffffffffffffffffffffffffffffffff1673ffffffffffffffffffffffffffffffffffffffff16146120a7576040517f08c379a000000000000000000000000000000000000000000000000000000000815260040161209e906150f2565b60405180910390fd5b600015156008600084815260200190815260200160002060070160019054906101000a900460ff16151514612111576040517f08c379a000000000000000000000000000000000000000000000000000000000815260040161210890614fb2565b60405180910390fd5b600060086000848152602001908152602001600020600601541161216a576040517f08c379a000000000000000000000000000000000000000000000000000000000815260040161216190614eb2565b60405180910390fd5b60006008600084815260200190815260200160002060020154905060006008600085815260200190815260200160002060060154905060006121cb600c546121bd61271085613b4890919063ffffffff16565b613b5e90919063ffffffff16565b90506122506008600087815260200190815260200160002060030160009054906101000a900473ffffffffffffffffffffffffffffffffffffffff1684600260009054906101000a900473ffffffffffffffffffffffffffffffffffffffff1673ffffffffffffffffffffffffffffffffffffffff16613ba09092919063ffffffff16565b6122e56008600087815260200190815260200160002060050160009054906101000a900473ffffffffffffffffffffffffffffffffffffffff1661229d8385613b8a90919063ffffffff16565b600260009054906101000a900473ffffffffffffffffffffffffffffffffffffffff1673ffffffffffffffffffffffffffffffffffffffff16613ba09092919063ffffffff16565b6000600860008781526020019081526020016000206002018190555060006008600087815260200190815260200160002060060181905550600193505050506001600381905550919050565b600860205280600052604060002060009150905080600001549080600101805461235a906155ae565b80601f0160208091040260200160405190810160405280929190818152602001828054612386906155ae565b80156123d35780601f106123a8576101008083540402835291602001916123d3565b820191906000526020600020905b8154815290600101906020018083116123b657829003601f168201915b5050505050908060020154908060030160009054906101000a900473ffffffffffffffffffffffffffffffffffffffff16908060040160009054906101000a900473ffffffffffffffffffffffffffffffffffffffff16908060050160009054906101000a900473ffffffffffffffffffffffffffffffffffffffff16908060060154908060070160009054906101000a900460ff16908060070160019054906101000a900460ff16908060070160029054906101000a900460ff16908060070160039054906101000a900460ff1690806008015490508c565b60095481565b600260009054906101000a900473ffffffffffffffffffffffffffffffffffffffff1681565b6124e1613b2d565b73ffffffffffffffffffffffffffffffffffffffff166124ff612b85565b73ffffffffffffffffffffffffffffffffffffffff1614612555576040517f08c379a000000000000000000000000000000000000000000000000000000000815260040161254c90614ff2565b60405180910390fd5b61255f6000613caf565b565b600b5481565b6000612571613b2d565b73ffffffffffffffffffffffffffffffffffffffff1661258f612b85565b73ffffffffffffffffffffffffffffffffffffffff16146125e5576040517f08c379a00000000000000000000000000000000000000000000000000000000081526004016125dc90614ff2565b60405180910390fd5b60008251905060005b818110156126b95783818151811061262f577f4e487b7100000000000000000000000000000000000000000000000000000000600052603260045260246000fd5b6020026020010151600d6000600e54815260200190815260200160002060006101000a81548173ffffffffffffffffffffffffffffffffffffffff021916908373ffffffffffffffffffffffffffffffffffffffff1602179055506126a06001600e54613b7490919063ffffffff16565b600e8190555080806126b1906155e0565b9150506125ee565b507fea18aefa6a211cd0d31a5b0d73c6ef56cab82a44d3108099be5f52baa1bec0db836040516126e99190614e13565b60405180910390a16001915050919050565b6000600160035414612742576040517f08c379a000000000000000000000000000000000000000000000000000000000815260040161273990615192565b60405180910390fd5b60006003819055506000151561275e612759613b2d565b613b35565b1515146127a0576040517f08c379a0000000000000000000000000000000000000000000000000000000008152600401612797906151d2565b60405180910390fd5b600073ffffffffffffffffffffffffffffffffffffffff166008600084815260200190815260200160002060030160009054906101000a900473ffffffffffffffffffffffffffffffffffffffff1673ffffffffffffffffffffffffffffffffffffffff161415612846576040517f08c379a000000000000000000000000000000000000000000000000000000000815260040161283d90615092565b60405180910390fd5b600060086000848152602001908152602001600020600201541161289f576040517f08c379a000000000000000000000000000000000000000000000000000000000815260040161289690614eb2565b60405180910390fd5b600015156008600084815260200190815260200160002060070160019054906101000a900460ff16151514612909576040517f08c379a000000000000000000000000000000000000000000000000000000000815260040161290090614fb2565b60405180910390fd5b612911613b2d565b73ffffffffffffffffffffffffffffffffffffffff166008600084815260200190815260200160002060030160009054906101000a900473ffffffffffffffffffffffffffffffffffffffff1673ffffffffffffffffffffffffffffffffffffffff16146129b4576040517f08c379a00000000000000000000000000000000000000000000000000000000081526004016129ab906150f2565b60405180910390fd5b6000600860008481526020019081526020016000206002015490506000600860008581526020019081526020016000206006015490506000612a15600c54612a0761271086613b4890919063ffffffff16565b613b5e90919063ffffffff16565b9050612aac6008600087815260200190815260200160002060030160009054906101000a900473ffffffffffffffffffffffffffffffffffffffff16612a648386613b8a90919063ffffffff16565b600260009054906101000a900473ffffffffffffffffffffffffffffffffffffffff1673ffffffffffffffffffffffffffffffffffffffff16613ba09092919063ffffffff16565b6000821115612b3957612b386008600087815260200190815260200160002060050160009054906101000a900473ffffffffffffffffffffffffffffffffffffffff1683600260009054906101000a900473ffffffffffffffffffffffffffffffffffffffff1673ffffffffffffffffffffffffffffffffffffffff16613ba09092919063ffffffff16565b5b6000600860008781526020019081526020016000206002018190555060006008600087815260200190815260200160002060060181905550600193505050506001600381905550919050565b60008060009054906101000a900473ffffffffffffffffffffffffffffffffffffffff16905090565b600080600090505b600e54811015612c44578273ffffffffffffffffffffffffffffffffffffffff16600d600083815260200190815260200160002060009054906101000a900473ffffffffffffffffffffffffffffffffffffffff1673ffffffffffffffffffffffffffffffffffffffff161415612c31576001915050612c4a565b8080612c3c906155e0565b915050612bb6565b50600090505b919050565b600060026001541415612c97576040517f08c379a0000000000000000000000000000000000000000000000000000000008152600401612c8e906151b2565b60405180910390fd5b600260018190555060001515612cb3612cae613b2d565b613b35565b151514612cf5576040517f08c379a0000000000000000000000000000000000000000000000000000000008152600401612cec906151d2565b60405180910390fd5b60056000612d01613b2d565b73ffffffffffffffffffffffffffffffffffffffff1673ffffffffffffffffffffffffffffffffffffffff16815260200190815260200160002060009054906101000a900460ff1615612d89576040517f08c379a0000000000000000000000000000000000000000000000000000000008152600401612d8090614fd2565b60405180910390fd5b670de0b6b3a76400008310158015612da2575060045483105b612de1576040517f08c379a0000000000000000000000000000000000000000000000000000000008152600401612dd890614f12565b60405180910390fd5b82600260009054906101000a900473ffffffffffffffffffffffffffffffffffffffff1673ffffffffffffffffffffffffffffffffffffffff166370a08231612e28613b2d565b6040518263ffffffff1660e01b8152600401612e449190614d6f565b60206040518083038186803b158015612e5c57600080fd5b505afa158015612e70573d6000803e3d6000fd5b505050506040513d601f19601f82011682018060405250810190612e9491906143b3565b1015612ed5576040517f08c379a0000000000000000000000000000000000000000000000000000000008152600401612ecc90614f32565b60405180910390fd5b82600260009054906101000a900473ffffffffffffffffffffffffffffffffffffffff1673ffffffffffffffffffffffffffffffffffffffff1663dd62ed3e612f1c613b2d565b306040518363ffffffff1660e01b8152600401612f3a929190614d8a565b60206040518083038186803b158015612f5257600080fd5b505afa158015612f66573d6000803e3d6000fd5b505050506040513d601f19601f82011682018060405250810190612f8a91906143b3565b1015612fcb576040517f08c379a0000000000000000000000000000000000000000000000000000000008152600401612fc290615012565b60405180910390fd5b613021612fd6613b2d565b3085600260009054906101000a900473ffffffffffffffffffffffffffffffffffffffff1673ffffffffffffffffffffffffffffffffffffffff16613c26909392919063ffffffff16565b613029614053565b60095481600001818152505085858080601f016020809104026020016040519081016040528093929190818152602001838380828437600081840152601f19601f82011690508083019250505050505050816020018190525083816040018181525050613094613b2d565b816060019073ffffffffffffffffffffffffffffffffffffffff16908173ffffffffffffffffffffffffffffffffffffffff168152505082816080019073ffffffffffffffffffffffffffffffffffffffff16908173ffffffffffffffffffffffffffffffffffffffff1681525050428161016001818152505060006007600061311c613b2d565b73ffffffffffffffffffffffffffffffffffffffff1673ffffffffffffffffffffffffffffffffffffffff16815260200190815260200160002054905081600001516006600061316a613b2d565b73ffffffffffffffffffffffffffffffffffffffff1673ffffffffffffffffffffffffffffffffffffffff168152602001908152602001600020600083815260200190815260200160002081905550816008600060095481526020019081526020016000206000820151816000015560208201518160010190805190602001906131f5929190613fcd565b506040820151816002015560608201518160030160006101000a81548173ffffffffffffffffffffffffffffffffffffffff021916908373ffffffffffffffffffffffffffffffffffffffff16021790555060808201518160040160006101000a81548173ffffffffffffffffffffffffffffffffffffffff021916908373ffffffffffffffffffffffffffffffffffffffff16021790555060a08201518160050160006101000a81548173ffffffffffffffffffffffffffffffffffffffff021916908373ffffffffffffffffffffffffffffffffffffffff16021790555060c0820151816006015560e08201518160070160006101000a81548160ff0219169083151502179055506101008201518160070160016101000a81548160ff0219169083151502179055506101208201518160070160026101000a81548160ff0219169083151502179055506101408201518160070160036101000a81548160ff02191690831515021790555061016082015181600801559050506133866001600954613b7490919063ffffffff16565b6009819055506133a0600182613b7490919063ffffffff16565b600760006133ac613b2d565b73ffffffffffffffffffffffffffffffffffffffff1673ffffffffffffffffffffffffffffffffffffffff168152602001908152602001600020819055507ff3eca64f88f6dcdf7a200ef774f0a8f763cbf0687459d5a508c1fbb2541dbce18260000151836060015184602001518560400151866080015187610160015160405161343c9695949392919061522d565b60405180910390a160019250505060018081905550949350505050565b60006001600354146134a0576040517f08c379a000000000000000000000000000000000000000000000000000000000815260040161349790615192565b60405180910390fd5b6000600381905550600015156134bc6134b7613b2d565b613b35565b1515146134fe576040517f08c379a00000000000000000000000000000000000000000000000000000000081526004016134f5906151d2565b60405180910390fd5b6000600860008481526020019081526020016000206002015411613557576040517f08c379a000000000000000000000000000000000000000000000000000000000815260040161354e90614eb2565b60405180910390fd5b600015156008600084815260200190815260200160002060070160009054906101000a900460ff161515146135c1576040517f08c379a00000000000000000000000000000000000000000000000000000000081526004016135b890614e72565b60405180910390fd5b600073ffffffffffffffffffffffffffffffffffffffff166008600084815260200190815260200160002060050160009054906101000a900473ffffffffffffffffffffffffffffffffffffffff1673ffffffffffffffffffffffffffffffffffffffff161415613667576040517f08c379a000000000000000000000000000000000000000000000000000000000815260040161365e90615152565b60405180910390fd5b61366f613b2d565b73ffffffffffffffffffffffffffffffffffffffff166008600084815260200190815260200160002060030160009054906101000a900473ffffffffffffffffffffffffffffffffffffffff1673ffffffffffffffffffffffffffffffffffffffff1614613712576040517f08c379a000000000000000000000000000000000000000000000000000000000815260040161370990615172565b60405180910390fd5b60016008600084815260200190815260200160002060070160006101000a81548160ff021916908315150217905550600190506001600381905550919050565b60056020528060005260406000206000915054906101000a900460ff1681565b600e5481565b60006001600354146137bf576040517f08c379a00000000000000000000000000000000000000000000000000000000081526004016137b690615192565b60405180910390fd5b6000600381905550600015156137db6137d6613b2d565b613b35565b15151461381d576040517f08c379a0000000000000000000000000000000000000000000000000000000008152600401613814906151d2565b60405180910390fd5b6000600860008481526020019081526020016000206002015411613876576040517f08c379a000000000000000000000000000000000000000000000000000000000815260040161386d90614eb2565b60405180910390fd5b600115156008600084815260200190815260200160002060070160009054906101000a900460ff161515146138e0576040517f08c379a00000000000000000000000000000000000000000000000000000000081526004016138d790615052565b60405180910390fd5b600015156008600084815260200190815260200160002060070160019054906101000a900460ff1615151461394a576040517f08c379a000000000000000000000000000000000000000000000000000000000815260040161394190614fb2565b60405180910390fd5b613952613b2d565b73ffffffffffffffffffffffffffffffffffffffff166008600084815260200190815260200160002060050160009054906101000a900473ffffffffffffffffffffffffffffffffffffffff1673ffffffffffffffffffffffffffffffffffffffff16146139f5576040517f08c379a00000000000000000000000000000000000000000000000000000000081526004016139ec90615172565b60405180910390fd5b60016008600084815260200190815260200160002060070160016101000a81548160ff021916908315150217905550600190506001600381905550919050565b613a3d613b2d565b73ffffffffffffffffffffffffffffffffffffffff16613a5b612b85565b73ffffffffffffffffffffffffffffffffffffffff1614613ab1576040517f08c379a0000000000000000000000000000000000000000000000000000000008152600401613aa890614ff2565b60405180910390fd5b600073ffffffffffffffffffffffffffffffffffffffff168173ffffffffffffffffffffffffffffffffffffffff161415613b21576040517f08c379a0000000000000000000000000000000000000000000000000000000008152600401613b1890614e92565b60405180910390fd5b613b2a81613caf565b50565b600033905090565b600080823b905060008111915050919050565b60008183613b569190615474565b905092915050565b60008183613b6c91906154a5565b905092915050565b60008183613b82919061541e565b905092915050565b60008183613b9891906154ff565b905092915050565b613c218363a9059cbb60e01b8484604051602401613bbf929190614dea565b604051602081830303815290604052907bffffffffffffffffffffffffffffffffffffffffffffffffffffffff19166020820180517bffffffffffffffffffffffffffffffffffffffffffffffffffffffff8381831617835250505050613d73565b505050565b613ca9846323b872dd60e01b858585604051602401613c4793929190614db3565b604051602081830303815290604052907bffffffffffffffffffffffffffffffffffffffffffffffffffffffff19166020820180517bffffffffffffffffffffffffffffffffffffffffffffffffffffffff8381831617835250505050613d73565b50505050565b60008060009054906101000a900473ffffffffffffffffffffffffffffffffffffffff169050816000806101000a81548173ffffffffffffffffffffffffffffffffffffffff021916908373ffffffffffffffffffffffffffffffffffffffff1602179055508173ffffffffffffffffffffffffffffffffffffffff168173ffffffffffffffffffffffffffffffffffffffff167f8be0079c531659141344cd1fd0a4f28419497f9722a3daafe3b4186f6b6457e060405160405180910390a35050565b6000613dd5826040518060400160405280602081526020017f5361666545524332303a206c6f772d6c6576656c2063616c6c206661696c65648152508573ffffffffffffffffffffffffffffffffffffffff16613e3a9092919063ffffffff16565b9050600081511115613e355780806020019051810190613df591906142f5565b613e34576040517f08c379a0000000000000000000000000000000000000000000000000000000008152600401613e2b90615112565b60405180910390fd5b5b505050565b6060613e498484600085613e52565b90509392505050565b606082471015613e97576040517f08c379a0000000000000000000000000000000000000000000000000000000008152600401613e8e90614ed2565b60405180910390fd5b613ea085613b35565b613edf576040517f08c379a0000000000000000000000000000000000000000000000000000000008152600401613ed6906150d2565b60405180910390fd5b6000808673ffffffffffffffffffffffffffffffffffffffff168587604051613f089190614d58565b60006040518083038185875af1925050503d8060008114613f45576040519150601f19603f3d011682016040523d82523d6000602084013e613f4a565b606091505b5091509150613f5a828286613f66565b92505050949350505050565b60608315613f7657829050613fc6565b600083511115613f895782518084602001fd5b816040517f08c379a0000000000000000000000000000000000000000000000000000000008152600401613fbd9190614e50565b60405180910390fd5b9392505050565b828054613fd9906155ae565b90600052602060002090601f016020900481019282613ffb5760008555614042565b82601f1061401457805160ff1916838001178555614042565b82800160010185558215614042579182015b82811115614041578251825591602001919060010190614026565b5b50905061404f91906140fe565b5090565b604051806101800160405280600081526020016060815260200160008152602001600073ffffffffffffffffffffffffffffffffffffffff168152602001600073ffffffffffffffffffffffffffffffffffffffff168152602001600073ffffffffffffffffffffffffffffffffffffffff16815260200160008152602001600015158152602001600015158152602001600015158152602001600015158152602001600081525090565b5b808211156141175760008160009055506001016140ff565b5090565b600061412e61412984615387565b615356565b9050808382526020820190508285602086028201111561414d57600080fd5b60005b8581101561417d57816141638882614187565b845260208401935060208301925050600181019050614150565b5050509392505050565b600081359050614196816156f6565b92915050565b600082601f8301126141ad57600080fd5b81356141bd84826020860161411b565b91505092915050565b6000815190506141d58161570d565b92915050565b60008083601f8401126141ed57600080fd5b8235905067ffffffffffffffff81111561420657600080fd5b60208301915083600182028301111561421e57600080fd5b9250929050565b60008135905061423481615724565b92915050565b60008151905061424981615724565b92915050565b60006020828403121561426157600080fd5b600061426f84828501614187565b91505092915050565b6000806040838503121561428b57600080fd5b600061429985828601614187565b92505060206142aa85828601614225565b9150509250929050565b6000602082840312156142c657600080fd5b600082013567ffffffffffffffff8111156142e057600080fd5b6142ec8482850161419c565b91505092915050565b60006020828403121561430757600080fd5b6000614315848285016141c6565b91505092915050565b6000806000806060858703121561433457600080fd5b600085013567ffffffffffffffff81111561434e57600080fd5b61435a878288016141db565b9450945050602061436d87828801614225565b925050604061437e87828801614187565b91505092959194509250565b60006020828403121561439c57600080fd5b60006143aa84828501614225565b91505092915050565b6000602082840312156143c557600080fd5b60006143d38482850161423a565b91505092915050565b600080604083850312156143ef57600080fd5b60006143fd85828601614225565b925050602061440e85828601614187565b9150509250929050565b60006144248383614430565b60208301905092915050565b61443981615533565b82525050565b61444881615533565b82525050565b6000614459826153c3565b61446381856153f1565b935061446e836153b3565b8060005b8381101561449f5781516144868882614418565b9750614491836153e4565b925050600181019050614472565b5085935050505092915050565b6144b581615545565b82525050565b60006144c6826153ce565b6144d08185615402565b93506144e081856020860161557b565b80840191505092915050565b60006144f7826153d9565b614501818561540d565b935061451181856020860161557b565b61451a816156e5565b840191505092915050565b6000614532600b8361540d565b91507f73656c6c204c6f636b65640000000000000000000000000000000000000000006000830152602082019050919050565b600061457260268361540d565b91507f4f776e61626c653a206e6577206f776e657220697320746865207a65726f206160008301527f64647265737300000000000000000000000000000000000000000000000000006020830152604082019050919050565b60006145d8600b8361540d565b91507f63616e63656c206f6465720000000000000000000000000000000000000000006000830152602082019050919050565b600061461860268361540d565b91507f416464726573733a20696e73756666696369656e742062616c616e636520666f60008301527f722063616c6c00000000000000000000000000000000000000000000000000006020830152604082019050919050565b600061467e600c8361540d565b91507f52656365697665642055534400000000000000000000000000000000000000006000830152602082019050919050565b60006146be603f8361540d565b91507f42757920416d6f756e74206f7574206f662072616e6765206d7573742062652060008301527f6d6f7265207468616e2031206c657373207468616e204d4158416d6f756e74006020830152604082019050919050565b6000614724603c8361540d565b91507f546865206e756d626572206f662072656d61696e696e6720746f6b656e73206960008301527f6e207468652073656c6c657220697320696e73756666696369656e74000000006020830152604082019050919050565b600061478a600f8361540d565b91507f5265636569766564204f626a65637400000000000000000000000000000000006000830152602082019050919050565b60006147ca60118361540d565b91507f73656e646572206e6f742068756e6d616e0000000000000000000000000000006000830152602082019050919050565b600061480a60138361540d565b91507f5f747872617465206d757374203c3130303030000000000000000000000000006000830152602082019050919050565b600061484a600a8361540d565b91507f627579204c6f636b6564000000000000000000000000000000000000000000006000830152602082019050919050565b600061488a600f8361540d565b91507f5472616e73616374696f6e2062616e00000000000000000000000000000000006000830152602082019050919050565b60006148ca60208361540d565b91507f4f776e61626c653a2063616c6c6572206973206e6f7420746865206f776e65726000830152602082019050919050565b600061490a60268361540d565b91507f496e73756666696369656e74206e756d626572206f662065757364742061707060008301527f726f76616c7300000000000000000000000000000000000000000000000000006020830152604082019050919050565b600061497060158361540d565b91507f746f2061646472657373206e6f742068756e6d616e00000000000000000000006000830152602082019050919050565b60006149b0600d8361540d565b91507f73656c6c20556e4c6f636b6564000000000000000000000000000000000000006000830152602082019050919050565b60006149f060108361540d565b91507f4e6f7420526563656976656420555344000000000000000000000000000000006000830152602082019050919050565b6000614a3060098361540d565b91507f6e756c6c206f64657200000000000000000000000000000000000000000000006000830152602082019050919050565b6000614a7060168361540d565b91507f796f7520617265206e6f7420616c6c6f776275796572000000000000000000006000830152602082019050919050565b6000614ab0601d8361540d565b91507f416464726573733a2063616c6c20746f206e6f6e2d636f6e74726163740000006000830152602082019050919050565b6000614af0600e8361540d565b91507f6e6f74206f646572206f776e65720000000000000000000000000000000000006000830152602082019050919050565b6000614b30602a8361540d565b91507f5361666545524332303a204552433230206f7065726174696f6e20646964206e60008301527f6f742073756363656564000000000000000000000000000000000000000000006020830152604082019050919050565b6000614b96600c8361540d565b91507f62757920556e4c6f636b656400000000000000000000000000000000000000006000830152602082019050919050565b6000614bd660138361540d565b91507f62757965722063616e206e6f7420656d707479000000000000000000000000006000830152602082019050919050565b6000614c16600a8361540d565b91507f6e6f742073656c6c6572000000000000000000000000000000000000000000006000830152602082019050919050565b6000614c5660068361540d565b91507f4c4f434b454400000000000000000000000000000000000000000000000000006000830152602082019050919050565b6000614c96601f8361540d565b91507f5265656e7472616e637947756172643a207265656e7472616e742063616c6c006000830152602082019050919050565b6000614cd6600a8361540d565b91507f6e6f742068756e6d616e000000000000000000000000000000000000000000006000830152602082019050919050565b6000614d1660098361540d565b91507f6e6f74206f776e657200000000000000000000000000000000000000000000006000830152602082019050919050565b614d5281615571565b82525050565b6000614d6482846144bb565b915081905092915050565b6000602082019050614d84600083018461443f565b92915050565b6000604082019050614d9f600083018561443f565b614dac602083018461443f565b9392505050565b6000606082019050614dc8600083018661443f565b614dd5602083018561443f565b614de26040830184614d49565b949350505050565b6000604082019050614dff600083018561443f565b614e0c6020830184614d49565b9392505050565b60006020820190508181036000830152614e2d818461444e565b905092915050565b6000602082019050614e4a60008301846144ac565b92915050565b60006020820190508181036000830152614e6a81846144ec565b905092915050565b60006020820190508181036000830152614e8b81614525565b9050919050565b60006020820190508181036000830152614eab81614565565b9050919050565b60006020820190508181036000830152614ecb816145cb565b9050919050565b60006020820190508181036000830152614eeb8161460b565b9050919050565b60006020820190508181036000830152614f0b81614671565b9050919050565b60006020820190508181036000830152614f2b816146b1565b9050919050565b60006020820190508181036000830152614f4b81614717565b9050919050565b60006020820190508181036000830152614f6b8161477d565b9050919050565b60006020820190508181036000830152614f8b816147bd565b9050919050565b60006020820190508181036000830152614fab816147fd565b9050919050565b60006020820190508181036000830152614fcb8161483d565b9050919050565b60006020820190508181036000830152614feb8161487d565b9050919050565b6000602082019050818103600083015261500b816148bd565b9050919050565b6000602082019050818103600083015261502b816148fd565b9050919050565b6000602082019050818103600083015261504b81614963565b9050919050565b6000602082019050818103600083015261506b816149a3565b9050919050565b6000602082019050818103600083015261508b816149e3565b9050919050565b600060208201905081810360008301526150ab81614a23565b9050919050565b600060208201905081810360008301526150cb81614a63565b9050919050565b600060208201905081810360008301526150eb81614aa3565b9050919050565b6000602082019050818103600083015261510b81614ae3565b9050919050565b6000602082019050818103600083015261512b81614b23565b9050919050565b6000602082019050818103600083015261514b81614b89565b9050919050565b6000602082019050818103600083015261516b81614bc9565b9050919050565b6000602082019050818103600083015261518b81614c09565b9050919050565b600060208201905081810360008301526151ab81614c49565b9050919050565b600060208201905081810360008301526151cb81614c89565b9050919050565b600060208201905081810360008301526151eb81614cc9565b9050919050565b6000602082019050818103600083015261520b81614d09565b9050919050565b60006020820190506152276000830184614d49565b92915050565b600060c0820190506152426000830189614d49565b61524f602083018861443f565b818103604083015261526181876144ec565b90506152706060830186614d49565b61527d608083018561443f565b61528a60a0830184614d49565b979650505050505050565b6000610180820190506152ab600083018f614d49565b81810360208301526152bd818e6144ec565b90506152cc604083018d614d49565b6152d9606083018c61443f565b6152e6608083018b61443f565b6152f360a083018a61443f565b61530060c0830189614d49565b61530d60e08301886144ac565b61531b6101008301876144ac565b6153296101208301866144ac565b6153376101408301856144ac565b615345610160830184614d49565b9d9c50505050505050505050505050565b6000604051905081810181811067ffffffffffffffff8211171561537d5761537c6156b6565b5b8060405250919050565b600067ffffffffffffffff8211156153a2576153a16156b6565b5b602082029050602081019050919050565b6000819050602082019050919050565b600081519050919050565b600081519050919050565b600081519050919050565b6000602082019050919050565b600082825260208201905092915050565b600081905092915050565b600082825260208201905092915050565b600061542982615571565b915061543483615571565b9250827fffffffffffffffffffffffffffffffffffffffffffffffffffffffffffffffff0382111561546957615468615629565b5b828201905092915050565b600061547f82615571565b915061548a83615571565b92508261549a57615499615658565b5b828204905092915050565b60006154b082615571565b91506154bb83615571565b9250817fffffffffffffffffffffffffffffffffffffffffffffffffffffffffffffffff04831182151516156154f4576154f3615629565b5b828202905092915050565b600061550a82615571565b915061551583615571565b92508282101561552857615527615629565b5b828203905092915050565b600061553e82615551565b9050919050565b60008115159050919050565b600073ffffffffffffffffffffffffffffffffffffffff82169050919050565b6000819050919050565b60005b8381101561559957808201518184015260208101905061557e565b838111156155a8576000848401525b50505050565b600060028204905060018216806155c657607f821691505b602082108114156155da576155d9615687565b5b50919050565b60006155eb82615571565b91507fffffffffffffffffffffffffffffffffffffffffffffffffffffffffffffffff82141561561e5761561d615629565b5b600182019050919050565b7f4e487b7100000000000000000000000000000000000000000000000000000000600052601160045260246000fd5b7f4e487b7100000000000000000000000000000000000000000000000000000000600052601260045260246000fd5b7f4e487b7100000000000000000000000000000000000000000000000000000000600052602260045260246000fd5b7f4e487b7100000000000000000000000000000000000000000000000000000000600052604160045260246000fd5b6000601f19601f8301169050919050565b6156ff81615533565b811461570a57600080fd5b50565b61571681615545565b811461572157600080fd5b50565b61572d81615571565b811461573857600080fd5b5056fea2646970667358221220df1fbc5b7d08ff73bf255be37887812248a0017b10636fe933fd1240cdfd9c7764736f6c63430008000033",
  "immutableReferences": {},
  "source": "// SPDX-License-Identifier: MIT\r\npragma solidity ^0.8.0;\r\nimport \"@openzeppelin/contracts/utils/Address.sol\";\r\nimport \"@openzeppelin/contracts/access/Ownable.sol\";\r\nimport \"@openzeppelin/contracts/utils/structs/EnumerableSet.sol\";\r\nimport \"@openzeppelin/contracts/utils/Context.sol\";\r\nimport \"@openzeppelin/contracts/utils/math/SafeMath.sol\";\r\nimport \"@openzeppelin/contracts/token/ERC20/utils/SafeERC20.sol\";\r\nimport \"@openzeppelin/contracts/security/ReentrancyGuard.sol\";\r\n\r\n\r\ncontract ERCContract is Context,Ownable,ReentrancyGuard {\r\n    using SafeMath for uint256;\r\n    using SafeERC20 for IERC20;\r\n    address public EUSDTAddress;//USDT address\r\n    uint256 private aproveunlocked=1;//lock\r\n\r\n    uint256 private MAXAmount=10000000000*10**18;//MAX buy amount < 100y\r\n    mapping(address=>bool) public TransactionBan;//Ban\r\n\r\n    mapping(address=>mapping(uint256=>uint256)) public UserTransactionOrders;\r\n    mapping(address=>uint256) public TransactionOrdersLen;\r\n    mapping(uint256=>TransactionOrder) public AllTransactionOrders;\r\n    uint256 public allTransactionOrderIndex;\r\n    uint256 public allTax;\r\n    uint256 public taxRate=100;\r\n    uint256 public cancelOrderTax=300;\r\n    mapping(uint=>address) private WhiteList;\r\n    uint256 public WhiteListIndex=0;\r\n    event SetWhiteListEvent(address[] users);\r\n    event TransactionOrderBuildEvent(uint256 _identifier,address _seller,string _sellObject,uint256 _stackAmount,address _allowbuyer,uint256 _transactionOrderBiuldTime);\r\n    struct TransactionOrder {\r\n        uint256 identifier;\r\n        string sellObject;\r\n        uint256 stackAmount;\r\n        address seller;\r\n        address allowbuyer;\r\n        address buyer;\r\n        uint256 buyerstackAmount;\r\n        bool sellLock;\r\n        bool buyLock;\r\n        bool receiveUSD;\r\n        bool receiveObject;\r\n        uint256 transactionOrderBiuldTime;\r\n\r\n    }\r\n    constructor(address _eusdtAddress) {\r\n        EUSDTAddress=_eusdtAddress;\r\n    }  \r\n    function SetTxRate(uint256 _txrate)public onlyOwner returns(bool){\r\n        require(_txrate<10000,\"_txrate must <10000\");\r\n        taxRate=_txrate;\r\n        return true;\r\n    }\r\n    function Sell(string calldata _sellObject,uint256 _stackAmount,address _allowbuyer) public nonReentrant returns  (bool) {\r\n        require(Address.isContract(_msgSender())==false,\"not hunman\");\r\n        require(!TransactionBan[_msgSender()],\"Transaction ban\");\r\n        require(_stackAmount>=1000000000000000000&&_stackAmount<MAXAmount,\"Buy Amount out of range must be more than 1 less than MAXAmount\");\r\n        require(IERC20(EUSDTAddress).balanceOf(_msgSender())>=_stackAmount,\"The number of remaining tokens in the seller is insufficient\");\r\n        require(IERC20(EUSDTAddress).allowance(_msgSender(),address(this))>=_stackAmount,\"Insufficient number of eusdt approvals\");//\r\n        IERC20(EUSDTAddress).safeTransferFrom(_msgSender(),address(this),_stackAmount);\r\n        //biuld oder\r\n        TransactionOrder memory oder;\r\n        oder.identifier=allTransactionOrderIndex;\r\n        oder.sellObject=_sellObject;\r\n        oder.stackAmount=_stackAmount;\r\n        oder.seller=_msgSender();\r\n        oder.allowbuyer=_allowbuyer;\r\n        oder.transactionOrderBiuldTime=block.timestamp;\r\n        \r\n        uint256 userindex=TransactionOrdersLen[_msgSender()];\r\n        UserTransactionOrders[_msgSender()][userindex]=oder.identifier;\r\n        AllTransactionOrders[allTransactionOrderIndex]=oder;\r\n\r\n        allTransactionOrderIndex=allTransactionOrderIndex.add(1);\r\n        TransactionOrdersLen[_msgSender()]=userindex.add(1);\r\n\r\n        emit TransactionOrderBuildEvent(oder.identifier,oder.seller,oder.sellObject,oder.stackAmount,oder.allowbuyer,oder.transactionOrderBiuldTime);\r\n        return true;\r\n    }\r\n    function setallowbuyer(uint256 _identifier,address _allowbuyer) public returns  (bool) {\r\n        TransactionOrder memory oder= AllTransactionOrders[_identifier];\r\n        require(oder.stackAmount>0,\"cancel oder\");//cancel Oder\r\n        require(oder.seller==_msgSender(),\"not owner\");\r\n        require(oder.sellLock==false,\"sell Locked\");//\r\n        oder.allowbuyer=_allowbuyer;\r\n        AllTransactionOrders[_identifier]=oder;\r\n        return true;\r\n        \r\n    }\r\n    function Buy(uint256 _identifier) public lock returns  (bool) {\r\n        require(Address.isContract(_msgSender())==false,\"not hunman\");\r\n        require(!TransactionBan[_msgSender()],\"Transaction ban\");\r\n        //\r\n        require(AllTransactionOrders[_identifier].seller!=address(0),\"null oder\");//  \r\n        require(AllTransactionOrders[_identifier].stackAmount>0,\"cancel oder\");//cancel Oder\r\n\r\n        require(AllTransactionOrders[_identifier].sellLock==false,\"sell Locked\");//\r\n        if(AllTransactionOrders[_identifier].allowbuyer!=address(0)){\r\n            require(AllTransactionOrders[_identifier].allowbuyer==_msgSender(),\"you are not allowbuyer\");//\r\n        }\r\n        uint256 _buyerStackAmount=AllTransactionOrders[_identifier].stackAmount.div(3).mul(1);\r\n        require(IERC20(EUSDTAddress).balanceOf(_msgSender())>=_buyerStackAmount,\"The number of remaining tokens in the seller is insufficient\");\r\n        require(IERC20(EUSDTAddress).allowance(_msgSender(),address(this))>=_buyerStackAmount,\"Insufficient number of eusdt approvals\");//\r\n        IERC20(EUSDTAddress).safeTransferFrom(_msgSender(),address(this),_buyerStackAmount);\r\n        //buyer\r\n        if(AllTransactionOrders[_identifier].buyer!=address(0)){\r\n            IERC20(EUSDTAddress).safeTransfer(AllTransactionOrders[_identifier].buyer, AllTransactionOrders[_identifier].buyerstackAmount);\r\n        }\r\n         //buy oder\r\n        AllTransactionOrders[_identifier].buyer=_msgSender();\r\n        AllTransactionOrders[_identifier].buyerstackAmount=_buyerStackAmount;\r\n        return true;\r\n    }\r\n    function SellLock(uint256 _identifier) public lock returns  (bool) {\r\n        require(Address.isContract(_msgSender())==false,\"not hunman\");\r\n        //\r\n         require(AllTransactionOrders[_identifier].stackAmount>0,\"cancel oder\");//cancel Oder\r\n        require( AllTransactionOrders[_identifier].sellLock==false,\"sell Locked\");//\r\n        require( AllTransactionOrders[_identifier].buyer!=address(0),\"buyer can not empty\");//\r\n        require( AllTransactionOrders[_identifier].seller==_msgSender(),\"not seller\");//\r\n      \r\n        //sell lock\r\n        AllTransactionOrders[_identifier].sellLock=true;\r\n        return true;\r\n    }\r\n    function BuyLock(uint256 _identifier) public lock returns (bool) {\r\n        require(Address.isContract(_msgSender())==false,\"not hunman\");\r\n        //\r\n        require(AllTransactionOrders[_identifier].stackAmount>0,\"cancel oder\");//cancel Oder\r\n        require( AllTransactionOrders[_identifier].sellLock==true,\"sell UnLocked\");//\r\n        require( AllTransactionOrders[_identifier].buyLock==false,\"buy Locked\");//\r\n        require( AllTransactionOrders[_identifier].buyer==_msgSender(),\"not seller\");//\r\n        //sell lock\r\n        AllTransactionOrders[_identifier].buyLock=true;\r\n        return true;\r\n    }\r\n    function ReceiveUSDLock(uint256 _identifier) public lock returns  (bool) {\r\n        require(Address.isContract(_msgSender())==false,\"not hunman\");\r\n        //\r\n        require(AllTransactionOrders[_identifier].stackAmount>0,\"cancel oder\");//cancel Oder\r\n        require( AllTransactionOrders[_identifier].buyLock==true,\"buy UnLocked\");//\r\n        require( AllTransactionOrders[_identifier].receiveUSD==false,\"Received USD\");//\r\n        require( AllTransactionOrders[_identifier].seller==_msgSender(),\"not seller\");//\r\n        //sell lock\r\n        AllTransactionOrders[_identifier].receiveUSD=true;\r\n        return true;\r\n    }\r\n    function ReceiveObjectLock(uint256 _identifier) public lock returns (bool) {\r\n        require(Address.isContract(_msgSender())==false,\"not hunman\");\r\n        //\r\n        require(AllTransactionOrders[_identifier].stackAmount>0,\"cancel oder\");//cancel Oder\r\n        require( AllTransactionOrders[_identifier].receiveUSD==true,\"Not Received USD\");//\r\n        require( AllTransactionOrders[_identifier].receiveObject==false,\"Received Object\");//\r\n        require( AllTransactionOrders[_identifier].buyer==_msgSender(),\"not seller\");//\r\n        //sell lock\r\n        AllTransactionOrders[_identifier].receiveObject=true;\r\n        //CompleteTransaction\r\n        uint256 sellSA=AllTransactionOrders[_identifier].stackAmount;\r\n        uint256 buySA=AllTransactionOrders[_identifier].buyerstackAmount;\r\n        uint256 tx_seller=sellSA.div(10000).mul(taxRate);//min  0.01%\r\n        uint256 tx_buyer=buySA.div(10000).mul(taxRate);\r\n\r\n        allTax=allTax.add(tx_seller.add(tx_buyer));//all tax\r\n\r\n        IERC20(EUSDTAddress).safeTransfer(AllTransactionOrders[_identifier].seller,sellSA.sub(tx_seller));\r\n        IERC20(EUSDTAddress).safeTransfer(AllTransactionOrders[_identifier].buyer,buySA.sub(tx_buyer));\r\n        \r\n        return true;\r\n    }\r\n    function SellerCancelOrder(uint256 _identifier) public lock returns  (bool) {\r\n        require(Address.isContract(_msgSender())==false,\"not hunman\");\r\n        //\r\n        require(AllTransactionOrders[_identifier].seller!=address(0),\"null oder\");//  \r\n        require(AllTransactionOrders[_identifier].stackAmount>0,\"cancel oder\");//cancel Oder\r\n        require(AllTransactionOrders[_identifier].buyLock==false,\"buy Locked\");//\r\n        require(AllTransactionOrders[_identifier].seller==_msgSender(),\"not oder owner\");//\r\n        //tax cancelOrderTax\r\n        uint256 SellerSA=AllTransactionOrders[_identifier].stackAmount;\r\n        uint256 BuyerSA=AllTransactionOrders[_identifier].buyerstackAmount;\r\n\r\n        uint256 tx_cancel=SellerSA.div(10000).mul(cancelOrderTax);//min  0.01%\r\n        IERC20(EUSDTAddress).safeTransfer(AllTransactionOrders[_identifier].seller,SellerSA.sub(tx_cancel));\r\n        if(BuyerSA>0){\r\n            IERC20(EUSDTAddress).safeTransfer(AllTransactionOrders[_identifier].buyer,BuyerSA);\r\n        }\r\n        //cancelOrder\r\n        AllTransactionOrders[_identifier].stackAmount=0;\r\n        AllTransactionOrders[_identifier].buyerstackAmount=0;\r\n        return true;\r\n    }\r\n    function BuyerCancelOrder(uint256 _identifier) public lock returns  (bool) {\r\n        require(Address.isContract(_msgSender())==false,\"not hunman\");\r\n        //\r\n        require(AllTransactionOrders[_identifier].seller!=address(0),\"null oder\");//  \r\n        require(AllTransactionOrders[_identifier].buyer==_msgSender(),\"not oder owner\");//\r\n        require(AllTransactionOrders[_identifier].buyLock==false,\"buy Locked\");//\r\n        require(AllTransactionOrders[_identifier].buyerstackAmount>0,\"cancel oder\");//cancel Oder\r\n        //tax cancelOrderTax\r\n        uint256 SellerSA=AllTransactionOrders[_identifier].stackAmount;\r\n        uint256 BuyerSA=AllTransactionOrders[_identifier].buyerstackAmount;\r\n\r\n        uint256 tx_cancel=BuyerSA.div(10000).mul(cancelOrderTax);//min  0.01%\r\n        IERC20(EUSDTAddress).safeTransfer(AllTransactionOrders[_identifier].seller,SellerSA);\r\n        IERC20(EUSDTAddress).safeTransfer(AllTransactionOrders[_identifier].buyer,BuyerSA.sub(tx_cancel));\r\n\r\n        //cancelOrder\r\n        AllTransactionOrders[_identifier].stackAmount=0;\r\n        AllTransactionOrders[_identifier].buyerstackAmount=0;\r\n        return true;\r\n    }\r\n\r\n\r\n\r\n    function withdrawTax(address _to) public onlyOwner lock returns (bool) {\r\n        //sell lock\r\n        require(Address.isContract(_msgSender())==false,\"sender not hunman\");\r\n        require(Address.isContract(_to)==false,\"to address not hunman\");\r\n        IERC20(EUSDTAddress).safeTransfer(_to,allTax);\r\n        allTax=0;\r\n        return true;\r\n    }\r\n    function setWhiteList(address[] memory users) public onlyOwner returns  (bool) {\r\n        uint len=users.length;\r\n        for(uint i=0;i<len;i++){\r\n            WhiteList[WhiteListIndex]=users[i];\r\n            WhiteListIndex=WhiteListIndex.add(1);\r\n        }\r\n        emit SetWhiteListEvent(users);\r\n        return true;     \r\n    }\r\n    function getWhiteList() public view returns  (address[] memory) {\r\n        address[] memory users=new address[](WhiteListIndex);\r\n        for(uint i=0;i<WhiteListIndex;i++){\r\n            users[i]=WhiteList[i];\r\n        }\r\n        return users;\r\n    }\r\n    function isInWhiteList(address user) public view returns  (bool) {\r\n        for(uint i=0;i<WhiteListIndex;i++){\r\n            if(WhiteList[i]==user){\r\n                return true;\r\n            }\r\n        }\r\n        return false;\r\n    }\r\n    //approve lock\r\n     modifier lock(){\r\n        require(aproveunlocked==1,\"LOCKED\");\r\n        aproveunlocked=0;\r\n        _;\r\n        aproveunlocked=1;\r\n    }\r\n}",
  "sourcePath": "/c/Users/dx/Ethereum Studio/ECR/contracts/ERC.sol",
  "compiler": {
    "name": "solc",
    "version": "0.8.0+commit.c7dfd78e.Emscripten.clang"
  },
  "schemaVersion": "3.4.2",
  "updatedAt": "2022-02-02T14:22:18.047Z",
  "devdoc": {
    "kind": "dev",
    "methods": {
      "owner()": {
        "details": "Returns the address of the current owner."
      },
      "renounceOwnership()": {
        "details": "Leaves the contract without owner. It will not be possible to call `onlyOwner` functions anymore. Can only be called by the current owner. NOTE: Renouncing ownership will leave the contract without an owner, thereby removing any functionality that is only available to the owner."
      },
      "transferOwnership(address)": {
        "details": "Transfers ownership of the contract to a new account (`newOwner`). Can only be called by the current owner."
      }
    },
    "version": 1
  },
  "userdoc": {
    "kind": "user",
    "methods": {},
    "version": 1
  }
}