{
  "contractName": "ERCContract",
  "abi": [
    {
      "inputs": [
        {
          "internalType": "address",
          "name": "_eusdtAddress",
          "type": "address"
        }
      ],
      "stateMutability": "nonpayable",
      "type": "constructor"
    },
    {
      "anonymous": false,
      "inputs": [
        {
          "indexed": true,
          "internalType": "address",
          "name": "previousOwner",
          "type": "address"
        },
        {
          "indexed": true,
          "internalType": "address",
          "name": "newOwner",
          "type": "address"
        }
      ],
      "name": "OwnershipTransferred",
      "type": "event"
    },
    {
      "anonymous": false,
      "inputs": [
        {
          "indexed": false,
          "internalType": "address[]",
          "name": "users",
          "type": "address[]"
        }
      ],
      "name": "SetWhiteListEvent",
      "type": "event"
    },
    {
      "anonymous": false,
      "inputs": [
        {
          "indexed": false,
          "internalType": "uint256",
          "name": "_identifier",
          "type": "uint256"
        },
        {
          "indexed": false,
          "internalType": "address",
          "name": "_seller",
          "type": "address"
        },
        {
          "indexed": false,
          "internalType": "string",
          "name": "_sellObject",
          "type": "string"
        },
        {
          "indexed": false,
          "internalType": "uint256",
          "name": "_stackAmount",
          "type": "uint256"
        },
        {
          "indexed": false,
          "internalType": "address",
          "name": "_allowbuyer",
          "type": "address"
        },
        {
          "indexed": false,
          "internalType": "uint256",
          "name": "_exemptedovertimelosses",
          "type": "uint256"
        }
      ],
      "name": "TransactionOrderBuildEvent",
      "type": "event"
    },
    {
      "inputs": [
        {
          "internalType": "uint256",
          "name": "",
          "type": "uint256"
        }
      ],
      "name": "AllTransactionOrders",
      "outputs": [
        {
          "internalType": "uint256",
          "name": "identifier",
          "type": "uint256"
        },
        {
          "internalType": "string",
          "name": "sellObject",
          "type": "string"
        },
        {
          "internalType": "uint256",
          "name": "stackAmount",
          "type": "uint256"
        },
        {
          "internalType": "address",
          "name": "seller",
          "type": "address"
        },
        {
          "internalType": "address",
          "name": "allowbuyer",
          "type": "address"
        },
        {
          "internalType": "address",
          "name": "buyer",
          "type": "address"
        },
        {
          "internalType": "uint256",
          "name": "buyerstackAmount",
          "type": "uint256"
        },
        {
          "internalType": "bool",
          "name": "sellLock",
          "type": "bool"
        },
        {
          "internalType": "bool",
          "name": "buyLock",
          "type": "bool"
        },
        {
          "internalType": "bool",
          "name": "receiveUSD",
          "type": "bool"
        },
        {
          "internalType": "bool",
          "name": "receiveObject",
          "type": "bool"
        },
        {
          "internalType": "uint256",
          "name": "exemptedovertimelosses",
          "type": "uint256"
        }
      ],
      "stateMutability": "view",
      "type": "function"
    },
    {
      "inputs": [],
      "name": "EUSDTAddress",
      "outputs": [
        {
          "internalType": "address",
          "name": "",
          "type": "address"
        }
      ],
      "stateMutability": "view",
      "type": "function"
    },
    {
      "inputs": [
        {
          "internalType": "uint256",
          "name": "",
          "type": "uint256"
        }
      ],
      "name": "Lock_TransactionOrder_Time",
      "outputs": [
        {
          "internalType": "uint256",
          "name": "",
          "type": "uint256"
        }
      ],
      "stateMutability": "view",
      "type": "function"
    },
    {
      "inputs": [
        {
          "internalType": "address",
          "name": "",
          "type": "address"
        }
      ],
      "name": "TransactionBan",
      "outputs": [
        {
          "internalType": "bool",
          "name": "",
          "type": "bool"
        }
      ],
      "stateMutability": "view",
      "type": "function"
    },
    {
      "inputs": [
        {
          "internalType": "address",
          "name": "",
          "type": "address"
        }
      ],
      "name": "TransactionOrdersLen",
      "outputs": [
        {
          "internalType": "uint256",
          "name": "",
          "type": "uint256"
        }
      ],
      "stateMutability": "view",
      "type": "function"
    },
    {
      "inputs": [
        {
          "internalType": "address",
          "name": "",
          "type": "address"
        },
        {
          "internalType": "uint256",
          "name": "",
          "type": "uint256"
        }
      ],
      "name": "UserTransactionOrders",
      "outputs": [
        {
          "internalType": "uint256",
          "name": "",
          "type": "uint256"
        }
      ],
      "stateMutability": "view",
      "type": "function"
    },
    {
      "inputs": [],
      "name": "WhiteListIndex",
      "outputs": [
        {
          "internalType": "uint256",
          "name": "",
          "type": "uint256"
        }
      ],
      "stateMutability": "view",
      "type": "function"
    },
    {
      "inputs": [],
      "name": "allTax",
      "outputs": [
        {
          "internalType": "uint256",
          "name": "",
          "type": "uint256"
        }
      ],
      "stateMutability": "view",
      "type": "function"
    },
    {
      "inputs": [],
      "name": "allTransactionOrderIndex",
      "outputs": [
        {
          "internalType": "uint256",
          "name": "",
          "type": "uint256"
        }
      ],
      "stateMutability": "view",
      "type": "function"
    },
    {
      "inputs": [],
      "name": "cancelOrderTax",
      "outputs": [
        {
          "internalType": "uint256",
          "name": "",
          "type": "uint256"
        }
      ],
      "stateMutability": "view",
      "type": "function"
    },
    {
      "inputs": [],
      "name": "owner",
      "outputs": [
        {
          "internalType": "address",
          "name": "",
          "type": "address"
        }
      ],
      "stateMutability": "view",
      "type": "function"
    },
    {
      "inputs": [],
      "name": "renounceOwnership",
      "outputs": [],
      "stateMutability": "nonpayable",
      "type": "function"
    },
    {
      "inputs": [],
      "name": "taxRate",
      "outputs": [
        {
          "internalType": "uint256",
          "name": "",
          "type": "uint256"
        }
      ],
      "stateMutability": "view",
      "type": "function"
    },
    {
      "inputs": [
        {
          "internalType": "address",
          "name": "newOwner",
          "type": "address"
        }
      ],
      "name": "transferOwnership",
      "outputs": [],
      "stateMutability": "nonpayable",
      "type": "function"
    },
    {
      "inputs": [
        {
          "internalType": "uint256",
          "name": "_txrate",
          "type": "uint256"
        }
      ],
      "name": "SetTxRate",
      "outputs": [
        {
          "internalType": "bool",
          "name": "",
          "type": "bool"
        }
      ],
      "stateMutability": "nonpayable",
      "type": "function"
    },
    {
      "inputs": [
        {
          "internalType": "string",
          "name": "_sellObject",
          "type": "string"
        },
        {
          "internalType": "uint256",
          "name": "_stackAmount",
          "type": "uint256"
        },
        {
          "internalType": "address",
          "name": "_allowbuyer",
          "type": "address"
        }
      ],
      "name": "Sell",
      "outputs": [
        {
          "internalType": "bool",
          "name": "",
          "type": "bool"
        }
      ],
      "stateMutability": "nonpayable",
      "type": "function"
    },
    {
      "inputs": [
        {
          "internalType": "uint256",
          "name": "_identifier",
          "type": "uint256"
        },
        {
          "internalType": "address",
          "name": "_allowbuyer",
          "type": "address"
        }
      ],
      "name": "setallowbuyer",
      "outputs": [
        {
          "internalType": "bool",
          "name": "",
          "type": "bool"
        }
      ],
      "stateMutability": "nonpayable",
      "type": "function"
    },
    {
      "inputs": [
        {
          "internalType": "uint256",
          "name": "_identifier",
          "type": "uint256"
        }
      ],
      "name": "Buy",
      "outputs": [
        {
          "internalType": "bool",
          "name": "",
          "type": "bool"
        }
      ],
      "stateMutability": "nonpayable",
      "type": "function"
    },
    {
      "inputs": [
        {
          "internalType": "uint256",
          "name": "_identifier",
          "type": "uint256"
        },
        {
          "internalType": "uint256",
          "name": "_exemptedovertimelosses",
          "type": "uint256"
        }
      ],
      "name": "SellLock",
      "outputs": [
        {
          "internalType": "bool",
          "name": "",
          "type": "bool"
        }
      ],
      "stateMutability": "nonpayable",
      "type": "function"
    },
    {
      "inputs": [
        {
          "internalType": "uint256",
          "name": "_identifier",
          "type": "uint256"
        }
      ],
      "name": "BuyLock",
      "outputs": [
        {
          "internalType": "bool",
          "name": "",
          "type": "bool"
        }
      ],
      "stateMutability": "nonpayable",
      "type": "function"
    },
    {
      "inputs": [
        {
          "internalType": "uint256",
          "name": "_identifier",
          "type": "uint256"
        }
      ],
      "name": "ReceiveUSDLock",
      "outputs": [
        {
          "internalType": "bool",
          "name": "",
          "type": "bool"
        }
      ],
      "stateMutability": "nonpayable",
      "type": "function"
    },
    {
      "inputs": [
        {
          "internalType": "uint256",
          "name": "_identifier",
          "type": "uint256"
        }
      ],
      "name": "ReceiveObjectLock",
      "outputs": [
        {
          "internalType": "bool",
          "name": "",
          "type": "bool"
        }
      ],
      "stateMutability": "nonpayable",
      "type": "function"
    },
    {
      "inputs": [
        {
          "internalType": "uint256",
          "name": "_identifier",
          "type": "uint256"
        }
      ],
      "name": "SellerCancelOrder",
      "outputs": [
        {
          "internalType": "bool",
          "name": "",
          "type": "bool"
        }
      ],
      "stateMutability": "nonpayable",
      "type": "function"
    },
    {
      "inputs": [
        {
          "internalType": "uint256",
          "name": "_identifier",
          "type": "uint256"
        }
      ],
      "name": "BuyerCancelOrder",
      "outputs": [
        {
          "internalType": "bool",
          "name": "",
          "type": "bool"
        }
      ],
      "stateMutability": "nonpayable",
      "type": "function"
    },
    {
      "inputs": [
        {
          "internalType": "uint256",
          "name": "_identifier",
          "type": "uint256"
        }
      ],
      "name": "getRealTax",
      "outputs": [
        {
          "internalType": "uint256",
          "name": "",
          "type": "uint256"
        }
      ],
      "stateMutability": "view",
      "type": "function"
    },
    {
      "inputs": [
        {
          "internalType": "address",
          "name": "_to",
          "type": "address"
        }
      ],
      "name": "withdrawTax",
      "outputs": [
        {
          "internalType": "bool",
          "name": "",
          "type": "bool"
        }
      ],
      "stateMutability": "nonpayable",
      "type": "function"
    },
    {
      "inputs": [
        {
          "internalType": "address[]",
          "name": "users",
          "type": "address[]"
        }
      ],
      "name": "setWhiteList",
      "outputs": [
        {
          "internalType": "bool",
          "name": "",
          "type": "bool"
        }
      ],
      "stateMutability": "nonpayable",
      "type": "function"
    },
    {
      "inputs": [],
      "name": "getWhiteList",
      "outputs": [
        {
          "internalType": "address[]",
          "name": "",
          "type": "address[]"
        }
      ],
      "stateMutability": "view",
      "type": "function"
    },
    {
      "inputs": [
        {
          "internalType": "address",
          "name": "user",
          "type": "address"
        }
      ],
      "name": "isInWhiteList",
      "outputs": [
        {
          "internalType": "bool",
          "name": "",
          "type": "bool"
        }
      ],
      "stateMutability": "view",
      "type": "function"
    }
  ],
  "bytecode": "0x608060405260016003556b204fce5e3e2502611000000060045560646006556064600d5561012c600e5560006010553480156200003b57600080fd5b5060405162005c8338038062005c838339818101604052810190620000619190620001b3565b6200008162000075620000d060201b60201c565b620000d860201b60201c565b6001808190555080600260006101000a81548173ffffffffffffffffffffffffffffffffffffffff021916908373ffffffffffffffffffffffffffffffffffffffff160217905550506200022d565b600033905090565b60008060009054906101000a900473ffffffffffffffffffffffffffffffffffffffff169050816000806101000a81548173ffffffffffffffffffffffffffffffffffffffff021916908373ffffffffffffffffffffffffffffffffffffffff1602179055508173ffffffffffffffffffffffffffffffffffffffff168173ffffffffffffffffffffffffffffffffffffffff167f8be0079c531659141344cd1fd0a4f28419497f9722a3daafe3b4186f6b6457e060405160405180910390a35050565b600081519050620001ad8162000213565b92915050565b600060208284031215620001c657600080fd5b6000620001d6848285016200019c565b91505092915050565b6000620001ec82620001f3565b9050919050565b600073ffffffffffffffffffffffffffffffffffffffff82169050919050565b6200021e81620001df565b81146200022a57600080fd5b50565b615a46806200023d6000396000f3fe608060405234801561001057600080fd5b50600436106101ce5760003560e01c8063652d0f55116101045780638da5cb5b116100a2578063e41b044d11610071578063e41b044d146105ea578063e5f45e4d1461061a578063e6b2de0514610638578063f2fde38b14610668576101ce565b80638da5cb5b1461053c57806396bfc2291461055a5780639cc547481461058a578063b625fd32146105ba576101ce565b8063715018a6116100de578063715018a6146104b4578063771a3a1d146104be578063775b9c13146104dc5780638896d3d41461050c576101ce565b8063652d0f551461044857806366d0f4d1146104785780636fe8d33b14610496576101ce565b806333ce06b61161017157806340dd61041161014b57806340dd61041461037d5780634c75b707146103ad57806353361d70146103dd5780635b11bfff1461040d576101ce565b806333ce06b6146102ff5780633726796b1461031d5780633e3282181461034d576101ce565b806312417e6c116101ad57806312417e6c1461023f57806318fae3361461026f57806327071df51461029f57806331a38170146102cf576101ce565b8062e4d347146101d357806307e1b6e6146101f157806309a9d76c14610221575b600080fd5b6101db610684565b6040516101e891906154e7565b60405180910390f35b61020b60048036038101906102069190614488565b61068a565b60405161021891906154e7565b60405180910390f35b6102296106a2565b60405161023691906150c8565b60405180910390f35b610259600480360381019061025491906145c3565b6107e8565b60405161026691906150ea565b60405180910390f35b610289600480360381019061028491906145c3565b610d3c565b60405161029691906150ea565b60405180910390f35b6102b960048036038101906102b491906145c3565b610e0e565b6040516102c691906150ea565b60405180910390f35b6102e960048036038101906102e491906144b1565b6110cb565b6040516102f691906154e7565b60405180910390f35b6103076110f0565b60405161031491906154e7565b60405180910390f35b61033760048036038101906103329190614615565b6110f6565b60405161034491906150ea565b60405180910390f35b610367600480360381019061036291906145c3565b611645565b60405161037491906150ea565b60405180910390f35b61039760048036038101906103929190614651565b611e0b565b6040516103a491906150ea565b60405180910390f35b6103c760048036038101906103c29190614488565b612120565b6040516103d491906150ea565b60405180910390f35b6103f760048036038101906103f291906145c3565b6122f8565b60405161040491906150ea565b60405180910390f35b610427600480360381019061042291906145c3565b612778565b60405161043f9c9b9a9998979695949392919061556a565b60405180910390f35b610462600480360381019061045d91906145c3565b6128f4565b60405161046f91906154e7565b60405180910390f35b61048061290c565b60405161048d91906154e7565b60405180910390f35b61049e612912565b6040516104ab9190615024565b60405180910390f35b6104bc612938565b005b6104c66129c0565b6040516104d391906154e7565b60405180910390f35b6104f660048036038101906104f191906144ed565b6129c6565b60405161050391906150ea565b60405180910390f35b610526600480360381019061052191906145c3565b612b5a565b60405161053391906150ea565b60405180910390f35b610544612fe4565b6040516105519190615024565b60405180910390f35b610574600480360381019061056f9190614488565b61300d565b60405161058191906150ea565b60405180910390f35b6105a4600480360381019061059f91906145c3565b6130ae565b6040516105b191906154e7565b60405180910390f35b6105d460048036038101906105cf9190614557565b613167565b6040516105e191906150ea565b60405180910390f35b61060460048036038101906105ff9190614488565b613973565b60405161061191906150ea565b60405180910390f35b610622613993565b60405161062f91906154e7565b60405180910390f35b610652600480360381019061064d91906145c3565b613999565b60405161065f91906150ea565b60405180910390f35b610682600480360381019061067d9190614488565b613c6e565b005b600e5481565b60096020528060005260406000206000915090505481565b6060600060105467ffffffffffffffff8111156106e8577f4e487b7100000000000000000000000000000000000000000000000000000000600052604160045260246000fd5b6040519080825280602002602001820160405280156107165781602001602082028036833780820191505090505b50905060005b6010548110156107e057600f600082815260200190815260200160002060009054906101000a900473ffffffffffffffffffffffffffffffffffffffff16828281518110610793577f4e487b7100000000000000000000000000000000000000000000000000000000600052603260045260246000fd5b602002602001019073ffffffffffffffffffffffffffffffffffffffff16908173ffffffffffffffffffffffffffffffffffffffff168152505080806107d8906158b5565b91505061071c565b508091505090565b600060016003541461082f576040517f08c379a000000000000000000000000000000000000000000000000000000000815260040161082690615467565b60405180910390fd5b60006003819055506000151561084b610846613d66565b613d6e565b15151461088d576040517f08c379a0000000000000000000000000000000000000000000000000000000008152600401610884906154a7565b60405180910390fd5b6000600a600084815260200190815260200160002060020154116108e6576040517f08c379a00000000000000000000000000000000000000000000000000000000081526004016108dd90615167565b60405180910390fd5b60011515600a600084815260200190815260200160002060070160029054906101000a900460ff16151514610950576040517f08c379a000000000000000000000000000000000000000000000000000000000815260040161094790615347565b60405180910390fd5b60001515600a600084815260200190815260200160002060070160039054906101000a900460ff161515146109ba576040517f08c379a00000000000000000000000000000000000000000000000000000000081526004016109b190615227565b60405180910390fd5b6109c2613d66565b73ffffffffffffffffffffffffffffffffffffffff16600a600084815260200190815260200160002060050160009054906101000a900473ffffffffffffffffffffffffffffffffffffffff1673ffffffffffffffffffffffffffffffffffffffff1614610a65576040517f08c379a0000000000000000000000000000000000000000000000000000000008152600401610a5c90615207565b60405180910390fd5b6001600a600084815260200190815260200160002060070160036101000a81548160ff0219169083151502179055506000600a60008481526020019081526020016000206002015490506000600a60008581526020019081526020016000206006015490506000600a60008681526020019081526020016000206008015490506000600760008781526020019081526020016000205490506000600d54905060008383610b1291906156f3565b42610b1d91906157d4565b90506000811115610b6657610b63610b546064610b466201518085613d8190919063ffffffff16565b613d9790919063ffffffff16565b83613dad90919063ffffffff16565b91505b612710821115610b765761271091505b6000610b9f83610b916127108a613d8190919063ffffffff16565b613d9790919063ffffffff16565b90506000610bca84610bbc6127108a613d8190919063ffffffff16565b613d9790919063ffffffff16565b9050610bf3610be28284613dad90919063ffffffff16565b600c54613dad90919063ffffffff16565b600c81905550610c8e600a60008c815260200190815260200160002060030160009054906101000a900473ffffffffffffffffffffffffffffffffffffffff16610c46848b613dc390919063ffffffff16565b600260009054906101000a900473ffffffffffffffffffffffffffffffffffffffff1673ffffffffffffffffffffffffffffffffffffffff16613dd99092919063ffffffff16565b610d23600a60008c815260200190815260200160002060050160009054906101000a900473ffffffffffffffffffffffffffffffffffffffff16610cdb838a613dc390919063ffffffff16565b600260009054906101000a900473ffffffffffffffffffffffffffffffffffffffff1673ffffffffffffffffffffffffffffffffffffffff16613dd99092919063ffffffff16565b6001985050505050505050506001600381905550919050565b6000610d46613d66565b73ffffffffffffffffffffffffffffffffffffffff16610d64612fe4565b73ffffffffffffffffffffffffffffffffffffffff1614610dba576040517f08c379a0000000000000000000000000000000000000000000000000000000008152600401610db1906152c7565b60405180910390fd5b6127108210610dfe576040517f08c379a0000000000000000000000000000000000000000000000000000000008152600401610df590615267565b60405180910390fd5b81600d8190555060019050919050565b6000600160035414610e55576040517f08c379a0000000000000000000000000000000000000000000000000000000008152600401610e4c90615467565b60405180910390fd5b600060038190555060001515610e71610e6c613d66565b613d6e565b151514610eb3576040517f08c379a0000000000000000000000000000000000000000000000000000000008152600401610eaa906154a7565b60405180910390fd5b6000600a60008481526020019081526020016000206002015411610f0c576040517f08c379a0000000000000000000000000000000000000000000000000000000008152600401610f0390615167565b60405180910390fd5b60011515600a600084815260200190815260200160002060070160019054906101000a900460ff16151514610f76576040517f08c379a0000000000000000000000000000000000000000000000000000000008152600401610f6d90615407565b60405180910390fd5b60001515600a600084815260200190815260200160002060070160029054906101000a900460ff16151514610fe0576040517f08c379a0000000000000000000000000000000000000000000000000000000008152600401610fd7906151a7565b60405180910390fd5b610fe8613d66565b73ffffffffffffffffffffffffffffffffffffffff16600a600084815260200190815260200160002060030160009054906101000a900473ffffffffffffffffffffffffffffffffffffffff1673ffffffffffffffffffffffffffffffffffffffff161461108b576040517f08c379a000000000000000000000000000000000000000000000000000000000815260040161108290615447565b60405180910390fd5b6001600a600084815260200190815260200160002060070160026101000a81548160ff021916908315150217905550600190506001600381905550919050565b6008602052816000526040600020602052806000526040600020600091509150505481565b600c5481565b600080600a6000858152602001908152602001600020604051806101800160405290816000820154815260200160018201805461113290615883565b80601f016020809104026020016040519081016040528092919081815260200182805461115e90615883565b80156111ab5780601f10611180576101008083540402835291602001916111ab565b820191906000526020600020905b81548152906001019060200180831161118e57829003601f168201915b50505050508152602001600282015481526020016003820160009054906101000a900473ffffffffffffffffffffffffffffffffffffffff1673ffffffffffffffffffffffffffffffffffffffff1673ffffffffffffffffffffffffffffffffffffffff1681526020016004820160009054906101000a900473ffffffffffffffffffffffffffffffffffffffff1673ffffffffffffffffffffffffffffffffffffffff1673ffffffffffffffffffffffffffffffffffffffff1681526020016005820160009054906101000a900473ffffffffffffffffffffffffffffffffffffffff1673ffffffffffffffffffffffffffffffffffffffff1673ffffffffffffffffffffffffffffffffffffffff168152602001600682015481526020016007820160009054906101000a900460ff161515151581526020016007820160019054906101000a900460ff161515151581526020016007820160029054906101000a900460ff161515151581526020016007820160039054906101000a900460ff1615151515815260200160088201548152505090506000816040015111611389576040517f08c379a000000000000000000000000000000000000000000000000000000000815260040161138090615167565b60405180910390fd5b611391613d66565b73ffffffffffffffffffffffffffffffffffffffff16816060015173ffffffffffffffffffffffffffffffffffffffff1614611402576040517f08c379a00000000000000000000000000000000000000000000000000000000081526004016113f9906154c7565b60405180910390fd5b600015158160e0015115151461144d576040517f08c379a000000000000000000000000000000000000000000000000000000000815260040161144490615127565b60405180910390fd5b82816080019073ffffffffffffffffffffffffffffffffffffffff16908173ffffffffffffffffffffffffffffffffffffffff168152505080600a60008681526020019081526020016000206000820151816000015560208201518160010190805190602001906114bf929190614206565b506040820151816002015560608201518160030160006101000a81548173ffffffffffffffffffffffffffffffffffffffff021916908373ffffffffffffffffffffffffffffffffffffffff16021790555060808201518160040160006101000a81548173ffffffffffffffffffffffffffffffffffffffff021916908373ffffffffffffffffffffffffffffffffffffffff16021790555060a08201518160050160006101000a81548173ffffffffffffffffffffffffffffffffffffffff021916908373ffffffffffffffffffffffffffffffffffffffff16021790555060c0820151816006015560e08201518160070160006101000a81548160ff0219169083151502179055506101008201518160070160016101000a81548160ff0219169083151502179055506101208201518160070160026101000a81548160ff0219169083151502179055506101408201518160070160036101000a81548160ff0219169083151502179055506101608201518160080155905050600191505092915050565b600060016003541461168c576040517f08c379a000000000000000000000000000000000000000000000000000000000815260040161168390615467565b60405180910390fd5b6000600381905550600015156116a86116a3613d66565b613d6e565b1515146116ea576040517f08c379a00000000000000000000000000000000000000000000000000000000081526004016116e1906154a7565b60405180910390fd5b600560006116f6613d66565b73ffffffffffffffffffffffffffffffffffffffff1673ffffffffffffffffffffffffffffffffffffffff16815260200190815260200160002060009054906101000a900460ff161561177e576040517f08c379a0000000000000000000000000000000000000000000000000000000008152600401611775906152a7565b60405180910390fd5b600073ffffffffffffffffffffffffffffffffffffffff16600a600084815260200190815260200160002060030160009054906101000a900473ffffffffffffffffffffffffffffffffffffffff1673ffffffffffffffffffffffffffffffffffffffff161415611824576040517f08c379a000000000000000000000000000000000000000000000000000000000815260040161181b90615367565b60405180910390fd5b6000600a6000848152602001908152602001600020600201541161187d576040517f08c379a000000000000000000000000000000000000000000000000000000000815260040161187490615167565b60405180910390fd5b60001515600a600084815260200190815260200160002060070160009054906101000a900460ff161515146118e7576040517f08c379a00000000000000000000000000000000000000000000000000000000081526004016118de90615127565b60405180910390fd5b600073ffffffffffffffffffffffffffffffffffffffff16600a600084815260200190815260200160002060040160009054906101000a900473ffffffffffffffffffffffffffffffffffffffff1673ffffffffffffffffffffffffffffffffffffffff16146119fd57611959613d66565b73ffffffffffffffffffffffffffffffffffffffff16600a600084815260200190815260200160002060040160009054906101000a900473ffffffffffffffffffffffffffffffffffffffff1673ffffffffffffffffffffffffffffffffffffffff16146119fc576040517f08c379a00000000000000000000000000000000000000000000000000000000081526004016119f390615387565b60405180910390fd5b5b6000611a3c6001611a2e6003600a600088815260200190815260200160002060020154613d8190919063ffffffff16565b613d9790919063ffffffff16565b905080600260009054906101000a900473ffffffffffffffffffffffffffffffffffffffff1673ffffffffffffffffffffffffffffffffffffffff166370a08231611a85613d66565b6040518263ffffffff1660e01b8152600401611aa19190615024565b60206040518083038186803b158015611ab957600080fd5b505afa158015611acd573d6000803e3d6000fd5b505050506040513d601f19601f82011682018060405250810190611af191906145ec565b1015611b32576040517f08c379a0000000000000000000000000000000000000000000000000000000008152600401611b29906151e7565b60405180910390fd5b80600260009054906101000a900473ffffffffffffffffffffffffffffffffffffffff1673ffffffffffffffffffffffffffffffffffffffff1663dd62ed3e611b79613d66565b306040518363ffffffff1660e01b8152600401611b9792919061503f565b60206040518083038186803b158015611baf57600080fd5b505afa158015611bc3573d6000803e3d6000fd5b505050506040513d601f19601f82011682018060405250810190611be791906145ec565b1015611c28576040517f08c379a0000000000000000000000000000000000000000000000000000000008152600401611c1f906152e7565b60405180910390fd5b611c7e611c33613d66565b3083600260009054906101000a900473ffffffffffffffffffffffffffffffffffffffff1673ffffffffffffffffffffffffffffffffffffffff16613e5f909392919063ffffffff16565b600073ffffffffffffffffffffffffffffffffffffffff16600a600085815260200190815260200160002060050160009054906101000a900473ffffffffffffffffffffffffffffffffffffffff1673ffffffffffffffffffffffffffffffffffffffff1614611d8257611d81600a600085815260200190815260200160002060050160009054906101000a900473ffffffffffffffffffffffffffffffffffffffff16600a600086815260200190815260200160002060060154600260009054906101000a900473ffffffffffffffffffffffffffffffffffffffff1673ffffffffffffffffffffffffffffffffffffffff16613dd99092919063ffffffff16565b5b611d8a613d66565b600a600085815260200190815260200160002060050160006101000a81548173ffffffffffffffffffffffffffffffffffffffff021916908373ffffffffffffffffffffffffffffffffffffffff16021790555080600a60008581526020019081526020016000206006018190555060019150506001600381905550919050565b6000600160035414611e52576040517f08c379a0000000000000000000000000000000000000000000000000000000008152600401611e4990615467565b60405180910390fd5b600060038190555060001515611e6e611e69613d66565b613d6e565b151514611eb0576040517f08c379a0000000000000000000000000000000000000000000000000000000008152600401611ea7906154a7565b60405180910390fd5b6000600a60008581526020019081526020016000206002015411611f09576040517f08c379a0000000000000000000000000000000000000000000000000000000008152600401611f0090615167565b60405180910390fd5b60001515600a600085815260200190815260200160002060070160009054906101000a900460ff16151514611f73576040517f08c379a0000000000000000000000000000000000000000000000000000000008152600401611f6a90615127565b60405180910390fd5b600073ffffffffffffffffffffffffffffffffffffffff16600a600085815260200190815260200160002060050160009054906101000a900473ffffffffffffffffffffffffffffffffffffffff1673ffffffffffffffffffffffffffffffffffffffff161415612019576040517f08c379a000000000000000000000000000000000000000000000000000000000815260040161201090615427565b60405180910390fd5b612021613d66565b73ffffffffffffffffffffffffffffffffffffffff16600a600085815260200190815260200160002060030160009054906101000a900473ffffffffffffffffffffffffffffffffffffffff1673ffffffffffffffffffffffffffffffffffffffff16146120c4576040517f08c379a00000000000000000000000000000000000000000000000000000000081526004016120bb90615447565b60405180910390fd5b6001600a600085815260200190815260200160002060070160006101000a81548160ff02191690831515021790555081600a60008581526020019081526020016000206008018190555060019050600160038190555092915050565b600061212a613d66565b73ffffffffffffffffffffffffffffffffffffffff16612148612fe4565b73ffffffffffffffffffffffffffffffffffffffff161461219e576040517f08c379a0000000000000000000000000000000000000000000000000000000008152600401612195906152c7565b60405180910390fd5b6001600354146121e3576040517f08c379a00000000000000000000000000000000000000000000000000000000081526004016121da90615467565b60405180910390fd5b6000600381905550600015156121ff6121fa613d66565b613d6e565b151514612241576040517f08c379a000000000000000000000000000000000000000000000000000000000815260040161223890615247565b60405180910390fd5b6000151561224e83613d6e565b151514612290576040517f08c379a000000000000000000000000000000000000000000000000000000000815260040161228790615307565b60405180910390fd5b6122df82600c54600260009054906101000a900473ffffffffffffffffffffffffffffffffffffffff1673ffffffffffffffffffffffffffffffffffffffff16613dd99092919063ffffffff16565b6000600c81905550600190506001600381905550919050565b600060016003541461233f576040517f08c379a000000000000000000000000000000000000000000000000000000000815260040161233690615467565b60405180910390fd5b60006003819055506000151561235b612356613d66565b613d6e565b15151461239d576040517f08c379a0000000000000000000000000000000000000000000000000000000008152600401612394906154a7565b60405180910390fd5b600073ffffffffffffffffffffffffffffffffffffffff16600a600084815260200190815260200160002060030160009054906101000a900473ffffffffffffffffffffffffffffffffffffffff1673ffffffffffffffffffffffffffffffffffffffff161415612443576040517f08c379a000000000000000000000000000000000000000000000000000000000815260040161243a90615367565b60405180910390fd5b61244b613d66565b73ffffffffffffffffffffffffffffffffffffffff16600a600084815260200190815260200160002060050160009054906101000a900473ffffffffffffffffffffffffffffffffffffffff1673ffffffffffffffffffffffffffffffffffffffff16146124ee576040517f08c379a00000000000000000000000000000000000000000000000000000000081526004016124e5906153c7565b60405180910390fd5b60001515600a600084815260200190815260200160002060070160019054906101000a900460ff16151514612558576040517f08c379a000000000000000000000000000000000000000000000000000000000815260040161254f90615287565b60405180910390fd5b6000600a600084815260200190815260200160002060060154116125b1576040517f08c379a00000000000000000000000000000000000000000000000000000000081526004016125a890615167565b60405180910390fd5b6000600a60008481526020019081526020016000206002015490506000600a60008581526020019081526020016000206006015490506000612612600e5461260461271085613d8190919063ffffffff16565b613d9790919063ffffffff16565b9050612697600a600087815260200190815260200160002060030160009054906101000a900473ffffffffffffffffffffffffffffffffffffffff1684600260009054906101000a900473ffffffffffffffffffffffffffffffffffffffff1673ffffffffffffffffffffffffffffffffffffffff16613dd99092919063ffffffff16565b61272c600a600087815260200190815260200160002060050160009054906101000a900473ffffffffffffffffffffffffffffffffffffffff166126e48385613dc390919063ffffffff16565b600260009054906101000a900473ffffffffffffffffffffffffffffffffffffffff1673ffffffffffffffffffffffffffffffffffffffff16613dd99092919063ffffffff16565b6000600a6000878152602001908152602001600020600201819055506000600a600087815260200190815260200160002060060181905550600193505050506001600381905550919050565b600a6020528060005260406000206000915090508060000154908060010180546127a190615883565b80601f01602080910402602001604051908101604052809291908181526020018280546127cd90615883565b801561281a5780601f106127ef5761010080835404028352916020019161281a565b820191906000526020600020905b8154815290600101906020018083116127fd57829003601f168201915b5050505050908060020154908060030160009054906101000a900473ffffffffffffffffffffffffffffffffffffffff16908060040160009054906101000a900473ffffffffffffffffffffffffffffffffffffffff16908060050160009054906101000a900473ffffffffffffffffffffffffffffffffffffffff16908060060154908060070160009054906101000a900460ff16908060070160019054906101000a900460ff16908060070160029054906101000a900460ff16908060070160039054906101000a900460ff1690806008015490508c565b60076020528060005260406000206000915090505481565b600b5481565b600260009054906101000a900473ffffffffffffffffffffffffffffffffffffffff1681565b612940613d66565b73ffffffffffffffffffffffffffffffffffffffff1661295e612fe4565b73ffffffffffffffffffffffffffffffffffffffff16146129b4576040517f08c379a00000000000000000000000000000000000000000000000000000000081526004016129ab906152c7565b60405180910390fd5b6129be6000613ee8565b565b600d5481565b60006129d0613d66565b73ffffffffffffffffffffffffffffffffffffffff166129ee612fe4565b73ffffffffffffffffffffffffffffffffffffffff1614612a44576040517f08c379a0000000000000000000000000000000000000000000000000000000008152600401612a3b906152c7565b60405180910390fd5b60008251905060005b81811015612b1857838181518110612a8e577f4e487b7100000000000000000000000000000000000000000000000000000000600052603260045260246000fd5b6020026020010151600f6000601054815260200190815260200160002060006101000a81548173ffffffffffffffffffffffffffffffffffffffff021916908373ffffffffffffffffffffffffffffffffffffffff160217905550612aff6001601054613dad90919063ffffffff16565b6010819055508080612b10906158b5565b915050612a4d565b507fea18aefa6a211cd0d31a5b0d73c6ef56cab82a44d3108099be5f52baa1bec0db83604051612b4891906150c8565b60405180910390a16001915050919050565b6000600160035414612ba1576040517f08c379a0000000000000000000000000000000000000000000000000000000008152600401612b9890615467565b60405180910390fd5b600060038190555060001515612bbd612bb8613d66565b613d6e565b151514612bff576040517f08c379a0000000000000000000000000000000000000000000000000000000008152600401612bf6906154a7565b60405180910390fd5b600073ffffffffffffffffffffffffffffffffffffffff16600a600084815260200190815260200160002060030160009054906101000a900473ffffffffffffffffffffffffffffffffffffffff1673ffffffffffffffffffffffffffffffffffffffff161415612ca5576040517f08c379a0000000000000000000000000000000000000000000000000000000008152600401612c9c90615367565b60405180910390fd5b6000600a60008481526020019081526020016000206002015411612cfe576040517f08c379a0000000000000000000000000000000000000000000000000000000008152600401612cf590615167565b60405180910390fd5b60001515600a600084815260200190815260200160002060070160019054906101000a900460ff16151514612d68576040517f08c379a0000000000000000000000000000000000000000000000000000000008152600401612d5f90615287565b60405180910390fd5b612d70613d66565b73ffffffffffffffffffffffffffffffffffffffff16600a600084815260200190815260200160002060030160009054906101000a900473ffffffffffffffffffffffffffffffffffffffff1673ffffffffffffffffffffffffffffffffffffffff1614612e13576040517f08c379a0000000000000000000000000000000000000000000000000000000008152600401612e0a906153c7565b60405180910390fd5b6000600a60008481526020019081526020016000206002015490506000600a60008581526020019081526020016000206006015490506000612e74600e54612e6661271086613d8190919063ffffffff16565b613d9790919063ffffffff16565b9050612f0b600a600087815260200190815260200160002060030160009054906101000a900473ffffffffffffffffffffffffffffffffffffffff16612ec38386613dc390919063ffffffff16565b600260009054906101000a900473ffffffffffffffffffffffffffffffffffffffff1673ffffffffffffffffffffffffffffffffffffffff16613dd99092919063ffffffff16565b6000821115612f9857612f97600a600087815260200190815260200160002060050160009054906101000a900473ffffffffffffffffffffffffffffffffffffffff1683600260009054906101000a900473ffffffffffffffffffffffffffffffffffffffff1673ffffffffffffffffffffffffffffffffffffffff16613dd99092919063ffffffff16565b5b6000600a6000878152602001908152602001600020600201819055506000600a600087815260200190815260200160002060060181905550600193505050506001600381905550919050565b60008060009054906101000a900473ffffffffffffffffffffffffffffffffffffffff16905090565b600080600090505b6010548110156130a3578273ffffffffffffffffffffffffffffffffffffffff16600f600083815260200190815260200160002060009054906101000a900473ffffffffffffffffffffffffffffffffffffffff1673ffffffffffffffffffffffffffffffffffffffff1614156130905760019150506130a9565b808061309b906158b5565b915050613015565b50600090505b919050565b600080600a60008481526020019081526020016000206008015490506000600760008581526020019081526020016000205490506000600d549050600083836130f791906156f3565b4261310291906157d4565b9050600081111561314b57613148613139606461312b6201518085613d8190919063ffffffff16565b613d9790919063ffffffff16565b83613dad90919063ffffffff16565b91505b61271082111561315b5761271091505b81945050505050919050565b6000600260015414156131af576040517f08c379a00000000000000000000000000000000000000000000000000000000081526004016131a690615487565b60405180910390fd5b6002600181905550600015156131cb6131c6613d66565b613d6e565b15151461320d576040517f08c379a0000000000000000000000000000000000000000000000000000000008152600401613204906154a7565b60405180910390fd5b60056000613219613d66565b73ffffffffffffffffffffffffffffffffffffffff1673ffffffffffffffffffffffffffffffffffffffff16815260200190815260200160002060009054906101000a900460ff16156132a1576040517f08c379a0000000000000000000000000000000000000000000000000000000008152600401613298906152a7565b60405180910390fd5b670de0b6b3a764000083101580156132ba575060045483105b6132f9576040517f08c379a00000000000000000000000000000000000000000000000000000000081526004016132f0906151c7565b60405180910390fd5b82600260009054906101000a900473ffffffffffffffffffffffffffffffffffffffff1673ffffffffffffffffffffffffffffffffffffffff166370a08231613340613d66565b6040518263ffffffff1660e01b815260040161335c9190615024565b60206040518083038186803b15801561337457600080fd5b505afa158015613388573d6000803e3d6000fd5b505050506040513d601f19601f820116820180604052508101906133ac91906145ec565b10156133ed576040517f08c379a00000000000000000000000000000000000000000000000000000000081526004016133e4906151e7565b60405180910390fd5b82600260009054906101000a900473ffffffffffffffffffffffffffffffffffffffff1673ffffffffffffffffffffffffffffffffffffffff1663dd62ed3e613434613d66565b306040518363ffffffff1660e01b815260040161345292919061503f565b60206040518083038186803b15801561346a57600080fd5b505afa15801561347e573d6000803e3d6000fd5b505050506040513d601f19601f820116820180604052508101906134a291906145ec565b10156134e3576040517f08c379a00000000000000000000000000000000000000000000000000000000081526004016134da906152e7565b60405180910390fd5b6135396134ee613d66565b3085600260009054906101000a900473ffffffffffffffffffffffffffffffffffffffff1673ffffffffffffffffffffffffffffffffffffffff16613e5f909392919063ffffffff16565b61354161428c565b600b5481600001818152505085858080601f016020809104026020016040519081016040528093929190818152602001838380828437600081840152601f19601f820116905080830192505050505050508160200181905250838160400181815250506135ac613d66565b816060019073ffffffffffffffffffffffffffffffffffffffff16908173ffffffffffffffffffffffffffffffffffffffff168152505082816080019073ffffffffffffffffffffffffffffffffffffffff16908173ffffffffffffffffffffffffffffffffffffffff1681525050610e1081610160018181525050600060096000613636613d66565b73ffffffffffffffffffffffffffffffffffffffff1673ffffffffffffffffffffffffffffffffffffffff168152602001908152602001600020549050816000015160086000613684613d66565b73ffffffffffffffffffffffffffffffffffffffff1673ffffffffffffffffffffffffffffffffffffffff16815260200190815260200160002060008381526020019081526020016000208190555081600a6000600b54815260200190815260200160002060008201518160000155602082015181600101908051906020019061370f929190614206565b506040820151816002015560608201518160030160006101000a81548173ffffffffffffffffffffffffffffffffffffffff021916908373ffffffffffffffffffffffffffffffffffffffff16021790555060808201518160040160006101000a81548173ffffffffffffffffffffffffffffffffffffffff021916908373ffffffffffffffffffffffffffffffffffffffff16021790555060a08201518160050160006101000a81548173ffffffffffffffffffffffffffffffffffffffff021916908373ffffffffffffffffffffffffffffffffffffffff16021790555060c0820151816006015560e08201518160070160006101000a81548160ff0219169083151502179055506101008201518160070160016101000a81548160ff0219169083151502179055506101208201518160070160026101000a81548160ff0219169083151502179055506101408201518160070160036101000a81548160ff02191690831515021790555061016082015181600801559050506138a06001600b54613dad90919063ffffffff16565b600b819055506138ba600182613dad90919063ffffffff16565b600960006138c6613d66565b73ffffffffffffffffffffffffffffffffffffffff1673ffffffffffffffffffffffffffffffffffffffff168152602001908152602001600020819055507ff3eca64f88f6dcdf7a200ef774f0a8f763cbf0687459d5a508c1fbb2541dbce18260000151836060015184602001518560400151866080015187610160015160405161395696959493929190615502565b60405180910390a160019250505060018081905550949350505050565b60056020528060005260406000206000915054906101000a900460ff1681565b60105481565b60006001600354146139e0576040517f08c379a00000000000000000000000000000000000000000000000000000000081526004016139d790615467565b60405180910390fd5b6000600381905550600015156139fc6139f7613d66565b613d6e565b151514613a3e576040517f08c379a0000000000000000000000000000000000000000000000000000000008152600401613a35906154a7565b60405180910390fd5b6000600a60008481526020019081526020016000206002015411613a97576040517f08c379a0000000000000000000000000000000000000000000000000000000008152600401613a8e90615167565b60405180910390fd5b60011515600a600084815260200190815260200160002060070160009054906101000a900460ff16151514613b01576040517f08c379a0000000000000000000000000000000000000000000000000000000008152600401613af890615327565b60405180910390fd5b60001515600a600084815260200190815260200160002060070160019054906101000a900460ff16151514613b6b576040517f08c379a0000000000000000000000000000000000000000000000000000000008152600401613b6290615287565b60405180910390fd5b613b73613d66565b73ffffffffffffffffffffffffffffffffffffffff16600a600084815260200190815260200160002060050160009054906101000a900473ffffffffffffffffffffffffffffffffffffffff1673ffffffffffffffffffffffffffffffffffffffff1614613c16576040517f08c379a0000000000000000000000000000000000000000000000000000000008152600401613c0d90615447565b60405180910390fd5b6001600a600084815260200190815260200160002060070160016101000a81548160ff021916908315150217905550426007600084815260200190815260200160002081905550600190506001600381905550919050565b613c76613d66565b73ffffffffffffffffffffffffffffffffffffffff16613c94612fe4565b73ffffffffffffffffffffffffffffffffffffffff1614613cea576040517f08c379a0000000000000000000000000000000000000000000000000000000008152600401613ce1906152c7565b60405180910390fd5b600073ffffffffffffffffffffffffffffffffffffffff168173ffffffffffffffffffffffffffffffffffffffff161415613d5a576040517f08c379a0000000000000000000000000000000000000000000000000000000008152600401613d5190615147565b60405180910390fd5b613d6381613ee8565b50565b600033905090565b600080823b905060008111915050919050565b60008183613d8f9190615749565b905092915050565b60008183613da5919061577a565b905092915050565b60008183613dbb91906156f3565b905092915050565b60008183613dd191906157d4565b905092915050565b613e5a8363a9059cbb60e01b8484604051602401613df892919061509f565b604051602081830303815290604052907bffffffffffffffffffffffffffffffffffffffffffffffffffffffff19166020820180517bffffffffffffffffffffffffffffffffffffffffffffffffffffffff8381831617835250505050613fac565b505050565b613ee2846323b872dd60e01b858585604051602401613e8093929190615068565b604051602081830303815290604052907bffffffffffffffffffffffffffffffffffffffffffffffffffffffff19166020820180517bffffffffffffffffffffffffffffffffffffffffffffffffffffffff8381831617835250505050613fac565b50505050565b60008060009054906101000a900473ffffffffffffffffffffffffffffffffffffffff169050816000806101000a81548173ffffffffffffffffffffffffffffffffffffffff021916908373ffffffffffffffffffffffffffffffffffffffff1602179055508173ffffffffffffffffffffffffffffffffffffffff168173ffffffffffffffffffffffffffffffffffffffff167f8be0079c531659141344cd1fd0a4f28419497f9722a3daafe3b4186f6b6457e060405160405180910390a35050565b600061400e826040518060400160405280602081526020017f5361666545524332303a206c6f772d6c6576656c2063616c6c206661696c65648152508573ffffffffffffffffffffffffffffffffffffffff166140739092919063ffffffff16565b905060008151111561406e578080602001905181019061402e919061452e565b61406d576040517f08c379a0000000000000000000000000000000000000000000000000000000008152600401614064906153e7565b60405180910390fd5b5b505050565b6060614082848460008561408b565b90509392505050565b6060824710156140d0576040517f08c379a00000000000000000000000000000000000000000000000000000000081526004016140c790615187565b60405180910390fd5b6140d985613d6e565b614118576040517f08c379a000000000000000000000000000000000000000000000000000000000815260040161410f906153a7565b60405180910390fd5b6000808673ffffffffffffffffffffffffffffffffffffffff168587604051614141919061500d565b60006040518083038185875af1925050503d806000811461417e576040519150601f19603f3d011682016040523d82523d6000602084013e614183565b606091505b509150915061419382828661419f565b92505050949350505050565b606083156141af578290506141ff565b6000835111156141c25782518084602001fd5b816040517f08c379a00000000000000000000000000000000000000000000000000000000081526004016141f69190615105565b60405180910390fd5b9392505050565b82805461421290615883565b90600052602060002090601f016020900481019282614234576000855561427b565b82601f1061424d57805160ff191683800117855561427b565b8280016001018555821561427b579182015b8281111561427a57825182559160200191906001019061425f565b5b5090506142889190614337565b5090565b604051806101800160405280600081526020016060815260200160008152602001600073ffffffffffffffffffffffffffffffffffffffff168152602001600073ffffffffffffffffffffffffffffffffffffffff168152602001600073ffffffffffffffffffffffffffffffffffffffff16815260200160008152602001600015158152602001600015158152602001600015158152602001600015158152602001600081525090565b5b80821115614350576000816000905550600101614338565b5090565b60006143676143628461565c565b61562b565b9050808382526020820190508285602086028201111561438657600080fd5b60005b858110156143b6578161439c88826143c0565b845260208401935060208301925050600181019050614389565b5050509392505050565b6000813590506143cf816159cb565b92915050565b600082601f8301126143e657600080fd5b81356143f6848260208601614354565b91505092915050565b60008151905061440e816159e2565b92915050565b60008083601f84011261442657600080fd5b8235905067ffffffffffffffff81111561443f57600080fd5b60208301915083600182028301111561445757600080fd5b9250929050565b60008135905061446d816159f9565b92915050565b600081519050614482816159f9565b92915050565b60006020828403121561449a57600080fd5b60006144a8848285016143c0565b91505092915050565b600080604083850312156144c457600080fd5b60006144d2858286016143c0565b92505060206144e38582860161445e565b9150509250929050565b6000602082840312156144ff57600080fd5b600082013567ffffffffffffffff81111561451957600080fd5b614525848285016143d5565b91505092915050565b60006020828403121561454057600080fd5b600061454e848285016143ff565b91505092915050565b6000806000806060858703121561456d57600080fd5b600085013567ffffffffffffffff81111561458757600080fd5b61459387828801614414565b945094505060206145a68782880161445e565b92505060406145b7878288016143c0565b91505092959194509250565b6000602082840312156145d557600080fd5b60006145e38482850161445e565b91505092915050565b6000602082840312156145fe57600080fd5b600061460c84828501614473565b91505092915050565b6000806040838503121561462857600080fd5b60006146368582860161445e565b9250506020614647858286016143c0565b9150509250929050565b6000806040838503121561466457600080fd5b60006146728582860161445e565b92505060206146838582860161445e565b9150509250929050565b600061469983836146a5565b60208301905092915050565b6146ae81615808565b82525050565b6146bd81615808565b82525050565b60006146ce82615698565b6146d881856156c6565b93506146e383615688565b8060005b838110156147145781516146fb888261468d565b9750614706836156b9565b9250506001810190506146e7565b5085935050505092915050565b61472a8161581a565b82525050565b600061473b826156a3565b61474581856156d7565b9350614755818560208601615850565b80840191505092915050565b600061476c826156ae565b61477681856156e2565b9350614786818560208601615850565b61478f816159ba565b840191505092915050565b60006147a7600b836156e2565b91507f73656c6c204c6f636b65640000000000000000000000000000000000000000006000830152602082019050919050565b60006147e76026836156e2565b91507f4f776e61626c653a206e6577206f776e657220697320746865207a65726f206160008301527f64647265737300000000000000000000000000000000000000000000000000006020830152604082019050919050565b600061484d600b836156e2565b91507f63616e63656c206f6465720000000000000000000000000000000000000000006000830152602082019050919050565b600061488d6026836156e2565b91507f416464726573733a20696e73756666696369656e742062616c616e636520666f60008301527f722063616c6c00000000000000000000000000000000000000000000000000006020830152604082019050919050565b60006148f3600c836156e2565b91507f52656365697665642055534400000000000000000000000000000000000000006000830152602082019050919050565b6000614933603f836156e2565b91507f42757920416d6f756e74206f7574206f662072616e6765206d7573742062652060008301527f6d6f7265207468616e2031206c657373207468616e204d4158416d6f756e74006020830152604082019050919050565b6000614999603c836156e2565b91507f546865206e756d626572206f662072656d61696e696e6720746f6b656e73206960008301527f6e207468652073656c6c657220697320696e73756666696369656e74000000006020830152604082019050919050565b60006149ff6009836156e2565b91507f6e6f7420627579657200000000000000000000000000000000000000000000006000830152602082019050919050565b6000614a3f600f836156e2565b91507f5265636569766564204f626a65637400000000000000000000000000000000006000830152602082019050919050565b6000614a7f6011836156e2565b91507f73656e646572206e6f742068756e6d616e0000000000000000000000000000006000830152602082019050919050565b6000614abf6013836156e2565b91507f5f747872617465206d757374203c3130303030000000000000000000000000006000830152602082019050919050565b6000614aff600a836156e2565b91507f627579204c6f636b6564000000000000000000000000000000000000000000006000830152602082019050919050565b6000614b3f600f836156e2565b91507f5472616e73616374696f6e2062616e00000000000000000000000000000000006000830152602082019050919050565b6000614b7f6020836156e2565b91507f4f776e61626c653a2063616c6c6572206973206e6f7420746865206f776e65726000830152602082019050919050565b6000614bbf6026836156e2565b91507f496e73756666696369656e74206e756d626572206f662065757364742061707060008301527f726f76616c7300000000000000000000000000000000000000000000000000006020830152604082019050919050565b6000614c256015836156e2565b91507f746f2061646472657373206e6f742068756e6d616e00000000000000000000006000830152602082019050919050565b6000614c65600d836156e2565b91507f73656c6c20556e4c6f636b6564000000000000000000000000000000000000006000830152602082019050919050565b6000614ca56010836156e2565b91507f4e6f7420526563656976656420555344000000000000000000000000000000006000830152602082019050919050565b6000614ce56009836156e2565b91507f6e756c6c206f64657200000000000000000000000000000000000000000000006000830152602082019050919050565b6000614d256016836156e2565b91507f796f7520617265206e6f7420616c6c6f776275796572000000000000000000006000830152602082019050919050565b6000614d65601d836156e2565b91507f416464726573733a2063616c6c20746f206e6f6e2d636f6e74726163740000006000830152602082019050919050565b6000614da5600e836156e2565b91507f6e6f74206f646572206f776e65720000000000000000000000000000000000006000830152602082019050919050565b6000614de5602a836156e2565b91507f5361666545524332303a204552433230206f7065726174696f6e20646964206e60008301527f6f742073756363656564000000000000000000000000000000000000000000006020830152604082019050919050565b6000614e4b600c836156e2565b91507f62757920556e4c6f636b656400000000000000000000000000000000000000006000830152602082019050919050565b6000614e8b6013836156e2565b91507f62757965722063616e206e6f7420656d707479000000000000000000000000006000830152602082019050919050565b6000614ecb600a836156e2565b91507f6e6f742073656c6c6572000000000000000000000000000000000000000000006000830152602082019050919050565b6000614f0b6006836156e2565b91507f4c4f434b454400000000000000000000000000000000000000000000000000006000830152602082019050919050565b6000614f4b601f836156e2565b91507f5265656e7472616e637947756172643a207265656e7472616e742063616c6c006000830152602082019050919050565b6000614f8b600a836156e2565b91507f6e6f742068756e6d616e000000000000000000000000000000000000000000006000830152602082019050919050565b6000614fcb6009836156e2565b91507f6e6f74206f776e657200000000000000000000000000000000000000000000006000830152602082019050919050565b61500781615846565b82525050565b60006150198284614730565b915081905092915050565b600060208201905061503960008301846146b4565b92915050565b600060408201905061505460008301856146b4565b61506160208301846146b4565b9392505050565b600060608201905061507d60008301866146b4565b61508a60208301856146b4565b6150976040830184614ffe565b949350505050565b60006040820190506150b460008301856146b4565b6150c16020830184614ffe565b9392505050565b600060208201905081810360008301526150e281846146c3565b905092915050565b60006020820190506150ff6000830184614721565b92915050565b6000602082019050818103600083015261511f8184614761565b905092915050565b600060208201905081810360008301526151408161479a565b9050919050565b60006020820190508181036000830152615160816147da565b9050919050565b6000602082019050818103600083015261518081614840565b9050919050565b600060208201905081810360008301526151a081614880565b9050919050565b600060208201905081810360008301526151c0816148e6565b9050919050565b600060208201905081810360008301526151e081614926565b9050919050565b600060208201905081810360008301526152008161498c565b9050919050565b60006020820190508181036000830152615220816149f2565b9050919050565b6000602082019050818103600083015261524081614a32565b9050919050565b6000602082019050818103600083015261526081614a72565b9050919050565b6000602082019050818103600083015261528081614ab2565b9050919050565b600060208201905081810360008301526152a081614af2565b9050919050565b600060208201905081810360008301526152c081614b32565b9050919050565b600060208201905081810360008301526152e081614b72565b9050919050565b6000602082019050818103600083015261530081614bb2565b9050919050565b6000602082019050818103600083015261532081614c18565b9050919050565b6000602082019050818103600083015261534081614c58565b9050919050565b6000602082019050818103600083015261536081614c98565b9050919050565b6000602082019050818103600083015261538081614cd8565b9050919050565b600060208201905081810360008301526153a081614d18565b9050919050565b600060208201905081810360008301526153c081614d58565b9050919050565b600060208201905081810360008301526153e081614d98565b9050919050565b6000602082019050818103600083015261540081614dd8565b9050919050565b6000602082019050818103600083015261542081614e3e565b9050919050565b6000602082019050818103600083015261544081614e7e565b9050919050565b6000602082019050818103600083015261546081614ebe565b9050919050565b6000602082019050818103600083015261548081614efe565b9050919050565b600060208201905081810360008301526154a081614f3e565b9050919050565b600060208201905081810360008301526154c081614f7e565b9050919050565b600060208201905081810360008301526154e081614fbe565b9050919050565b60006020820190506154fc6000830184614ffe565b92915050565b600060c0820190506155176000830189614ffe565b61552460208301886146b4565b81810360408301526155368187614761565b90506155456060830186614ffe565b61555260808301856146b4565b61555f60a0830184614ffe565b979650505050505050565b600061018082019050615580600083018f614ffe565b8181036020830152615592818e614761565b90506155a1604083018d614ffe565b6155ae606083018c6146b4565b6155bb608083018b6146b4565b6155c860a083018a6146b4565b6155d560c0830189614ffe565b6155e260e0830188614721565b6155f0610100830187614721565b6155fe610120830186614721565b61560c610140830185614721565b61561a610160830184614ffe565b9d9c50505050505050505050505050565b6000604051905081810181811067ffffffffffffffff821117156156525761565161598b565b5b8060405250919050565b600067ffffffffffffffff8211156156775761567661598b565b5b602082029050602081019050919050565b6000819050602082019050919050565b600081519050919050565b600081519050919050565b600081519050919050565b6000602082019050919050565b600082825260208201905092915050565b600081905092915050565b600082825260208201905092915050565b60006156fe82615846565b915061570983615846565b9250827fffffffffffffffffffffffffffffffffffffffffffffffffffffffffffffffff0382111561573e5761573d6158fe565b5b828201905092915050565b600061575482615846565b915061575f83615846565b92508261576f5761576e61592d565b5b828204905092915050565b600061578582615846565b915061579083615846565b9250817fffffffffffffffffffffffffffffffffffffffffffffffffffffffffffffffff04831182151516156157c9576157c86158fe565b5b828202905092915050565b60006157df82615846565b91506157ea83615846565b9250828210156157fd576157fc6158fe565b5b828203905092915050565b600061581382615826565b9050919050565b60008115159050919050565b600073ffffffffffffffffffffffffffffffffffffffff82169050919050565b6000819050919050565b60005b8381101561586e578082015181840152602081019050615853565b8381111561587d576000848401525b50505050565b6000600282049050600182168061589b57607f821691505b602082108114156158af576158ae61595c565b5b50919050565b60006158c082615846565b91507fffffffffffffffffffffffffffffffffffffffffffffffffffffffffffffffff8214156158f3576158f26158fe565b5b600182019050919050565b7f4e487b7100000000000000000000000000000000000000000000000000000000600052601160045260246000fd5b7f4e487b7100000000000000000000000000000000000000000000000000000000600052601260045260246000fd5b7f4e487b7100000000000000000000000000000000000000000000000000000000600052602260045260246000fd5b7f4e487b7100000000000000000000000000000000000000000000000000000000600052604160045260246000fd5b6000601f19601f8301169050919050565b6159d481615808565b81146159df57600080fd5b50565b6159eb8161581a565b81146159f657600080fd5b50565b615a0281615846565b8114615a0d57600080fd5b5056fea26469706673582212202ca7b0a65629a18e30d992ea1cb3b9ecbaca263c0284b76cccba8cadcdcbbad164736f6c63430008000033",
  "immutableReferences": {},
  "source": "// SPDX-License-Identifier: MIT\r\npragma solidity ^0.8.0;\r\nimport \"@openzeppelin/contracts/utils/Address.sol\";\r\nimport \"@openzeppelin/contracts/access/Ownable.sol\";\r\nimport \"@openzeppelin/contracts/utils/structs/EnumerableSet.sol\";\r\nimport \"@openzeppelin/contracts/utils/Context.sol\";\r\nimport \"@openzeppelin/contracts/utils/math/SafeMath.sol\";\r\nimport \"@openzeppelin/contracts/token/ERC20/utils/SafeERC20.sol\";\r\nimport \"@openzeppelin/contracts/security/ReentrancyGuard.sol\";\r\n/*\r\nConditions to be completed before invoking this Contract:\r\n\r\n1. The user account needs to have a certain eusdt (PS: 1000000000000000 = 1.0, because the decimal point of erc-20 token is 18 digits)\r\n\r\n2. The user needs to call the approve (spender, amount) of eusdt contract to authorize a certain number of eusdt to ERC contract. \r\nSpender fills in the address of ERC contract. The amount suggests the maximum value of uint256\r\n\r\nTypical transaction scenarios:\r\n\r\n1. The seller calls the sell function to generate an order. You can specify or not specify the buyer's address\r\n\r\n2. The buyer calls the buy function to pre order.\r\n\r\n3. Both parties discussed and reached an agreement through ECC encrypted communication system\r\n\r\n4. The seller calls setallowbuyer to set the address of the designated buyer\r\n\r\n5. The seller confirms that the transaction between both parties can be carried out, and calls selllock to lock\r\n\r\n6. The buyer confirms that the transaction between both parties can be carried out and calls buylock to lock (before that,\r\n both parties can cancel the order through sellercancelorder and buyercancelorder)\r\n\r\n7. Make payment in private\r\n\r\n8. after receiving the payment, the seller calls ReceiveUSDLock.\r\n\r\n9. The seller will sell the goods to the buyer\r\n\r\n10. buyers confirm that after receiving the sale, call ReceiveObjectLock and complete the transaction.\r\n*/\r\n\r\ncontract ERCContract is Context,Ownable,ReentrancyGuard {\r\n    using SafeMath for uint256;\r\n    using SafeERC20 for IERC20;\r\n    address public EUSDTAddress;//USDT address\r\n    uint256 private aproveunlocked=1;//lock\r\n\r\n    uint256 private MAXAmount=10000000000*10**18;//MAX buy amount < 100y\r\n    mapping(address=>bool) public TransactionBan;//Ban\r\n    //Lock Tax\r\n    uint256 private lock_base_tax=100;//+1% everday\r\n    mapping(uint256=>uint256) public Lock_TransactionOrder_Time;//Timestamp of order access lock status\r\n\r\n    mapping(address=>mapping(uint256=>uint256)) public UserTransactionOrders;//\r\n    mapping(address=>uint256) public TransactionOrdersLen;\r\n    mapping(uint256=>TransactionOrder) public AllTransactionOrders;\r\n    uint256 public allTransactionOrderIndex;\r\n    uint256 public allTax;\r\n    uint256 public taxRate=100;\r\n    uint256 public cancelOrderTax=300;\r\n    mapping(uint=>address) private WhiteList;\r\n    uint256 public WhiteListIndex=0;\r\n    event SetWhiteListEvent(address[] users);\r\n    event TransactionOrderBuildEvent(uint256 _identifier,address _seller,string _sellObject,uint256 _stackAmount,address _allowbuyer,uint256 _exemptedovertimelosses);\r\n    struct TransactionOrder {//User's order data structure\r\n        uint256 identifier;//Order code\r\n        string sellObject;//The items sold can be described arbitrarily. If it is a secret transaction, anyone will write irrelevant information\r\n        uint256 stackAmount;//The token of the goods sold by the seller that needs to be pledged, which is three times the price of the goods sold in USD\r\n        address seller;//Seller address\r\n        address allowbuyer;//Specify a buyer\r\n        address buyer;//Buyer address\r\n        uint256 buyerstackAmount;//The number of tokens that the buyer needs to pledge will be automatically set to 1 / 3 of the seller's pledge\r\n        bool sellLock;//Seller lock\r\n        bool buyLock;//Buyer lock The buyer is locked. You can cancel the order before it becomes true. However, the cancelling party will deduct a certain tax and return it to the pledge, and the other party will return the original amount to the pledge.\r\n        bool receiveUSD;//After the seller receives the payment cash, change the value to true\r\n        bool receiveObject;//After the buyer receives the item, change the value to true\r\n        uint256 exemptedovertimelosses;//The number of secends an order can be exempted from overtime losses\r\n\r\n    }\r\n    constructor(address _eusdtAddress) {\r\n        EUSDTAddress=_eusdtAddress;//The token contract address can be usdt or erc20 created by yourself, or eusdt created by yourself\r\n    } \r\n    // Set transaction tax rate_ When txrate is 1, the lowest tax rate is 1 / 10000, i.e. 0.01%. The highest level is 100%.\r\n    function SetTxRate(uint256 _txrate)public onlyOwner returns(bool){\r\n        require(_txrate<10000,\"_txrate must <10000\");\r\n        taxRate=_txrate;\r\n        return true;\r\n    }\r\n    //Sellers sell items and create orders\r\n    function Sell(string calldata _sellObject,uint256 _stackAmount,address _allowbuyer) public nonReentrant returns  (bool) {\r\n        require(Address.isContract(_msgSender())==false,\"not hunman\");\r\n        //Administrators can block a certain address for transactions\r\n        require(!TransactionBan[_msgSender()],\"Transaction ban\");\r\n        require(_stackAmount>=1000000000000000000&&_stackAmount<MAXAmount,\"Buy Amount out of range must be more than 1 less than MAXAmount\");\r\n        //Sellers sell items and create orders. Before that, the user needs to complete the authorization of this transaction contract by eusdt. The recommended authorization value is max (uint256), that is, full authorization\r\n        require(IERC20(EUSDTAddress).balanceOf(_msgSender())>=_stackAmount,\"The number of remaining tokens in the seller is insufficient\");\r\n        require(IERC20(EUSDTAddress).allowance(_msgSender(),address(this))>=_stackAmount,\"Insufficient number of eusdt approvals\");//\r\n        //Payment of pledged eusdt to transaction contract\r\n        IERC20(EUSDTAddress).safeTransferFrom(_msgSender(),address(this),_stackAmount);\r\n        //biuld oder\r\n        TransactionOrder memory oder;\r\n        oder.identifier=allTransactionOrderIndex;\r\n        oder.sellObject=_sellObject;\r\n        oder.stackAmount=_stackAmount;\r\n        oder.seller=_msgSender();\r\n        oder.allowbuyer=_allowbuyer;\r\n        oder.exemptedovertimelosses=3600;// default 1 hour\r\n        \r\n        uint256 userindex=TransactionOrdersLen[_msgSender()];\r\n        UserTransactionOrders[_msgSender()][userindex]=oder.identifier;\r\n        AllTransactionOrders[allTransactionOrderIndex]=oder;\r\n\r\n        allTransactionOrderIndex=allTransactionOrderIndex.add(1);\r\n        TransactionOrdersLen[_msgSender()]=userindex.add(1);\r\n\r\n        emit TransactionOrderBuildEvent(oder.identifier,oder.seller,oder.sellObject,oder.stackAmount,oder.allowbuyer,oder.exemptedovertimelosses);\r\n        return true;\r\n    }\r\n    //Set the address of the specified buyer and trader, which can be set directly in sell, or set the value to address (0) in sell to ensure that everyone can buy, and then call this function to set\r\n    function setallowbuyer(uint256 _identifier,address _allowbuyer) public returns  (bool) {\r\n        TransactionOrder memory oder= AllTransactionOrders[_identifier];\r\n        require(oder.stackAmount>0,\"cancel oder\");//cancel Oder\r\n        require(oder.seller==_msgSender(),\"not owner\");\r\n        require(oder.sellLock==false,\"sell Locked\");//\r\n        oder.allowbuyer=_allowbuyer;\r\n        AllTransactionOrders[_identifier]=oder;\r\n        return true;\r\n        \r\n    }\r\n    //The buyer wants to buy the order and pledge his eusdt\r\n    function Buy(uint256 _identifier) public lock returns  (bool) {\r\n        require(Address.isContract(_msgSender())==false,\"not hunman\");\r\n        require(!TransactionBan[_msgSender()],\"Transaction ban\");\r\n        //\r\n        require(AllTransactionOrders[_identifier].seller!=address(0),\"null oder\");//  \r\n        require(AllTransactionOrders[_identifier].stackAmount>0,\"cancel oder\");//cancel Oder\r\n\r\n        require(AllTransactionOrders[_identifier].sellLock==false,\"sell Locked\");//\r\n        if(AllTransactionOrders[_identifier].allowbuyer!=address(0)){\r\n            require(AllTransactionOrders[_identifier].allowbuyer==_msgSender(),\"you are not allowbuyer\");//\r\n        }\r\n        uint256 _buyerStackAmount=AllTransactionOrders[_identifier].stackAmount.div(3).mul(1);\r\n        require(IERC20(EUSDTAddress).balanceOf(_msgSender())>=_buyerStackAmount,\"The number of remaining tokens in the seller is insufficient\");\r\n        require(IERC20(EUSDTAddress).allowance(_msgSender(),address(this))>=_buyerStackAmount,\"Insufficient number of eusdt approvals\");//\r\n        IERC20(EUSDTAddress).safeTransferFrom(_msgSender(),address(this),_buyerStackAmount);\r\n        //buyer\r\n        if(AllTransactionOrders[_identifier].buyer!=address(0)){\r\n            IERC20(EUSDTAddress).safeTransfer(AllTransactionOrders[_identifier].buyer, AllTransactionOrders[_identifier].buyerstackAmount);\r\n        }\r\n         //buy oder\r\n        AllTransactionOrders[_identifier].buyer=_msgSender();\r\n        AllTransactionOrders[_identifier].buyerstackAmount=_buyerStackAmount;\r\n        return true;\r\n    }\r\n    //Seller lock , confirm transaction\r\n    function SellLock(uint256 _identifier,uint256 _exemptedovertimelosses) public lock returns  (bool) {\r\n        require(Address.isContract(_msgSender())==false,\"not hunman\");\r\n        //\r\n         require(AllTransactionOrders[_identifier].stackAmount>0,\"cancel oder\");//cancel Oder\r\n        require( AllTransactionOrders[_identifier].sellLock==false,\"sell Locked\");//\r\n        require( AllTransactionOrders[_identifier].buyer!=address(0),\"buyer can not empty\");//\r\n        require( AllTransactionOrders[_identifier].seller==_msgSender(),\"not seller\");//\r\n      \r\n        //sell lock\r\n        AllTransactionOrders[_identifier].sellLock=true;\r\n        AllTransactionOrders[_identifier].exemptedovertimelosses=_exemptedovertimelosses;\r\n        return true;\r\n    }\r\n    //Buyer lock, confirm transaction\r\n    function BuyLock(uint256 _identifier) public lock returns (bool) {\r\n        require(Address.isContract(_msgSender())==false,\"not hunman\");\r\n        //\r\n        require(AllTransactionOrders[_identifier].stackAmount>0,\"cancel oder\");//cancel Oder\r\n        require( AllTransactionOrders[_identifier].sellLock==true,\"sell UnLocked\");//\r\n        require( AllTransactionOrders[_identifier].buyLock==false,\"buy Locked\");//\r\n        require( AllTransactionOrders[_identifier].buyer==_msgSender(),\"not seller\");//\r\n        //sell lock\r\n        AllTransactionOrders[_identifier].buyLock=true;\r\n        //Lock time\r\n        Lock_TransactionOrder_Time[_identifier]=block.timestamp;\r\n        return true;\r\n    }\r\n    //Seller confirms receipt of cash\r\n    function ReceiveUSDLock(uint256 _identifier) public lock returns  (bool) {\r\n        require(Address.isContract(_msgSender())==false,\"not hunman\");\r\n        //\r\n        require(AllTransactionOrders[_identifier].stackAmount>0,\"cancel oder\");//cancel Oder\r\n        require( AllTransactionOrders[_identifier].buyLock==true,\"buy UnLocked\");//\r\n        require( AllTransactionOrders[_identifier].receiveUSD==false,\"Received USD\");//\r\n        require( AllTransactionOrders[_identifier].seller==_msgSender(),\"not seller\");//\r\n        //sell lock\r\n        AllTransactionOrders[_identifier].receiveUSD=true;\r\n        return true;\r\n    }\r\n    //Buyer confirms receipt of item\r\n    function ReceiveObjectLock(uint256 _identifier) public lock returns (bool) {\r\n        require(Address.isContract(_msgSender())==false,\"not hunman\");\r\n        //\r\n        require(AllTransactionOrders[_identifier].stackAmount>0,\"cancel oder\");//cancel Oder\r\n        require( AllTransactionOrders[_identifier].receiveUSD==true,\"Not Received USD\");//\r\n        require( AllTransactionOrders[_identifier].receiveObject==false,\"Received Object\");//\r\n        require( AllTransactionOrders[_identifier].buyer==_msgSender(),\"not buyer\");//\r\n        //sell lock\r\n        AllTransactionOrders[_identifier].receiveObject=true;\r\n        //CompleteTransaction\r\n        uint256 sellSA=AllTransactionOrders[_identifier].stackAmount;\r\n        uint256 buySA=AllTransactionOrders[_identifier].buyerstackAmount;\r\n        //exemptedovertimelosses\r\n        uint256 timeExempted=AllTransactionOrders[_identifier].exemptedovertimelosses;\r\n        uint256 timeLock=Lock_TransactionOrder_Time[_identifier];\r\n         uint256 realTaxRate=taxRate;\r\n         uint256 DeTime=block.timestamp-(timeLock+timeExempted);\r\n        if(DeTime>0){\r\n            realTaxRate=realTaxRate.add(DeTime.div(86400).mul(100));//Lock timeout penalty tax rate, increased by 1% per day\r\n        }\r\n        //realTaxRate more than 100%\r\n        if(realTaxRate>10000){\r\n            realTaxRate=10000;//set realTaxRate 100%\r\n        }\r\n        uint256 tx_seller=sellSA.div(10000).mul(realTaxRate);//min  0.01%\r\n        uint256 tx_buyer=buySA.div(10000).mul(realTaxRate);\r\n\r\n        allTax=allTax.add(tx_seller.add(tx_buyer));//all tax\r\n\r\n        IERC20(EUSDTAddress).safeTransfer(AllTransactionOrders[_identifier].seller,sellSA.sub(tx_seller));\r\n        IERC20(EUSDTAddress).safeTransfer(AllTransactionOrders[_identifier].buyer,buySA.sub(tx_buyer));\r\n        \r\n        return true;\r\n    }\r\n    // If the seller cancels the transaction order, this function can only be executed before the buyer locks it\r\n    function SellerCancelOrder(uint256 _identifier) public lock returns  (bool) {\r\n        require(Address.isContract(_msgSender())==false,\"not hunman\");\r\n        //\r\n        require(AllTransactionOrders[_identifier].seller!=address(0),\"null oder\");//  \r\n        require(AllTransactionOrders[_identifier].stackAmount>0,\"cancel oder\");//cancel Oder\r\n        require(AllTransactionOrders[_identifier].buyLock==false,\"buy Locked\");//\r\n        require(AllTransactionOrders[_identifier].seller==_msgSender(),\"not oder owner\");//\r\n        //tax cancelOrderTax\r\n        uint256 SellerSA=AllTransactionOrders[_identifier].stackAmount;\r\n        uint256 BuyerSA=AllTransactionOrders[_identifier].buyerstackAmount;\r\n\r\n        uint256 tx_cancel=SellerSA.div(10000).mul(cancelOrderTax);//min  0.01%\r\n        IERC20(EUSDTAddress).safeTransfer(AllTransactionOrders[_identifier].seller,SellerSA.sub(tx_cancel));\r\n        if(BuyerSA>0){\r\n            IERC20(EUSDTAddress).safeTransfer(AllTransactionOrders[_identifier].buyer,BuyerSA);\r\n        }\r\n        //cancelOrder\r\n        AllTransactionOrders[_identifier].stackAmount=0;\r\n        AllTransactionOrders[_identifier].buyerstackAmount=0;\r\n        return true;\r\n    }\r\n    //If the buyer cancels the transaction order, this function can only be executed before the buyer is locked\r\n    function BuyerCancelOrder(uint256 _identifier) public lock returns  (bool) {\r\n        require(Address.isContract(_msgSender())==false,\"not hunman\");\r\n        //\r\n        require(AllTransactionOrders[_identifier].seller!=address(0),\"null oder\");//  \r\n        require(AllTransactionOrders[_identifier].buyer==_msgSender(),\"not oder owner\");//\r\n        require(AllTransactionOrders[_identifier].buyLock==false,\"buy Locked\");//\r\n        require(AllTransactionOrders[_identifier].buyerstackAmount>0,\"cancel oder\");//cancel Oder\r\n        //tax cancelOrderTax\r\n        uint256 SellerSA=AllTransactionOrders[_identifier].stackAmount;\r\n        uint256 BuyerSA=AllTransactionOrders[_identifier].buyerstackAmount;\r\n\r\n        uint256 tx_cancel=BuyerSA.div(10000).mul(cancelOrderTax);//min  0.01%\r\n        IERC20(EUSDTAddress).safeTransfer(AllTransactionOrders[_identifier].seller,SellerSA);\r\n        IERC20(EUSDTAddress).safeTransfer(AllTransactionOrders[_identifier].buyer,BuyerSA.sub(tx_cancel));\r\n\r\n        //cancelOrder\r\n        AllTransactionOrders[_identifier].stackAmount=0;\r\n        AllTransactionOrders[_identifier].buyerstackAmount=0;\r\n        return true;\r\n    }\r\n    //Get the real tax rate, including the lock timeout penalty tax rate \r\n    function getRealTax(uint256 _identifier) public view returns  (uint256) {\r\n        //exemptedovertimelosses\r\n        uint256 timeExempted=AllTransactionOrders[_identifier].exemptedovertimelosses;\r\n        uint256 timeLock=Lock_TransactionOrder_Time[_identifier];\r\n        uint256 realTaxRate=taxRate;\r\n        uint256 DeTime=block.timestamp-(timeLock+timeExempted);\r\n        if(DeTime>0){\r\n            realTaxRate=realTaxRate.add(DeTime.div(86400).mul(100));//Lock timeout penalty tax rate, increased by 1% per day\r\n        }\r\n        //realTaxRate more than 100%\r\n        if(realTaxRate>10000){\r\n            realTaxRate=10000;//set realTaxRate 100%\r\n        }\r\n        return realTaxRate;\r\n    }\r\n    //Administrator withdraws transaction tax income\r\n    function withdrawTax(address _to) public onlyOwner lock returns (bool) {\r\n        //sell lock\r\n        require(Address.isContract(_msgSender())==false,\"sender not hunman\");\r\n        require(Address.isContract(_to)==false,\"to address not hunman\");\r\n        IERC20(EUSDTAddress).safeTransfer(_to,allTax);\r\n        allTax=0;\r\n        return true;\r\n    }\r\n    //Arbitration white list. This function is under discussion\r\n    function setWhiteList(address[] memory users) public onlyOwner returns  (bool) {\r\n        uint len=users.length;\r\n        for(uint i=0;i<len;i++){\r\n            WhiteList[WhiteListIndex]=users[i];\r\n            WhiteListIndex=WhiteListIndex.add(1);\r\n        }\r\n        emit SetWhiteListEvent(users);\r\n        return true;     \r\n    }\r\n    function getWhiteList() public view returns  (address[] memory) {\r\n        address[] memory users=new address[](WhiteListIndex);\r\n        for(uint i=0;i<WhiteListIndex;i++){\r\n            users[i]=WhiteList[i];\r\n        }\r\n        return users;\r\n    }\r\n    function isInWhiteList(address user) public view returns  (bool) {\r\n        for(uint i=0;i<WhiteListIndex;i++){\r\n            if(WhiteList[i]==user){\r\n                return true;\r\n            }\r\n        }\r\n        return false;\r\n    }\r\n    //approve lock\r\n     modifier lock(){\r\n        require(aproveunlocked==1,\"LOCKED\");\r\n        aproveunlocked=0;\r\n        _;\r\n        aproveunlocked=1;\r\n    }\r\n}",
  "sourcePath": "/c/Users/dx/Ethereum Studio/ECR/contracts/ERC.sol",
  "compiler": {
    "name": "solc",
    "version": "0.8.0+commit.c7dfd78e.Emscripten.clang"
  },
  "schemaVersion": "3.4.2",
  "updatedAt": "2022-03-06T17:07:52.173Z",
  "devdoc": {
    "kind": "dev",
    "methods": {
      "owner()": {
        "details": "Returns the address of the current owner."
      },
      "renounceOwnership()": {
        "details": "Leaves the contract without owner. It will not be possible to call `onlyOwner` functions anymore. Can only be called by the current owner. NOTE: Renouncing ownership will leave the contract without an owner, thereby removing any functionality that is only available to the owner."
      },
      "transferOwnership(address)": {
        "details": "Transfers ownership of the contract to a new account (`newOwner`). Can only be called by the current owner."
      }
    },
    "version": 1
  },
  "userdoc": {
    "kind": "user",
    "methods": {},
    "version": 1
  }
}