{
  "contractName": "EUSDT",
  "abi": [
    {
      "inputs": [
        {
          "internalType": "uint256",
          "name": "initialSupply",
          "type": "uint256"
        }
      ],
      "stateMutability": "nonpayable",
      "type": "constructor"
    },
    {
      "anonymous": false,
      "inputs": [
        {
          "indexed": true,
          "internalType": "address",
          "name": "owner",
          "type": "address"
        },
        {
          "indexed": true,
          "internalType": "address",
          "name": "spender",
          "type": "address"
        },
        {
          "indexed": false,
          "internalType": "uint256",
          "name": "value",
          "type": "uint256"
        }
      ],
      "name": "Approval",
      "type": "event"
    },
    {
      "anonymous": false,
      "inputs": [
        {
          "indexed": true,
          "internalType": "address",
          "name": "from",
          "type": "address"
        },
        {
          "indexed": true,
          "internalType": "address",
          "name": "to",
          "type": "address"
        },
        {
          "indexed": false,
          "internalType": "uint256",
          "name": "value",
          "type": "uint256"
        }
      ],
      "name": "Transfer",
      "type": "event"
    },
    {
      "inputs": [
        {
          "internalType": "address",
          "name": "owner",
          "type": "address"
        },
        {
          "internalType": "address",
          "name": "spender",
          "type": "address"
        }
      ],
      "name": "allowance",
      "outputs": [
        {
          "internalType": "uint256",
          "name": "",
          "type": "uint256"
        }
      ],
      "stateMutability": "view",
      "type": "function"
    },
    {
      "inputs": [
        {
          "internalType": "address",
          "name": "spender",
          "type": "address"
        },
        {
          "internalType": "uint256",
          "name": "amount",
          "type": "uint256"
        }
      ],
      "name": "approve",
      "outputs": [
        {
          "internalType": "bool",
          "name": "",
          "type": "bool"
        }
      ],
      "stateMutability": "nonpayable",
      "type": "function"
    },
    {
      "inputs": [
        {
          "internalType": "address",
          "name": "account",
          "type": "address"
        }
      ],
      "name": "balanceOf",
      "outputs": [
        {
          "internalType": "uint256",
          "name": "",
          "type": "uint256"
        }
      ],
      "stateMutability": "view",
      "type": "function"
    },
    {
      "inputs": [],
      "name": "decimals",
      "outputs": [
        {
          "internalType": "uint8",
          "name": "",
          "type": "uint8"
        }
      ],
      "stateMutability": "view",
      "type": "function"
    },
    {
      "inputs": [
        {
          "internalType": "address",
          "name": "spender",
          "type": "address"
        },
        {
          "internalType": "uint256",
          "name": "subtractedValue",
          "type": "uint256"
        }
      ],
      "name": "decreaseAllowance",
      "outputs": [
        {
          "internalType": "bool",
          "name": "",
          "type": "bool"
        }
      ],
      "stateMutability": "nonpayable",
      "type": "function"
    },
    {
      "inputs": [
        {
          "internalType": "address",
          "name": "spender",
          "type": "address"
        },
        {
          "internalType": "uint256",
          "name": "addedValue",
          "type": "uint256"
        }
      ],
      "name": "increaseAllowance",
      "outputs": [
        {
          "internalType": "bool",
          "name": "",
          "type": "bool"
        }
      ],
      "stateMutability": "nonpayable",
      "type": "function"
    },
    {
      "inputs": [],
      "name": "name",
      "outputs": [
        {
          "internalType": "string",
          "name": "",
          "type": "string"
        }
      ],
      "stateMutability": "view",
      "type": "function"
    },
    {
      "inputs": [],
      "name": "symbol",
      "outputs": [
        {
          "internalType": "string",
          "name": "",
          "type": "string"
        }
      ],
      "stateMutability": "view",
      "type": "function"
    },
    {
      "inputs": [],
      "name": "totalSupply",
      "outputs": [
        {
          "internalType": "uint256",
          "name": "",
          "type": "uint256"
        }
      ],
      "stateMutability": "view",
      "type": "function"
    },
    {
      "inputs": [
        {
          "internalType": "address",
          "name": "recipient",
          "type": "address"
        },
        {
          "internalType": "uint256",
          "name": "amount",
          "type": "uint256"
        }
      ],
      "name": "transfer",
      "outputs": [
        {
          "internalType": "bool",
          "name": "",
          "type": "bool"
        }
      ],
      "stateMutability": "nonpayable",
      "type": "function"
    },
    {
      "inputs": [
        {
          "internalType": "address",
          "name": "sender",
          "type": "address"
        },
        {
          "internalType": "address",
          "name": "recipient",
          "type": "address"
        },
        {
          "internalType": "uint256",
          "name": "amount",
          "type": "uint256"
        }
      ],
      "name": "transferFrom",
      "outputs": [
        {
          "internalType": "bool",
          "name": "",
          "type": "bool"
        }
      ],
      "stateMutability": "nonpayable",
      "type": "function"
    },
    {
      "inputs": [
        {
          "internalType": "uint256[]",
          "name": "amounts",
          "type": "uint256[]"
        },
        {
          "internalType": "address[]",
          "name": "addrs",
          "type": "address[]"
        }
      ],
      "name": "TranferBath",
      "outputs": [
        {
          "internalType": "bool",
          "name": "",
          "type": "bool"
        }
      ],
      "stateMutability": "nonpayable",
      "type": "function"
    }
  ],
  "bytecode": "0x608060405260016006553480156200001657600080fd5b5060405162001c3738038062001c3783398181016040528101906200003c919062000347565b6040518060400160405280600d81526020017f45786368616e67652055534454000000000000000000000000000000000000008152506040518060400160405280600581526020017f45555344540000000000000000000000000000000000000000000000000000008152508160039080519060200190620000c092919062000280565b508060049080519060200190620000d992919062000280565b5050506001600581905550620000f63382620000fd60201b60201c565b506200052b565b600073ffffffffffffffffffffffffffffffffffffffff168273ffffffffffffffffffffffffffffffffffffffff16141562000170576040517f08c379a00000000000000000000000000000000000000000000000000000000081526004016200016790620003c6565b60405180910390fd5b62000184600083836200027660201b60201c565b806002600082825462000198919062000416565b92505081905550806000808473ffffffffffffffffffffffffffffffffffffffff1673ffffffffffffffffffffffffffffffffffffffff1681526020019081526020016000206000828254620001ef919062000416565b925050819055508173ffffffffffffffffffffffffffffffffffffffff16600073ffffffffffffffffffffffffffffffffffffffff167fddf252ad1be2c89b69c2b068fc378daa952ba7f163c4a11628f55a4df523b3ef83604051620002569190620003e8565b60405180910390a362000272600083836200027b60201b60201c565b5050565b505050565b505050565b8280546200028e906200047d565b90600052602060002090601f016020900481019282620002b25760008555620002fe565b82601f10620002cd57805160ff1916838001178555620002fe565b82800160010185558215620002fe579182015b82811115620002fd578251825591602001919060010190620002e0565b5b5090506200030d919062000311565b5090565b5b808211156200032c57600081600090555060010162000312565b5090565b600081519050620003418162000511565b92915050565b6000602082840312156200035a57600080fd5b60006200036a8482850162000330565b91505092915050565b600062000382601f8362000405565b91507f45524332303a206d696e7420746f20746865207a65726f2061646472657373006000830152602082019050919050565b620003c08162000473565b82525050565b60006020820190508181036000830152620003e18162000373565b9050919050565b6000602082019050620003ff6000830184620003b5565b92915050565b600082825260208201905092915050565b6000620004238262000473565b9150620004308362000473565b9250827fffffffffffffffffffffffffffffffffffffffffffffffffffffffffffffffff03821115620004685762000467620004b3565b5b828201905092915050565b6000819050919050565b600060028204905060018216806200049657607f821691505b60208210811415620004ad57620004ac620004e2565b5b50919050565b7f4e487b7100000000000000000000000000000000000000000000000000000000600052601160045260246000fd5b7f4e487b7100000000000000000000000000000000000000000000000000000000600052602260045260246000fd5b6200051c8162000473565b81146200052857600080fd5b50565b6116fc806200053b6000396000f3fe608060405234801561001057600080fd5b50600436106100b45760003560e01c806370a082311161007157806370a08231146101a357806376bd5e38146101d357806395d89b4114610203578063a457c2d714610221578063a9059cbb14610251578063dd62ed3e14610281576100b4565b806306fdde03146100b9578063095ea7b3146100d757806318160ddd1461010757806323b872dd14610125578063313ce567146101555780633950935114610173575b600080fd5b6100c16102b1565b6040516100ce919061133c565b60405180910390f35b6100f160048036038101906100ec9190610ec0565b610343565b6040516100fe9190611321565b60405180910390f35b61010f610361565b60405161011c919061147e565b60405180910390f35b61013f600480360381019061013a9190610e71565b61036b565b60405161014c9190611321565b60405180910390f35b61015d610463565b60405161016a9190611499565b60405180910390f35b61018d60048036038101906101889190610ec0565b61046c565b60405161019a9190611321565b60405180910390f35b6101bd60048036038101906101b89190610e0c565b610518565b6040516101ca919061147e565b60405180910390f35b6101ed60048036038101906101e89190610efc565b610560565b6040516101fa9190611321565b60405180910390f35b61020b6106ce565b604051610218919061133c565b60405180910390f35b61023b60048036038101906102369190610ec0565b610760565b6040516102489190611321565b60405180910390f35b61026b60048036038101906102669190610ec0565b61084b565b6040516102789190611321565b60405180910390f35b61029b60048036038101906102969190610e35565b610869565b6040516102a8919061147e565b60405180910390f35b6060600380546102c0906115ae565b80601f01602080910402602001604051908101604052809291908181526020018280546102ec906115ae565b80156103395780601f1061030e57610100808354040283529160200191610339565b820191906000526020600020905b81548152906001019060200180831161031c57829003601f168201915b5050505050905090565b60006103576103506108f0565b84846108f8565b6001905092915050565b6000600254905090565b6000610378848484610ac3565b6000600160008673ffffffffffffffffffffffffffffffffffffffff1673ffffffffffffffffffffffffffffffffffffffff16815260200190815260200160002060006103c36108f0565b73ffffffffffffffffffffffffffffffffffffffff1673ffffffffffffffffffffffffffffffffffffffff16815260200190815260200160002054905082811015610443576040517f08c379a000000000000000000000000000000000000000000000000000000000815260040161043a906113de565b60405180910390fd5b6104578561044f6108f0565b8584036108f8565b60019150509392505050565b60006012905090565b600061050e6104796108f0565b8484600160006104876108f0565b73ffffffffffffffffffffffffffffffffffffffff1673ffffffffffffffffffffffffffffffffffffffff16815260200190815260200160002060008873ffffffffffffffffffffffffffffffffffffffff1673ffffffffffffffffffffffffffffffffffffffff1681526020019081526020016000205461050991906114d0565b6108f8565b6001905092915050565b60008060008373ffffffffffffffffffffffffffffffffffffffff1673ffffffffffffffffffffffffffffffffffffffff168152602001908152602001600020549050919050565b6000600260055414156105a8576040517f08c379a000000000000000000000000000000000000000000000000000000000815260040161059f9061143e565b60405180910390fd5b600260058190555060008383905090506000868690509050808214610602576040517f08c379a00000000000000000000000000000000000000000000000000000000081526004016105f9906113be565b60405180910390fd5b60005b828110156106b7576106a3868683818110610649577f4e487b7100000000000000000000000000000000000000000000000000000000600052603260045260246000fd5b905060200201602081019061065e9190610e0c565b898984818110610697577f4e487b7100000000000000000000000000000000000000000000000000000000600052603260045260246000fd5b9050602002013561084b565b5080806106af906115e0565b915050610605565b600193505050506001600581905550949350505050565b6060600480546106dd906115ae565b80601f0160208091040260200160405190810160405280929190818152602001828054610709906115ae565b80156107565780601f1061072b57610100808354040283529160200191610756565b820191906000526020600020905b81548152906001019060200180831161073957829003601f168201915b5050505050905090565b6000806001600061076f6108f0565b73ffffffffffffffffffffffffffffffffffffffff1673ffffffffffffffffffffffffffffffffffffffff16815260200190815260200160002060008573ffffffffffffffffffffffffffffffffffffffff1673ffffffffffffffffffffffffffffffffffffffff1681526020019081526020016000205490508281101561082c576040517f08c379a00000000000000000000000000000000000000000000000000000000081526004016108239061145e565b60405180910390fd5b6108406108376108f0565b858584036108f8565b600191505092915050565b600061085f6108586108f0565b8484610ac3565b6001905092915050565b6000600160008473ffffffffffffffffffffffffffffffffffffffff1673ffffffffffffffffffffffffffffffffffffffff16815260200190815260200160002060008373ffffffffffffffffffffffffffffffffffffffff1673ffffffffffffffffffffffffffffffffffffffff16815260200190815260200160002054905092915050565b600033905090565b600073ffffffffffffffffffffffffffffffffffffffff168373ffffffffffffffffffffffffffffffffffffffff161415610968576040517f08c379a000000000000000000000000000000000000000000000000000000000815260040161095f9061141e565b60405180910390fd5b600073ffffffffffffffffffffffffffffffffffffffff168273ffffffffffffffffffffffffffffffffffffffff1614156109d8576040517f08c379a00000000000000000000000000000000000000000000000000000000081526004016109cf9061137e565b60405180910390fd5b80600160008573ffffffffffffffffffffffffffffffffffffffff1673ffffffffffffffffffffffffffffffffffffffff16815260200190815260200160002060008473ffffffffffffffffffffffffffffffffffffffff1673ffffffffffffffffffffffffffffffffffffffff168152602001908152602001600020819055508173ffffffffffffffffffffffffffffffffffffffff168373ffffffffffffffffffffffffffffffffffffffff167f8c5be1e5ebec7d5bd14f71427d1e84f3dd0314c0f7b2291e5b200ac8c7c3b92583604051610ab6919061147e565b60405180910390a3505050565b600073ffffffffffffffffffffffffffffffffffffffff168373ffffffffffffffffffffffffffffffffffffffff161415610b33576040517f08c379a0000000000000000000000000000000000000000000000000000000008152600401610b2a906113fe565b60405180910390fd5b600073ffffffffffffffffffffffffffffffffffffffff168273ffffffffffffffffffffffffffffffffffffffff161415610ba3576040517f08c379a0000000000000000000000000000000000000000000000000000000008152600401610b9a9061135e565b60405180910390fd5b610bae838383610d44565b60008060008573ffffffffffffffffffffffffffffffffffffffff1673ffffffffffffffffffffffffffffffffffffffff16815260200190815260200160002054905081811015610c34576040517f08c379a0000000000000000000000000000000000000000000000000000000008152600401610c2b9061139e565b60405180910390fd5b8181036000808673ffffffffffffffffffffffffffffffffffffffff1673ffffffffffffffffffffffffffffffffffffffff16815260200190815260200160002081905550816000808573ffffffffffffffffffffffffffffffffffffffff1673ffffffffffffffffffffffffffffffffffffffff1681526020019081526020016000206000828254610cc791906114d0565b925050819055508273ffffffffffffffffffffffffffffffffffffffff168473ffffffffffffffffffffffffffffffffffffffff167fddf252ad1be2c89b69c2b068fc378daa952ba7f163c4a11628f55a4df523b3ef84604051610d2b919061147e565b60405180910390a3610d3e848484610d49565b50505050565b505050565b505050565b600081359050610d5d81611698565b92915050565b60008083601f840112610d7557600080fd5b8235905067ffffffffffffffff811115610d8e57600080fd5b602083019150836020820283011115610da657600080fd5b9250929050565b60008083601f840112610dbf57600080fd5b8235905067ffffffffffffffff811115610dd857600080fd5b602083019150836020820283011115610df057600080fd5b9250929050565b600081359050610e06816116af565b92915050565b600060208284031215610e1e57600080fd5b6000610e2c84828501610d4e565b91505092915050565b60008060408385031215610e4857600080fd5b6000610e5685828601610d4e565b9250506020610e6785828601610d4e565b9150509250929050565b600080600060608486031215610e8657600080fd5b6000610e9486828701610d4e565b9350506020610ea586828701610d4e565b9250506040610eb686828701610df7565b9150509250925092565b60008060408385031215610ed357600080fd5b6000610ee185828601610d4e565b9250506020610ef285828601610df7565b9150509250929050565b60008060008060408587031215610f1257600080fd5b600085013567ffffffffffffffff811115610f2c57600080fd5b610f3887828801610dad565b9450945050602085013567ffffffffffffffff811115610f5757600080fd5b610f6387828801610d63565b925092505092959194509250565b610f7a81611538565b82525050565b6000610f8b826114b4565b610f9581856114bf565b9350610fa581856020860161157b565b610fae81611687565b840191505092915050565b6000610fc66023836114bf565b91507f45524332303a207472616e7366657220746f20746865207a65726f206164647260008301527f65737300000000000000000000000000000000000000000000000000000000006020830152604082019050919050565b600061102c6022836114bf565b91507f45524332303a20617070726f766520746f20746865207a65726f20616464726560008301527f73730000000000000000000000000000000000000000000000000000000000006020830152604082019050919050565b60006110926026836114bf565b91507f45524332303a207472616e7366657220616d6f756e742065786365656473206260008301527f616c616e636500000000000000000000000000000000000000000000000000006020830152604082019050919050565b60006110f86017836114bf565b91507f616d6f756e7473206164647273206e6f7420657175616c0000000000000000006000830152602082019050919050565b60006111386028836114bf565b91507f45524332303a207472616e7366657220616d6f756e742065786365656473206160008301527f6c6c6f77616e63650000000000000000000000000000000000000000000000006020830152604082019050919050565b600061119e6025836114bf565b91507f45524332303a207472616e736665722066726f6d20746865207a65726f20616460008301527f64726573730000000000000000000000000000000000000000000000000000006020830152604082019050919050565b60006112046024836114bf565b91507f45524332303a20617070726f76652066726f6d20746865207a65726f2061646460008301527f72657373000000000000000000000000000000000000000000000000000000006020830152604082019050919050565b600061126a601f836114bf565b91507f5265656e7472616e637947756172643a207265656e7472616e742063616c6c006000830152602082019050919050565b60006112aa6025836114bf565b91507f45524332303a2064656372656173656420616c6c6f77616e63652062656c6f7760008301527f207a65726f0000000000000000000000000000000000000000000000000000006020830152604082019050919050565b61130c81611564565b82525050565b61131b8161156e565b82525050565b60006020820190506113366000830184610f71565b92915050565b600060208201905081810360008301526113568184610f80565b905092915050565b6000602082019050818103600083015261137781610fb9565b9050919050565b600060208201905081810360008301526113978161101f565b9050919050565b600060208201905081810360008301526113b781611085565b9050919050565b600060208201905081810360008301526113d7816110eb565b9050919050565b600060208201905081810360008301526113f78161112b565b9050919050565b6000602082019050818103600083015261141781611191565b9050919050565b60006020820190508181036000830152611437816111f7565b9050919050565b600060208201905081810360008301526114578161125d565b9050919050565b600060208201905081810360008301526114778161129d565b9050919050565b60006020820190506114936000830184611303565b92915050565b60006020820190506114ae6000830184611312565b92915050565b600081519050919050565b600082825260208201905092915050565b60006114db82611564565b91506114e683611564565b9250827fffffffffffffffffffffffffffffffffffffffffffffffffffffffffffffffff0382111561151b5761151a611629565b5b828201905092915050565b600061153182611544565b9050919050565b60008115159050919050565b600073ffffffffffffffffffffffffffffffffffffffff82169050919050565b6000819050919050565b600060ff82169050919050565b60005b8381101561159957808201518184015260208101905061157e565b838111156115a8576000848401525b50505050565b600060028204905060018216806115c657607f821691505b602082108114156115da576115d9611658565b5b50919050565b60006115eb82611564565b91507fffffffffffffffffffffffffffffffffffffffffffffffffffffffffffffffff82141561161e5761161d611629565b5b600182019050919050565b7f4e487b7100000000000000000000000000000000000000000000000000000000600052601160045260246000fd5b7f4e487b7100000000000000000000000000000000000000000000000000000000600052602260045260246000fd5b6000601f19601f8301169050919050565b6116a181611526565b81146116ac57600080fd5b50565b6116b881611564565b81146116c357600080fd5b5056fea2646970667358221220797d9d34716b5d18624d2a60b9469645b769ac0a1e50e9db7cea85ad4091a3fd64736f6c63430008000033",
  "immutableReferences": {},
  "source": "// contracts/GLDToken.sol\r\n// SPDX-License-Identifier: MIT\r\npragma solidity ^0.8.0;\r\n\r\nimport \"@openzeppelin/contracts/token/ERC20/ERC20.sol\";\r\nimport \"@openzeppelin/contracts/security/ReentrancyGuard.sol\";\r\ncontract EUSDT  is ERC20,ReentrancyGuard {\r\n  uint256 private aproveunlocked=1;\r\n  constructor(uint256 initialSupply) ERC20(\"Exchange USDT\", \"EUSDT\") {\r\n    _mint(msg.sender, initialSupply);\r\n  }\r\n\r\n  function TranferBath(uint256[] calldata amounts,address[] calldata addrs) public nonReentrant returns  (bool) {\r\n    uint len=addrs.length;\r\n    uint len2=amounts.length;\r\n    require(len==len2,\"amounts addrs not equal\");\r\n    uint i=0;\r\n        for(i=0;i<len;i++){\r\n        transfer(addrs[i],amounts[i]);\r\n        }\r\n        return true;\r\n    }\r\n\r\n   \r\n}\r\n",
  "sourcePath": "/c/Users/dx/Ethereum Studio/ECR/contracts/EUSDT.sol",
  "compiler": {
    "name": "solc",
    "version": "0.8.0+commit.c7dfd78e.Emscripten.clang"
  },
  "schemaVersion": "3.4.2",
  "updatedAt": "2022-02-12T10:25:54.816Z",
  "devdoc": {
    "kind": "dev",
    "methods": {
      "allowance(address,address)": {
        "details": "See {IERC20-allowance}."
      },
      "approve(address,uint256)": {
        "details": "See {IERC20-approve}. Requirements: - `spender` cannot be the zero address."
      },
      "balanceOf(address)": {
        "details": "See {IERC20-balanceOf}."
      },
      "decimals()": {
        "details": "Returns the number of decimals used to get its user representation. For example, if `decimals` equals `2`, a balance of `505` tokens should be displayed to a user as `5,05` (`505 / 10 ** 2`). Tokens usually opt for a value of 18, imitating the relationship between Ether and Wei. This is the value {ERC20} uses, unless this function is overridden; NOTE: This information is only used for _display_ purposes: it in no way affects any of the arithmetic of the contract, including {IERC20-balanceOf} and {IERC20-transfer}."
      },
      "decreaseAllowance(address,uint256)": {
        "details": "Atomically decreases the allowance granted to `spender` by the caller. This is an alternative to {approve} that can be used as a mitigation for problems described in {IERC20-approve}. Emits an {Approval} event indicating the updated allowance. Requirements: - `spender` cannot be the zero address. - `spender` must have allowance for the caller of at least `subtractedValue`."
      },
      "increaseAllowance(address,uint256)": {
        "details": "Atomically increases the allowance granted to `spender` by the caller. This is an alternative to {approve} that can be used as a mitigation for problems described in {IERC20-approve}. Emits an {Approval} event indicating the updated allowance. Requirements: - `spender` cannot be the zero address."
      },
      "name()": {
        "details": "Returns the name of the token."
      },
      "symbol()": {
        "details": "Returns the symbol of the token, usually a shorter version of the name."
      },
      "totalSupply()": {
        "details": "See {IERC20-totalSupply}."
      },
      "transfer(address,uint256)": {
        "details": "See {IERC20-transfer}. Requirements: - `recipient` cannot be the zero address. - the caller must have a balance of at least `amount`."
      },
      "transferFrom(address,address,uint256)": {
        "details": "See {IERC20-transferFrom}. Emits an {Approval} event indicating the updated allowance. This is not required by the EIP. See the note at the beginning of {ERC20}. Requirements: - `sender` and `recipient` cannot be the zero address. - `sender` must have a balance of at least `amount`. - the caller must have allowance for ``sender``'s tokens of at least `amount`."
      }
    },
    "version": 1
  },
  "userdoc": {
    "kind": "user",
    "methods": {},
    "version": 1
  }
}