{
  "contractName": "EUSDT",
  "abi": [
    {
      "inputs": [
        {
          "internalType": "uint256",
          "name": "initialSupply",
          "type": "uint256"
        }
      ],
      "stateMutability": "nonpayable",
      "type": "constructor"
    },
    {
      "anonymous": false,
      "inputs": [
        {
          "indexed": true,
          "internalType": "address",
          "name": "owner",
          "type": "address"
        },
        {
          "indexed": true,
          "internalType": "address",
          "name": "spender",
          "type": "address"
        },
        {
          "indexed": false,
          "internalType": "uint256",
          "name": "value",
          "type": "uint256"
        }
      ],
      "name": "Approval",
      "type": "event"
    },
    {
      "anonymous": false,
      "inputs": [
        {
          "indexed": true,
          "internalType": "address",
          "name": "from",
          "type": "address"
        },
        {
          "indexed": true,
          "internalType": "address",
          "name": "to",
          "type": "address"
        },
        {
          "indexed": false,
          "internalType": "uint256",
          "name": "value",
          "type": "uint256"
        }
      ],
      "name": "Transfer",
      "type": "event"
    },
    {
      "inputs": [
        {
          "internalType": "address",
          "name": "owner",
          "type": "address"
        },
        {
          "internalType": "address",
          "name": "spender",
          "type": "address"
        }
      ],
      "name": "allowance",
      "outputs": [
        {
          "internalType": "uint256",
          "name": "",
          "type": "uint256"
        }
      ],
      "stateMutability": "view",
      "type": "function"
    },
    {
      "inputs": [
        {
          "internalType": "address",
          "name": "spender",
          "type": "address"
        },
        {
          "internalType": "uint256",
          "name": "amount",
          "type": "uint256"
        }
      ],
      "name": "approve",
      "outputs": [
        {
          "internalType": "bool",
          "name": "",
          "type": "bool"
        }
      ],
      "stateMutability": "nonpayable",
      "type": "function"
    },
    {
      "inputs": [
        {
          "internalType": "address",
          "name": "account",
          "type": "address"
        }
      ],
      "name": "balanceOf",
      "outputs": [
        {
          "internalType": "uint256",
          "name": "",
          "type": "uint256"
        }
      ],
      "stateMutability": "view",
      "type": "function"
    },
    {
      "inputs": [],
      "name": "decimals",
      "outputs": [
        {
          "internalType": "uint8",
          "name": "",
          "type": "uint8"
        }
      ],
      "stateMutability": "view",
      "type": "function"
    },
    {
      "inputs": [
        {
          "internalType": "address",
          "name": "spender",
          "type": "address"
        },
        {
          "internalType": "uint256",
          "name": "subtractedValue",
          "type": "uint256"
        }
      ],
      "name": "decreaseAllowance",
      "outputs": [
        {
          "internalType": "bool",
          "name": "",
          "type": "bool"
        }
      ],
      "stateMutability": "nonpayable",
      "type": "function"
    },
    {
      "inputs": [
        {
          "internalType": "address",
          "name": "spender",
          "type": "address"
        },
        {
          "internalType": "uint256",
          "name": "addedValue",
          "type": "uint256"
        }
      ],
      "name": "increaseAllowance",
      "outputs": [
        {
          "internalType": "bool",
          "name": "",
          "type": "bool"
        }
      ],
      "stateMutability": "nonpayable",
      "type": "function"
    },
    {
      "inputs": [],
      "name": "name",
      "outputs": [
        {
          "internalType": "string",
          "name": "",
          "type": "string"
        }
      ],
      "stateMutability": "view",
      "type": "function"
    },
    {
      "inputs": [],
      "name": "symbol",
      "outputs": [
        {
          "internalType": "string",
          "name": "",
          "type": "string"
        }
      ],
      "stateMutability": "view",
      "type": "function"
    },
    {
      "inputs": [],
      "name": "totalSupply",
      "outputs": [
        {
          "internalType": "uint256",
          "name": "",
          "type": "uint256"
        }
      ],
      "stateMutability": "view",
      "type": "function"
    },
    {
      "inputs": [
        {
          "internalType": "address",
          "name": "recipient",
          "type": "address"
        },
        {
          "internalType": "uint256",
          "name": "amount",
          "type": "uint256"
        }
      ],
      "name": "transfer",
      "outputs": [
        {
          "internalType": "bool",
          "name": "",
          "type": "bool"
        }
      ],
      "stateMutability": "nonpayable",
      "type": "function"
    },
    {
      "inputs": [
        {
          "internalType": "address",
          "name": "sender",
          "type": "address"
        },
        {
          "internalType": "address",
          "name": "recipient",
          "type": "address"
        },
        {
          "internalType": "uint256",
          "name": "amount",
          "type": "uint256"
        }
      ],
      "name": "transferFrom",
      "outputs": [
        {
          "internalType": "bool",
          "name": "",
          "type": "bool"
        }
      ],
      "stateMutability": "nonpayable",
      "type": "function"
    },
    {
      "inputs": [
        {
          "internalType": "uint256[]",
          "name": "amounts",
          "type": "uint256[]"
        },
        {
          "internalType": "address[]",
          "name": "addrs",
          "type": "address[]"
        }
      ],
      "name": "TranferBath",
      "outputs": [
        {
          "internalType": "bool",
          "name": "",
          "type": "bool"
        }
      ],
      "stateMutability": "nonpayable",
      "type": "function"
    }
  ],
  "bytecode": "0x608060405260016005553480156200001657600080fd5b5060405162001c2e38038062001c2e83398181016040528101906200003c91906200033f565b6040518060400160405280600d81526020017f45786368616e67652055534454000000000000000000000000000000000000008152506040518060400160405280600581526020017f45555344540000000000000000000000000000000000000000000000000000008152508160039080519060200190620000c092919062000278565b508060049080519060200190620000d992919062000278565b505050620000ee3382620000f560201b60201c565b5062000523565b600073ffffffffffffffffffffffffffffffffffffffff168273ffffffffffffffffffffffffffffffffffffffff16141562000168576040517f08c379a00000000000000000000000000000000000000000000000000000000081526004016200015f90620003be565b60405180910390fd5b6200017c600083836200026e60201b60201c565b80600260008282546200019091906200040e565b92505081905550806000808473ffffffffffffffffffffffffffffffffffffffff1673ffffffffffffffffffffffffffffffffffffffff1681526020019081526020016000206000828254620001e791906200040e565b925050819055508173ffffffffffffffffffffffffffffffffffffffff16600073ffffffffffffffffffffffffffffffffffffffff167fddf252ad1be2c89b69c2b068fc378daa952ba7f163c4a11628f55a4df523b3ef836040516200024e9190620003e0565b60405180910390a36200026a600083836200027360201b60201c565b5050565b505050565b505050565b828054620002869062000475565b90600052602060002090601f016020900481019282620002aa5760008555620002f6565b82601f10620002c557805160ff1916838001178555620002f6565b82800160010185558215620002f6579182015b82811115620002f5578251825591602001919060010190620002d8565b5b50905062000305919062000309565b5090565b5b80821115620003245760008160009055506001016200030a565b5090565b600081519050620003398162000509565b92915050565b6000602082840312156200035257600080fd5b6000620003628482850162000328565b91505092915050565b60006200037a601f83620003fd565b91507f45524332303a206d696e7420746f20746865207a65726f2061646472657373006000830152602082019050919050565b620003b8816200046b565b82525050565b60006020820190508181036000830152620003d9816200036b565b9050919050565b6000602082019050620003f76000830184620003ad565b92915050565b600082825260208201905092915050565b60006200041b826200046b565b915062000428836200046b565b9250827fffffffffffffffffffffffffffffffffffffffffffffffffffffffffffffffff0382111562000460576200045f620004ab565b5b828201905092915050565b6000819050919050565b600060028204905060018216806200048e57607f821691505b60208210811415620004a557620004a4620004da565b5b50919050565b7f4e487b7100000000000000000000000000000000000000000000000000000000600052601160045260246000fd5b7f4e487b7100000000000000000000000000000000000000000000000000000000600052602260045260246000fd5b62000514816200046b565b81146200052057600080fd5b50565b6116fb80620005336000396000f3fe608060405234801561001057600080fd5b50600436106100b45760003560e01c806370a082311161007157806370a08231146101a357806376bd5e38146101d357806395d89b4114610203578063a457c2d714610221578063a9059cbb14610251578063dd62ed3e14610281576100b4565b806306fdde03146100b9578063095ea7b3146100d757806318160ddd1461010757806323b872dd14610125578063313ce567146101555780633950935114610173575b600080fd5b6100c16102b1565b6040516100ce919061133b565b60405180910390f35b6100f160048036038101906100ec9190610ebf565b610343565b6040516100fe9190611320565b60405180910390f35b61010f610361565b60405161011c919061147d565b60405180910390f35b61013f600480360381019061013a9190610e70565b61036b565b60405161014c9190611320565b60405180910390f35b61015d610463565b60405161016a9190611498565b60405180910390f35b61018d60048036038101906101889190610ebf565b61046c565b60405161019a9190611320565b60405180910390f35b6101bd60048036038101906101b89190610e0b565b610518565b6040516101ca919061147d565b60405180910390f35b6101ed60048036038101906101e89190610efb565b610560565b6040516101fa9190611320565b60405180910390f35b61020b6106cd565b604051610218919061133b565b60405180910390f35b61023b60048036038101906102369190610ebf565b61075f565b6040516102489190611320565b60405180910390f35b61026b60048036038101906102669190610ebf565b61084a565b6040516102789190611320565b60405180910390f35b61029b60048036038101906102969190610e34565b610868565b6040516102a8919061147d565b60405180910390f35b6060600380546102c0906115ad565b80601f01602080910402602001604051908101604052809291908181526020018280546102ec906115ad565b80156103395780601f1061030e57610100808354040283529160200191610339565b820191906000526020600020905b81548152906001019060200180831161031c57829003601f168201915b5050505050905090565b60006103576103506108ef565b84846108f7565b6001905092915050565b6000600254905090565b6000610378848484610ac2565b6000600160008673ffffffffffffffffffffffffffffffffffffffff1673ffffffffffffffffffffffffffffffffffffffff16815260200190815260200160002060006103c36108ef565b73ffffffffffffffffffffffffffffffffffffffff1673ffffffffffffffffffffffffffffffffffffffff16815260200190815260200160002054905082811015610443576040517f08c379a000000000000000000000000000000000000000000000000000000000815260040161043a906113dd565b60405180910390fd5b6104578561044f6108ef565b8584036108f7565b60019150509392505050565b60006012905090565b600061050e6104796108ef565b8484600160006104876108ef565b73ffffffffffffffffffffffffffffffffffffffff1673ffffffffffffffffffffffffffffffffffffffff16815260200190815260200160002060008873ffffffffffffffffffffffffffffffffffffffff1673ffffffffffffffffffffffffffffffffffffffff1681526020019081526020016000205461050991906114cf565b6108f7565b6001905092915050565b60008060008373ffffffffffffffffffffffffffffffffffffffff1673ffffffffffffffffffffffffffffffffffffffff168152602001908152602001600020549050919050565b60006001600554146105a7576040517f08c379a000000000000000000000000000000000000000000000000000000000815260040161059e9061143d565b60405180910390fd5b600060058190555060008383905090506000868690509050808214610601576040517f08c379a00000000000000000000000000000000000000000000000000000000081526004016105f8906113bd565b60405180910390fd5b60005b828110156106b6576106a2868683818110610648577f4e487b7100000000000000000000000000000000000000000000000000000000600052603260045260246000fd5b905060200201602081019061065d9190610e0b565b898984818110610696577f4e487b7100000000000000000000000000000000000000000000000000000000600052603260045260246000fd5b9050602002013561084a565b5080806106ae906115df565b915050610604565b600193505050506001600581905550949350505050565b6060600480546106dc906115ad565b80601f0160208091040260200160405190810160405280929190818152602001828054610708906115ad565b80156107555780601f1061072a57610100808354040283529160200191610755565b820191906000526020600020905b81548152906001019060200180831161073857829003601f168201915b5050505050905090565b6000806001600061076e6108ef565b73ffffffffffffffffffffffffffffffffffffffff1673ffffffffffffffffffffffffffffffffffffffff16815260200190815260200160002060008573ffffffffffffffffffffffffffffffffffffffff1673ffffffffffffffffffffffffffffffffffffffff1681526020019081526020016000205490508281101561082b576040517f08c379a00000000000000000000000000000000000000000000000000000000081526004016108229061145d565b60405180910390fd5b61083f6108366108ef565b858584036108f7565b600191505092915050565b600061085e6108576108ef565b8484610ac2565b6001905092915050565b6000600160008473ffffffffffffffffffffffffffffffffffffffff1673ffffffffffffffffffffffffffffffffffffffff16815260200190815260200160002060008373ffffffffffffffffffffffffffffffffffffffff1673ffffffffffffffffffffffffffffffffffffffff16815260200190815260200160002054905092915050565b600033905090565b600073ffffffffffffffffffffffffffffffffffffffff168373ffffffffffffffffffffffffffffffffffffffff161415610967576040517f08c379a000000000000000000000000000000000000000000000000000000000815260040161095e9061141d565b60405180910390fd5b600073ffffffffffffffffffffffffffffffffffffffff168273ffffffffffffffffffffffffffffffffffffffff1614156109d7576040517f08c379a00000000000000000000000000000000000000000000000000000000081526004016109ce9061137d565b60405180910390fd5b80600160008573ffffffffffffffffffffffffffffffffffffffff1673ffffffffffffffffffffffffffffffffffffffff16815260200190815260200160002060008473ffffffffffffffffffffffffffffffffffffffff1673ffffffffffffffffffffffffffffffffffffffff168152602001908152602001600020819055508173ffffffffffffffffffffffffffffffffffffffff168373ffffffffffffffffffffffffffffffffffffffff167f8c5be1e5ebec7d5bd14f71427d1e84f3dd0314c0f7b2291e5b200ac8c7c3b92583604051610ab5919061147d565b60405180910390a3505050565b600073ffffffffffffffffffffffffffffffffffffffff168373ffffffffffffffffffffffffffffffffffffffff161415610b32576040517f08c379a0000000000000000000000000000000000000000000000000000000008152600401610b29906113fd565b60405180910390fd5b600073ffffffffffffffffffffffffffffffffffffffff168273ffffffffffffffffffffffffffffffffffffffff161415610ba2576040517f08c379a0000000000000000000000000000000000000000000000000000000008152600401610b999061135d565b60405180910390fd5b610bad838383610d43565b60008060008573ffffffffffffffffffffffffffffffffffffffff1673ffffffffffffffffffffffffffffffffffffffff16815260200190815260200160002054905081811015610c33576040517f08c379a0000000000000000000000000000000000000000000000000000000008152600401610c2a9061139d565b60405180910390fd5b8181036000808673ffffffffffffffffffffffffffffffffffffffff1673ffffffffffffffffffffffffffffffffffffffff16815260200190815260200160002081905550816000808573ffffffffffffffffffffffffffffffffffffffff1673ffffffffffffffffffffffffffffffffffffffff1681526020019081526020016000206000828254610cc691906114cf565b925050819055508273ffffffffffffffffffffffffffffffffffffffff168473ffffffffffffffffffffffffffffffffffffffff167fddf252ad1be2c89b69c2b068fc378daa952ba7f163c4a11628f55a4df523b3ef84604051610d2a919061147d565b60405180910390a3610d3d848484610d48565b50505050565b505050565b505050565b600081359050610d5c81611697565b92915050565b60008083601f840112610d7457600080fd5b8235905067ffffffffffffffff811115610d8d57600080fd5b602083019150836020820283011115610da557600080fd5b9250929050565b60008083601f840112610dbe57600080fd5b8235905067ffffffffffffffff811115610dd757600080fd5b602083019150836020820283011115610def57600080fd5b9250929050565b600081359050610e05816116ae565b92915050565b600060208284031215610e1d57600080fd5b6000610e2b84828501610d4d565b91505092915050565b60008060408385031215610e4757600080fd5b6000610e5585828601610d4d565b9250506020610e6685828601610d4d565b9150509250929050565b600080600060608486031215610e8557600080fd5b6000610e9386828701610d4d565b9350506020610ea486828701610d4d565b9250506040610eb586828701610df6565b9150509250925092565b60008060408385031215610ed257600080fd5b6000610ee085828601610d4d565b9250506020610ef185828601610df6565b9150509250929050565b60008060008060408587031215610f1157600080fd5b600085013567ffffffffffffffff811115610f2b57600080fd5b610f3787828801610dac565b9450945050602085013567ffffffffffffffff811115610f5657600080fd5b610f6287828801610d62565b925092505092959194509250565b610f7981611537565b82525050565b6000610f8a826114b3565b610f9481856114be565b9350610fa481856020860161157a565b610fad81611686565b840191505092915050565b6000610fc56023836114be565b91507f45524332303a207472616e7366657220746f20746865207a65726f206164647260008301527f65737300000000000000000000000000000000000000000000000000000000006020830152604082019050919050565b600061102b6022836114be565b91507f45524332303a20617070726f766520746f20746865207a65726f20616464726560008301527f73730000000000000000000000000000000000000000000000000000000000006020830152604082019050919050565b60006110916026836114be565b91507f45524332303a207472616e7366657220616d6f756e742065786365656473206260008301527f616c616e636500000000000000000000000000000000000000000000000000006020830152604082019050919050565b60006110f76017836114be565b91507f616d6f756e7473206164647273206e6f7420657175616c0000000000000000006000830152602082019050919050565b60006111376028836114be565b91507f45524332303a207472616e7366657220616d6f756e742065786365656473206160008301527f6c6c6f77616e63650000000000000000000000000000000000000000000000006020830152604082019050919050565b600061119d6025836114be565b91507f45524332303a207472616e736665722066726f6d20746865207a65726f20616460008301527f64726573730000000000000000000000000000000000000000000000000000006020830152604082019050919050565b60006112036024836114be565b91507f45524332303a20617070726f76652066726f6d20746865207a65726f2061646460008301527f72657373000000000000000000000000000000000000000000000000000000006020830152604082019050919050565b60006112696006836114be565b91507f4c4f434b454400000000000000000000000000000000000000000000000000006000830152602082019050919050565b60006112a96025836114be565b91507f45524332303a2064656372656173656420616c6c6f77616e63652062656c6f7760008301527f207a65726f0000000000000000000000000000000000000000000000000000006020830152604082019050919050565b61130b81611563565b82525050565b61131a8161156d565b82525050565b60006020820190506113356000830184610f70565b92915050565b600060208201905081810360008301526113558184610f7f565b905092915050565b6000602082019050818103600083015261137681610fb8565b9050919050565b600060208201905081810360008301526113968161101e565b9050919050565b600060208201905081810360008301526113b681611084565b9050919050565b600060208201905081810360008301526113d6816110ea565b9050919050565b600060208201905081810360008301526113f68161112a565b9050919050565b6000602082019050818103600083015261141681611190565b9050919050565b60006020820190508181036000830152611436816111f6565b9050919050565b600060208201905081810360008301526114568161125c565b9050919050565b600060208201905081810360008301526114768161129c565b9050919050565b60006020820190506114926000830184611302565b92915050565b60006020820190506114ad6000830184611311565b92915050565b600081519050919050565b600082825260208201905092915050565b60006114da82611563565b91506114e583611563565b9250827fffffffffffffffffffffffffffffffffffffffffffffffffffffffffffffffff0382111561151a57611519611628565b5b828201905092915050565b600061153082611543565b9050919050565b60008115159050919050565b600073ffffffffffffffffffffffffffffffffffffffff82169050919050565b6000819050919050565b600060ff82169050919050565b60005b8381101561159857808201518184015260208101905061157d565b838111156115a7576000848401525b50505050565b600060028204905060018216806115c557607f821691505b602082108114156115d9576115d8611657565b5b50919050565b60006115ea82611563565b91507fffffffffffffffffffffffffffffffffffffffffffffffffffffffffffffffff82141561161d5761161c611628565b5b600182019050919050565b7f4e487b7100000000000000000000000000000000000000000000000000000000600052601160045260246000fd5b7f4e487b7100000000000000000000000000000000000000000000000000000000600052602260045260246000fd5b6000601f19601f8301169050919050565b6116a081611525565b81146116ab57600080fd5b50565b6116b781611563565b81146116c257600080fd5b5056fea264697066735822122048130b2999abf8ff1270e0c1b57ec505a5918a40bd6e1ad0ba8bf30890e6fe2364736f6c63430008000033",
  "immutableReferences": {},
  "source": "// contracts/GLDToken.sol\r\n// SPDX-License-Identifier: MIT\r\npragma solidity ^0.8.0;\r\n\r\nimport \"@openzeppelin/contracts/token/ERC20/ERC20.sol\";\r\n\r\ncontract EUSDT  is ERC20 {\r\n  uint256 private aproveunlocked=1;\r\n  constructor(uint256 initialSupply) ERC20(\"Exchange USDT\", \"EUSDT\") {\r\n    _mint(msg.sender, initialSupply);\r\n  }\r\n\r\n  function TranferBath(uint256[] calldata amounts,address[] calldata addrs) public approvelock returns  (bool) {\r\n    uint len=addrs.length;\r\n    uint len2=amounts.length;\r\n    require(len==len2,\"amounts addrs not equal\");\r\n    uint i=0;\r\n        for(i=0;i<len;i++){\r\n        transfer(addrs[i],amounts[i]);\r\n        }\r\n        return true;\r\n    }\r\n\r\n    modifier approvelock(){\r\n        require(aproveunlocked==1,\"LOCKED\");\r\n        aproveunlocked=0;\r\n        _;\r\n        aproveunlocked=1;\r\n    }\r\n}\r\n",
  "sourcePath": "/c/Users/dx/Ethereum Studio/ECR/contracts/EUSDT.sol",
  "compiler": {
    "name": "solc",
    "version": "0.8.0+commit.c7dfd78e.Emscripten.clang"
  },
  "schemaVersion": "3.4.2",
  "updatedAt": "2022-02-09T05:33:14.013Z",
  "devdoc": {
    "kind": "dev",
    "methods": {
      "allowance(address,address)": {
        "details": "See {IERC20-allowance}."
      },
      "approve(address,uint256)": {
        "details": "See {IERC20-approve}. Requirements: - `spender` cannot be the zero address."
      },
      "balanceOf(address)": {
        "details": "See {IERC20-balanceOf}."
      },
      "decimals()": {
        "details": "Returns the number of decimals used to get its user representation. For example, if `decimals` equals `2`, a balance of `505` tokens should be displayed to a user as `5,05` (`505 / 10 ** 2`). Tokens usually opt for a value of 18, imitating the relationship between Ether and Wei. This is the value {ERC20} uses, unless this function is overridden; NOTE: This information is only used for _display_ purposes: it in no way affects any of the arithmetic of the contract, including {IERC20-balanceOf} and {IERC20-transfer}."
      },
      "decreaseAllowance(address,uint256)": {
        "details": "Atomically decreases the allowance granted to `spender` by the caller. This is an alternative to {approve} that can be used as a mitigation for problems described in {IERC20-approve}. Emits an {Approval} event indicating the updated allowance. Requirements: - `spender` cannot be the zero address. - `spender` must have allowance for the caller of at least `subtractedValue`."
      },
      "increaseAllowance(address,uint256)": {
        "details": "Atomically increases the allowance granted to `spender` by the caller. This is an alternative to {approve} that can be used as a mitigation for problems described in {IERC20-approve}. Emits an {Approval} event indicating the updated allowance. Requirements: - `spender` cannot be the zero address."
      },
      "name()": {
        "details": "Returns the name of the token."
      },
      "symbol()": {
        "details": "Returns the symbol of the token, usually a shorter version of the name."
      },
      "totalSupply()": {
        "details": "See {IERC20-totalSupply}."
      },
      "transfer(address,uint256)": {
        "details": "See {IERC20-transfer}. Requirements: - `recipient` cannot be the zero address. - the caller must have a balance of at least `amount`."
      },
      "transferFrom(address,address,uint256)": {
        "details": "See {IERC20-transferFrom}. Emits an {Approval} event indicating the updated allowance. This is not required by the EIP. See the note at the beginning of {ERC20}. Requirements: - `sender` and `recipient` cannot be the zero address. - `sender` must have a balance of at least `amount`. - the caller must have allowance for ``sender``'s tokens of at least `amount`."
      }
    },
    "version": 1
  },
  "userdoc": {
    "kind": "user",
    "methods": {},
    "version": 1
  }
}