{
  "contractName": "Exchange",
  "abi": [
    {
      "inputs": [
        {
          "internalType": "address",
          "name": "_erc20address",
          "type": "address"
        },
        {
          "internalType": "address",
          "name": "_usdtAddress",
          "type": "address"
        }
      ],
      "stateMutability": "nonpayable",
      "type": "constructor"
    },
    {
      "anonymous": false,
      "inputs": [
        {
          "indexed": false,
          "internalType": "address",
          "name": "user",
          "type": "address"
        },
        {
          "indexed": false,
          "internalType": "uint256",
          "name": "amount",
          "type": "uint256"
        }
      ],
      "name": "ExchangeBuyEvent",
      "type": "event"
    },
    {
      "anonymous": false,
      "inputs": [
        {
          "indexed": false,
          "internalType": "address",
          "name": "user",
          "type": "address"
        },
        {
          "indexed": false,
          "internalType": "uint256",
          "name": "amount",
          "type": "uint256"
        }
      ],
      "name": "ExchangeSellEvent",
      "type": "event"
    },
    {
      "anonymous": false,
      "inputs": [
        {
          "indexed": true,
          "internalType": "address",
          "name": "previousOwner",
          "type": "address"
        },
        {
          "indexed": true,
          "internalType": "address",
          "name": "newOwner",
          "type": "address"
        }
      ],
      "name": "OwnershipTransferred",
      "type": "event"
    },
    {
      "inputs": [],
      "name": "ERC20Address",
      "outputs": [
        {
          "internalType": "address",
          "name": "",
          "type": "address"
        }
      ],
      "stateMutability": "view",
      "type": "function"
    },
    {
      "inputs": [],
      "name": "ExchangeActive",
      "outputs": [
        {
          "internalType": "bool",
          "name": "",
          "type": "bool"
        }
      ],
      "stateMutability": "view",
      "type": "function"
    },
    {
      "inputs": [],
      "name": "USDTAddress",
      "outputs": [
        {
          "internalType": "address",
          "name": "",
          "type": "address"
        }
      ],
      "stateMutability": "view",
      "type": "function"
    },
    {
      "inputs": [],
      "name": "owner",
      "outputs": [
        {
          "internalType": "address",
          "name": "",
          "type": "address"
        }
      ],
      "stateMutability": "view",
      "type": "function"
    },
    {
      "inputs": [],
      "name": "renounceOwnership",
      "outputs": [],
      "stateMutability": "nonpayable",
      "type": "function"
    },
    {
      "inputs": [
        {
          "internalType": "address",
          "name": "newOwner",
          "type": "address"
        }
      ],
      "name": "transferOwnership",
      "outputs": [],
      "stateMutability": "nonpayable",
      "type": "function"
    },
    {
      "inputs": [
        {
          "internalType": "uint256",
          "name": "amount",
          "type": "uint256"
        }
      ],
      "name": "buy",
      "outputs": [
        {
          "internalType": "bool",
          "name": "",
          "type": "bool"
        }
      ],
      "stateMutability": "nonpayable",
      "type": "function"
    },
    {
      "inputs": [
        {
          "internalType": "uint256",
          "name": "amount",
          "type": "uint256"
        }
      ],
      "name": "sell",
      "outputs": [
        {
          "internalType": "bool",
          "name": "",
          "type": "bool"
        }
      ],
      "stateMutability": "nonpayable",
      "type": "function"
    }
  ],
  "bytecode": "0x60806040526000600360146101000a81548160ff0219169083151502179055503480156200002c57600080fd5b5060405162001a4238038062001a428339818101604052810190620000529190620001e6565b62000072620000666200010360201b60201c565b6200010b60201b60201c565b6001808190555081600260006101000a81548173ffffffffffffffffffffffffffffffffffffffff021916908373ffffffffffffffffffffffffffffffffffffffff16021790555080600360006101000a81548173ffffffffffffffffffffffffffffffffffffffff021916908373ffffffffffffffffffffffffffffffffffffffff160217905550505062000275565b600033905090565b60008060009054906101000a900473ffffffffffffffffffffffffffffffffffffffff169050816000806101000a81548173ffffffffffffffffffffffffffffffffffffffff021916908373ffffffffffffffffffffffffffffffffffffffff1602179055508173ffffffffffffffffffffffffffffffffffffffff168173ffffffffffffffffffffffffffffffffffffffff167f8be0079c531659141344cd1fd0a4f28419497f9722a3daafe3b4186f6b6457e060405160405180910390a35050565b600081519050620001e0816200025b565b92915050565b60008060408385031215620001fa57600080fd5b60006200020a85828601620001cf565b92505060206200021d85828601620001cf565b9150509250929050565b600062000234826200023b565b9050919050565b600073ffffffffffffffffffffffffffffffffffffffff82169050919050565b620002668162000227565b81146200027257600080fd5b50565b6117bd80620002856000396000f3fe608060405234801561001057600080fd5b50600436106100885760003560e01c8063d96a094a1161005b578063d96a094a146100f1578063e4849b3214610121578063f2fde38b14610151578063ff920c741461016d57610088565b806310caa9e61461008d578063715018a6146100ab5780638da5cb5b146100b5578063a6021ace146100d3575b600080fd5b61009561018b565b6040516100a29190611507565b60405180910390f35b6100b361019e565b005b6100bd610226565b6040516100ca9190611463565b60405180910390f35b6100db61024f565b6040516100e89190611463565b60405180910390f35b61010b60048036038101906101069190611025565b610275565b6040516101189190611507565b60405180910390f35b61013b60048036038101906101369190611025565b610647565b6040516101489190611507565b60405180910390f35b61016b60048036038101906101669190610fd3565b610a19565b005b610175610b11565b6040516101829190611463565b60405180910390f35b600360149054906101000a900460ff1681565b6101a6610b37565b73ffffffffffffffffffffffffffffffffffffffff166101c4610226565b73ffffffffffffffffffffffffffffffffffffffff161461021a576040517f08c379a0000000000000000000000000000000000000000000000000000000008152600401610211906115c4565b60405180910390fd5b6102246000610b3f565b565b60008060009054906101000a900473ffffffffffffffffffffffffffffffffffffffff16905090565b600260009054906101000a900473ffffffffffffffffffffffffffffffffffffffff1681565b6000600260015414156102bd576040517f08c379a00000000000000000000000000000000000000000000000000000000081526004016102b490611644565b60405180910390fd5b6002600181905550600015156102d96102d4610b37565b610c03565b15151461031b576040517f08c379a000000000000000000000000000000000000000000000000000000000815260040161031290611664565b60405180910390fd5b600360149054906101000a900460ff1661036a576040517f08c379a0000000000000000000000000000000000000000000000000000000008152600401610361906115e4565b60405180910390fd5b81600260009054906101000a900473ffffffffffffffffffffffffffffffffffffffff1673ffffffffffffffffffffffffffffffffffffffff166370a08231306040518263ffffffff1660e01b81526004016103c69190611463565b60206040518083038186803b1580156103de57600080fd5b505afa1580156103f2573d6000803e3d6000fd5b505050506040513d601f19601f82011682018060405250810190610416919061104e565b1015610457576040517f08c379a000000000000000000000000000000000000000000000000000000000815260040161044e90611584565b60405180910390fd5b81600360009054906101000a900473ffffffffffffffffffffffffffffffffffffffff1673ffffffffffffffffffffffffffffffffffffffff1663dd62ed3e61049e610b37565b306040518363ffffffff1660e01b81526004016104bc92919061147e565b60206040518083038186803b1580156104d457600080fd5b505afa1580156104e8573d6000803e3d6000fd5b505050506040513d601f19601f8201168201806040525081019061050c919061104e565b101561054d576040517f08c379a0000000000000000000000000000000000000000000000000000000008152600401610544906115a4565b60405180910390fd5b6105a3610558610b37565b3084600360009054906101000a900473ffffffffffffffffffffffffffffffffffffffff1673ffffffffffffffffffffffffffffffffffffffff16610c16909392919063ffffffff16565b6105f76105ae610b37565b83600260009054906101000a900473ffffffffffffffffffffffffffffffffffffffff1673ffffffffffffffffffffffffffffffffffffffff16610c9f9092919063ffffffff16565b7f730fd46fdba7ebc9b41a60b85c6ba3a1933e9b65aa60ffb851166c389e0daba2610620610b37565b8360405161062f9291906114de565b60405180910390a16001905060018081905550919050565b60006002600154141561068f576040517f08c379a000000000000000000000000000000000000000000000000000000000815260040161068690611644565b60405180910390fd5b6002600181905550600015156106ab6106a6610b37565b610c03565b1515146106ed576040517f08c379a00000000000000000000000000000000000000000000000000000000081526004016106e490611664565b60405180910390fd5b600360149054906101000a900460ff1661073c576040517f08c379a0000000000000000000000000000000000000000000000000000000008152600401610733906115e4565b60405180910390fd5b81600360009054906101000a900473ffffffffffffffffffffffffffffffffffffffff1673ffffffffffffffffffffffffffffffffffffffff166370a08231306040518263ffffffff1660e01b81526004016107989190611463565b60206040518083038186803b1580156107b057600080fd5b505afa1580156107c4573d6000803e3d6000fd5b505050506040513d601f19601f820116820180604052508101906107e8919061104e565b1015610829576040517f08c379a000000000000000000000000000000000000000000000000000000000815260040161082090611584565b60405180910390fd5b81600260009054906101000a900473ffffffffffffffffffffffffffffffffffffffff1673ffffffffffffffffffffffffffffffffffffffff1663dd62ed3e610870610b37565b306040518363ffffffff1660e01b815260040161088e92919061147e565b60206040518083038186803b1580156108a657600080fd5b505afa1580156108ba573d6000803e3d6000fd5b505050506040513d601f19601f820116820180604052508101906108de919061104e565b101561091f576040517f08c379a0000000000000000000000000000000000000000000000000000000008152600401610916906115a4565b60405180910390fd5b61097561092a610b37565b3084600260009054906101000a900473ffffffffffffffffffffffffffffffffffffffff1673ffffffffffffffffffffffffffffffffffffffff16610c16909392919063ffffffff16565b6109c9610980610b37565b83600360009054906101000a900473ffffffffffffffffffffffffffffffffffffffff1673ffffffffffffffffffffffffffffffffffffffff16610c9f9092919063ffffffff16565b7f72f653786ecde7c65e8ee75c86e2d35bb3f455153a8b371e7fcc4768c75c029d6109f2610b37565b83604051610a019291906114de565b60405180910390a16001905060018081905550919050565b610a21610b37565b73ffffffffffffffffffffffffffffffffffffffff16610a3f610226565b73ffffffffffffffffffffffffffffffffffffffff1614610a95576040517f08c379a0000000000000000000000000000000000000000000000000000000008152600401610a8c906115c4565b60405180910390fd5b600073ffffffffffffffffffffffffffffffffffffffff168173ffffffffffffffffffffffffffffffffffffffff161415610b05576040517f08c379a0000000000000000000000000000000000000000000000000000000008152600401610afc90611544565b60405180910390fd5b610b0e81610b3f565b50565b600360009054906101000a900473ffffffffffffffffffffffffffffffffffffffff1681565b600033905090565b60008060009054906101000a900473ffffffffffffffffffffffffffffffffffffffff169050816000806101000a81548173ffffffffffffffffffffffffffffffffffffffff021916908373ffffffffffffffffffffffffffffffffffffffff1602179055508173ffffffffffffffffffffffffffffffffffffffff168173ffffffffffffffffffffffffffffffffffffffff167f8be0079c531659141344cd1fd0a4f28419497f9722a3daafe3b4186f6b6457e060405160405180910390a35050565b600080823b905060008111915050919050565b610c99846323b872dd60e01b858585604051602401610c37939291906114a7565b604051602081830303815290604052907bffffffffffffffffffffffffffffffffffffffffffffffffffffffff19166020820180517bffffffffffffffffffffffffffffffffffffffffffffffffffffffff8381831617835250505050610d25565b50505050565b610d208363a9059cbb60e01b8484604051602401610cbe9291906114de565b604051602081830303815290604052907bffffffffffffffffffffffffffffffffffffffffffffffffffffffff19166020820180517bffffffffffffffffffffffffffffffffffffffffffffffffffffffff8381831617835250505050610d25565b505050565b6000610d87826040518060400160405280602081526020017f5361666545524332303a206c6f772d6c6576656c2063616c6c206661696c65648152508573ffffffffffffffffffffffffffffffffffffffff16610dec9092919063ffffffff16565b9050600081511115610de75780806020019051810190610da79190610ffc565b610de6576040517f08c379a0000000000000000000000000000000000000000000000000000000008152600401610ddd90611624565b60405180910390fd5b5b505050565b6060610dfb8484600085610e04565b90509392505050565b606082471015610e49576040517f08c379a0000000000000000000000000000000000000000000000000000000008152600401610e4090611564565b60405180910390fd5b610e5285610c03565b610e91576040517f08c379a0000000000000000000000000000000000000000000000000000000008152600401610e8890611604565b60405180910390fd5b6000808673ffffffffffffffffffffffffffffffffffffffff168587604051610eba919061144c565b60006040518083038185875af1925050503d8060008114610ef7576040519150601f19603f3d011682016040523d82523d6000602084013e610efc565b606091505b5091509150610f0c828286610f18565b92505050949350505050565b60608315610f2857829050610f78565b600083511115610f3b5782518084602001fd5b816040517f08c379a0000000000000000000000000000000000000000000000000000000008152600401610f6f9190611522565b60405180910390fd5b9392505050565b600081359050610f8e81611742565b92915050565b600081519050610fa381611759565b92915050565b600081359050610fb881611770565b92915050565b600081519050610fcd81611770565b92915050565b600060208284031215610fe557600080fd5b6000610ff384828501610f7f565b91505092915050565b60006020828403121561100e57600080fd5b600061101c84828501610f94565b91505092915050565b60006020828403121561103757600080fd5b600061104584828501610fa9565b91505092915050565b60006020828403121561106057600080fd5b600061106e84828501610fbe565b91505092915050565b611080816116b6565b82525050565b61108f816116c8565b82525050565b60006110a082611684565b6110aa818561169a565b93506110ba8185602086016116fe565b80840191505092915050565b60006110d18261168f565b6110db81856116a5565b93506110eb8185602086016116fe565b6110f481611731565b840191505092915050565b600061110c6026836116a5565b91507f4f776e61626c653a206e6577206f776e657220697320746865207a65726f206160008301527f64647265737300000000000000000000000000000000000000000000000000006020830152604082019050919050565b60006111726026836116a5565b91507f416464726573733a20696e73756666696369656e742062616c616e636520666f60008301527f722063616c6c00000000000000000000000000000000000000000000000000006020830152604082019050919050565b60006111d8603e836116a5565b91507f546865206e756d626572206f662072656d61696e696e6720746f6b656e73206960008301527f6e2074686520636f6e747261637420697320696e73756666696369656e7400006020830152604082019050919050565b600061123e6025836116a5565b91507f496e73756666696369656e74206e756d626572206f662075736474206170707260008301527f6f76616c730000000000000000000000000000000000000000000000000000006020830152604082019050919050565b60006112a46020836116a5565b91507f4f776e61626c653a2063616c6c6572206973206e6f7420746865206f776e65726000830152602082019050919050565b60006112e46013836116a5565b91507f45786368616e6765206e6f7420416374697665000000000000000000000000006000830152602082019050919050565b6000611324601d836116a5565b91507f416464726573733a2063616c6c20746f206e6f6e2d636f6e74726163740000006000830152602082019050919050565b6000611364602a836116a5565b91507f5361666545524332303a204552433230206f7065726174696f6e20646964206e60008301527f6f742073756363656564000000000000000000000000000000000000000000006020830152604082019050919050565b60006113ca601f836116a5565b91507f5265656e7472616e637947756172643a207265656e7472616e742063616c6c006000830152602082019050919050565b600061140a600a836116a5565b91507f6e6f742068756e6d616e000000000000000000000000000000000000000000006000830152602082019050919050565b611446816116f4565b82525050565b60006114588284611095565b915081905092915050565b60006020820190506114786000830184611077565b92915050565b60006040820190506114936000830185611077565b6114a06020830184611077565b9392505050565b60006060820190506114bc6000830186611077565b6114c96020830185611077565b6114d6604083018461143d565b949350505050565b60006040820190506114f36000830185611077565b611500602083018461143d565b9392505050565b600060208201905061151c6000830184611086565b92915050565b6000602082019050818103600083015261153c81846110c6565b905092915050565b6000602082019050818103600083015261155d816110ff565b9050919050565b6000602082019050818103600083015261157d81611165565b9050919050565b6000602082019050818103600083015261159d816111cb565b9050919050565b600060208201905081810360008301526115bd81611231565b9050919050565b600060208201905081810360008301526115dd81611297565b9050919050565b600060208201905081810360008301526115fd816112d7565b9050919050565b6000602082019050818103600083015261161d81611317565b9050919050565b6000602082019050818103600083015261163d81611357565b9050919050565b6000602082019050818103600083015261165d816113bd565b9050919050565b6000602082019050818103600083015261167d816113fd565b9050919050565b600081519050919050565b600081519050919050565b600081905092915050565b600082825260208201905092915050565b60006116c1826116d4565b9050919050565b60008115159050919050565b600073ffffffffffffffffffffffffffffffffffffffff82169050919050565b6000819050919050565b60005b8381101561171c578082015181840152602081019050611701565b8381111561172b576000848401525b50505050565b6000601f19601f8301169050919050565b61174b816116b6565b811461175657600080fd5b50565b611762816116c8565b811461176d57600080fd5b50565b611779816116f4565b811461178457600080fd5b5056fea2646970667358221220d21fde949d7ee1e1f3f46b8a7508665146ae1de15046301cbd029f95a9326af264736f6c63430008000033",
  "immutableReferences": {},
  "source": "// SPDX-License-Identifier: MIT\r\npragma solidity ^0.8.0;\r\nimport \"@openzeppelin/contracts/utils/Address.sol\";\r\nimport \"@openzeppelin/contracts/access/Ownable.sol\";\r\nimport \"@openzeppelin/contracts/utils/Context.sol\";\r\nimport \"@openzeppelin/contracts/utils/math/SafeMath.sol\";\r\nimport \"@openzeppelin/contracts/token/ERC20/utils/SafeERC20.sol\";\r\nimport \"@openzeppelin/contracts/security/ReentrancyGuard.sol\";\r\n\r\n/*\r\n1. The main function of this contract is to realize the 1:1 exchange between eusdt and usdt, that is, the eusdt token price is linked to usdt\r\n\r\n2. Eusdt project party transfers eusdt token into exchange contract\r\n\r\n3. First, the user needs to call the approve (spender, amount) of the usdt contract to authorize a certain number of usdts to the exchange contract. The spender fills in the address of the exchange contract. The amount suggests the maximum value of uint256\r\n\r\n4. Then, the user needs to call the approve (spender, amount) of eusdt contract to authorize a certain number of eusdts to the exchange contract. Spender fills in the address of the exchange contract. The amount suggests the maximum value of uint256\r\n\r\nThe contract between the two users of exchange DT and frontaccount can be completed because of the authorization between the two users of exchange DT and frontaccount\r\n\r\n6. The user calls the buy function of the exchange contract to complete the conversion of usdt 1:1 into eusdt\r\n\r\n7. The user calls the sell function of the exchange contract to complete the eusdt 1:1 conversion to usdt\r\n\r\n*8. After the exchange contract goes online, the code will be opened and the contract administrator address will be given to zero address to ensure the security and fairness of the contract\r\n\r\n\r\nPS: usdt contract is also an erc-20 token, which inherits the function interface of erc20\r\n*/\r\ncontract Exchange is Context,Ownable,ReentrancyGuard {\r\n    using SafeMath for uint256;\r\n    using SafeERC20 for IERC20;\r\n    address public ERC20Address;//EUSDT address\r\n    address public USDTAddress;//USDT address\r\n    bool public ExchangeActive=false;//\r\n\r\n    event ExchangeBuyEvent(address user,uint amount);\r\n    event ExchangeSellEvent(address user,uint amount);\r\n    constructor(address _erc20address,address _usdtAddress) {\r\n        ERC20Address=_erc20address;\r\n        USDTAddress=_usdtAddress;\r\n    }  \r\n    \r\n    function buy(uint256 amount) public nonReentrant returns  (bool) {\r\n        require(Address.isContract(_msgSender())==false,\"not hunman\");\r\n        require(ExchangeActive,\"Exchange not Active\");\r\n        require(IERC20(ERC20Address).balanceOf(address(this))>=amount,\"The number of remaining tokens in the contract is insufficient\");\r\n        require(IERC20(USDTAddress).allowance(_msgSender(),address(this))>=amount,\"Insufficient number of usdt approvals\");//\r\n        IERC20(USDTAddress).safeTransferFrom(_msgSender(),address(this), amount);\r\n        IERC20(ERC20Address).safeTransfer(_msgSender(), amount);\r\n        emit ExchangeBuyEvent(_msgSender(),amount);\r\n        return true;\r\n    }\r\n    function sell(uint256 amount) public nonReentrant returns  (bool) {\r\n        require(Address.isContract(_msgSender())==false,\"not hunman\");\r\n        require(ExchangeActive,\"Exchange not Active\");\r\n        require(IERC20(USDTAddress).balanceOf(address(this))>=amount,\"The number of remaining tokens in the contract is insufficient\");\r\n        require(IERC20(ERC20Address).allowance(_msgSender(),address(this))>=amount,\"Insufficient number of usdt approvals\");//\r\n        IERC20(ERC20Address).safeTransferFrom(_msgSender(),address(this), amount);\r\n        IERC20(USDTAddress).safeTransfer(_msgSender(), amount);\r\n        emit ExchangeSellEvent(_msgSender(),amount);\r\n        return true;\r\n    }\r\n    \r\n}",
  "sourcePath": "/c/Users/dx/Ethereum Studio/ECR/contracts/Exchange.sol",
  "compiler": {
    "name": "solc",
    "version": "0.8.0+commit.c7dfd78e.Emscripten.clang"
  },
  "schemaVersion": "3.4.2",
  "updatedAt": "2022-02-09T05:33:14.034Z",
  "devdoc": {
    "kind": "dev",
    "methods": {
      "owner()": {
        "details": "Returns the address of the current owner."
      },
      "renounceOwnership()": {
        "details": "Leaves the contract without owner. It will not be possible to call `onlyOwner` functions anymore. Can only be called by the current owner. NOTE: Renouncing ownership will leave the contract without an owner, thereby removing any functionality that is only available to the owner."
      },
      "transferOwnership(address)": {
        "details": "Transfers ownership of the contract to a new account (`newOwner`). Can only be called by the current owner."
      }
    },
    "version": 1
  },
  "userdoc": {
    "kind": "user",
    "methods": {},
    "version": 1
  }
}