{
  "contractName": "GameItem",
  "abi": [
    {
      "inputs": [],
      "stateMutability": "nonpayable",
      "type": "constructor"
    },
    {
      "anonymous": false,
      "inputs": [
        {
          "indexed": true,
          "internalType": "address",
          "name": "owner",
          "type": "address"
        },
        {
          "indexed": true,
          "internalType": "address",
          "name": "approved",
          "type": "address"
        },
        {
          "indexed": true,
          "internalType": "uint256",
          "name": "tokenId",
          "type": "uint256"
        }
      ],
      "name": "Approval",
      "type": "event"
    },
    {
      "anonymous": false,
      "inputs": [
        {
          "indexed": true,
          "internalType": "address",
          "name": "owner",
          "type": "address"
        },
        {
          "indexed": true,
          "internalType": "address",
          "name": "operator",
          "type": "address"
        },
        {
          "indexed": false,
          "internalType": "bool",
          "name": "approved",
          "type": "bool"
        }
      ],
      "name": "ApprovalForAll",
      "type": "event"
    },
    {
      "anonymous": false,
      "inputs": [
        {
          "indexed": true,
          "internalType": "address",
          "name": "from",
          "type": "address"
        },
        {
          "indexed": true,
          "internalType": "address",
          "name": "to",
          "type": "address"
        },
        {
          "indexed": true,
          "internalType": "uint256",
          "name": "tokenId",
          "type": "uint256"
        }
      ],
      "name": "Transfer",
      "type": "event"
    },
    {
      "inputs": [
        {
          "internalType": "address",
          "name": "to",
          "type": "address"
        },
        {
          "internalType": "uint256",
          "name": "tokenId",
          "type": "uint256"
        }
      ],
      "name": "approve",
      "outputs": [],
      "stateMutability": "nonpayable",
      "type": "function"
    },
    {
      "inputs": [
        {
          "internalType": "address",
          "name": "owner",
          "type": "address"
        }
      ],
      "name": "balanceOf",
      "outputs": [
        {
          "internalType": "uint256",
          "name": "",
          "type": "uint256"
        }
      ],
      "stateMutability": "view",
      "type": "function"
    },
    {
      "inputs": [
        {
          "internalType": "uint256",
          "name": "tokenId",
          "type": "uint256"
        }
      ],
      "name": "getApproved",
      "outputs": [
        {
          "internalType": "address",
          "name": "",
          "type": "address"
        }
      ],
      "stateMutability": "view",
      "type": "function"
    },
    {
      "inputs": [
        {
          "internalType": "address",
          "name": "owner",
          "type": "address"
        },
        {
          "internalType": "address",
          "name": "operator",
          "type": "address"
        }
      ],
      "name": "isApprovedForAll",
      "outputs": [
        {
          "internalType": "bool",
          "name": "",
          "type": "bool"
        }
      ],
      "stateMutability": "view",
      "type": "function"
    },
    {
      "inputs": [],
      "name": "name",
      "outputs": [
        {
          "internalType": "string",
          "name": "",
          "type": "string"
        }
      ],
      "stateMutability": "view",
      "type": "function"
    },
    {
      "inputs": [
        {
          "internalType": "uint256",
          "name": "tokenId",
          "type": "uint256"
        }
      ],
      "name": "ownerOf",
      "outputs": [
        {
          "internalType": "address",
          "name": "",
          "type": "address"
        }
      ],
      "stateMutability": "view",
      "type": "function"
    },
    {
      "inputs": [
        {
          "internalType": "address",
          "name": "from",
          "type": "address"
        },
        {
          "internalType": "address",
          "name": "to",
          "type": "address"
        },
        {
          "internalType": "uint256",
          "name": "tokenId",
          "type": "uint256"
        }
      ],
      "name": "safeTransferFrom",
      "outputs": [],
      "stateMutability": "nonpayable",
      "type": "function"
    },
    {
      "inputs": [
        {
          "internalType": "address",
          "name": "from",
          "type": "address"
        },
        {
          "internalType": "address",
          "name": "to",
          "type": "address"
        },
        {
          "internalType": "uint256",
          "name": "tokenId",
          "type": "uint256"
        },
        {
          "internalType": "bytes",
          "name": "_data",
          "type": "bytes"
        }
      ],
      "name": "safeTransferFrom",
      "outputs": [],
      "stateMutability": "nonpayable",
      "type": "function"
    },
    {
      "inputs": [
        {
          "internalType": "address",
          "name": "operator",
          "type": "address"
        },
        {
          "internalType": "bool",
          "name": "approved",
          "type": "bool"
        }
      ],
      "name": "setApprovalForAll",
      "outputs": [],
      "stateMutability": "nonpayable",
      "type": "function"
    },
    {
      "inputs": [
        {
          "internalType": "bytes4",
          "name": "interfaceId",
          "type": "bytes4"
        }
      ],
      "name": "supportsInterface",
      "outputs": [
        {
          "internalType": "bool",
          "name": "",
          "type": "bool"
        }
      ],
      "stateMutability": "view",
      "type": "function"
    },
    {
      "inputs": [],
      "name": "symbol",
      "outputs": [
        {
          "internalType": "string",
          "name": "",
          "type": "string"
        }
      ],
      "stateMutability": "view",
      "type": "function"
    },
    {
      "inputs": [
        {
          "internalType": "uint256",
          "name": "tokenId",
          "type": "uint256"
        }
      ],
      "name": "tokenURI",
      "outputs": [
        {
          "internalType": "string",
          "name": "",
          "type": "string"
        }
      ],
      "stateMutability": "view",
      "type": "function"
    },
    {
      "inputs": [
        {
          "internalType": "address",
          "name": "from",
          "type": "address"
        },
        {
          "internalType": "address",
          "name": "to",
          "type": "address"
        },
        {
          "internalType": "uint256",
          "name": "tokenId",
          "type": "uint256"
        }
      ],
      "name": "transferFrom",
      "outputs": [],
      "stateMutability": "nonpayable",
      "type": "function"
    },
    {
      "inputs": [
        {
          "internalType": "address",
          "name": "player",
          "type": "address"
        },
        {
          "internalType": "string",
          "name": "tokenURI",
          "type": "string"
        }
      ],
      "name": "awardItem",
      "outputs": [
        {
          "internalType": "uint256",
          "name": "",
          "type": "uint256"
        }
      ],
      "stateMutability": "nonpayable",
      "type": "function"
    }
  ],
  "bytecode": "0x60806040523480156200001157600080fd5b506040518060400160405280600881526020017f47616d654974656d0000000000000000000000000000000000000000000000008152506040518060400160405280600381526020017f49544d0000000000000000000000000000000000000000000000000000000000815250816000908051906020019062000096929190620000b8565b508060019080519060200190620000af929190620000b8565b505050620001cd565b828054620000c69062000168565b90600052602060002090601f016020900481019282620000ea576000855562000136565b82601f106200010557805160ff191683800117855562000136565b8280016001018555821562000136579182015b828111156200013557825182559160200191906001019062000118565b5b50905062000145919062000149565b5090565b5b80821115620001645760008160009055506001016200014a565b5090565b600060028204905060018216806200018157607f821691505b602082108114156200019857620001976200019e565b5b50919050565b7f4e487b7100000000000000000000000000000000000000000000000000000000600052602260045260246000fd5b612a8580620001dd6000396000f3fe608060405234801561001057600080fd5b50600436106100ea5760003560e01c806370a082311161008c578063b88d4fde11610066578063b88d4fde1461025b578063c87b56dd14610277578063cf378343146102a7578063e985e9c5146102d7576100ea565b806370a08231146101f157806395d89b4114610221578063a22cb4651461023f576100ea565b8063095ea7b3116100c8578063095ea7b31461016d57806323b872dd1461018957806342842e0e146101a55780636352211e146101c1576100ea565b806301ffc9a7146100ef57806306fdde031461011f578063081812fc1461013d575b600080fd5b61010960048036038101906101049190611c19565b610307565b60405161011691906123dd565b60405180910390f35b6101276103e9565b60405161013491906123f8565b60405180910390f35b61015760048036038101906101529190611c6b565b61047b565b6040516101649190612376565b60405180910390f35b61018760048036038101906101829190611bdd565b610500565b005b6101a3600480360381019061019e9190611a83565b610618565b005b6101bf60048036038101906101ba9190611a83565b610678565b005b6101db60048036038101906101d69190611c6b565b610698565b6040516101e89190612376565b60405180910390f35b61020b60048036038101906102069190611a1e565b61074a565b604051610218919061261a565b60405180910390f35b610229610802565b60405161023691906123f8565b60405180910390f35b61025960048036038101906102549190611b4d565b610894565b005b61027560048036038101906102709190611ad2565b610a15565b005b610291600480360381019061028c9190611c6b565b610a77565b60405161029e91906123f8565b60405180910390f35b6102c160048036038101906102bc9190611b89565b610bc9565b6040516102ce919061261a565b60405180910390f35b6102f160048036038101906102ec9190611a47565b610c01565b6040516102fe91906123dd565b60405180910390f35b60007f80ac58cd000000000000000000000000000000000000000000000000000000007bffffffffffffffffffffffffffffffffffffffffffffffffffffffff1916827bffffffffffffffffffffffffffffffffffffffffffffffffffffffff191614806103d257507f5b5e139f000000000000000000000000000000000000000000000000000000007bffffffffffffffffffffffffffffffffffffffffffffffffffffffff1916827bffffffffffffffffffffffffffffffffffffffffffffffffffffffff1916145b806103e257506103e182610c95565b5b9050919050565b6060600080546103f89061287a565b80601f01602080910402602001604051908101604052809291908181526020018280546104249061287a565b80156104715780601f1061044657610100808354040283529160200191610471565b820191906000526020600020905b81548152906001019060200180831161045457829003601f168201915b5050505050905090565b600061048682610cff565b6104c5576040517f08c379a00000000000000000000000000000000000000000000000000000000081526004016104bc9061257a565b60405180910390fd5b6004600083815260200190815260200160002060009054906101000a900473ffffffffffffffffffffffffffffffffffffffff169050919050565b600061050b82610698565b90508073ffffffffffffffffffffffffffffffffffffffff168373ffffffffffffffffffffffffffffffffffffffff16141561057c576040517f08c379a0000000000000000000000000000000000000000000000000000000008152600401610573906125da565b60405180910390fd5b8073ffffffffffffffffffffffffffffffffffffffff1661059b610d6b565b73ffffffffffffffffffffffffffffffffffffffff1614806105ca57506105c9816105c4610d6b565b610c01565b5b610609576040517f08c379a0000000000000000000000000000000000000000000000000000000008152600401610600906124ba565b60405180910390fd5b6106138383610d73565b505050565b610629610623610d6b565b82610e2c565b610668576040517f08c379a000000000000000000000000000000000000000000000000000000000815260040161065f906125fa565b60405180910390fd5b610673838383610f0a565b505050565b61069383838360405180602001604052806000815250610a15565b505050565b6000806002600084815260200190815260200160002060009054906101000a900473ffffffffffffffffffffffffffffffffffffffff169050600073ffffffffffffffffffffffffffffffffffffffff168173ffffffffffffffffffffffffffffffffffffffff161415610741576040517f08c379a0000000000000000000000000000000000000000000000000000000008152600401610738906124fa565b60405180910390fd5b80915050919050565b60008073ffffffffffffffffffffffffffffffffffffffff168273ffffffffffffffffffffffffffffffffffffffff1614156107bb576040517f08c379a00000000000000000000000000000000000000000000000000000000081526004016107b2906124da565b60405180910390fd5b600360008373ffffffffffffffffffffffffffffffffffffffff1673ffffffffffffffffffffffffffffffffffffffff168152602001908152602001600020549050919050565b6060600180546108119061287a565b80601f016020809104026020016040519081016040528092919081815260200182805461083d9061287a565b801561088a5780601f1061085f5761010080835404028352916020019161088a565b820191906000526020600020905b81548152906001019060200180831161086d57829003601f168201915b5050505050905090565b61089c610d6b565b73ffffffffffffffffffffffffffffffffffffffff168273ffffffffffffffffffffffffffffffffffffffff16141561090a576040517f08c379a00000000000000000000000000000000000000000000000000000000081526004016109019061247a565b60405180910390fd5b8060056000610917610d6b565b73ffffffffffffffffffffffffffffffffffffffff1673ffffffffffffffffffffffffffffffffffffffff16815260200190815260200160002060008473ffffffffffffffffffffffffffffffffffffffff1673ffffffffffffffffffffffffffffffffffffffff16815260200190815260200160002060006101000a81548160ff0219169083151502179055508173ffffffffffffffffffffffffffffffffffffffff166109c4610d6b565b73ffffffffffffffffffffffffffffffffffffffff167f17307eab39ab6107e8899845ad3d59bd9653f200f220920489ca2b5937696c3183604051610a0991906123dd565b60405180910390a35050565b610a26610a20610d6b565b83610e2c565b610a65576040517f08c379a0000000000000000000000000000000000000000000000000000000008152600401610a5c906125fa565b60405180910390fd5b610a7184848484611166565b50505050565b6060610a8282610cff565b610ac1576040517f08c379a0000000000000000000000000000000000000000000000000000000008152600401610ab89061255a565b60405180910390fd5b6000600660008481526020019081526020016000208054610ae19061287a565b80601f0160208091040260200160405190810160405280929190818152602001828054610b0d9061287a565b8015610b5a5780601f10610b2f57610100808354040283529160200191610b5a565b820191906000526020600020905b815481529060010190602001808311610b3d57829003601f168201915b505050505090506000610b6b6111c2565b9050600081511415610b81578192505050610bc4565b600082511115610bb6578082604051602001610b9e929190612352565b60405160208183030381529060405292505050610bc4565b610bbf846111d9565b925050505b919050565b6000610bd56007611280565b6000610be16007611296565b9050610bed84826112a4565b610bf78184611472565b8091505092915050565b6000600560008473ffffffffffffffffffffffffffffffffffffffff1673ffffffffffffffffffffffffffffffffffffffff16815260200190815260200160002060008373ffffffffffffffffffffffffffffffffffffffff1673ffffffffffffffffffffffffffffffffffffffff16815260200190815260200160002060009054906101000a900460ff16905092915050565b60007f01ffc9a7000000000000000000000000000000000000000000000000000000007bffffffffffffffffffffffffffffffffffffffffffffffffffffffff1916827bffffffffffffffffffffffffffffffffffffffffffffffffffffffff1916149050919050565b60008073ffffffffffffffffffffffffffffffffffffffff166002600084815260200190815260200160002060009054906101000a900473ffffffffffffffffffffffffffffffffffffffff1673ffffffffffffffffffffffffffffffffffffffff1614159050919050565b600033905090565b816004600083815260200190815260200160002060006101000a81548173ffffffffffffffffffffffffffffffffffffffff021916908373ffffffffffffffffffffffffffffffffffffffff160217905550808273ffffffffffffffffffffffffffffffffffffffff16610de683610698565b73ffffffffffffffffffffffffffffffffffffffff167f8c5be1e5ebec7d5bd14f71427d1e84f3dd0314c0f7b2291e5b200ac8c7c3b92560405160405180910390a45050565b6000610e3782610cff565b610e76576040517f08c379a0000000000000000000000000000000000000000000000000000000008152600401610e6d9061249a565b60405180910390fd5b6000610e8183610698565b90508073ffffffffffffffffffffffffffffffffffffffff168473ffffffffffffffffffffffffffffffffffffffff161480610ef057508373ffffffffffffffffffffffffffffffffffffffff16610ed88461047b565b73ffffffffffffffffffffffffffffffffffffffff16145b80610f015750610f008185610c01565b5b91505092915050565b8273ffffffffffffffffffffffffffffffffffffffff16610f2a82610698565b73ffffffffffffffffffffffffffffffffffffffff1614610f80576040517f08c379a0000000000000000000000000000000000000000000000000000000008152600401610f779061259a565b60405180910390fd5b600073ffffffffffffffffffffffffffffffffffffffff168273ffffffffffffffffffffffffffffffffffffffff161415610ff0576040517f08c379a0000000000000000000000000000000000000000000000000000000008152600401610fe79061245a565b60405180910390fd5b610ffb8383836114e6565b611006600082610d73565b6001600360008573ffffffffffffffffffffffffffffffffffffffff1673ffffffffffffffffffffffffffffffffffffffff16815260200190815260200160002060008282546110569190612790565b925050819055506001600360008473ffffffffffffffffffffffffffffffffffffffff1673ffffffffffffffffffffffffffffffffffffffff16815260200190815260200160002060008282546110ad9190612709565b92505081905550816002600083815260200190815260200160002060006101000a81548173ffffffffffffffffffffffffffffffffffffffff021916908373ffffffffffffffffffffffffffffffffffffffff160217905550808273ffffffffffffffffffffffffffffffffffffffff168473ffffffffffffffffffffffffffffffffffffffff167fddf252ad1be2c89b69c2b068fc378daa952ba7f163c4a11628f55a4df523b3ef60405160405180910390a4505050565b611171848484610f0a565b61117d848484846114eb565b6111bc576040517f08c379a00000000000000000000000000000000000000000000000000000000081526004016111b39061241a565b60405180910390fd5b50505050565b606060405180602001604052806000815250905090565b60606111e482610cff565b611223576040517f08c379a000000000000000000000000000000000000000000000000000000000815260040161121a906125ba565b60405180910390fd5b600061122d6111c2565b9050600081511161124d5760405180602001604052806000815250611278565b8061125784611682565b604051602001611268929190612352565b6040516020818303038152906040525b915050919050565b6001816000016000828254019250508190555050565b600081600001549050919050565b600073ffffffffffffffffffffffffffffffffffffffff168273ffffffffffffffffffffffffffffffffffffffff161415611314576040517f08c379a000000000000000000000000000000000000000000000000000000000815260040161130b9061253a565b60405180910390fd5b61131d81610cff565b1561135d576040517f08c379a00000000000000000000000000000000000000000000000000000000081526004016113549061243a565b60405180910390fd5b611369600083836114e6565b6001600360008473ffffffffffffffffffffffffffffffffffffffff1673ffffffffffffffffffffffffffffffffffffffff16815260200190815260200160002060008282546113b99190612709565b92505081905550816002600083815260200190815260200160002060006101000a81548173ffffffffffffffffffffffffffffffffffffffff021916908373ffffffffffffffffffffffffffffffffffffffff160217905550808273ffffffffffffffffffffffffffffffffffffffff16600073ffffffffffffffffffffffffffffffffffffffff167fddf252ad1be2c89b69c2b068fc378daa952ba7f163c4a11628f55a4df523b3ef60405160405180910390a45050565b61147b82610cff565b6114ba576040517f08c379a00000000000000000000000000000000000000000000000000000000081526004016114b19061251a565b60405180910390fd5b806006600084815260200190815260200160002090805190602001906114e1929190611842565b505050565b505050565b600061150c8473ffffffffffffffffffffffffffffffffffffffff1661182f565b15611675578373ffffffffffffffffffffffffffffffffffffffff1663150b7a02611535610d6b565b8786866040518563ffffffff1660e01b81526004016115579493929190612391565b602060405180830381600087803b15801561157157600080fd5b505af19250505080156115a257506040513d601f19601f8201168201806040525081019061159f9190611c42565b60015b611625573d80600081146115d2576040519150601f19603f3d011682016040523d82523d6000602084013e6115d7565b606091505b5060008151141561161d576040517f08c379a00000000000000000000000000000000000000000000000000000000081526004016116149061241a565b60405180910390fd5b805181602001fd5b63150b7a0260e01b7bffffffffffffffffffffffffffffffffffffffffffffffffffffffff1916817bffffffffffffffffffffffffffffffffffffffffffffffffffffffff19161491505061167a565b600190505b949350505050565b606060008214156116ca576040518060400160405280600181526020017f3000000000000000000000000000000000000000000000000000000000000000815250905061182a565b600082905060005b600082146116fc5780806116e5906128ac565b915050600a826116f5919061275f565b91506116d2565b60008167ffffffffffffffff81111561173e577f4e487b7100000000000000000000000000000000000000000000000000000000600052604160045260246000fd5b6040519080825280601f01601f1916602001820160405280156117705781602001600182028036833780820191505090505b5090505b60008514611823576001826117899190612790565b9150600a8561179891906128f5565b60306117a49190612709565b60f81b8183815181106117e0577f4e487b7100000000000000000000000000000000000000000000000000000000600052603260045260246000fd5b60200101907effffffffffffffffffffffffffffffffffffffffffffffffffffffffffffff1916908160001a905350600a8561181c919061275f565b9450611774565b8093505050505b919050565b600080823b905060008111915050919050565b82805461184e9061287a565b90600052602060002090601f01602090048101928261187057600085556118b7565b82601f1061188957805160ff19168380011785556118b7565b828001600101855582156118b7579182015b828111156118b657825182559160200191906001019061189b565b5b5090506118c491906118c8565b5090565b5b808211156118e15760008160009055506001016118c9565b5090565b60006118f86118f384612666565b612635565b90508281526020810184848401111561191057600080fd5b61191b848285612838565b509392505050565b600061193661193184612696565b612635565b90508281526020810184848401111561194e57600080fd5b611959848285612838565b509392505050565b600081359050611970816129f3565b92915050565b60008135905061198581612a0a565b92915050565b60008135905061199a81612a21565b92915050565b6000815190506119af81612a21565b92915050565b600082601f8301126119c657600080fd5b81356119d68482602086016118e5565b91505092915050565b600082601f8301126119f057600080fd5b8135611a00848260208601611923565b91505092915050565b600081359050611a1881612a38565b92915050565b600060208284031215611a3057600080fd5b6000611a3e84828501611961565b91505092915050565b60008060408385031215611a5a57600080fd5b6000611a6885828601611961565b9250506020611a7985828601611961565b9150509250929050565b600080600060608486031215611a9857600080fd5b6000611aa686828701611961565b9350506020611ab786828701611961565b9250506040611ac886828701611a09565b9150509250925092565b60008060008060808587031215611ae857600080fd5b6000611af687828801611961565b9450506020611b0787828801611961565b9350506040611b1887828801611a09565b925050606085013567ffffffffffffffff811115611b3557600080fd5b611b41878288016119b5565b91505092959194509250565b60008060408385031215611b6057600080fd5b6000611b6e85828601611961565b9250506020611b7f85828601611976565b9150509250929050565b60008060408385031215611b9c57600080fd5b6000611baa85828601611961565b925050602083013567ffffffffffffffff811115611bc757600080fd5b611bd3858286016119df565b9150509250929050565b60008060408385031215611bf057600080fd5b6000611bfe85828601611961565b9250506020611c0f85828601611a09565b9150509250929050565b600060208284031215611c2b57600080fd5b6000611c398482850161198b565b91505092915050565b600060208284031215611c5457600080fd5b6000611c62848285016119a0565b91505092915050565b600060208284031215611c7d57600080fd5b6000611c8b84828501611a09565b91505092915050565b611c9d816127c4565b82525050565b611cac816127d6565b82525050565b6000611cbd826126c6565b611cc781856126dc565b9350611cd7818560208601612847565b611ce0816129e2565b840191505092915050565b6000611cf6826126d1565b611d0081856126ed565b9350611d10818560208601612847565b611d19816129e2565b840191505092915050565b6000611d2f826126d1565b611d3981856126fe565b9350611d49818560208601612847565b80840191505092915050565b6000611d626032836126ed565b91507f4552433732313a207472616e7366657220746f206e6f6e20455243373231526560008301527f63656976657220696d706c656d656e74657200000000000000000000000000006020830152604082019050919050565b6000611dc8601c836126ed565b91507f4552433732313a20746f6b656e20616c7265616479206d696e746564000000006000830152602082019050919050565b6000611e086024836126ed565b91507f4552433732313a207472616e7366657220746f20746865207a65726f2061646460008301527f72657373000000000000000000000000000000000000000000000000000000006020830152604082019050919050565b6000611e6e6019836126ed565b91507f4552433732313a20617070726f766520746f2063616c6c6572000000000000006000830152602082019050919050565b6000611eae602c836126ed565b91507f4552433732313a206f70657261746f7220717565727920666f72206e6f6e657860008301527f697374656e7420746f6b656e00000000000000000000000000000000000000006020830152604082019050919050565b6000611f146038836126ed565b91507f4552433732313a20617070726f76652063616c6c6572206973206e6f74206f7760008301527f6e6572206e6f7220617070726f76656420666f7220616c6c00000000000000006020830152604082019050919050565b6000611f7a602a836126ed565b91507f4552433732313a2062616c616e636520717565727920666f7220746865207a6560008301527f726f2061646472657373000000000000000000000000000000000000000000006020830152604082019050919050565b6000611fe06029836126ed565b91507f4552433732313a206f776e657220717565727920666f72206e6f6e657869737460008301527f656e7420746f6b656e00000000000000000000000000000000000000000000006020830152604082019050919050565b6000612046602e836126ed565b91507f45524337323155524953746f726167653a2055524920736574206f66206e6f6e60008301527f6578697374656e7420746f6b656e0000000000000000000000000000000000006020830152604082019050919050565b60006120ac6020836126ed565b91507f4552433732313a206d696e7420746f20746865207a65726f20616464726573736000830152602082019050919050565b60006120ec6031836126ed565b91507f45524337323155524953746f726167653a2055524920717565727920666f722060008301527f6e6f6e6578697374656e7420746f6b656e0000000000000000000000000000006020830152604082019050919050565b6000612152602c836126ed565b91507f4552433732313a20617070726f76656420717565727920666f72206e6f6e657860008301527f697374656e7420746f6b656e00000000000000000000000000000000000000006020830152604082019050919050565b60006121b86029836126ed565b91507f4552433732313a207472616e73666572206f6620746f6b656e2074686174206960008301527f73206e6f74206f776e00000000000000000000000000000000000000000000006020830152604082019050919050565b600061221e602f836126ed565b91507f4552433732314d657461646174613a2055524920717565727920666f72206e6f60008301527f6e6578697374656e7420746f6b656e00000000000000000000000000000000006020830152604082019050919050565b60006122846021836126ed565b91507f4552433732313a20617070726f76616c20746f2063757272656e74206f776e6560008301527f72000000000000000000000000000000000000000000000000000000000000006020830152604082019050919050565b60006122ea6031836126ed565b91507f4552433732313a207472616e736665722063616c6c6572206973206e6f74206f60008301527f776e6572206e6f7220617070726f7665640000000000000000000000000000006020830152604082019050919050565b61234c8161282e565b82525050565b600061235e8285611d24565b915061236a8284611d24565b91508190509392505050565b600060208201905061238b6000830184611c94565b92915050565b60006080820190506123a66000830187611c94565b6123b36020830186611c94565b6123c06040830185612343565b81810360608301526123d28184611cb2565b905095945050505050565b60006020820190506123f26000830184611ca3565b92915050565b600060208201905081810360008301526124128184611ceb565b905092915050565b6000602082019050818103600083015261243381611d55565b9050919050565b6000602082019050818103600083015261245381611dbb565b9050919050565b6000602082019050818103600083015261247381611dfb565b9050919050565b6000602082019050818103600083015261249381611e61565b9050919050565b600060208201905081810360008301526124b381611ea1565b9050919050565b600060208201905081810360008301526124d381611f07565b9050919050565b600060208201905081810360008301526124f381611f6d565b9050919050565b6000602082019050818103600083015261251381611fd3565b9050919050565b6000602082019050818103600083015261253381612039565b9050919050565b600060208201905081810360008301526125538161209f565b9050919050565b60006020820190508181036000830152612573816120df565b9050919050565b6000602082019050818103600083015261259381612145565b9050919050565b600060208201905081810360008301526125b3816121ab565b9050919050565b600060208201905081810360008301526125d381612211565b9050919050565b600060208201905081810360008301526125f381612277565b9050919050565b60006020820190508181036000830152612613816122dd565b9050919050565b600060208201905061262f6000830184612343565b92915050565b6000604051905081810181811067ffffffffffffffff8211171561265c5761265b6129b3565b5b8060405250919050565b600067ffffffffffffffff821115612681576126806129b3565b5b601f19601f8301169050602081019050919050565b600067ffffffffffffffff8211156126b1576126b06129b3565b5b601f19601f8301169050602081019050919050565b600081519050919050565b600081519050919050565b600082825260208201905092915050565b600082825260208201905092915050565b600081905092915050565b60006127148261282e565b915061271f8361282e565b9250827fffffffffffffffffffffffffffffffffffffffffffffffffffffffffffffffff0382111561275457612753612926565b5b828201905092915050565b600061276a8261282e565b91506127758361282e565b92508261278557612784612955565b5b828204905092915050565b600061279b8261282e565b91506127a68361282e565b9250828210156127b9576127b8612926565b5b828203905092915050565b60006127cf8261280e565b9050919050565b60008115159050919050565b60007fffffffff0000000000000000000000000000000000000000000000000000000082169050919050565b600073ffffffffffffffffffffffffffffffffffffffff82169050919050565b6000819050919050565b82818337600083830152505050565b60005b8381101561286557808201518184015260208101905061284a565b83811115612874576000848401525b50505050565b6000600282049050600182168061289257607f821691505b602082108114156128a6576128a5612984565b5b50919050565b60006128b78261282e565b91507fffffffffffffffffffffffffffffffffffffffffffffffffffffffffffffffff8214156128ea576128e9612926565b5b600182019050919050565b60006129008261282e565b915061290b8361282e565b92508261291b5761291a612955565b5b828206905092915050565b7f4e487b7100000000000000000000000000000000000000000000000000000000600052601160045260246000fd5b7f4e487b7100000000000000000000000000000000000000000000000000000000600052601260045260246000fd5b7f4e487b7100000000000000000000000000000000000000000000000000000000600052602260045260246000fd5b7f4e487b7100000000000000000000000000000000000000000000000000000000600052604160045260246000fd5b6000601f19601f8301169050919050565b6129fc816127c4565b8114612a0757600080fd5b50565b612a13816127d6565b8114612a1e57600080fd5b50565b612a2a816127e2565b8114612a3557600080fd5b50565b612a418161282e565b8114612a4c57600080fd5b5056fea264697066735822122009d4f3c0c46c1e1b08ca7f3f2db1057c24201712804315365a6670c90f6fe23a64736f6c63430008000033",
  "immutableReferences": {},
  "source": "// contracts/GameItem.sol\r\n// SPDX-License-Identifier: MIT\r\npragma solidity ^0.8.0;\r\n\r\nimport \"@openzeppelin/contracts/token/ERC721/ERC721.sol\";\r\nimport \"@openzeppelin/contracts/token/ERC721/extensions/ERC721URIStorage.sol\";\r\nimport \"@openzeppelin/contracts/utils/Counters.sol\";\r\n\r\ncontract GameItem is ERC721URIStorage {\r\n  using Counters for Counters.Counter;\r\n  Counters.Counter private _tokenIds;\r\n\r\n  constructor() ERC721(\"GameItem\", \"ITM\") {}\r\n\r\n  function awardItem(address player, string memory tokenURI)\r\n    public\r\n    returns (uint256)\r\n  {\r\n    _tokenIds.increment();\r\n\r\n    uint256 newItemId = _tokenIds.current();\r\n    _mint(player, newItemId);\r\n    _setTokenURI(newItemId, tokenURI);\r\n\r\n    return newItemId;\r\n  }\r\n}\r\n",
  "sourcePath": "/c/Users/dx/Ethereum Studio/ECR/contracts/GameItem.sol",
  "compiler": {
    "name": "solc",
    "version": "0.8.0+commit.c7dfd78e.Emscripten.clang"
  },
  "schemaVersion": "3.4.2",
  "updatedAt": "2022-02-02T09:23:29.240Z",
  "devdoc": {
    "kind": "dev",
    "methods": {
      "approve(address,uint256)": {
        "details": "See {IERC721-approve}."
      },
      "balanceOf(address)": {
        "details": "See {IERC721-balanceOf}."
      },
      "getApproved(uint256)": {
        "details": "See {IERC721-getApproved}."
      },
      "isApprovedForAll(address,address)": {
        "details": "See {IERC721-isApprovedForAll}."
      },
      "name()": {
        "details": "See {IERC721Metadata-name}."
      },
      "ownerOf(uint256)": {
        "details": "See {IERC721-ownerOf}."
      },
      "safeTransferFrom(address,address,uint256)": {
        "details": "See {IERC721-safeTransferFrom}."
      },
      "safeTransferFrom(address,address,uint256,bytes)": {
        "details": "See {IERC721-safeTransferFrom}."
      },
      "setApprovalForAll(address,bool)": {
        "details": "See {IERC721-setApprovalForAll}."
      },
      "supportsInterface(bytes4)": {
        "details": "See {IERC165-supportsInterface}."
      },
      "symbol()": {
        "details": "See {IERC721Metadata-symbol}."
      },
      "tokenURI(uint256)": {
        "details": "See {IERC721Metadata-tokenURI}."
      },
      "transferFrom(address,address,uint256)": {
        "details": "See {IERC721-transferFrom}."
      }
    },
    "version": 1
  },
  "userdoc": {
    "kind": "user",
    "methods": {},
    "version": 1
  }
}