{
  "contractName": "GameItems",
  "abi": [
    {
      "inputs": [],
      "stateMutability": "nonpayable",
      "type": "constructor"
    },
    {
      "anonymous": false,
      "inputs": [
        {
          "indexed": true,
          "internalType": "address",
          "name": "account",
          "type": "address"
        },
        {
          "indexed": true,
          "internalType": "address",
          "name": "operator",
          "type": "address"
        },
        {
          "indexed": false,
          "internalType": "bool",
          "name": "approved",
          "type": "bool"
        }
      ],
      "name": "ApprovalForAll",
      "type": "event"
    },
    {
      "anonymous": false,
      "inputs": [
        {
          "indexed": true,
          "internalType": "address",
          "name": "operator",
          "type": "address"
        },
        {
          "indexed": true,
          "internalType": "address",
          "name": "from",
          "type": "address"
        },
        {
          "indexed": true,
          "internalType": "address",
          "name": "to",
          "type": "address"
        },
        {
          "indexed": false,
          "internalType": "uint256[]",
          "name": "ids",
          "type": "uint256[]"
        },
        {
          "indexed": false,
          "internalType": "uint256[]",
          "name": "values",
          "type": "uint256[]"
        }
      ],
      "name": "TransferBatch",
      "type": "event"
    },
    {
      "anonymous": false,
      "inputs": [
        {
          "indexed": true,
          "internalType": "address",
          "name": "operator",
          "type": "address"
        },
        {
          "indexed": true,
          "internalType": "address",
          "name": "from",
          "type": "address"
        },
        {
          "indexed": true,
          "internalType": "address",
          "name": "to",
          "type": "address"
        },
        {
          "indexed": false,
          "internalType": "uint256",
          "name": "id",
          "type": "uint256"
        },
        {
          "indexed": false,
          "internalType": "uint256",
          "name": "value",
          "type": "uint256"
        }
      ],
      "name": "TransferSingle",
      "type": "event"
    },
    {
      "anonymous": false,
      "inputs": [
        {
          "indexed": false,
          "internalType": "string",
          "name": "value",
          "type": "string"
        },
        {
          "indexed": true,
          "internalType": "uint256",
          "name": "id",
          "type": "uint256"
        }
      ],
      "name": "URI",
      "type": "event"
    },
    {
      "inputs": [],
      "name": "GOLD",
      "outputs": [
        {
          "internalType": "uint256",
          "name": "",
          "type": "uint256"
        }
      ],
      "stateMutability": "view",
      "type": "function"
    },
    {
      "inputs": [],
      "name": "SHIELD",
      "outputs": [
        {
          "internalType": "uint256",
          "name": "",
          "type": "uint256"
        }
      ],
      "stateMutability": "view",
      "type": "function"
    },
    {
      "inputs": [],
      "name": "SILVER",
      "outputs": [
        {
          "internalType": "uint256",
          "name": "",
          "type": "uint256"
        }
      ],
      "stateMutability": "view",
      "type": "function"
    },
    {
      "inputs": [],
      "name": "SWORD",
      "outputs": [
        {
          "internalType": "uint256",
          "name": "",
          "type": "uint256"
        }
      ],
      "stateMutability": "view",
      "type": "function"
    },
    {
      "inputs": [],
      "name": "THORS_HAMMER",
      "outputs": [
        {
          "internalType": "uint256",
          "name": "",
          "type": "uint256"
        }
      ],
      "stateMutability": "view",
      "type": "function"
    },
    {
      "inputs": [
        {
          "internalType": "address",
          "name": "account",
          "type": "address"
        },
        {
          "internalType": "uint256",
          "name": "id",
          "type": "uint256"
        }
      ],
      "name": "balanceOf",
      "outputs": [
        {
          "internalType": "uint256",
          "name": "",
          "type": "uint256"
        }
      ],
      "stateMutability": "view",
      "type": "function"
    },
    {
      "inputs": [
        {
          "internalType": "address[]",
          "name": "accounts",
          "type": "address[]"
        },
        {
          "internalType": "uint256[]",
          "name": "ids",
          "type": "uint256[]"
        }
      ],
      "name": "balanceOfBatch",
      "outputs": [
        {
          "internalType": "uint256[]",
          "name": "",
          "type": "uint256[]"
        }
      ],
      "stateMutability": "view",
      "type": "function"
    },
    {
      "inputs": [
        {
          "internalType": "address",
          "name": "account",
          "type": "address"
        },
        {
          "internalType": "address",
          "name": "operator",
          "type": "address"
        }
      ],
      "name": "isApprovedForAll",
      "outputs": [
        {
          "internalType": "bool",
          "name": "",
          "type": "bool"
        }
      ],
      "stateMutability": "view",
      "type": "function"
    },
    {
      "inputs": [
        {
          "internalType": "address",
          "name": "from",
          "type": "address"
        },
        {
          "internalType": "address",
          "name": "to",
          "type": "address"
        },
        {
          "internalType": "uint256[]",
          "name": "ids",
          "type": "uint256[]"
        },
        {
          "internalType": "uint256[]",
          "name": "amounts",
          "type": "uint256[]"
        },
        {
          "internalType": "bytes",
          "name": "data",
          "type": "bytes"
        }
      ],
      "name": "safeBatchTransferFrom",
      "outputs": [],
      "stateMutability": "nonpayable",
      "type": "function"
    },
    {
      "inputs": [
        {
          "internalType": "address",
          "name": "from",
          "type": "address"
        },
        {
          "internalType": "address",
          "name": "to",
          "type": "address"
        },
        {
          "internalType": "uint256",
          "name": "id",
          "type": "uint256"
        },
        {
          "internalType": "uint256",
          "name": "amount",
          "type": "uint256"
        },
        {
          "internalType": "bytes",
          "name": "data",
          "type": "bytes"
        }
      ],
      "name": "safeTransferFrom",
      "outputs": [],
      "stateMutability": "nonpayable",
      "type": "function"
    },
    {
      "inputs": [
        {
          "internalType": "address",
          "name": "operator",
          "type": "address"
        },
        {
          "internalType": "bool",
          "name": "approved",
          "type": "bool"
        }
      ],
      "name": "setApprovalForAll",
      "outputs": [],
      "stateMutability": "nonpayable",
      "type": "function"
    },
    {
      "inputs": [
        {
          "internalType": "bytes4",
          "name": "interfaceId",
          "type": "bytes4"
        }
      ],
      "name": "supportsInterface",
      "outputs": [
        {
          "internalType": "bool",
          "name": "",
          "type": "bool"
        }
      ],
      "stateMutability": "view",
      "type": "function"
    },
    {
      "inputs": [
        {
          "internalType": "uint256",
          "name": "",
          "type": "uint256"
        }
      ],
      "name": "uri",
      "outputs": [
        {
          "internalType": "string",
          "name": "",
          "type": "string"
        }
      ],
      "stateMutability": "view",
      "type": "function"
    }
  ],
  "bytecode": "0x60806040523480156200001157600080fd5b50604051806060016040528060278152602001620032f9602791396200003d816200011560201b60201c565b506200006a336000670de0b6b3a7640000604051806020016040528060008152506200013160201b60201c565b6200009a3360016b033b2e3c9fd0803ce8000000604051806020016040528060008152506200013160201b60201c565b620000bf3360026001604051806020016040528060008152506200013160201b60201c565b620000e7336003633b9aca00604051806020016040528060008152506200013160201b60201c565b6200010f336004633b9aca00604051806020016040528060008152506200013160201b60201c565b62000c81565b80600290805190602001906200012d929190620005d2565b5050565b600073ffffffffffffffffffffffffffffffffffffffff168473ffffffffffffffffffffffffffffffffffffffff161415620001a4576040517f08c379a00000000000000000000000000000000000000000000000000000000081526004016200019b906200096d565b60405180910390fd5b6000620001b6620002f660201b60201c565b9050620001ef81600087620001d188620002fe60201b60201c565b620001e288620002fe60201b60201c565b87620003c760201b60201c565b8260008086815260200190815260200160002060008773ffffffffffffffffffffffffffffffffffffffff1673ffffffffffffffffffffffffffffffffffffffff1681526020019081526020016000206000828254620002509190620009f4565b925050819055508473ffffffffffffffffffffffffffffffffffffffff16600073ffffffffffffffffffffffffffffffffffffffff168273ffffffffffffffffffffffffffffffffffffffff167fc3d58168c5ae7397731d063d5bbf3d657854427343f4c083240f7aacaa2d0f628787604051620002d09291906200098f565b60405180910390a4620002ef81600087878787620003cf60201b60201c565b5050505050565b600033905090565b60606000600167ffffffffffffffff81111562000344577f4e487b7100000000000000000000000000000000000000000000000000000000600052604160045260246000fd5b604051908082528060200260200182016040528015620003735781602001602082028036833780820191505090505b5090508281600081518110620003b2577f4e487b7100000000000000000000000000000000000000000000000000000000600052603260045260246000fd5b60200260200101818152505080915050919050565b505050505050565b620003fb8473ffffffffffffffffffffffffffffffffffffffff16620005bf60201b62000a0d1760201c565b15620005b7578373ffffffffffffffffffffffffffffffffffffffff1663f23a6e6187878686866040518663ffffffff1660e01b815260040162000444959493929190620008a1565b602060405180830381600087803b1580156200045f57600080fd5b505af19250505080156200049357506040513d601f19601f8201168201806040525081019062000490919062000699565b60015b6200052b57620004a262000ba3565b80620004af5750620004ee565b806040517f08c379a0000000000000000000000000000000000000000000000000000000008152600401620004e5919062000905565b60405180910390fd5b6040517f08c379a0000000000000000000000000000000000000000000000000000000008152600401620005229062000929565b60405180910390fd5b63f23a6e6160e01b7bffffffffffffffffffffffffffffffffffffffffffffffffffffffff1916817bffffffffffffffffffffffffffffffffffffffffffffffffffffffff191614620005b5576040517f08c379a0000000000000000000000000000000000000000000000000000000008152600401620005ac906200094b565b60405180910390fd5b505b505050505050565b600080823b905060008111915050919050565b828054620005e09062000af1565b90600052602060002090601f01602090048101928262000604576000855562000650565b82601f106200061f57805160ff191683800117855562000650565b8280016001018555821562000650579182015b828111156200064f57825182559160200191906001019062000632565b5b5090506200065f919062000663565b5090565b5b808211156200067e57600081600090555060010162000664565b5090565b600081519050620006938162000c67565b92915050565b600060208284031215620006ac57600080fd5b6000620006bc8482850162000682565b91505092915050565b620006d08162000a51565b82525050565b6000620006e382620009bc565b620006ef8185620009d2565b93506200070181856020860162000abb565b6200070c8162000b85565b840191505092915050565b60006200072482620009c7565b620007308185620009e3565b93506200074281856020860162000abb565b6200074d8162000b85565b840191505092915050565b600062000767603483620009e3565b91507f455243313135353a207472616e7366657220746f206e6f6e204552433131353560008301527f526563656976657220696d706c656d656e7465720000000000000000000000006020830152604082019050919050565b6000620007cf602883620009e3565b91507f455243313135353a204552433131353552656365697665722072656a6563746560008301527f6420746f6b656e730000000000000000000000000000000000000000000000006020830152604082019050919050565b600062000837602183620009e3565b91507f455243313135353a206d696e7420746f20746865207a65726f2061646472657360008301527f73000000000000000000000000000000000000000000000000000000000000006020830152604082019050919050565b6200089b8162000ab1565b82525050565b600060a082019050620008b86000830188620006c5565b620008c76020830187620006c5565b620008d6604083018662000890565b620008e5606083018562000890565b8181036080830152620008f98184620006d6565b90509695505050505050565b6000602082019050818103600083015262000921818462000717565b905092915050565b60006020820190508181036000830152620009448162000758565b9050919050565b600060208201905081810360008301526200096681620007c0565b9050919050565b60006020820190508181036000830152620009888162000828565b9050919050565b6000604082019050620009a6600083018562000890565b620009b5602083018462000890565b9392505050565b600081519050919050565b600081519050919050565b600082825260208201905092915050565b600082825260208201905092915050565b600062000a018262000ab1565b915062000a0e8362000ab1565b9250827fffffffffffffffffffffffffffffffffffffffffffffffffffffffffffffffff0382111562000a465762000a4562000b27565b5b828201905092915050565b600062000a5e8262000a91565b9050919050565b60007fffffffff0000000000000000000000000000000000000000000000000000000082169050919050565b600073ffffffffffffffffffffffffffffffffffffffff82169050919050565b6000819050919050565b60005b8381101562000adb57808201518184015260208101905062000abe565b8381111562000aeb576000848401525b50505050565b6000600282049050600182168062000b0a57607f821691505b6020821081141562000b215762000b2062000b56565b5b50919050565b7f4e487b7100000000000000000000000000000000000000000000000000000000600052601160045260246000fd5b7f4e487b7100000000000000000000000000000000000000000000000000000000600052602260045260246000fd5b6000601f19601f8301169050919050565b60008160e01c9050919050565b600060443d101562000bb55762000c64565b60046000803e62000bc860005162000b96565b6308c379a0811462000bdb575062000c64565b60405160043d036004823e80513d602482011167ffffffffffffffff8211171562000c095750505062000c64565b808201805167ffffffffffffffff81111562000c2a57505050505062000c64565b8060208301013d850181111562000c475750505050505062000c64565b62000c528262000b85565b60208401016040528296505050505050505b90565b62000c728162000a65565b811462000c7e57600080fd5b50565b6126688062000c916000396000f3fe608060405234801561001057600080fd5b50600436106100ce5760003560e01c80634e1273f41161008c578063d562e20411610066578063d562e20414610225578063e3e55f0814610243578063e985e9c514610261578063f242432a14610291576100ce565b80634e1273f4146101bb5780635b2725ed146101eb578063a22cb46514610209576100ce565b8062fdd58e146100d357806301ffc9a7146101035780630e89341c1461013357806313dc989f146101635780632eb2c2d6146101815780633e4bee381461019d575b600080fd5b6100ed60048036038101906100e891906118a5565b6102ad565b6040516100fa9190612180565b60405180910390f35b61011d6004803603810190610118919061194d565b610376565b60405161012a9190612003565b60405180910390f35b61014d6004803603810190610148919061199f565b610458565b60405161015a919061201e565b60405180910390f35b61016b6104ec565b6040516101789190612180565b60405180910390f35b61019b6004803603810190610196919061171b565b6104f1565b005b6101a5610592565b6040516101b29190612180565b60405180910390f35b6101d560048036038101906101d091906118e1565b610597565b6040516101e29190611faa565b60405180910390f35b6101f3610748565b6040516102009190612180565b60405180910390f35b610223600480360381019061021e9190611869565b61074d565b005b61022d6108ce565b60405161023a9190612180565b60405180910390f35b61024b6108d3565b6040516102589190612180565b60405180910390f35b61027b600480360381019061027691906116df565b6108d8565b6040516102889190612003565b60405180910390f35b6102ab60048036038101906102a691906117da565b61096c565b005b60008073ffffffffffffffffffffffffffffffffffffffff168373ffffffffffffffffffffffffffffffffffffffff16141561031e576040517f08c379a000000000000000000000000000000000000000000000000000000000815260040161031590612080565b60405180910390fd5b60008083815260200190815260200160002060008473ffffffffffffffffffffffffffffffffffffffff1673ffffffffffffffffffffffffffffffffffffffff16815260200190815260200160002054905092915050565b60007fd9b67a26000000000000000000000000000000000000000000000000000000007bffffffffffffffffffffffffffffffffffffffffffffffffffffffff1916827bffffffffffffffffffffffffffffffffffffffffffffffffffffffff1916148061044157507f0e89341c000000000000000000000000000000000000000000000000000000007bffffffffffffffffffffffffffffffffffffffffffffffffffffffff1916827bffffffffffffffffffffffffffffffffffffffffffffffffffffffff1916145b80610451575061045082610a20565b5b9050919050565b606060028054610467906123fa565b80601f0160208091040260200160405190810160405280929190818152602001828054610493906123fa565b80156104e05780601f106104b5576101008083540402835291602001916104e0565b820191906000526020600020905b8154815290600101906020018083116104c357829003601f168201915b50505050509050919050565b600381565b6104f9610a8a565b73ffffffffffffffffffffffffffffffffffffffff168573ffffffffffffffffffffffffffffffffffffffff16148061053f575061053e85610539610a8a565b6108d8565b5b61057e576040517f08c379a0000000000000000000000000000000000000000000000000000000008152600401610575906120e0565b60405180910390fd5b61058b8585858585610a92565b5050505050565b600081565b606081518351146105dd576040517f08c379a00000000000000000000000000000000000000000000000000000000081526004016105d490612140565b60405180910390fd5b6000835167ffffffffffffffff811115610620577f4e487b7100000000000000000000000000000000000000000000000000000000600052604160045260246000fd5b60405190808252806020026020018201604052801561064e5781602001602082028036833780820191505090505b50905060005b845181101561073d576106e7858281518110610699577f4e487b7100000000000000000000000000000000000000000000000000000000600052603260045260246000fd5b60200260200101518583815181106106da577f4e487b7100000000000000000000000000000000000000000000000000000000600052603260045260246000fd5b60200260200101516102ad565b828281518110610720577f4e487b7100000000000000000000000000000000000000000000000000000000600052603260045260246000fd5b602002602001018181525050806107369061242c565b9050610654565b508091505092915050565b600481565b8173ffffffffffffffffffffffffffffffffffffffff1661076c610a8a565b73ffffffffffffffffffffffffffffffffffffffff1614156107c3576040517f08c379a00000000000000000000000000000000000000000000000000000000081526004016107ba90612120565b60405180910390fd5b80600160006107d0610a8a565b73ffffffffffffffffffffffffffffffffffffffff1673ffffffffffffffffffffffffffffffffffffffff16815260200190815260200160002060008473ffffffffffffffffffffffffffffffffffffffff1673ffffffffffffffffffffffffffffffffffffffff16815260200190815260200160002060006101000a81548160ff0219169083151502179055508173ffffffffffffffffffffffffffffffffffffffff1661087d610a8a565b73ffffffffffffffffffffffffffffffffffffffff167f17307eab39ab6107e8899845ad3d59bd9653f200f220920489ca2b5937696c31836040516108c29190612003565b60405180910390a35050565b600281565b600181565b6000600160008473ffffffffffffffffffffffffffffffffffffffff1673ffffffffffffffffffffffffffffffffffffffff16815260200190815260200160002060008373ffffffffffffffffffffffffffffffffffffffff1673ffffffffffffffffffffffffffffffffffffffff16815260200190815260200160002060009054906101000a900460ff16905092915050565b610974610a8a565b73ffffffffffffffffffffffffffffffffffffffff168573ffffffffffffffffffffffffffffffffffffffff1614806109ba57506109b9856109b4610a8a565b6108d8565b5b6109f9576040517f08c379a00000000000000000000000000000000000000000000000000000000081526004016109f0906120a0565b60405180910390fd5b610a068585858585610df2565b5050505050565b600080823b905060008111915050919050565b60007f01ffc9a7000000000000000000000000000000000000000000000000000000007bffffffffffffffffffffffffffffffffffffffffffffffffffffffff1916827bffffffffffffffffffffffffffffffffffffffffffffffffffffffff1916149050919050565b600033905090565b8151835114610ad6576040517f08c379a0000000000000000000000000000000000000000000000000000000008152600401610acd90612160565b60405180910390fd5b600073ffffffffffffffffffffffffffffffffffffffff168473ffffffffffffffffffffffffffffffffffffffff161415610b46576040517f08c379a0000000000000000000000000000000000000000000000000000000008152600401610b3d906120c0565b60405180910390fd5b6000610b50610a8a565b9050610b60818787878787611074565b60005b8451811015610d5d576000858281518110610ba7577f4e487b7100000000000000000000000000000000000000000000000000000000600052603260045260246000fd5b602002602001015190506000858381518110610bec577f4e487b7100000000000000000000000000000000000000000000000000000000600052603260045260246000fd5b60200260200101519050600080600084815260200190815260200160002060008b73ffffffffffffffffffffffffffffffffffffffff1673ffffffffffffffffffffffffffffffffffffffff16815260200190815260200160002054905081811015610c8d576040517f08c379a0000000000000000000000000000000000000000000000000000000008152600401610c8490612100565b60405180910390fd5b81810360008085815260200190815260200160002060008c73ffffffffffffffffffffffffffffffffffffffff1673ffffffffffffffffffffffffffffffffffffffff168152602001908152602001600020819055508160008085815260200190815260200160002060008b73ffffffffffffffffffffffffffffffffffffffff1673ffffffffffffffffffffffffffffffffffffffff1681526020019081526020016000206000828254610d4291906122ee565b9250508190555050505080610d569061242c565b9050610b63565b508473ffffffffffffffffffffffffffffffffffffffff168673ffffffffffffffffffffffffffffffffffffffff168273ffffffffffffffffffffffffffffffffffffffff167f4a39dc06d4c0dbc64b70af90fd698a233a518aa5d07e595d983b8c0526c8f7fb8787604051610dd4929190611fcc565b60405180910390a4610dea81878787878761107c565b505050505050565b600073ffffffffffffffffffffffffffffffffffffffff168473ffffffffffffffffffffffffffffffffffffffff161415610e62576040517f08c379a0000000000000000000000000000000000000000000000000000000008152600401610e59906120c0565b60405180910390fd5b6000610e6c610a8a565b9050610e8c818787610e7d8861124c565b610e868861124c565b87611074565b600080600086815260200190815260200160002060008873ffffffffffffffffffffffffffffffffffffffff1673ffffffffffffffffffffffffffffffffffffffff16815260200190815260200160002054905083811015610f23576040517f08c379a0000000000000000000000000000000000000000000000000000000008152600401610f1a90612100565b60405180910390fd5b83810360008087815260200190815260200160002060008973ffffffffffffffffffffffffffffffffffffffff1673ffffffffffffffffffffffffffffffffffffffff168152602001908152602001600020819055508360008087815260200190815260200160002060008873ffffffffffffffffffffffffffffffffffffffff1673ffffffffffffffffffffffffffffffffffffffff1681526020019081526020016000206000828254610fd891906122ee565b925050819055508573ffffffffffffffffffffffffffffffffffffffff168773ffffffffffffffffffffffffffffffffffffffff168373ffffffffffffffffffffffffffffffffffffffff167fc3d58168c5ae7397731d063d5bbf3d657854427343f4c083240f7aacaa2d0f62888860405161105592919061219b565b60405180910390a461106b828888888888611312565b50505050505050565b505050505050565b61109b8473ffffffffffffffffffffffffffffffffffffffff16610a0d565b15611244578373ffffffffffffffffffffffffffffffffffffffff1663bc197c8187878686866040518663ffffffff1660e01b81526004016110e1959493929190611ee8565b602060405180830381600087803b1580156110fb57600080fd5b505af192505050801561112c57506040513d601f19601f820116820180604052508101906111299190611976565b60015b6111bb57611138612520565b806111435750611180565b806040517f08c379a0000000000000000000000000000000000000000000000000000000008152600401611177919061201e565b60405180910390fd5b6040517f08c379a00000000000000000000000000000000000000000000000000000000081526004016111b290612040565b60405180910390fd5b63bc197c8160e01b7bffffffffffffffffffffffffffffffffffffffffffffffffffffffff1916817bffffffffffffffffffffffffffffffffffffffffffffffffffffffff191614611242576040517f08c379a000000000000000000000000000000000000000000000000000000000815260040161123990612060565b60405180910390fd5b505b505050505050565b60606000600167ffffffffffffffff811115611291577f4e487b7100000000000000000000000000000000000000000000000000000000600052604160045260246000fd5b6040519080825280602002602001820160405280156112bf5781602001602082028036833780820191505090505b50905082816000815181106112fd577f4e487b7100000000000000000000000000000000000000000000000000000000600052603260045260246000fd5b60200260200101818152505080915050919050565b6113318473ffffffffffffffffffffffffffffffffffffffff16610a0d565b156114da578373ffffffffffffffffffffffffffffffffffffffff1663f23a6e6187878686866040518663ffffffff1660e01b8152600401611377959493929190611f50565b602060405180830381600087803b15801561139157600080fd5b505af19250505080156113c257506040513d601f19601f820116820180604052508101906113bf9190611976565b60015b611451576113ce612520565b806113d95750611416565b806040517f08c379a000000000000000000000000000000000000000000000000000000000815260040161140d919061201e565b60405180910390fd5b6040517f08c379a000000000000000000000000000000000000000000000000000000000815260040161144890612040565b60405180910390fd5b63f23a6e6160e01b7bffffffffffffffffffffffffffffffffffffffffffffffffffffffff1916817bffffffffffffffffffffffffffffffffffffffffffffffffffffffff1916146114d8576040517f08c379a00000000000000000000000000000000000000000000000000000000081526004016114cf90612060565b60405180910390fd5b505b505050505050565b60006114f56114f0846121f5565b6121c4565b9050808382526020820190508285602086028201111561151457600080fd5b60005b85811015611544578161152a88826115f8565b845260208401935060208301925050600181019050611517565b5050509392505050565b600061156161155c84612221565b6121c4565b9050808382526020820190508285602086028201111561158057600080fd5b60005b858110156115b0578161159688826116ca565b845260208401935060208301925050600181019050611583565b5050509392505050565b60006115cd6115c88461224d565b6121c4565b9050828152602081018484840111156115e557600080fd5b6115f08482856123b8565b509392505050565b600081359050611607816125d6565b92915050565b600082601f83011261161e57600080fd5b813561162e8482602086016114e2565b91505092915050565b600082601f83011261164857600080fd5b813561165884826020860161154e565b91505092915050565b600081359050611670816125ed565b92915050565b60008135905061168581612604565b92915050565b60008151905061169a81612604565b92915050565b600082601f8301126116b157600080fd5b81356116c18482602086016115ba565b91505092915050565b6000813590506116d98161261b565b92915050565b600080604083850312156116f257600080fd5b6000611700858286016115f8565b9250506020611711858286016115f8565b9150509250929050565b600080600080600060a0868803121561173357600080fd5b6000611741888289016115f8565b9550506020611752888289016115f8565b945050604086013567ffffffffffffffff81111561176f57600080fd5b61177b88828901611637565b935050606086013567ffffffffffffffff81111561179857600080fd5b6117a488828901611637565b925050608086013567ffffffffffffffff8111156117c157600080fd5b6117cd888289016116a0565b9150509295509295909350565b600080600080600060a086880312156117f257600080fd5b6000611800888289016115f8565b9550506020611811888289016115f8565b9450506040611822888289016116ca565b9350506060611833888289016116ca565b925050608086013567ffffffffffffffff81111561185057600080fd5b61185c888289016116a0565b9150509295509295909350565b6000806040838503121561187c57600080fd5b600061188a858286016115f8565b925050602061189b85828601611661565b9150509250929050565b600080604083850312156118b857600080fd5b60006118c6858286016115f8565b92505060206118d7858286016116ca565b9150509250929050565b600080604083850312156118f457600080fd5b600083013567ffffffffffffffff81111561190e57600080fd5b61191a8582860161160d565b925050602083013567ffffffffffffffff81111561193757600080fd5b61194385828601611637565b9150509250929050565b60006020828403121561195f57600080fd5b600061196d84828501611676565b91505092915050565b60006020828403121561198857600080fd5b60006119968482850161168b565b91505092915050565b6000602082840312156119b157600080fd5b60006119bf848285016116ca565b91505092915050565b60006119d48383611eca565b60208301905092915050565b6119e981612344565b82525050565b60006119fa8261228d565b611a0481856122bb565b9350611a0f8361227d565b8060005b83811015611a40578151611a2788826119c8565b9750611a32836122ae565b925050600181019050611a13565b5085935050505092915050565b611a5681612356565b82525050565b6000611a6782612298565b611a7181856122cc565b9350611a818185602086016123c7565b611a8a81612502565b840191505092915050565b6000611aa0826122a3565b611aaa81856122dd565b9350611aba8185602086016123c7565b611ac381612502565b840191505092915050565b6000611adb6034836122dd565b91507f455243313135353a207472616e7366657220746f206e6f6e204552433131353560008301527f526563656976657220696d706c656d656e7465720000000000000000000000006020830152604082019050919050565b6000611b416028836122dd565b91507f455243313135353a204552433131353552656365697665722072656a6563746560008301527f6420746f6b656e730000000000000000000000000000000000000000000000006020830152604082019050919050565b6000611ba7602b836122dd565b91507f455243313135353a2062616c616e636520717565727920666f7220746865207a60008301527f65726f20616464726573730000000000000000000000000000000000000000006020830152604082019050919050565b6000611c0d6029836122dd565b91507f455243313135353a2063616c6c6572206973206e6f74206f776e6572206e6f7260008301527f20617070726f76656400000000000000000000000000000000000000000000006020830152604082019050919050565b6000611c736025836122dd565b91507f455243313135353a207472616e7366657220746f20746865207a65726f20616460008301527f64726573730000000000000000000000000000000000000000000000000000006020830152604082019050919050565b6000611cd96032836122dd565b91507f455243313135353a207472616e736665722063616c6c6572206973206e6f742060008301527f6f776e6572206e6f7220617070726f76656400000000000000000000000000006020830152604082019050919050565b6000611d3f602a836122dd565b91507f455243313135353a20696e73756666696369656e742062616c616e636520666f60008301527f72207472616e73666572000000000000000000000000000000000000000000006020830152604082019050919050565b6000611da56029836122dd565b91507f455243313135353a2073657474696e6720617070726f76616c2073746174757360008301527f20666f722073656c6600000000000000000000000000000000000000000000006020830152604082019050919050565b6000611e0b6029836122dd565b91507f455243313135353a206163636f756e747320616e6420696473206c656e67746860008301527f206d69736d6174636800000000000000000000000000000000000000000000006020830152604082019050919050565b6000611e716028836122dd565b91507f455243313135353a2069647320616e6420616d6f756e7473206c656e6774682060008301527f6d69736d617463680000000000000000000000000000000000000000000000006020830152604082019050919050565b611ed3816123ae565b82525050565b611ee2816123ae565b82525050565b600060a082019050611efd60008301886119e0565b611f0a60208301876119e0565b8181036040830152611f1c81866119ef565b90508181036060830152611f3081856119ef565b90508181036080830152611f448184611a5c565b90509695505050505050565b600060a082019050611f6560008301886119e0565b611f7260208301876119e0565b611f7f6040830186611ed9565b611f8c6060830185611ed9565b8181036080830152611f9e8184611a5c565b90509695505050505050565b60006020820190508181036000830152611fc481846119ef565b905092915050565b60006040820190508181036000830152611fe681856119ef565b90508181036020830152611ffa81846119ef565b90509392505050565b60006020820190506120186000830184611a4d565b92915050565b600060208201905081810360008301526120388184611a95565b905092915050565b6000602082019050818103600083015261205981611ace565b9050919050565b6000602082019050818103600083015261207981611b34565b9050919050565b6000602082019050818103600083015261209981611b9a565b9050919050565b600060208201905081810360008301526120b981611c00565b9050919050565b600060208201905081810360008301526120d981611c66565b9050919050565b600060208201905081810360008301526120f981611ccc565b9050919050565b6000602082019050818103600083015261211981611d32565b9050919050565b6000602082019050818103600083015261213981611d98565b9050919050565b6000602082019050818103600083015261215981611dfe565b9050919050565b6000602082019050818103600083015261217981611e64565b9050919050565b60006020820190506121956000830184611ed9565b92915050565b60006040820190506121b06000830185611ed9565b6121bd6020830184611ed9565b9392505050565b6000604051905081810181811067ffffffffffffffff821117156121eb576121ea6124d3565b5b8060405250919050565b600067ffffffffffffffff8211156122105761220f6124d3565b5b602082029050602081019050919050565b600067ffffffffffffffff82111561223c5761223b6124d3565b5b602082029050602081019050919050565b600067ffffffffffffffff821115612268576122676124d3565b5b601f19601f8301169050602081019050919050565b6000819050602082019050919050565b600081519050919050565b600081519050919050565b600081519050919050565b6000602082019050919050565b600082825260208201905092915050565b600082825260208201905092915050565b600082825260208201905092915050565b60006122f9826123ae565b9150612304836123ae565b9250827fffffffffffffffffffffffffffffffffffffffffffffffffffffffffffffffff0382111561233957612338612475565b5b828201905092915050565b600061234f8261238e565b9050919050565b60008115159050919050565b60007fffffffff0000000000000000000000000000000000000000000000000000000082169050919050565b600073ffffffffffffffffffffffffffffffffffffffff82169050919050565b6000819050919050565b82818337600083830152505050565b60005b838110156123e55780820151818401526020810190506123ca565b838111156123f4576000848401525b50505050565b6000600282049050600182168061241257607f821691505b60208210811415612426576124256124a4565b5b50919050565b6000612437826123ae565b91507fffffffffffffffffffffffffffffffffffffffffffffffffffffffffffffffff82141561246a57612469612475565b5b600182019050919050565b7f4e487b7100000000000000000000000000000000000000000000000000000000600052601160045260246000fd5b7f4e487b7100000000000000000000000000000000000000000000000000000000600052602260045260246000fd5b7f4e487b7100000000000000000000000000000000000000000000000000000000600052604160045260246000fd5b6000601f19601f8301169050919050565b60008160e01c9050919050565b600060443d1015612530576125d3565b60046000803e612541600051612513565b6308c379a0811461255257506125d3565b60405160043d036004823e80513d602482011167ffffffffffffffff8211171561257e575050506125d3565b808201805167ffffffffffffffff81111561259d5750505050506125d3565b8060208301013d85018111156125b8575050505050506125d3565b6125c182612502565b60208401016040528296505050505050505b90565b6125df81612344565b81146125ea57600080fd5b50565b6125f681612356565b811461260157600080fd5b50565b61260d81612362565b811461261857600080fd5b50565b612624816123ae565b811461262f57600080fd5b5056fea2646970667358221220a0afb2483c7ca100346cc4874621ad6d57d4038bc9862833c704d2085f998eb764736f6c6343000800003368747470733a2f2f67616d652e6578616d706c652f6170692f6974656d2f7b69647d2e6a736f6e",
  "immutableReferences": {},
  "source": "// contracts/GameItems.sol\r\n// SPDX-License-Identifier: MIT\r\npragma solidity ^0.8.0;\r\n\r\nimport \"@openzeppelin/contracts/token/ERC1155/ERC1155.sol\";\r\n\r\ncontract GameItems is ERC1155 {\r\n  uint256 public constant GOLD = 0;\r\n  uint256 public constant SILVER = 1;\r\n  uint256 public constant THORS_HAMMER = 2;\r\n  uint256 public constant SWORD = 3;\r\n  uint256 public constant SHIELD = 4;\r\n\r\n  constructor() ERC1155(\"https://game.example/api/item/{id}.json\") {\r\n    _mint(msg.sender, GOLD, 10**18, \"\");\r\n    _mint(msg.sender, SILVER, 10**27, \"\");\r\n    _mint(msg.sender, THORS_HAMMER, 1, \"\");\r\n    _mint(msg.sender, SWORD, 10**9, \"\");\r\n    _mint(msg.sender, SHIELD, 10**9, \"\");\r\n  }\r\n}\r\n",
  "sourcePath": "/c/Users/dx/Ethereum Studio/ECR/contracts/GameItems.sol",
  "compiler": {
    "name": "solc",
    "version": "0.8.0+commit.c7dfd78e.Emscripten.clang"
  },
  "schemaVersion": "3.4.2",
  "updatedAt": "2022-02-02T09:23:29.260Z",
  "devdoc": {
    "kind": "dev",
    "methods": {
      "balanceOf(address,uint256)": {
        "details": "See {IERC1155-balanceOf}. Requirements: - `account` cannot be the zero address."
      },
      "balanceOfBatch(address[],uint256[])": {
        "details": "See {IERC1155-balanceOfBatch}. Requirements: - `accounts` and `ids` must have the same length."
      },
      "isApprovedForAll(address,address)": {
        "details": "See {IERC1155-isApprovedForAll}."
      },
      "safeBatchTransferFrom(address,address,uint256[],uint256[],bytes)": {
        "details": "See {IERC1155-safeBatchTransferFrom}."
      },
      "safeTransferFrom(address,address,uint256,uint256,bytes)": {
        "details": "See {IERC1155-safeTransferFrom}."
      },
      "setApprovalForAll(address,bool)": {
        "details": "See {IERC1155-setApprovalForAll}."
      },
      "supportsInterface(bytes4)": {
        "details": "See {IERC165-supportsInterface}."
      },
      "uri(uint256)": {
        "details": "See {IERC1155MetadataURI-uri}. This implementation returns the same URI for *all* token types. It relies on the token type ID substitution mechanism https://eips.ethereum.org/EIPS/eip-1155#metadata[defined in the EIP]. Clients calling this function must replace the `\\{id\\}` substring with the actual token type ID."
      }
    },
    "version": 1
  },
  "userdoc": {
    "kind": "user",
    "methods": {},
    "version": 1
  }
}