{
  "contractName": "IDOContract",
  "abi": [
    {
      "inputs": [
        {
          "internalType": "uint256",
          "name": "_price",
          "type": "uint256"
        },
        {
          "internalType": "address",
          "name": "_erc20address",
          "type": "address"
        },
        {
          "internalType": "address",
          "name": "_usdtAddress",
          "type": "address"
        }
      ],
      "stateMutability": "nonpayable",
      "type": "constructor"
    },
    {
      "anonymous": false,
      "inputs": [
        {
          "indexed": false,
          "internalType": "address",
          "name": "user",
          "type": "address"
        },
        {
          "indexed": false,
          "internalType": "uint256",
          "name": "amount",
          "type": "uint256"
        }
      ],
      "name": "IDOBuyEvent",
      "type": "event"
    },
    {
      "anonymous": false,
      "inputs": [
        {
          "indexed": true,
          "internalType": "address",
          "name": "previousOwner",
          "type": "address"
        },
        {
          "indexed": true,
          "internalType": "address",
          "name": "newOwner",
          "type": "address"
        }
      ],
      "name": "OwnershipTransferred",
      "type": "event"
    },
    {
      "anonymous": false,
      "inputs": [
        {
          "indexed": false,
          "internalType": "address[]",
          "name": "users",
          "type": "address[]"
        }
      ],
      "name": "SetWhiteListEvent",
      "type": "event"
    },
    {
      "inputs": [],
      "name": "ERC20Address",
      "outputs": [
        {
          "internalType": "address",
          "name": "",
          "type": "address"
        }
      ],
      "stateMutability": "view",
      "type": "function"
    },
    {
      "inputs": [],
      "name": "IDOActive",
      "outputs": [
        {
          "internalType": "bool",
          "name": "",
          "type": "bool"
        }
      ],
      "stateMutability": "view",
      "type": "function"
    },
    {
      "inputs": [],
      "name": "USDTAddress",
      "outputs": [
        {
          "internalType": "address",
          "name": "",
          "type": "address"
        }
      ],
      "stateMutability": "view",
      "type": "function"
    },
    {
      "inputs": [],
      "name": "WhiteListIndex",
      "outputs": [
        {
          "internalType": "uint256",
          "name": "",
          "type": "uint256"
        }
      ],
      "stateMutability": "view",
      "type": "function"
    },
    {
      "inputs": [],
      "name": "owner",
      "outputs": [
        {
          "internalType": "address",
          "name": "",
          "type": "address"
        }
      ],
      "stateMutability": "view",
      "type": "function"
    },
    {
      "inputs": [],
      "name": "price",
      "outputs": [
        {
          "internalType": "uint256",
          "name": "",
          "type": "uint256"
        }
      ],
      "stateMutability": "view",
      "type": "function"
    },
    {
      "inputs": [],
      "name": "renounceOwnership",
      "outputs": [],
      "stateMutability": "nonpayable",
      "type": "function"
    },
    {
      "inputs": [
        {
          "internalType": "address",
          "name": "newOwner",
          "type": "address"
        }
      ],
      "name": "transferOwnership",
      "outputs": [],
      "stateMutability": "nonpayable",
      "type": "function"
    },
    {
      "inputs": [
        {
          "internalType": "uint256",
          "name": "amount",
          "type": "uint256"
        }
      ],
      "name": "buy",
      "outputs": [
        {
          "internalType": "bool",
          "name": "",
          "type": "bool"
        }
      ],
      "stateMutability": "nonpayable",
      "type": "function"
    },
    {
      "inputs": [
        {
          "internalType": "address[]",
          "name": "users",
          "type": "address[]"
        }
      ],
      "name": "setWhiteList",
      "outputs": [
        {
          "internalType": "bool",
          "name": "",
          "type": "bool"
        }
      ],
      "stateMutability": "nonpayable",
      "type": "function"
    },
    {
      "inputs": [
        {
          "internalType": "bool",
          "name": "val",
          "type": "bool"
        }
      ],
      "name": "setIDOActive",
      "outputs": [
        {
          "internalType": "bool",
          "name": "",
          "type": "bool"
        }
      ],
      "stateMutability": "nonpayable",
      "type": "function"
    },
    {
      "inputs": [],
      "name": "getWhiteList",
      "outputs": [
        {
          "internalType": "address[]",
          "name": "",
          "type": "address[]"
        }
      ],
      "stateMutability": "view",
      "type": "function"
    },
    {
      "inputs": [
        {
          "internalType": "address",
          "name": "user",
          "type": "address"
        }
      ],
      "name": "isInWhiteList",
      "outputs": [
        {
          "internalType": "bool",
          "name": "",
          "type": "bool"
        }
      ],
      "stateMutability": "view",
      "type": "function"
    }
  ],
  "bytecode": "0x608060405260016004556a084595161401484a0000006006556000600760006101000a81548160ff02191690831515021790555060006009553480156200004557600080fd5b506040516200219c3803806200219c83398181016040528101906200006b91906200021e565b6200008b6200007f6200012460201b60201c565b6200012c60201b60201c565b600180819055508260058190555081600260006101000a81548173ffffffffffffffffffffffffffffffffffffffff021916908373ffffffffffffffffffffffffffffffffffffffff16021790555080600360006101000a81548173ffffffffffffffffffffffffffffffffffffffff021916908373ffffffffffffffffffffffffffffffffffffffff160217905550505050620002e6565b600033905090565b60008060009054906101000a900473ffffffffffffffffffffffffffffffffffffffff169050816000806101000a81548173ffffffffffffffffffffffffffffffffffffffff021916908373ffffffffffffffffffffffffffffffffffffffff1602179055508173ffffffffffffffffffffffffffffffffffffffff168173ffffffffffffffffffffffffffffffffffffffff167f8be0079c531659141344cd1fd0a4f28419497f9722a3daafe3b4186f6b6457e060405160405180910390a35050565b6000815190506200020181620002b2565b92915050565b6000815190506200021881620002cc565b92915050565b6000806000606084860312156200023457600080fd5b6000620002448682870162000207565b93505060206200025786828701620001f0565b92505060406200026a86828701620001f0565b9150509250925092565b6000620002818262000288565b9050919050565b600073ffffffffffffffffffffffffffffffffffffffff82169050919050565b6000819050919050565b620002bd8162000274565b8114620002c957600080fd5b50565b620002d781620002a8565b8114620002e357600080fd5b50565b611ea680620002f66000396000f3fe608060405234801561001057600080fd5b50600436106100cf5760003560e01c806396bfc2291161008c578063d96a094a11610066578063d96a094a14610204578063e5f45e4d14610234578063f2fde38b14610252578063ff920c741461026e576100cf565b806396bfc22914610198578063a035b1fe146101c8578063a6021ace146101e6576100cf565b806309a9d76c146100d45780630f7f72b7146100f25780636a42459414610122578063715018a614610140578063775b9c131461014a5780638da5cb5b1461017a575b600080fd5b6100dc61028c565b6040516100e99190611946565b60405180910390f35b61010c60048036038101906101079190611327565b6103d2565b6040516101199190611968565b60405180910390f35b61012a610473565b6040516101379190611968565b60405180910390f35b610148610486565b005b610164600480360381019061015f91906112e6565b61050e565b6040516101719190611968565b60405180910390f35b6101826106a2565b60405161018f91906118a2565b60405180910390f35b6101b260048036038101906101ad91906112bd565b6106cb565b6040516101bf9190611968565b60405180910390f35b6101d061076c565b6040516101dd9190611b05565b60405180910390f35b6101ee610772565b6040516101fb91906118a2565b60405180910390f35b61021e60048036038101906102199190611379565b610798565b60405161022b9190611968565b60405180910390f35b61023c610c10565b6040516102499190611b05565b60405180910390f35b61026c600480360381019061026791906112bd565b610c16565b005b610276610d0e565b60405161028391906118a2565b60405180910390f35b6060600060095467ffffffffffffffff8111156102d2577f4e487b7100000000000000000000000000000000000000000000000000000000600052604160045260246000fd5b6040519080825280602002602001820160405280156103005781602001602082028036833780820191505090505b50905060005b6009548110156103ca576008600082815260200190815260200160002060009054906101000a900473ffffffffffffffffffffffffffffffffffffffff1682828151811061037d577f4e487b7100000000000000000000000000000000000000000000000000000000600052603260045260246000fd5b602002602001019073ffffffffffffffffffffffffffffffffffffffff16908173ffffffffffffffffffffffffffffffffffffffff168152505080806103c290611d44565b915050610306565b508091505090565b60006103dc610d34565b73ffffffffffffffffffffffffffffffffffffffff166103fa6106a2565b73ffffffffffffffffffffffffffffffffffffffff1614610450576040517f08c379a000000000000000000000000000000000000000000000000000000000815260040161044790611a45565b60405180910390fd5b81600760006101000a81548160ff02191690831515021790555060019050919050565b600760009054906101000a900460ff1681565b61048e610d34565b73ffffffffffffffffffffffffffffffffffffffff166104ac6106a2565b73ffffffffffffffffffffffffffffffffffffffff1614610502576040517f08c379a00000000000000000000000000000000000000000000000000000000081526004016104f990611a45565b60405180910390fd5b61050c6000610d3c565b565b6000610518610d34565b73ffffffffffffffffffffffffffffffffffffffff166105366106a2565b73ffffffffffffffffffffffffffffffffffffffff161461058c576040517f08c379a000000000000000000000000000000000000000000000000000000000815260040161058390611a45565b60405180910390fd5b60008251905060005b81811015610660578381815181106105d6577f4e487b7100000000000000000000000000000000000000000000000000000000600052603260045260246000fd5b602002602001015160086000600954815260200190815260200160002060006101000a81548173ffffffffffffffffffffffffffffffffffffffff021916908373ffffffffffffffffffffffffffffffffffffffff1602179055506106476001600954610e0090919063ffffffff16565b600981905550808061065890611d44565b915050610595565b507fea18aefa6a211cd0d31a5b0d73c6ef56cab82a44d3108099be5f52baa1bec0db836040516106909190611946565b60405180910390a16001915050919050565b60008060009054906101000a900473ffffffffffffffffffffffffffffffffffffffff16905090565b600080600090505b600954811015610761578273ffffffffffffffffffffffffffffffffffffffff166008600083815260200190815260200160002060009054906101000a900473ffffffffffffffffffffffffffffffffffffffff1673ffffffffffffffffffffffffffffffffffffffff16141561074e576001915050610767565b808061075990611d44565b9150506106d3565b50600090505b919050565b60055481565b600260009054906101000a900473ffffffffffffffffffffffffffffffffffffffff1681565b6000600260015414156107e0576040517f08c379a00000000000000000000000000000000000000000000000000000000081526004016107d790611ac5565b60405180910390fd5b6002600181905550600015156107fc6107f7610d34565b610e16565b15151461083e576040517f08c379a000000000000000000000000000000000000000000000000000000000815260040161083590611ae5565b60405180910390fd5b600760009054906101000a900460ff1661088d576040517f08c379a000000000000000000000000000000000000000000000000000000000815260040161088490611aa5565b60405180910390fd5b670de0b6b3a764000082101580156108a6575060065482105b6108e5576040517f08c379a00000000000000000000000000000000000000000000000000000000081526004016108dc906119e5565b60405180910390fd5b81600260009054906101000a900473ffffffffffffffffffffffffffffffffffffffff1673ffffffffffffffffffffffffffffffffffffffff166370a08231306040518263ffffffff1660e01b815260040161094191906118a2565b60206040518083038186803b15801561095957600080fd5b505afa15801561096d573d6000803e3d6000fd5b505050506040513d601f19601f8201168201806040525081019061099191906113a2565b10156109d2576040517f08c379a00000000000000000000000000000000000000000000000000000000081526004016109c990611a05565b60405180910390fd5b6109fa60646109ec60055485610e2990919063ffffffff16565b610e3f90919063ffffffff16565b600360009054906101000a900473ffffffffffffffffffffffffffffffffffffffff1673ffffffffffffffffffffffffffffffffffffffff1663dd62ed3e610a40610d34565b306040518363ffffffff1660e01b8152600401610a5e9291906118bd565b60206040518083038186803b158015610a7657600080fd5b505afa158015610a8a573d6000803e3d6000fd5b505050506040513d601f19601f82011682018060405250810190610aae91906113a2565b1015610aef576040517f08c379a0000000000000000000000000000000000000000000000000000000008152600401610ae690611a25565b60405180910390fd5b610b6c610afa610d34565b30610b236064610b1560055488610e2990919063ffffffff16565b610e3f90919063ffffffff16565b600360009054906101000a900473ffffffffffffffffffffffffffffffffffffffff1673ffffffffffffffffffffffffffffffffffffffff16610e55909392919063ffffffff16565b610bc0610b77610d34565b83600260009054906101000a900473ffffffffffffffffffffffffffffffffffffffff1673ffffffffffffffffffffffffffffffffffffffff16610ede9092919063ffffffff16565b7f373d3f990c4d096d3bbb884d58bea340ddccf1916319bcbe76a2b0318917a788610be9610d34565b83604051610bf892919061191d565b60405180910390a16001905060018081905550919050565b60095481565b610c1e610d34565b73ffffffffffffffffffffffffffffffffffffffff16610c3c6106a2565b73ffffffffffffffffffffffffffffffffffffffff1614610c92576040517f08c379a0000000000000000000000000000000000000000000000000000000008152600401610c8990611a45565b60405180910390fd5b600073ffffffffffffffffffffffffffffffffffffffff168173ffffffffffffffffffffffffffffffffffffffff161415610d02576040517f08c379a0000000000000000000000000000000000000000000000000000000008152600401610cf9906119a5565b60405180910390fd5b610d0b81610d3c565b50565b600360009054906101000a900473ffffffffffffffffffffffffffffffffffffffff1681565b600033905090565b60008060009054906101000a900473ffffffffffffffffffffffffffffffffffffffff169050816000806101000a81548173ffffffffffffffffffffffffffffffffffffffff021916908373ffffffffffffffffffffffffffffffffffffffff1602179055508173ffffffffffffffffffffffffffffffffffffffff168173ffffffffffffffffffffffffffffffffffffffff167f8be0079c531659141344cd1fd0a4f28419497f9722a3daafe3b4186f6b6457e060405160405180910390a35050565b60008183610e0e9190611be8565b905092915050565b600080823b905060008111915050919050565b60008183610e379190611c6f565b905092915050565b60008183610e4d9190611c3e565b905092915050565b610ed8846323b872dd60e01b858585604051602401610e76939291906118e6565b604051602081830303815290604052907bffffffffffffffffffffffffffffffffffffffffffffffffffffffff19166020820180517bffffffffffffffffffffffffffffffffffffffffffffffffffffffff8381831617835250505050610f64565b50505050565b610f5f8363a9059cbb60e01b8484604051602401610efd92919061191d565b604051602081830303815290604052907bffffffffffffffffffffffffffffffffffffffffffffffffffffffff19166020820180517bffffffffffffffffffffffffffffffffffffffffffffffffffffffff8381831617835250505050610f64565b505050565b6000610fc6826040518060400160405280602081526020017f5361666545524332303a206c6f772d6c6576656c2063616c6c206661696c65648152508573ffffffffffffffffffffffffffffffffffffffff1661102b9092919063ffffffff16565b90506000815111156110265780806020019051810190610fe69190611350565b611025576040517f08c379a000000000000000000000000000000000000000000000000000000000815260040161101c90611a85565b60405180910390fd5b5b505050565b606061103a8484600085611043565b90509392505050565b606082471015611088576040517f08c379a000000000000000000000000000000000000000000000000000000000815260040161107f906119c5565b60405180910390fd5b61109185610e16565b6110d0576040517f08c379a00000000000000000000000000000000000000000000000000000000081526004016110c790611a65565b60405180910390fd5b6000808673ffffffffffffffffffffffffffffffffffffffff1685876040516110f9919061188b565b60006040518083038185875af1925050503d8060008114611136576040519150601f19603f3d011682016040523d82523d6000602084013e61113b565b606091505b509150915061114b828286611157565b92505050949350505050565b60608315611167578290506111b7565b60008351111561117a5782518084602001fd5b816040517f08c379a00000000000000000000000000000000000000000000000000000000081526004016111ae9190611983565b60405180910390fd5b9392505050565b60006111d16111cc84611b51565b611b20565b905080838252602082019050828560208602820111156111f057600080fd5b60005b858110156112205781611206888261122a565b8452602084019350602083019250506001810190506111f3565b5050509392505050565b60008135905061123981611e2b565b92915050565b600082601f83011261125057600080fd5b81356112608482602086016111be565b91505092915050565b60008135905061127881611e42565b92915050565b60008151905061128d81611e42565b92915050565b6000813590506112a281611e59565b92915050565b6000815190506112b781611e59565b92915050565b6000602082840312156112cf57600080fd5b60006112dd8482850161122a565b91505092915050565b6000602082840312156112f857600080fd5b600082013567ffffffffffffffff81111561131257600080fd5b61131e8482850161123f565b91505092915050565b60006020828403121561133957600080fd5b600061134784828501611269565b91505092915050565b60006020828403121561136257600080fd5b60006113708482850161127e565b91505092915050565b60006020828403121561138b57600080fd5b600061139984828501611293565b91505092915050565b6000602082840312156113b457600080fd5b60006113c2848285016112a8565b91505092915050565b60006113d783836113e3565b60208301905092915050565b6113ec81611cc9565b82525050565b6113fb81611cc9565b82525050565b600061140c82611b8d565b6114168185611bbb565b935061142183611b7d565b8060005b8381101561145257815161143988826113cb565b975061144483611bae565b925050600181019050611425565b5085935050505092915050565b61146881611cdb565b82525050565b600061147982611b98565b6114838185611bcc565b9350611493818560208601611d11565b80840191505092915050565b60006114aa82611ba3565b6114b48185611bd7565b93506114c4818560208601611d11565b6114cd81611e1a565b840191505092915050565b60006114e5602683611bd7565b91507f4f776e61626c653a206e6577206f776e657220697320746865207a65726f206160008301527f64647265737300000000000000000000000000000000000000000000000000006020830152604082019050919050565b600061154b602683611bd7565b91507f416464726573733a20696e73756666696369656e742062616c616e636520666f60008301527f722063616c6c00000000000000000000000000000000000000000000000000006020830152604082019050919050565b60006115b1603f83611bd7565b91507f42757920416d6f756e74206f7574206f662072616e6765206d7573742062652060008301527f6d6f7265207468616e2031206c657373207468616e204d4158416d6f756e74006020830152604082019050919050565b6000611617603e83611bd7565b91507f546865206e756d626572206f662072656d61696e696e6720746f6b656e73206960008301527f6e2074686520636f6e747261637420697320696e73756666696369656e7400006020830152604082019050919050565b600061167d602583611bd7565b91507f496e73756666696369656e74206e756d626572206f662075736474206170707260008301527f6f76616c730000000000000000000000000000000000000000000000000000006020830152604082019050919050565b60006116e3602083611bd7565b91507f4f776e61626c653a2063616c6c6572206973206e6f7420746865206f776e65726000830152602082019050919050565b6000611723601d83611bd7565b91507f416464726573733a2063616c6c20746f206e6f6e2d636f6e74726163740000006000830152602082019050919050565b6000611763602a83611bd7565b91507f5361666545524332303a204552433230206f7065726174696f6e20646964206e60008301527f6f742073756363656564000000000000000000000000000000000000000000006020830152604082019050919050565b60006117c9600e83611bd7565b91507f49444f206e6f74204163746976650000000000000000000000000000000000006000830152602082019050919050565b6000611809601f83611bd7565b91507f5265656e7472616e637947756172643a207265656e7472616e742063616c6c006000830152602082019050919050565b6000611849600a83611bd7565b91507f6e6f742068756e6d616e000000000000000000000000000000000000000000006000830152602082019050919050565b61188581611d07565b82525050565b6000611897828461146e565b915081905092915050565b60006020820190506118b760008301846113f2565b92915050565b60006040820190506118d260008301856113f2565b6118df60208301846113f2565b9392505050565b60006060820190506118fb60008301866113f2565b61190860208301856113f2565b611915604083018461187c565b949350505050565b600060408201905061193260008301856113f2565b61193f602083018461187c565b9392505050565b600060208201905081810360008301526119608184611401565b905092915050565b600060208201905061197d600083018461145f565b92915050565b6000602082019050818103600083015261199d818461149f565b905092915050565b600060208201905081810360008301526119be816114d8565b9050919050565b600060208201905081810360008301526119de8161153e565b9050919050565b600060208201905081810360008301526119fe816115a4565b9050919050565b60006020820190508181036000830152611a1e8161160a565b9050919050565b60006020820190508181036000830152611a3e81611670565b9050919050565b60006020820190508181036000830152611a5e816116d6565b9050919050565b60006020820190508181036000830152611a7e81611716565b9050919050565b60006020820190508181036000830152611a9e81611756565b9050919050565b60006020820190508181036000830152611abe816117bc565b9050919050565b60006020820190508181036000830152611ade816117fc565b9050919050565b60006020820190508181036000830152611afe8161183c565b9050919050565b6000602082019050611b1a600083018461187c565b92915050565b6000604051905081810181811067ffffffffffffffff82111715611b4757611b46611deb565b5b8060405250919050565b600067ffffffffffffffff821115611b6c57611b6b611deb565b5b602082029050602081019050919050565b6000819050602082019050919050565b600081519050919050565b600081519050919050565b600081519050919050565b6000602082019050919050565b600082825260208201905092915050565b600081905092915050565b600082825260208201905092915050565b6000611bf382611d07565b9150611bfe83611d07565b9250827fffffffffffffffffffffffffffffffffffffffffffffffffffffffffffffffff03821115611c3357611c32611d8d565b5b828201905092915050565b6000611c4982611d07565b9150611c5483611d07565b925082611c6457611c63611dbc565b5b828204905092915050565b6000611c7a82611d07565b9150611c8583611d07565b9250817fffffffffffffffffffffffffffffffffffffffffffffffffffffffffffffffff0483118215151615611cbe57611cbd611d8d565b5b828202905092915050565b6000611cd482611ce7565b9050919050565b60008115159050919050565b600073ffffffffffffffffffffffffffffffffffffffff82169050919050565b6000819050919050565b60005b83811015611d2f578082015181840152602081019050611d14565b83811115611d3e576000848401525b50505050565b6000611d4f82611d07565b91507fffffffffffffffffffffffffffffffffffffffffffffffffffffffffffffffff821415611d8257611d81611d8d565b5b600182019050919050565b7f4e487b7100000000000000000000000000000000000000000000000000000000600052601160045260246000fd5b7f4e487b7100000000000000000000000000000000000000000000000000000000600052601260045260246000fd5b7f4e487b7100000000000000000000000000000000000000000000000000000000600052604160045260246000fd5b6000601f19601f8301169050919050565b611e3481611cc9565b8114611e3f57600080fd5b50565b611e4b81611cdb565b8114611e5657600080fd5b50565b611e6281611d07565b8114611e6d57600080fd5b5056fea264697066735822122029513b00a68949c0b7aee84403949ed10de2487a175993b424f547976922166964736f6c63430008000033",
  "immutableReferences": {},
  "source": "// SPDX-License-Identifier: MIT\r\npragma solidity ^0.8.0;\r\nimport \"@openzeppelin/contracts/utils/Address.sol\";\r\nimport \"@openzeppelin/contracts/access/Ownable.sol\";\r\nimport \"@openzeppelin/contracts/utils/Context.sol\";\r\nimport \"@openzeppelin/contracts/utils/math/SafeMath.sol\";\r\nimport \"@openzeppelin/contracts/token/ERC20/utils/SafeERC20.sol\";\r\nimport \"@openzeppelin/contracts/security/ReentrancyGuard.sol\";\r\n\r\n/*\r\n\r\n\r\n*/\r\n\r\ncontract IDOContract is Context,Ownable,ReentrancyGuard {\r\n    using SafeMath for uint256;\r\n    using SafeERC20 for IERC20;\r\n    address public ERC20Address;//ANK address\r\n    address public USDTAddress;//USDT address\r\n    uint256 private aproveunlocked=1;//lock\r\n    uint256 public price;//price 1000=10usdt 100=1usdt  10=0.1usdt   1=0.01usdt\r\n    uint256 private MAXAmount=10000000*10**18;//MAX buy amount < 1000w\r\n    bool public IDOActive=false;//\r\n    mapping(uint=>address) private WhiteList;\r\n    uint256 public WhiteListIndex=0;\r\n    event SetWhiteListEvent(address[] users);\r\n    event IDOBuyEvent(address user,uint amount);\r\n    constructor(uint256 _price,address _erc20address,address _usdtAddress) {\r\n        price = _price;\r\n        ERC20Address=_erc20address;\r\n        USDTAddress=_usdtAddress;\r\n    }  \r\n    \r\n    function buy(uint256 amount) public nonReentrant returns  (bool) {\r\n        require(Address.isContract(_msgSender())==false,\"not hunman\");\r\n        require(IDOActive,\"IDO not Active\");\r\n        require(amount>=1000000000000000000&&amount<MAXAmount,\"Buy Amount out of range must be more than 1 less than MAXAmount\");\r\n        require(IERC20(ERC20Address).balanceOf(address(this))>=amount,\"The number of remaining tokens in the contract is insufficient\");\r\n        require(IERC20(USDTAddress).allowance(_msgSender(),address(this))>=amount.mul(price).div(100),\"Insufficient number of usdt approvals\");//\r\n        IERC20(USDTAddress).safeTransferFrom(_msgSender(),address(this), amount.mul(price).div(100));\r\n        IERC20(ERC20Address).safeTransfer(_msgSender(), amount);\r\n        emit IDOBuyEvent(_msgSender(),amount);\r\n        return true;\r\n    }\r\n    \r\n    function setWhiteList(address[] memory users) public onlyOwner returns  (bool) {\r\n        uint len=users.length;\r\n        for(uint i=0;i<len;i++){\r\n            WhiteList[WhiteListIndex]=users[i];\r\n            WhiteListIndex=WhiteListIndex.add(1);\r\n        }\r\n        emit SetWhiteListEvent(users);\r\n        return true;\r\n        \r\n    }\r\n\r\n    function setIDOActive(bool val) public onlyOwner returns  (bool) {\r\n        IDOActive=val;\r\n        return true;\r\n        \r\n    }\r\n\r\n    function getWhiteList() public view returns  (address[] memory) {\r\n        address[] memory users=new address[](WhiteListIndex);\r\n        for(uint i=0;i<WhiteListIndex;i++){\r\n            users[i]=WhiteList[i];\r\n        }\r\n        return users;\r\n    }\r\n    function isInWhiteList(address user) public view returns  (bool) {\r\n        for(uint i=0;i<WhiteListIndex;i++){\r\n            if(WhiteList[i]==user){\r\n                return true;\r\n            }\r\n        }\r\n        return false;\r\n    }\r\n}",
  "sourcePath": "/c/Users/dx/Ethereum Studio/ECR/contracts/IDO.sol",
  "compiler": {
    "name": "solc",
    "version": "0.8.0+commit.c7dfd78e.Emscripten.clang"
  },
  "schemaVersion": "3.4.2",
  "updatedAt": "2022-02-08T11:38:38.502Z",
  "devdoc": {
    "kind": "dev",
    "methods": {
      "owner()": {
        "details": "Returns the address of the current owner."
      },
      "renounceOwnership()": {
        "details": "Leaves the contract without owner. It will not be possible to call `onlyOwner` functions anymore. Can only be called by the current owner. NOTE: Renouncing ownership will leave the contract without an owner, thereby removing any functionality that is only available to the owner."
      },
      "transferOwnership(address)": {
        "details": "Transfers ownership of the contract to a new account (`newOwner`). Can only be called by the current owner."
      }
    },
    "version": 1
  },
  "userdoc": {
    "kind": "user",
    "methods": {},
    "version": 1
  }
}