{
  "contractName": "IDOContract",
  "abi": [
    {
      "inputs": [
        {
          "internalType": "uint256",
          "name": "_price",
          "type": "uint256"
        },
        {
          "internalType": "address",
          "name": "_erc20address",
          "type": "address"
        },
        {
          "internalType": "address",
          "name": "_usdtAddress",
          "type": "address"
        }
      ],
      "stateMutability": "nonpayable",
      "type": "constructor"
    },
    {
      "anonymous": false,
      "inputs": [
        {
          "indexed": false,
          "internalType": "address",
          "name": "user",
          "type": "address"
        },
        {
          "indexed": false,
          "internalType": "uint256",
          "name": "amount",
          "type": "uint256"
        }
      ],
      "name": "IDOBuyEvent",
      "type": "event"
    },
    {
      "anonymous": false,
      "inputs": [
        {
          "indexed": true,
          "internalType": "address",
          "name": "previousOwner",
          "type": "address"
        },
        {
          "indexed": true,
          "internalType": "address",
          "name": "newOwner",
          "type": "address"
        }
      ],
      "name": "OwnershipTransferred",
      "type": "event"
    },
    {
      "anonymous": false,
      "inputs": [
        {
          "indexed": false,
          "internalType": "address[]",
          "name": "users",
          "type": "address[]"
        }
      ],
      "name": "SetWhiteListEvent",
      "type": "event"
    },
    {
      "inputs": [],
      "name": "ERC20Address",
      "outputs": [
        {
          "internalType": "address",
          "name": "",
          "type": "address"
        }
      ],
      "stateMutability": "view",
      "type": "function"
    },
    {
      "inputs": [],
      "name": "IDOActive",
      "outputs": [
        {
          "internalType": "bool",
          "name": "",
          "type": "bool"
        }
      ],
      "stateMutability": "view",
      "type": "function"
    },
    {
      "inputs": [],
      "name": "USDTAddress",
      "outputs": [
        {
          "internalType": "address",
          "name": "",
          "type": "address"
        }
      ],
      "stateMutability": "view",
      "type": "function"
    },
    {
      "inputs": [],
      "name": "owner",
      "outputs": [
        {
          "internalType": "address",
          "name": "",
          "type": "address"
        }
      ],
      "stateMutability": "view",
      "type": "function"
    },
    {
      "inputs": [],
      "name": "price",
      "outputs": [
        {
          "internalType": "uint256",
          "name": "",
          "type": "uint256"
        }
      ],
      "stateMutability": "view",
      "type": "function"
    },
    {
      "inputs": [],
      "name": "renounceOwnership",
      "outputs": [],
      "stateMutability": "nonpayable",
      "type": "function"
    },
    {
      "inputs": [
        {
          "internalType": "address",
          "name": "newOwner",
          "type": "address"
        }
      ],
      "name": "transferOwnership",
      "outputs": [],
      "stateMutability": "nonpayable",
      "type": "function"
    },
    {
      "inputs": [
        {
          "internalType": "uint256",
          "name": "amount",
          "type": "uint256"
        }
      ],
      "name": "buy",
      "outputs": [
        {
          "internalType": "bool",
          "name": "",
          "type": "bool"
        }
      ],
      "stateMutability": "nonpayable",
      "type": "function"
    },
    {
      "inputs": [
        {
          "internalType": "address[]",
          "name": "users",
          "type": "address[]"
        }
      ],
      "name": "setWhiteList",
      "outputs": [
        {
          "internalType": "bool",
          "name": "",
          "type": "bool"
        }
      ],
      "stateMutability": "nonpayable",
      "type": "function"
    },
    {
      "inputs": [
        {
          "internalType": "bool",
          "name": "val",
          "type": "bool"
        }
      ],
      "name": "setIDOActive",
      "outputs": [
        {
          "internalType": "bool",
          "name": "",
          "type": "bool"
        }
      ],
      "stateMutability": "nonpayable",
      "type": "function"
    },
    {
      "inputs": [
        {
          "internalType": "address",
          "name": "user",
          "type": "address"
        }
      ],
      "name": "isInWhiteList",
      "outputs": [
        {
          "internalType": "bool",
          "name": "",
          "type": "bool"
        }
      ],
      "stateMutability": "view",
      "type": "function"
    }
  ],
  "bytecode": "0x60806040526a084595161401484a0000006005556000600660006101000a81548160ff0219169083151502179055503480156200003b57600080fd5b506040516200205c3803806200205c833981810160405281019062000061919062000214565b62000081620000756200011a60201b60201c565b6200012260201b60201c565b600180819055508260048190555081600260006101000a81548173ffffffffffffffffffffffffffffffffffffffff021916908373ffffffffffffffffffffffffffffffffffffffff16021790555080600360006101000a81548173ffffffffffffffffffffffffffffffffffffffff021916908373ffffffffffffffffffffffffffffffffffffffff160217905550505050620002dc565b600033905090565b60008060009054906101000a900473ffffffffffffffffffffffffffffffffffffffff169050816000806101000a81548173ffffffffffffffffffffffffffffffffffffffff021916908373ffffffffffffffffffffffffffffffffffffffff1602179055508173ffffffffffffffffffffffffffffffffffffffff168173ffffffffffffffffffffffffffffffffffffffff167f8be0079c531659141344cd1fd0a4f28419497f9722a3daafe3b4186f6b6457e060405160405180910390a35050565b600081519050620001f781620002a8565b92915050565b6000815190506200020e81620002c2565b92915050565b6000806000606084860312156200022a57600080fd5b60006200023a86828701620001fd565b93505060206200024d86828701620001e6565b92505060406200026086828701620001e6565b9150509250925092565b600062000277826200027e565b9050919050565b600073ffffffffffffffffffffffffffffffffffffffff82169050919050565b6000819050919050565b620002b3816200026a565b8114620002bf57600080fd5b50565b620002cd816200029e565b8114620002d957600080fd5b50565b611d7080620002ec6000396000f3fe608060405234801561001057600080fd5b50600436106100a95760003560e01c806396bfc2291161007157806396bfc22914610154578063a035b1fe14610184578063a6021ace146101a2578063d96a094a146101c0578063f2fde38b146101f0578063ff920c741461020c576100a9565b80630f7f72b7146100ae5780636a424594146100de578063715018a6146100fc578063775b9c13146101065780638da5cb5b14610136575b600080fd5b6100c860048036038101906100c391906111e7565b61022a565b6040516100d59190611868565b60405180910390f35b6100e66102cb565b6040516100f39190611868565b60405180910390f35b6101046102de565b005b610120600480360381019061011b91906111a6565b610366565b60405161012d9190611868565b60405180910390f35b61013e6104e2565b60405161014b91906117a2565b60405180910390f35b61016e6004803603810190610169919061117d565b61050b565b60405161017b9190611868565b60405180910390f35b61018c610561565b6040516101999190611a25565b60405180910390f35b6101aa610567565b6040516101b791906117a2565b60405180910390f35b6101da60048036038101906101d59190611239565b61058d565b6040516101e79190611868565b60405180910390f35b61020a6004803603810190610205919061117d565b610aec565b005b610214610be4565b60405161022191906117a2565b60405180910390f35b6000610234610c0a565b73ffffffffffffffffffffffffffffffffffffffff166102526104e2565b73ffffffffffffffffffffffffffffffffffffffff16146102a8576040517f08c379a000000000000000000000000000000000000000000000000000000000815260040161029f90611965565b60405180910390fd5b81600660006101000a81548160ff02191690831515021790555060019050919050565b600660009054906101000a900460ff1681565b6102e6610c0a565b73ffffffffffffffffffffffffffffffffffffffff166103046104e2565b73ffffffffffffffffffffffffffffffffffffffff161461035a576040517f08c379a000000000000000000000000000000000000000000000000000000000815260040161035190611965565b60405180910390fd5b6103646000610c12565b565b6000610370610c0a565b73ffffffffffffffffffffffffffffffffffffffff1661038e6104e2565b73ffffffffffffffffffffffffffffffffffffffff16146103e4576040517f08c379a00000000000000000000000000000000000000000000000000000000081526004016103db90611965565b60405180910390fd5b60008251905060005b818110156104a057600160076000868481518110610434577f4e487b7100000000000000000000000000000000000000000000000000000000600052603260045260246000fd5b602002602001015173ffffffffffffffffffffffffffffffffffffffff1673ffffffffffffffffffffffffffffffffffffffff16815260200190815260200160002060006101000a81548160ff021916908315150217905550808061049890611c0e565b9150506103ed565b507fea18aefa6a211cd0d31a5b0d73c6ef56cab82a44d3108099be5f52baa1bec0db836040516104d09190611846565b60405180910390a16001915050919050565b60008060009054906101000a900473ffffffffffffffffffffffffffffffffffffffff16905090565b6000600760008373ffffffffffffffffffffffffffffffffffffffff1673ffffffffffffffffffffffffffffffffffffffff16815260200190815260200160002060009054906101000a900460ff169050919050565b60045481565b600260009054906101000a900473ffffffffffffffffffffffffffffffffffffffff1681565b6000600260015414156105d5576040517f08c379a00000000000000000000000000000000000000000000000000000000081526004016105cc906119e5565b60405180910390fd5b6002600181905550600015156105f16105ec610c0a565b610cd6565b151514610633576040517f08c379a000000000000000000000000000000000000000000000000000000000815260040161062a90611a05565b60405180910390fd5b600660009054906101000a900460ff16610682576040517f08c379a0000000000000000000000000000000000000000000000000000000008152600401610679906119c5565b60405180910390fd5b6007600061068e610c0a565b73ffffffffffffffffffffffffffffffffffffffff1673ffffffffffffffffffffffffffffffffffffffff16815260200190815260200160002060009054906101000a900460ff168061072a5750600760008073ffffffffffffffffffffffffffffffffffffffff1673ffffffffffffffffffffffffffffffffffffffff16815260200190815260200160002060009054906101000a900460ff165b610769576040517f08c379a000000000000000000000000000000000000000000000000000000000815260040161076090611945565b60405180910390fd5b670de0b6b3a76400008210158015610782575060055482105b6107c1576040517f08c379a00000000000000000000000000000000000000000000000000000000081526004016107b8906118e5565b60405180910390fd5b81600260009054906101000a900473ffffffffffffffffffffffffffffffffffffffff1673ffffffffffffffffffffffffffffffffffffffff166370a08231306040518263ffffffff1660e01b815260040161081d91906117a2565b60206040518083038186803b15801561083557600080fd5b505afa158015610849573d6000803e3d6000fd5b505050506040513d601f19601f8201168201806040525081019061086d9190611262565b10156108ae576040517f08c379a00000000000000000000000000000000000000000000000000000000081526004016108a590611905565b60405180910390fd5b6108d660646108c860045485610ce990919063ffffffff16565b610cff90919063ffffffff16565b600360009054906101000a900473ffffffffffffffffffffffffffffffffffffffff1673ffffffffffffffffffffffffffffffffffffffff1663dd62ed3e61091c610c0a565b306040518363ffffffff1660e01b815260040161093a9291906117bd565b60206040518083038186803b15801561095257600080fd5b505afa158015610966573d6000803e3d6000fd5b505050506040513d601f19601f8201168201806040525081019061098a9190611262565b10156109cb576040517f08c379a00000000000000000000000000000000000000000000000000000000081526004016109c290611925565b60405180910390fd5b610a486109d6610c0a565b306109ff60646109f160045488610ce990919063ffffffff16565b610cff90919063ffffffff16565b600360009054906101000a900473ffffffffffffffffffffffffffffffffffffffff1673ffffffffffffffffffffffffffffffffffffffff16610d15909392919063ffffffff16565b610a9c610a53610c0a565b83600260009054906101000a900473ffffffffffffffffffffffffffffffffffffffff1673ffffffffffffffffffffffffffffffffffffffff16610d9e9092919063ffffffff16565b7f373d3f990c4d096d3bbb884d58bea340ddccf1916319bcbe76a2b0318917a788610ac5610c0a565b83604051610ad492919061181d565b60405180910390a16001905060018081905550919050565b610af4610c0a565b73ffffffffffffffffffffffffffffffffffffffff16610b126104e2565b73ffffffffffffffffffffffffffffffffffffffff1614610b68576040517f08c379a0000000000000000000000000000000000000000000000000000000008152600401610b5f90611965565b60405180910390fd5b600073ffffffffffffffffffffffffffffffffffffffff168173ffffffffffffffffffffffffffffffffffffffff161415610bd8576040517f08c379a0000000000000000000000000000000000000000000000000000000008152600401610bcf906118a5565b60405180910390fd5b610be181610c12565b50565b600360009054906101000a900473ffffffffffffffffffffffffffffffffffffffff1681565b600033905090565b60008060009054906101000a900473ffffffffffffffffffffffffffffffffffffffff169050816000806101000a81548173ffffffffffffffffffffffffffffffffffffffff021916908373ffffffffffffffffffffffffffffffffffffffff1602179055508173ffffffffffffffffffffffffffffffffffffffff168173ffffffffffffffffffffffffffffffffffffffff167f8be0079c531659141344cd1fd0a4f28419497f9722a3daafe3b4186f6b6457e060405160405180910390a35050565b600080823b905060008111915050919050565b60008183610cf79190611b39565b905092915050565b60008183610d0d9190611b08565b905092915050565b610d98846323b872dd60e01b858585604051602401610d36939291906117e6565b604051602081830303815290604052907bffffffffffffffffffffffffffffffffffffffffffffffffffffffff19166020820180517bffffffffffffffffffffffffffffffffffffffffffffffffffffffff8381831617835250505050610e24565b50505050565b610e1f8363a9059cbb60e01b8484604051602401610dbd92919061181d565b604051602081830303815290604052907bffffffffffffffffffffffffffffffffffffffffffffffffffffffff19166020820180517bffffffffffffffffffffffffffffffffffffffffffffffffffffffff8381831617835250505050610e24565b505050565b6000610e86826040518060400160405280602081526020017f5361666545524332303a206c6f772d6c6576656c2063616c6c206661696c65648152508573ffffffffffffffffffffffffffffffffffffffff16610eeb9092919063ffffffff16565b9050600081511115610ee65780806020019051810190610ea69190611210565b610ee5576040517f08c379a0000000000000000000000000000000000000000000000000000000008152600401610edc906119a5565b60405180910390fd5b5b505050565b6060610efa8484600085610f03565b90509392505050565b606082471015610f48576040517f08c379a0000000000000000000000000000000000000000000000000000000008152600401610f3f906118c5565b60405180910390fd5b610f5185610cd6565b610f90576040517f08c379a0000000000000000000000000000000000000000000000000000000008152600401610f8790611985565b60405180910390fd5b6000808673ffffffffffffffffffffffffffffffffffffffff168587604051610fb9919061178b565b60006040518083038185875af1925050503d8060008114610ff6576040519150601f19603f3d011682016040523d82523d6000602084013e610ffb565b606091505b509150915061100b828286611017565b92505050949350505050565b6060831561102757829050611077565b60008351111561103a5782518084602001fd5b816040517f08c379a000000000000000000000000000000000000000000000000000000000815260040161106e9190611883565b60405180910390fd5b9392505050565b600061109161108c84611a71565b611a40565b905080838252602082019050828560208602820111156110b057600080fd5b60005b858110156110e057816110c688826110ea565b8452602084019350602083019250506001810190506110b3565b5050509392505050565b6000813590506110f981611cf5565b92915050565b600082601f83011261111057600080fd5b813561112084826020860161107e565b91505092915050565b60008135905061113881611d0c565b92915050565b60008151905061114d81611d0c565b92915050565b60008135905061116281611d23565b92915050565b60008151905061117781611d23565b92915050565b60006020828403121561118f57600080fd5b600061119d848285016110ea565b91505092915050565b6000602082840312156111b857600080fd5b600082013567ffffffffffffffff8111156111d257600080fd5b6111de848285016110ff565b91505092915050565b6000602082840312156111f957600080fd5b600061120784828501611129565b91505092915050565b60006020828403121561122257600080fd5b60006112308482850161113e565b91505092915050565b60006020828403121561124b57600080fd5b600061125984828501611153565b91505092915050565b60006020828403121561127457600080fd5b600061128284828501611168565b91505092915050565b600061129783836112a3565b60208301905092915050565b6112ac81611b93565b82525050565b6112bb81611b93565b82525050565b60006112cc82611aad565b6112d68185611adb565b93506112e183611a9d565b8060005b838110156113125781516112f9888261128b565b975061130483611ace565b9250506001810190506112e5565b5085935050505092915050565b61132881611ba5565b82525050565b600061133982611ab8565b6113438185611aec565b9350611353818560208601611bdb565b80840191505092915050565b600061136a82611ac3565b6113748185611af7565b9350611384818560208601611bdb565b61138d81611ce4565b840191505092915050565b60006113a5602683611af7565b91507f4f776e61626c653a206e6577206f776e657220697320746865207a65726f206160008301527f64647265737300000000000000000000000000000000000000000000000000006020830152604082019050919050565b600061140b602683611af7565b91507f416464726573733a20696e73756666696369656e742062616c616e636520666f60008301527f722063616c6c00000000000000000000000000000000000000000000000000006020830152604082019050919050565b6000611471603f83611af7565b91507f42757920416d6f756e74206f7574206f662072616e6765206d7573742062652060008301527f6d6f7265207468616e2031206c657373207468616e204d4158416d6f756e74006020830152604082019050919050565b60006114d7603e83611af7565b91507f546865206e756d626572206f662072656d61696e696e6720746f6b656e73206960008301527f6e2074686520636f6e747261637420697320696e73756666696369656e7400006020830152604082019050919050565b600061153d602583611af7565b91507f496e73756666696369656e74206e756d626572206f662075736474206170707260008301527f6f76616c730000000000000000000000000000000000000000000000000000006020830152604082019050919050565b60006115a3601083611af7565b91507f6e6f7420496e2057686974654c697374000000000000000000000000000000006000830152602082019050919050565b60006115e3602083611af7565b91507f4f776e61626c653a2063616c6c6572206973206e6f7420746865206f776e65726000830152602082019050919050565b6000611623601d83611af7565b91507f416464726573733a2063616c6c20746f206e6f6e2d636f6e74726163740000006000830152602082019050919050565b6000611663602a83611af7565b91507f5361666545524332303a204552433230206f7065726174696f6e20646964206e60008301527f6f742073756363656564000000000000000000000000000000000000000000006020830152604082019050919050565b60006116c9600e83611af7565b91507f49444f206e6f74204163746976650000000000000000000000000000000000006000830152602082019050919050565b6000611709601f83611af7565b91507f5265656e7472616e637947756172643a207265656e7472616e742063616c6c006000830152602082019050919050565b6000611749600a83611af7565b91507f6e6f742068756e6d616e000000000000000000000000000000000000000000006000830152602082019050919050565b61178581611bd1565b82525050565b6000611797828461132e565b915081905092915050565b60006020820190506117b760008301846112b2565b92915050565b60006040820190506117d260008301856112b2565b6117df60208301846112b2565b9392505050565b60006060820190506117fb60008301866112b2565b61180860208301856112b2565b611815604083018461177c565b949350505050565b600060408201905061183260008301856112b2565b61183f602083018461177c565b9392505050565b6000602082019050818103600083015261186081846112c1565b905092915050565b600060208201905061187d600083018461131f565b92915050565b6000602082019050818103600083015261189d818461135f565b905092915050565b600060208201905081810360008301526118be81611398565b9050919050565b600060208201905081810360008301526118de816113fe565b9050919050565b600060208201905081810360008301526118fe81611464565b9050919050565b6000602082019050818103600083015261191e816114ca565b9050919050565b6000602082019050818103600083015261193e81611530565b9050919050565b6000602082019050818103600083015261195e81611596565b9050919050565b6000602082019050818103600083015261197e816115d6565b9050919050565b6000602082019050818103600083015261199e81611616565b9050919050565b600060208201905081810360008301526119be81611656565b9050919050565b600060208201905081810360008301526119de816116bc565b9050919050565b600060208201905081810360008301526119fe816116fc565b9050919050565b60006020820190508181036000830152611a1e8161173c565b9050919050565b6000602082019050611a3a600083018461177c565b92915050565b6000604051905081810181811067ffffffffffffffff82111715611a6757611a66611cb5565b5b8060405250919050565b600067ffffffffffffffff821115611a8c57611a8b611cb5565b5b602082029050602081019050919050565b6000819050602082019050919050565b600081519050919050565b600081519050919050565b600081519050919050565b6000602082019050919050565b600082825260208201905092915050565b600081905092915050565b600082825260208201905092915050565b6000611b1382611bd1565b9150611b1e83611bd1565b925082611b2e57611b2d611c86565b5b828204905092915050565b6000611b4482611bd1565b9150611b4f83611bd1565b9250817fffffffffffffffffffffffffffffffffffffffffffffffffffffffffffffffff0483118215151615611b8857611b87611c57565b5b828202905092915050565b6000611b9e82611bb1565b9050919050565b60008115159050919050565b600073ffffffffffffffffffffffffffffffffffffffff82169050919050565b6000819050919050565b60005b83811015611bf9578082015181840152602081019050611bde565b83811115611c08576000848401525b50505050565b6000611c1982611bd1565b91507fffffffffffffffffffffffffffffffffffffffffffffffffffffffffffffffff821415611c4c57611c4b611c57565b5b600182019050919050565b7f4e487b7100000000000000000000000000000000000000000000000000000000600052601160045260246000fd5b7f4e487b7100000000000000000000000000000000000000000000000000000000600052601260045260246000fd5b7f4e487b7100000000000000000000000000000000000000000000000000000000600052604160045260246000fd5b6000601f19601f8301169050919050565b611cfe81611b93565b8114611d0957600080fd5b50565b611d1581611ba5565b8114611d2057600080fd5b50565b611d2c81611bd1565b8114611d3757600080fd5b5056fea2646970667358221220084a1509a71b37574e89c936fdf3d228eb0104f106de19b82f42d3a1de5dabbc64736f6c63430008000033",
  "immutableReferences": {},
  "source": "// SPDX-License-Identifier: MIT\r\npragma solidity ^0.8.0;\r\nimport \"@openzeppelin/contracts/utils/Address.sol\";\r\nimport \"@openzeppelin/contracts/access/Ownable.sol\";\r\nimport \"@openzeppelin/contracts/utils/Context.sol\";\r\nimport \"@openzeppelin/contracts/utils/math/SafeMath.sol\";\r\nimport \"@openzeppelin/contracts/token/ERC20/utils/SafeERC20.sol\";\r\nimport \"@openzeppelin/contracts/security/ReentrancyGuard.sol\";\r\n\r\n/*\r\nSelling a token at a fixed usdt price is usually implemented in the first stage of private placement\r\n\r\n*/\r\n\r\ncontract IDOContract is Context,Ownable,ReentrancyGuard {\r\n    using SafeMath for uint256;\r\n    using SafeERC20 for IERC20;\r\n    address public ERC20Address;//ANK address\r\n    address public USDTAddress;//USDT address\r\n    uint256 public price;//price 1000=10usdt 100=1usdt  10=0.1usdt   1=0.01usdt\r\n    uint256 private MAXAmount=10000000*10**18;//MAX buy amount < 1000w\r\n    bool public IDOActive=false;//\r\n    mapping(address=>bool) private WhiteList;\r\n    event SetWhiteListEvent(address[] users);\r\n    event IDOBuyEvent(address user,uint amount);\r\n    constructor(uint256 _price,address _erc20address,address _usdtAddress) {\r\n        price = _price;\r\n        ERC20Address=_erc20address;\r\n        USDTAddress=_usdtAddress;\r\n    }  \r\n    \r\n    function buy(uint256 amount) public nonReentrant returns  (bool) {\r\n        require(Address.isContract(_msgSender())==false,\"not hunman\");\r\n        require(IDOActive,\"IDO not Active\");//Administrators can turn on and off sales\r\n        require(WhiteList[_msgSender()]||WhiteList[address(0)],\"not In WhiteList\");//Full open when zero address is added\r\n        require(amount>=1000000000000000000&&amount<MAXAmount,\"Buy Amount out of range must be more than 1 less than MAXAmount\");\r\n        require(IERC20(ERC20Address).balanceOf(address(this))>=amount,\"The number of remaining tokens in the contract is insufficient\");\r\n        require(IERC20(USDTAddress).allowance(_msgSender(),address(this))>=amount.mul(price).div(100),\"Insufficient number of usdt approvals\");//\r\n        IERC20(USDTAddress).safeTransferFrom(_msgSender(),address(this), amount.mul(price).div(100));\r\n        IERC20(ERC20Address).safeTransfer(_msgSender(), amount);\r\n        emit IDOBuyEvent(_msgSender(),amount);\r\n        return true;\r\n    }\r\n    \r\n    function setWhiteList(address[] memory users) public onlyOwner returns  (bool) {\r\n        uint len=users.length;\r\n        for(uint i=0;i<len;i++){\r\n            WhiteList[users[i]]=true;\r\n        }\r\n        emit SetWhiteListEvent(users);\r\n        return true;\r\n        \r\n    }\r\n\r\n    function setIDOActive(bool val) public onlyOwner returns  (bool) {\r\n        IDOActive=val;\r\n        return true;\r\n        \r\n    }\r\n\r\n    function isInWhiteList(address user) public view returns  (bool) {\r\n        return WhiteList[user];\r\n    }\r\n}",
  "sourcePath": "/c/Users/dx/Ethereum Studio/ECR/contracts/IDO.sol",
  "compiler": {
    "name": "solc",
    "version": "0.8.0+commit.c7dfd78e.Emscripten.clang"
  },
  "schemaVersion": "3.4.2",
  "updatedAt": "2022-02-09T05:33:14.050Z",
  "devdoc": {
    "kind": "dev",
    "methods": {
      "owner()": {
        "details": "Returns the address of the current owner."
      },
      "renounceOwnership()": {
        "details": "Leaves the contract without owner. It will not be possible to call `onlyOwner` functions anymore. Can only be called by the current owner. NOTE: Renouncing ownership will leave the contract without an owner, thereby removing any functionality that is only available to the owner."
      },
      "transferOwnership(address)": {
        "details": "Transfers ownership of the contract to a new account (`newOwner`). Can only be called by the current owner."
      }
    },
    "version": 1
  },
  "userdoc": {
    "kind": "user",
    "methods": {},
    "version": 1
  }
}