{
  "contractName": "IDOStackContract",
  "abi": [
    {
      "inputs": [
        {
          "internalType": "uint256",
          "name": "_price",
          "type": "uint256"
        },
        {
          "internalType": "uint256",
          "name": "_stackTime",
          "type": "uint256"
        },
        {
          "internalType": "address",
          "name": "_erc20address",
          "type": "address"
        },
        {
          "internalType": "address",
          "name": "_usdtAddress",
          "type": "address"
        }
      ],
      "stateMutability": "nonpayable",
      "type": "constructor"
    },
    {
      "anonymous": false,
      "inputs": [
        {
          "indexed": false,
          "internalType": "address",
          "name": "user",
          "type": "address"
        },
        {
          "indexed": false,
          "internalType": "uint256",
          "name": "amount",
          "type": "uint256"
        }
      ],
      "name": "DonateEvent",
      "type": "event"
    },
    {
      "anonymous": false,
      "inputs": [
        {
          "indexed": false,
          "internalType": "address",
          "name": "user",
          "type": "address"
        },
        {
          "indexed": false,
          "internalType": "uint256",
          "name": "amount",
          "type": "uint256"
        }
      ],
      "name": "IDOBuyEvent",
      "type": "event"
    },
    {
      "anonymous": false,
      "inputs": [
        {
          "indexed": true,
          "internalType": "address",
          "name": "previousOwner",
          "type": "address"
        },
        {
          "indexed": true,
          "internalType": "address",
          "name": "newOwner",
          "type": "address"
        }
      ],
      "name": "OwnershipTransferred",
      "type": "event"
    },
    {
      "inputs": [],
      "name": "ERC20Address",
      "outputs": [
        {
          "internalType": "address",
          "name": "",
          "type": "address"
        }
      ],
      "stateMutability": "view",
      "type": "function"
    },
    {
      "inputs": [],
      "name": "IDOActive",
      "outputs": [
        {
          "internalType": "bool",
          "name": "",
          "type": "bool"
        }
      ],
      "stateMutability": "view",
      "type": "function"
    },
    {
      "inputs": [],
      "name": "USDTAddress",
      "outputs": [
        {
          "internalType": "address",
          "name": "",
          "type": "address"
        }
      ],
      "stateMutability": "view",
      "type": "function"
    },
    {
      "inputs": [],
      "name": "owner",
      "outputs": [
        {
          "internalType": "address",
          "name": "",
          "type": "address"
        }
      ],
      "stateMutability": "view",
      "type": "function"
    },
    {
      "inputs": [],
      "name": "price",
      "outputs": [
        {
          "internalType": "uint256",
          "name": "",
          "type": "uint256"
        }
      ],
      "stateMutability": "view",
      "type": "function"
    },
    {
      "inputs": [],
      "name": "renounceOwnership",
      "outputs": [],
      "stateMutability": "nonpayable",
      "type": "function"
    },
    {
      "inputs": [],
      "name": "stackTime",
      "outputs": [
        {
          "internalType": "uint256",
          "name": "",
          "type": "uint256"
        }
      ],
      "stateMutability": "view",
      "type": "function"
    },
    {
      "inputs": [
        {
          "internalType": "address",
          "name": "newOwner",
          "type": "address"
        }
      ],
      "name": "transferOwnership",
      "outputs": [],
      "stateMutability": "nonpayable",
      "type": "function"
    },
    {
      "inputs": [
        {
          "internalType": "uint256",
          "name": "donateamount",
          "type": "uint256"
        }
      ],
      "name": "donate",
      "outputs": [
        {
          "internalType": "bool",
          "name": "",
          "type": "bool"
        }
      ],
      "stateMutability": "nonpayable",
      "type": "function"
    },
    {
      "inputs": [
        {
          "internalType": "uint256",
          "name": "amount",
          "type": "uint256"
        }
      ],
      "name": "buy",
      "outputs": [
        {
          "internalType": "bool",
          "name": "",
          "type": "bool"
        }
      ],
      "stateMutability": "nonpayable",
      "type": "function"
    },
    {
      "inputs": [],
      "name": "withdraw",
      "outputs": [
        {
          "internalType": "bool",
          "name": "",
          "type": "bool"
        }
      ],
      "stateMutability": "nonpayable",
      "type": "function"
    },
    {
      "inputs": [],
      "name": "withdrawView",
      "outputs": [
        {
          "internalType": "uint256",
          "name": "",
          "type": "uint256"
        }
      ],
      "stateMutability": "view",
      "type": "function"
    },
    {
      "inputs": [
        {
          "internalType": "address",
          "name": "tokenOwner",
          "type": "address"
        }
      ],
      "name": "balanceOf",
      "outputs": [
        {
          "internalType": "uint256",
          "name": "balance",
          "type": "uint256"
        }
      ],
      "stateMutability": "view",
      "type": "function"
    },
    {
      "inputs": [
        {
          "internalType": "address",
          "name": "tokenOwner",
          "type": "address"
        }
      ],
      "name": "purchaseDateOf",
      "outputs": [
        {
          "internalType": "uint256",
          "name": "balance",
          "type": "uint256"
        }
      ],
      "stateMutability": "view",
      "type": "function"
    },
    {
      "inputs": [
        {
          "internalType": "bool",
          "name": "val",
          "type": "bool"
        }
      ],
      "name": "setIDOActive",
      "outputs": [
        {
          "internalType": "bool",
          "name": "",
          "type": "bool"
        }
      ],
      "stateMutability": "nonpayable",
      "type": "function"
    }
  ],
  "bytecode": "0x608060405260016004556a084595161401484a0000006007556000600860006101000a81548160ff0219169083151502179055503480156200004057600080fd5b506040516200287838038062002878833981810160405281019062000066919062000221565b620000866200007a6200012760201b60201c565b6200012f60201b60201c565b600180819055508360058190555081600260006101000a81548173ffffffffffffffffffffffffffffffffffffffff021916908373ffffffffffffffffffffffffffffffffffffffff16021790555080600360006101000a81548173ffffffffffffffffffffffffffffffffffffffff021916908373ffffffffffffffffffffffffffffffffffffffff1602179055508260068190555050505050620002ff565b600033905090565b60008060009054906101000a900473ffffffffffffffffffffffffffffffffffffffff169050816000806101000a81548173ffffffffffffffffffffffffffffffffffffffff021916908373ffffffffffffffffffffffffffffffffffffffff1602179055508173ffffffffffffffffffffffffffffffffffffffff168173ffffffffffffffffffffffffffffffffffffffff167f8be0079c531659141344cd1fd0a4f28419497f9722a3daafe3b4186f6b6457e060405160405180910390a35050565b6000815190506200020481620002cb565b92915050565b6000815190506200021b81620002e5565b92915050565b600080600080608085870312156200023857600080fd5b600062000248878288016200020a565b94505060206200025b878288016200020a565b93505060406200026e87828801620001f3565b92505060606200028187828801620001f3565b91505092959194509250565b60006200029a82620002a1565b9050919050565b600073ffffffffffffffffffffffffffffffffffffffff82169050919050565b6000819050919050565b620002d6816200028d565b8114620002e257600080fd5b50565b620002f081620002c1565b8114620002fc57600080fd5b50565b612569806200030f6000396000f3fe608060405234801561001057600080fd5b50600436106100f55760003560e01c80638da5cb5b11610097578063d96a094a11610066578063d96a094a14610266578063f14faf6f14610296578063f2fde38b146102c6578063ff920c74146102e2576100f5565b80638da5cb5b146101ee578063a035b1fe1461020c578063a6021ace1461022a578063b6a4883c14610248576100f5565b80633ccfd60b116100d35780633ccfd60b146101785780636a4245941461019657806370a08231146101b4578063715018a6146101e4576100f5565b80630f7f72b7146100fa5780631702af671461012a578063212714ae14610148575b600080fd5b610114600480360381019061010f9190611a25565b610300565b60405161012191906120a5565b60405180910390f35b6101326103a1565b60405161013f91906122a2565b60405180910390f35b610162600480360381019061015d91906119fc565b610601565b60405161016f91906122a2565b60405180910390f35b61018061064a565b60405161018d91906120a5565b60405180910390f35b61019e6109f8565b6040516101ab91906120a5565b60405180910390f35b6101ce60048036038101906101c991906119fc565b610a0b565b6040516101db91906122a2565b60405180910390f35b6101ec610a54565b005b6101f6610adc565b6040516102039190612001565b60405180910390f35b610214610b05565b60405161022191906122a2565b60405180910390f35b610232610b0b565b60405161023f9190612001565b60405180910390f35b610250610b31565b60405161025d91906122a2565b60405180910390f35b610280600480360381019061027b9190611a77565b610b37565b60405161028d91906120a5565b60405180910390f35b6102b060048036038101906102ab9190611a77565b61109d565b6040516102bd91906120a5565b60405180910390f35b6102e060048036038101906102db91906119fc565b6113d5565b005b6102ea6114cd565b6040516102f79190612001565b60405180910390f35b600061030a6114f3565b73ffffffffffffffffffffffffffffffffffffffff16610328610adc565b73ffffffffffffffffffffffffffffffffffffffff161461037e576040517f08c379a000000000000000000000000000000000000000000000000000000000815260040161037590612182565b60405180910390fd5b81600860006101000a81548160ff02191690831515021790555060019050919050565b60008015156103b66103b16114f3565b6114fb565b1515146103f8576040517f08c379a00000000000000000000000000000000000000000000000000000000081526004016103ef90612282565b60405180910390fd5b42600a60006104056114f3565b73ffffffffffffffffffffffffffffffffffffffff1673ffffffffffffffffffffffffffffffffffffffff1681526020019081526020016000205410610480576040517f08c379a0000000000000000000000000000000000000000000000000000000008152600401610477906121c2565b60405180910390fd5b60006006546104de600a60006104946114f3565b73ffffffffffffffffffffffffffffffffffffffff1673ffffffffffffffffffffffffffffffffffffffff168152602001908152602001600020544261150e90919063ffffffff16565b10156105b0576105a9610540600a60006104f66114f3565b73ffffffffffffffffffffffffffffffffffffffff1673ffffffffffffffffffffffffffffffffffffffff168152602001908152602001600020544261150e90919063ffffffff16565b61059b600654600960006105526114f3565b73ffffffffffffffffffffffffffffffffffffffff1673ffffffffffffffffffffffffffffffffffffffff1681526020019081526020016000205461152490919063ffffffff16565b61153a90919063ffffffff16565b90506105fa565b600960006105bc6114f3565b73ffffffffffffffffffffffffffffffffffffffff1673ffffffffffffffffffffffffffffffffffffffff1681526020019081526020016000205490505b8091505090565b6000600a60008373ffffffffffffffffffffffffffffffffffffffff1673ffffffffffffffffffffffffffffffffffffffff168152602001908152602001600020549050919050565b600060026001541415610692576040517f08c379a000000000000000000000000000000000000000000000000000000000815260040161068990612262565b60405180910390fd5b6002600181905550600015156106ae6106a96114f3565b6114fb565b1515146106f0576040517f08c379a00000000000000000000000000000000000000000000000000000000081526004016106e790612282565b60405180910390fd5b42600a60006106fd6114f3565b73ffffffffffffffffffffffffffffffffffffffff1673ffffffffffffffffffffffffffffffffffffffff1681526020019081526020016000205410610778576040517f08c379a000000000000000000000000000000000000000000000000000000000815260040161076f906121c2565b60405180910390fd5b60006006546107d6600a600061078c6114f3565b73ffffffffffffffffffffffffffffffffffffffff1673ffffffffffffffffffffffffffffffffffffffff168152602001908152602001600020544261150e90919063ffffffff16565b10156108a8576108a1610838600a60006107ee6114f3565b73ffffffffffffffffffffffffffffffffffffffff1673ffffffffffffffffffffffffffffffffffffffff168152602001908152602001600020544261150e90919063ffffffff16565b6108936006546009600061084a6114f3565b73ffffffffffffffffffffffffffffffffffffffff1673ffffffffffffffffffffffffffffffffffffffff1681526020019081526020016000205461152490919063ffffffff16565b61153a90919063ffffffff16565b90506108f2565b600960006108b46114f3565b73ffffffffffffffffffffffffffffffffffffffff1673ffffffffffffffffffffffffffffffffffffffff1681526020019081526020016000205490505b61094b81600960006109026114f3565b73ffffffffffffffffffffffffffffffffffffffff1673ffffffffffffffffffffffffffffffffffffffff1681526020019081526020016000205461150e90919063ffffffff16565b600960006109576114f3565b73ffffffffffffffffffffffffffffffffffffffff1673ffffffffffffffffffffffffffffffffffffffff168152602001908152602001600020819055506109e96109a06114f3565b82600260009054906101000a900473ffffffffffffffffffffffffffffffffffffffff1673ffffffffffffffffffffffffffffffffffffffff166115509092919063ffffffff16565b60019150506001808190555090565b600860009054906101000a900460ff1681565b6000600960008373ffffffffffffffffffffffffffffffffffffffff1673ffffffffffffffffffffffffffffffffffffffff168152602001908152602001600020549050919050565b610a5c6114f3565b73ffffffffffffffffffffffffffffffffffffffff16610a7a610adc565b73ffffffffffffffffffffffffffffffffffffffff1614610ad0576040517f08c379a0000000000000000000000000000000000000000000000000000000008152600401610ac790612182565b60405180910390fd5b610ada60006115d6565b565b60008060009054906101000a900473ffffffffffffffffffffffffffffffffffffffff16905090565b60055481565b600260009054906101000a900473ffffffffffffffffffffffffffffffffffffffff1681565b60065481565b600060026001541415610b7f576040517f08c379a0000000000000000000000000000000000000000000000000000000008152600401610b7690612262565b60405180910390fd5b600260018190555060001515610b9b610b966114f3565b6114fb565b151514610bdd576040517f08c379a0000000000000000000000000000000000000000000000000000000008152600401610bd490612282565b60405180910390fd5b600860009054906101000a900460ff16610c2c576040517f08c379a0000000000000000000000000000000000000000000000000000000008152600401610c2390612242565b60405180910390fd5b670de0b6b3a76400008210158015610c45575060075482105b610c84576040517f08c379a0000000000000000000000000000000000000000000000000000000008152600401610c7b906121a2565b60405180910390fd5b81600960003073ffffffffffffffffffffffffffffffffffffffff1673ffffffffffffffffffffffffffffffffffffffff168152602001908152602001600020541015610d06576040517f08c379a0000000000000000000000000000000000000000000000000000000008152600401610cfd90612142565b60405180910390fd5b610d1b6005548361153a90919063ffffffff16565b600360009054906101000a900473ffffffffffffffffffffffffffffffffffffffff1673ffffffffffffffffffffffffffffffffffffffff1663dd62ed3e610d616114f3565b306040518363ffffffff1660e01b8152600401610d7f92919061201c565b60206040518083038186803b158015610d9757600080fd5b505afa158015610dab573d6000803e3d6000fd5b505050506040513d601f19601f82011682018060405250810190610dcf9190611aa0565b1015610e10576040517f08c379a0000000000000000000000000000000000000000000000000000000008152600401610e0790612162565b60405180910390fd5b610e7a610e1b6114f3565b30610e316005548661153a90919063ffffffff16565b600360009054906101000a900473ffffffffffffffffffffffffffffffffffffffff1673ffffffffffffffffffffffffffffffffffffffff1661169a909392919063ffffffff16565b610ed38260096000610e8a6114f3565b73ffffffffffffffffffffffffffffffffffffffff1673ffffffffffffffffffffffffffffffffffffffff1681526020019081526020016000205461172390919063ffffffff16565b60096000610edf6114f3565b73ffffffffffffffffffffffffffffffffffffffff1673ffffffffffffffffffffffffffffffffffffffff16815260200190815260200160002081905550610f6f82600960003073ffffffffffffffffffffffffffffffffffffffff1673ffffffffffffffffffffffffffffffffffffffff1681526020019081526020016000205461150e90919063ffffffff16565b600960003073ffffffffffffffffffffffffffffffffffffffff1673ffffffffffffffffffffffffffffffffffffffff168152602001908152602001600020819055506000600a6000610fc06114f3565b73ffffffffffffffffffffffffffffffffffffffff1673ffffffffffffffffffffffffffffffffffffffff16815260200190815260200160002054141561104d5742600a600061100e6114f3565b73ffffffffffffffffffffffffffffffffffffffff1673ffffffffffffffffffffffffffffffffffffffff168152602001908152602001600020819055505b7f373d3f990c4d096d3bbb884d58bea340ddccf1916319bcbe76a2b0318917a7886110766114f3565b8360405161108592919061207c565b60405180910390a16001905060018081905550919050565b6000600260015414156110e5576040517f08c379a00000000000000000000000000000000000000000000000000000000081526004016110dc90612262565b60405180910390fd5b6002600181905550600015156111016110fc6114f3565b6114fb565b151514611143576040517f08c379a000000000000000000000000000000000000000000000000000000000815260040161113a90612282565b60405180910390fd5b670de0b6b3a7640000821015801561116557506aa56fa5b99019a5c800000082105b6111a4576040517f08c379a000000000000000000000000000000000000000000000000000000000815260040161119b906120e2565b60405180910390fd5b81600260009054906101000a900473ffffffffffffffffffffffffffffffffffffffff1673ffffffffffffffffffffffffffffffffffffffff1663dd62ed3e6111eb6114f3565b306040518363ffffffff1660e01b815260040161120992919061201c565b60206040518083038186803b15801561122157600080fd5b505afa158015611235573d6000803e3d6000fd5b505050506040513d601f19601f820116820180604052508101906112599190611aa0565b101561129a576040517f08c379a0000000000000000000000000000000000000000000000000000000008152600401611291906121e2565b60405180910390fd5b6112f06112a56114f3565b3084600260009054906101000a900473ffffffffffffffffffffffffffffffffffffffff1673ffffffffffffffffffffffffffffffffffffffff1661169a909392919063ffffffff16565b61134282600960003073ffffffffffffffffffffffffffffffffffffffff1673ffffffffffffffffffffffffffffffffffffffff1681526020019081526020016000205461172390919063ffffffff16565b600960003073ffffffffffffffffffffffffffffffffffffffff1673ffffffffffffffffffffffffffffffffffffffff168152602001908152602001600020819055507f4a738e144fcebc2a2453dde8472c2fe125988d7508d635d71a45886efcf500066113ae6114f3565b836040516113bd92919061207c565b60405180910390a16001905060018081905550919050565b6113dd6114f3565b73ffffffffffffffffffffffffffffffffffffffff166113fb610adc565b73ffffffffffffffffffffffffffffffffffffffff1614611451576040517f08c379a000000000000000000000000000000000000000000000000000000000815260040161144890612182565b60405180910390fd5b600073ffffffffffffffffffffffffffffffffffffffff168173ffffffffffffffffffffffffffffffffffffffff1614156114c1576040517f08c379a00000000000000000000000000000000000000000000000000000000081526004016114b890612102565b60405180910390fd5b6114ca816115d6565b50565b600360009054906101000a900473ffffffffffffffffffffffffffffffffffffffff1681565b600033905090565b600080823b905060008111915050919050565b6000818361151c91906123d0565b905092915050565b600081836115329190612345565b905092915050565b600081836115489190612376565b905092915050565b6115d18363a9059cbb60e01b848460405160240161156f92919061207c565b604051602081830303815290604052907bffffffffffffffffffffffffffffffffffffffffffffffffffffffff19166020820180517bffffffffffffffffffffffffffffffffffffffffffffffffffffffff8381831617835250505050611739565b505050565b60008060009054906101000a900473ffffffffffffffffffffffffffffffffffffffff169050816000806101000a81548173ffffffffffffffffffffffffffffffffffffffff021916908373ffffffffffffffffffffffffffffffffffffffff1602179055508173ffffffffffffffffffffffffffffffffffffffff168173ffffffffffffffffffffffffffffffffffffffff167f8be0079c531659141344cd1fd0a4f28419497f9722a3daafe3b4186f6b6457e060405160405180910390a35050565b61171d846323b872dd60e01b8585856040516024016116bb93929190612045565b604051602081830303815290604052907bffffffffffffffffffffffffffffffffffffffffffffffffffffffff19166020820180517bffffffffffffffffffffffffffffffffffffffffffffffffffffffff8381831617835250505050611739565b50505050565b6000818361173191906122ef565b905092915050565b600061179b826040518060400160405280602081526020017f5361666545524332303a206c6f772d6c6576656c2063616c6c206661696c65648152508573ffffffffffffffffffffffffffffffffffffffff166118009092919063ffffffff16565b90506000815111156117fb57808060200190518101906117bb9190611a4e565b6117fa576040517f08c379a00000000000000000000000000000000000000000000000000000000081526004016117f190612222565b60405180910390fd5b5b505050565b606061180f8484600085611818565b90509392505050565b60608247101561185d576040517f08c379a000000000000000000000000000000000000000000000000000000000815260040161185490612122565b60405180910390fd5b611866856114fb565b6118a5576040517f08c379a000000000000000000000000000000000000000000000000000000000815260040161189c90612202565b60405180910390fd5b6000808673ffffffffffffffffffffffffffffffffffffffff1685876040516118ce9190611fea565b60006040518083038185875af1925050503d806000811461190b576040519150601f19603f3d011682016040523d82523d6000602084013e611910565b606091505b509150915061192082828661192c565b92505050949350505050565b6060831561193c5782905061198c565b60008351111561194f5782518084602001fd5b816040517f08c379a000000000000000000000000000000000000000000000000000000000815260040161198391906120c0565b60405180910390fd5b9392505050565b6000813590506119a2816124ee565b92915050565b6000813590506119b781612505565b92915050565b6000815190506119cc81612505565b92915050565b6000813590506119e18161251c565b92915050565b6000815190506119f68161251c565b92915050565b600060208284031215611a0e57600080fd5b6000611a1c84828501611993565b91505092915050565b600060208284031215611a3757600080fd5b6000611a45848285016119a8565b91505092915050565b600060208284031215611a6057600080fd5b6000611a6e848285016119bd565b91505092915050565b600060208284031215611a8957600080fd5b6000611a97848285016119d2565b91505092915050565b600060208284031215611ab257600080fd5b6000611ac0848285016119e7565b91505092915050565b611ad281612404565b82525050565b611ae181612416565b82525050565b6000611af2826122bd565b611afc81856122d3565b9350611b0c81856020860161244c565b80840191505092915050565b6000611b23826122c8565b611b2d81856122de565b9350611b3d81856020860161244c565b611b46816124dd565b840191505092915050565b6000611b5e601a836122de565b91507f646f6e61746520416d6f756e74206f7574206f662072616e67650000000000006000830152602082019050919050565b6000611b9e6026836122de565b91507f4f776e61626c653a206e6577206f776e657220697320746865207a65726f206160008301527f64647265737300000000000000000000000000000000000000000000000000006020830152604082019050919050565b6000611c046026836122de565b91507f416464726573733a20696e73756666696369656e742062616c616e636520666f60008301527f722063616c6c00000000000000000000000000000000000000000000000000006020830152604082019050919050565b6000611c6a603e836122de565b91507f546865206e756d626572206f662072656d61696e696e6720746f6b656e73206960008301527f6e2074686520636f6e747261637420697320696e73756666696369656e7400006020830152604082019050919050565b6000611cd06025836122de565b91507f496e73756666696369656e74206e756d626572206f662075736474206170707260008301527f6f76616c730000000000000000000000000000000000000000000000000000006020830152604082019050919050565b6000611d366020836122de565b91507f4f776e61626c653a2063616c6c6572206973206e6f7420746865206f776e65726000830152602082019050919050565b6000611d76602b836122de565b91507f42757920416d6f756e74206f7574206f662072616e6765206d7573742062652060008301527f6d6f7265207468616e20310000000000000000000000000000000000000000006020830152604082019050919050565b6000611ddc601c836122de565b91507f707572636861736544617465206d757374203c206e6f772074696d65000000006000830152602082019050919050565b6000611e1c6026836122de565b91507f496e73756666696369656e74206e756d626572206f6620746f6b656e2061707060008301527f726f76616c7300000000000000000000000000000000000000000000000000006020830152604082019050919050565b6000611e82601d836122de565b91507f416464726573733a2063616c6c20746f206e6f6e2d636f6e74726163740000006000830152602082019050919050565b6000611ec2602a836122de565b91507f5361666545524332303a204552433230206f7065726174696f6e20646964206e60008301527f6f742073756363656564000000000000000000000000000000000000000000006020830152604082019050919050565b6000611f28600e836122de565b91507f49444f206e6f74204163746976650000000000000000000000000000000000006000830152602082019050919050565b6000611f68601f836122de565b91507f5265656e7472616e637947756172643a207265656e7472616e742063616c6c006000830152602082019050919050565b6000611fa8600a836122de565b91507f6e6f742068756e6d616e000000000000000000000000000000000000000000006000830152602082019050919050565b611fe481612442565b82525050565b6000611ff68284611ae7565b915081905092915050565b60006020820190506120166000830184611ac9565b92915050565b60006040820190506120316000830185611ac9565b61203e6020830184611ac9565b9392505050565b600060608201905061205a6000830186611ac9565b6120676020830185611ac9565b6120746040830184611fdb565b949350505050565b60006040820190506120916000830185611ac9565b61209e6020830184611fdb565b9392505050565b60006020820190506120ba6000830184611ad8565b92915050565b600060208201905081810360008301526120da8184611b18565b905092915050565b600060208201905081810360008301526120fb81611b51565b9050919050565b6000602082019050818103600083015261211b81611b91565b9050919050565b6000602082019050818103600083015261213b81611bf7565b9050919050565b6000602082019050818103600083015261215b81611c5d565b9050919050565b6000602082019050818103600083015261217b81611cc3565b9050919050565b6000602082019050818103600083015261219b81611d29565b9050919050565b600060208201905081810360008301526121bb81611d69565b9050919050565b600060208201905081810360008301526121db81611dcf565b9050919050565b600060208201905081810360008301526121fb81611e0f565b9050919050565b6000602082019050818103600083015261221b81611e75565b9050919050565b6000602082019050818103600083015261223b81611eb5565b9050919050565b6000602082019050818103600083015261225b81611f1b565b9050919050565b6000602082019050818103600083015261227b81611f5b565b9050919050565b6000602082019050818103600083015261229b81611f9b565b9050919050565b60006020820190506122b76000830184611fdb565b92915050565b600081519050919050565b600081519050919050565b600081905092915050565b600082825260208201905092915050565b60006122fa82612442565b915061230583612442565b9250827fffffffffffffffffffffffffffffffffffffffffffffffffffffffffffffffff0382111561233a5761233961247f565b5b828201905092915050565b600061235082612442565b915061235b83612442565b92508261236b5761236a6124ae565b5b828204905092915050565b600061238182612442565b915061238c83612442565b9250817fffffffffffffffffffffffffffffffffffffffffffffffffffffffffffffffff04831182151516156123c5576123c461247f565b5b828202905092915050565b60006123db82612442565b91506123e683612442565b9250828210156123f9576123f861247f565b5b828203905092915050565b600061240f82612422565b9050919050565b60008115159050919050565b600073ffffffffffffffffffffffffffffffffffffffff82169050919050565b6000819050919050565b60005b8381101561246a57808201518184015260208101905061244f565b83811115612479576000848401525b50505050565b7f4e487b7100000000000000000000000000000000000000000000000000000000600052601160045260246000fd5b7f4e487b7100000000000000000000000000000000000000000000000000000000600052601260045260246000fd5b6000601f19601f8301169050919050565b6124f781612404565b811461250257600080fd5b50565b61250e81612416565b811461251957600080fd5b50565b61252581612442565b811461253057600080fd5b5056fea2646970667358221220d30ad61d75caa481e3615ba6392298c273f8b0a28d126ccef981e1e46d41e15264736f6c63430008000033",
  "immutableReferences": {},
  "source": "// SPDX-License-Identifier: MIT\r\npragma solidity ^0.8.0;\r\nimport \"@openzeppelin/contracts/utils/Address.sol\";\r\nimport \"@openzeppelin/contracts/access/Ownable.sol\";\r\nimport \"@openzeppelin/contracts/utils/structs/EnumerableSet.sol\";\r\nimport \"@openzeppelin/contracts/utils/Context.sol\";\r\nimport \"@openzeppelin/contracts/utils/math/SafeMath.sol\";\r\nimport \"@openzeppelin/contracts/token/ERC20/utils/SafeERC20.sol\";\r\nimport \"@openzeppelin/contracts/security/ReentrancyGuard.sol\";\r\n\r\n//  abstract contract  MyMBT {\r\n//     function balanceOf(address _addMinter) public view virtual returns (uint256);\r\n// }\r\n\r\ncontract IDOStackContract is Context,Ownable,ReentrancyGuard {\r\n    using SafeMath for uint256;\r\n    using SafeERC20 for IERC20;\r\n    address public ERC20Address;//ANK address\r\n    address public USDTAddress;//USDT address\r\n    uint256 private aproveunlocked=1;//lock\r\n    uint256 public price;//price\r\n    uint256 public stackTime;//time\r\n    uint256 private MAXAmount=10000000*10**18;//MAX buy amount < 1000w\r\n    bool public IDOActive=false;//\r\n    mapping (address => uint) private balances;\r\n    mapping (address => uint) private purchaseDate;\r\n    event IDOBuyEvent(address user,uint amount);\r\n    event DonateEvent(address user,uint amount);\r\n    constructor(uint256 _price,uint256 _stackTime,address _erc20address,address _usdtAddress) {\r\n        price = _price;\r\n        ERC20Address=_erc20address;\r\n        USDTAddress=_usdtAddress;\r\n        stackTime=_stackTime;\r\n    }  \r\n    \r\n\r\n    function donate(uint256 donateamount) public nonReentrant returns  (bool) {\r\n        require(Address.isContract(_msgSender())==false,\"not hunman\");\r\n        require(donateamount>=1000000000000000000&&donateamount<200000000000000000000000000,\"donate Amount out of range\");\r\n        require(IERC20(ERC20Address).allowance(_msgSender(),address(this))>=donateamount,\"Insufficient number of token approvals\");//\r\n        IERC20(ERC20Address).safeTransferFrom(_msgSender(),address(this), donateamount);\r\n        balances[address(this)]=balances[address(this)].add(donateamount);\r\n        DonateEvent(_msgSender(),donateamount);\r\n        return true;\r\n    }\r\n\r\n    function buy(uint256 amount) public nonReentrant returns  (bool) {\r\n        require(Address.isContract(_msgSender())==false,\"not hunman\");\r\n        require(IDOActive,\"IDO not Active\");\r\n        require(amount>=1000000000000000000&&amount<MAXAmount,\"Buy Amount out of range must be more than 1\");\r\n        require(balances[address(this)]>=amount,\"The number of remaining tokens in the contract is insufficient\");\r\n        require(IERC20(USDTAddress).allowance(_msgSender(),address(this))>=amount.mul(price),\"Insufficient number of usdt approvals\");//\r\n        IERC20(USDTAddress).safeTransferFrom(_msgSender(),address(this), amount.mul(price));\r\n        balances[_msgSender()]=balances[_msgSender()].add(amount);\r\n        balances[address(this)]=balances[address(this)].sub(amount);\r\n        if(purchaseDate[_msgSender()]==0){\r\n            purchaseDate[_msgSender()]=block.timestamp;\r\n        }\r\n        IDOBuyEvent(_msgSender(),amount);\r\n        return true;\r\n    }\r\n    //\r\n    function withdraw () public nonReentrant returns  (bool) {\r\n        require(Address.isContract(_msgSender())==false,\"not hunman\");\r\n        require(purchaseDate[_msgSender()]<block.timestamp,\"purchaseDate must < now time\");\r\n        uint256 withdrawAmount=0;\r\n        if(block.timestamp.sub(purchaseDate[_msgSender()])<stackTime){\r\n            withdrawAmount=balances[_msgSender()].div(stackTime).mul(block.timestamp.sub(purchaseDate[_msgSender()]));\r\n        }else{\r\n            withdrawAmount=balances[_msgSender()];\r\n        }\r\n        balances[_msgSender()]=balances[_msgSender()].sub(withdrawAmount);\r\n        IERC20(ERC20Address).safeTransfer(_msgSender(), withdrawAmount);\r\n        return true;\r\n    }\r\n\r\n    function withdrawView () public view returns  (uint) {\r\n        require(Address.isContract(_msgSender())==false,\"not hunman\");\r\n        require(purchaseDate[_msgSender()]<block.timestamp,\"purchaseDate must < now time\");\r\n        uint256 withdrawAmount=0;\r\n        if(block.timestamp.sub(purchaseDate[_msgSender()])<stackTime){\r\n            withdrawAmount=balances[_msgSender()].div(stackTime).mul(block.timestamp.sub(purchaseDate[_msgSender()]));\r\n        }else{\r\n            withdrawAmount=balances[_msgSender()];\r\n        }\r\n        return withdrawAmount;\r\n    }\r\n    \r\n    function balanceOf(address tokenOwner) public view returns(uint balance){\r\n        return balances[tokenOwner];\r\n    }\r\n    function purchaseDateOf(address tokenOwner) public view returns(uint balance){\r\n        return purchaseDate[tokenOwner];\r\n    }\r\n\r\n\r\n    function setIDOActive(bool val) public onlyOwner returns  (bool) {\r\n        IDOActive=val;\r\n        return true;\r\n        \r\n    }\r\n\r\n    //approve lock\r\n     modifier approvelock(){\r\n        require(aproveunlocked==1,\"LOCKED\");\r\n        aproveunlocked=0;\r\n        _;\r\n        aproveunlocked=1;\r\n    }\r\n}",
  "sourcePath": "/c/Users/dx/Ethereum Studio/ECR/contracts/IDOStack.sol",
  "compiler": {
    "name": "solc",
    "version": "0.8.0+commit.c7dfd78e.Emscripten.clang"
  },
  "schemaVersion": "3.4.2",
  "updatedAt": "2022-02-02T09:23:29.292Z",
  "devdoc": {
    "kind": "dev",
    "methods": {
      "owner()": {
        "details": "Returns the address of the current owner."
      },
      "renounceOwnership()": {
        "details": "Leaves the contract without owner. It will not be possible to call `onlyOwner` functions anymore. Can only be called by the current owner. NOTE: Renouncing ownership will leave the contract without an owner, thereby removing any functionality that is only available to the owner."
      },
      "transferOwnership(address)": {
        "details": "Transfers ownership of the contract to a new account (`newOwner`). Can only be called by the current owner."
      }
    },
    "version": 1
  },
  "userdoc": {
    "kind": "user",
    "methods": {},
    "version": 1
  }
}