{
  "contractName": "StackContract",
  "abi": [
    {
      "inputs": [
        {
          "internalType": "uint256",
          "name": "_rewardTokenPerBlock",
          "type": "uint256"
        },
        {
          "internalType": "address",
          "name": "_erc20address",
          "type": "address"
        }
      ],
      "stateMutability": "nonpayable",
      "type": "constructor"
    },
    {
      "anonymous": false,
      "inputs": [
        {
          "indexed": true,
          "internalType": "address",
          "name": "previousOwner",
          "type": "address"
        },
        {
          "indexed": true,
          "internalType": "address",
          "name": "newOwner",
          "type": "address"
        }
      ],
      "name": "OwnershipTransferred",
      "type": "event"
    },
    {
      "anonymous": false,
      "inputs": [
        {
          "indexed": false,
          "internalType": "address",
          "name": "user",
          "type": "address"
        },
        {
          "indexed": false,
          "internalType": "uint256",
          "name": "point",
          "type": "uint256"
        },
        {
          "indexed": false,
          "internalType": "uint256",
          "name": "reword",
          "type": "uint256"
        }
      ],
      "name": "Repevent",
      "type": "event"
    },
    {
      "inputs": [
        {
          "internalType": "address",
          "name": "",
          "type": "address"
        }
      ],
      "name": "allocPoint",
      "outputs": [
        {
          "internalType": "uint256",
          "name": "",
          "type": "uint256"
        }
      ],
      "stateMutability": "view",
      "type": "function"
    },
    {
      "inputs": [
        {
          "internalType": "address",
          "name": "",
          "type": "address"
        }
      ],
      "name": "lastRewardBlock",
      "outputs": [
        {
          "internalType": "uint256",
          "name": "",
          "type": "uint256"
        }
      ],
      "stateMutability": "view",
      "type": "function"
    },
    {
      "inputs": [],
      "name": "myERC20Addr",
      "outputs": [
        {
          "internalType": "address",
          "name": "",
          "type": "address"
        }
      ],
      "stateMutability": "view",
      "type": "function"
    },
    {
      "inputs": [],
      "name": "owner",
      "outputs": [
        {
          "internalType": "address",
          "name": "",
          "type": "address"
        }
      ],
      "stateMutability": "view",
      "type": "function"
    },
    {
      "inputs": [],
      "name": "renounceOwnership",
      "outputs": [],
      "stateMutability": "nonpayable",
      "type": "function"
    },
    {
      "inputs": [],
      "name": "rewardTokenPerBlock",
      "outputs": [
        {
          "internalType": "uint256",
          "name": "",
          "type": "uint256"
        }
      ],
      "stateMutability": "view",
      "type": "function"
    },
    {
      "inputs": [
        {
          "internalType": "address",
          "name": "newOwner",
          "type": "address"
        }
      ],
      "name": "transferOwnership",
      "outputs": [],
      "stateMutability": "nonpayable",
      "type": "function"
    },
    {
      "inputs": [
        {
          "internalType": "uint256",
          "name": "stackamount",
          "type": "uint256"
        }
      ],
      "name": "stack",
      "outputs": [
        {
          "internalType": "bool",
          "name": "",
          "type": "bool"
        }
      ],
      "stateMutability": "nonpayable",
      "type": "function"
    },
    {
      "inputs": [
        {
          "internalType": "address",
          "name": "addr",
          "type": "address"
        }
      ],
      "name": "computationalPowerOf",
      "outputs": [
        {
          "internalType": "uint256",
          "name": "",
          "type": "uint256"
        }
      ],
      "stateMutability": "view",
      "type": "function"
    },
    {
      "inputs": [
        {
          "internalType": "address[]",
          "name": "addrs",
          "type": "address[]"
        }
      ],
      "name": "computationalPowerOfBatch",
      "outputs": [
        {
          "internalType": "uint256[]",
          "name": "",
          "type": "uint256[]"
        }
      ],
      "stateMutability": "view",
      "type": "function"
    },
    {
      "inputs": [
        {
          "internalType": "address",
          "name": "addr",
          "type": "address"
        }
      ],
      "name": "getRewardStack",
      "outputs": [
        {
          "internalType": "uint256",
          "name": "",
          "type": "uint256"
        }
      ],
      "stateMutability": "view",
      "type": "function"
    },
    {
      "inputs": [],
      "name": "reap",
      "outputs": [
        {
          "internalType": "bool",
          "name": "",
          "type": "bool"
        }
      ],
      "stateMutability": "nonpayable",
      "type": "function"
    },
    {
      "inputs": [
        {
          "internalType": "address",
          "name": "addr",
          "type": "address"
        }
      ],
      "name": "reapView",
      "outputs": [
        {
          "internalType": "uint256",
          "name": "",
          "type": "uint256"
        }
      ],
      "stateMutability": "view",
      "type": "function"
    },
    {
      "inputs": [
        {
          "internalType": "address[]",
          "name": "addrs",
          "type": "address[]"
        }
      ],
      "name": "balanceOfBatch",
      "outputs": [
        {
          "internalType": "uint256[]",
          "name": "",
          "type": "uint256[]"
        }
      ],
      "stateMutability": "view",
      "type": "function"
    }
  ],
  "bytecode": "0x6080604052600160005560016004553480156200001b57600080fd5b5060405162002673380380620026738339818101604052810190620000419190620001b5565b6200006162000055620000b960201b60201c565b620000c160201b60201c565b60016002819055508160078190555080600360006101000a81548173ffffffffffffffffffffffffffffffffffffffff021916908373ffffffffffffffffffffffffffffffffffffffff160217905550505062000268565b600033905090565b6000600160009054906101000a900473ffffffffffffffffffffffffffffffffffffffff16905081600160006101000a81548173ffffffffffffffffffffffffffffffffffffffff021916908373ffffffffffffffffffffffffffffffffffffffff1602179055508173ffffffffffffffffffffffffffffffffffffffff168173ffffffffffffffffffffffffffffffffffffffff167f8be0079c531659141344cd1fd0a4f28419497f9722a3daafe3b4186f6b6457e060405160405180910390a35050565b600081519050620001988162000234565b92915050565b600081519050620001af816200024e565b92915050565b60008060408385031215620001c957600080fd5b6000620001d9858286016200019e565b9250506020620001ec8582860162000187565b9150509250929050565b600062000203826200020a565b9050919050565b600073ffffffffffffffffffffffffffffffffffffffff82169050919050565b6000819050919050565b6200023f81620001f6565b81146200024b57600080fd5b50565b62000259816200022a565b81146200026557600080fd5b50565b6123fb80620002786000396000f3fe608060405234801561001057600080fd5b50600436106100ea5760003560e01c80638da5cb5b1161008c578063dc9031c411610066578063dc9031c414610261578063e6d370c914610291578063ecb90a1b146102c1578063f2fde38b146102f1576100ea565b80638da5cb5b146101f55780639660020614610213578063c72896ac14610243576100ea565b8063554c798a116100c8578063554c798a1461016d5780636c9394751461018b578063715018a6146101bb578063846141b3146101c5576100ea565b8063458c738e146100ef57806347ba4c3c1461011f5780634f38b5671461014f575b600080fd5b610109600480360381019061010491906117e5565b61030d565b6040516101169190611e47565b60405180910390f35b610139600480360381019061013491906117bc565b6104e1565b6040516101469190612026565b60405180910390f35b6101576106e0565b6040516101649190611d6c565b60405180910390f35b610175610706565b6040516101829190612026565b60405180910390f35b6101a560048036038101906101a091906117bc565b61070c565b6040516101b29190612026565b60405180910390f35b6101c3610724565b005b6101df60048036038101906101da91906117bc565b6107ac565b6040516101ec9190612026565b60405180910390f35b6101fd6107c4565b60405161020a9190611d6c565b60405180910390f35b61022d600480360381019061022891906117bc565b6107ee565b60405161023a9190612026565b60405180910390f35b61024b6108ad565b6040516102589190611e69565b60405180910390f35b61027b6004803603810190610276919061184f565b610ba7565b6040516102889190611e69565b60405180910390f35b6102ab60048036038101906102a691906117bc565b610f86565b6040516102b89190612026565b60405180910390f35b6102db60048036038101906102d691906117e5565b610fcf565b6040516102e89190611e47565b60405180910390f35b61030b600480360381019061030691906117bc565b611138565b005b606060008251905060008167ffffffffffffffff811115610357577f4e487b7100000000000000000000000000000000000000000000000000000000600052604160045260246000fd5b6040519080825280602002602001820160405280156103855781602001602082028036833780820191505090505b50905060005b828110156104d657600360009054906101000a900473ffffffffffffffffffffffffffffffffffffffff1673ffffffffffffffffffffffffffffffffffffffff166370a0823186838151811061040a577f4e487b7100000000000000000000000000000000000000000000000000000000600052603260045260246000fd5b60200260200101516040518263ffffffff1660e01b815260040161042e9190611d6c565b60206040518083038186803b15801561044657600080fd5b505afa15801561045a573d6000803e3d6000fd5b505050506040513d601f19601f8201168201806040525081019061047e9190611878565b8282815181106104b7577f4e487b7100000000000000000000000000000000000000000000000000000000600052603260045260246000fd5b60200260200101818152505080806104ce90612299565b91505061038b565b508092505050919050565b60008015156104ef83611230565b151514610531576040517f08c379a000000000000000000000000000000000000000000000000000000000815260040161052890612006565b60405180910390fd5b600073ffffffffffffffffffffffffffffffffffffffff168273ffffffffffffffffffffffffffffffffffffffff1614156105a1576040517f08c379a000000000000000000000000000000000000000000000000000000000815260040161059890611f26565b60405180910390fd5b6000600560008473ffffffffffffffffffffffffffffffffffffffff1673ffffffffffffffffffffffffffffffffffffffff16815260200190815260200160002054116105f157600090506106db565b600660008373ffffffffffffffffffffffffffffffffffffffff1673ffffffffffffffffffffffffffffffffffffffff16815260200190815260200160002054431161064057600090506106db565b600061064b836107ee565b90506000811161065f5760009150506106db565b6000600560008573ffffffffffffffffffffffffffffffffffffffff1673ffffffffffffffffffffffffffffffffffffffff16815260200190815260200160002054905060006106d2836106c4670de0b6b3a76400008561124390919063ffffffff16565b61125990919063ffffffff16565b90508093505050505b919050565b600360009054906101000a900473ffffffffffffffffffffffffffffffffffffffff1681565b60075481565b60056020528060005260406000206000915090505481565b61072c61126f565b73ffffffffffffffffffffffffffffffffffffffff1661074a6107c4565b73ffffffffffffffffffffffffffffffffffffffff16146107a0576040517f08c379a000000000000000000000000000000000000000000000000000000000815260040161079790611f06565b60405180910390fd5b6107aa6000611277565b565b60066020528060005260406000206000915090505481565b6000600160009054906101000a900473ffffffffffffffffffffffffffffffffffffffff16905090565b600043600660008473ffffffffffffffffffffffffffffffffffffffff1673ffffffffffffffffffffffffffffffffffffffff168152602001908152602001600020541061083f57600090506108a8565b6108a5600754610897600660008673ffffffffffffffffffffffffffffffffffffffff1673ffffffffffffffffffffffffffffffffffffffff168152602001908152602001600020544361133d90919063ffffffff16565b61125990919063ffffffff16565b90505b919050565b60006002805414156108f4576040517f08c379a00000000000000000000000000000000000000000000000000000000081526004016108eb90611fe6565b60405180910390fd5b600280819055506000151561090f61090a61126f565b611230565b151514610951576040517f08c379a000000000000000000000000000000000000000000000000000000000815260040161094890612006565b60405180910390fd5b60006005600061095f61126f565b73ffffffffffffffffffffffffffffffffffffffff1673ffffffffffffffffffffffffffffffffffffffff16815260200190815260200160002054116109a85760009050610b9c565b600660006109b461126f565b73ffffffffffffffffffffffffffffffffffffffff1673ffffffffffffffffffffffffffffffffffffffff1681526020019081526020016000205443116109fe5760009050610b9c565b6000610a10610a0b61126f565b6107ee565b905060008111610a24576000915050610b9c565b600060056000610a3261126f565b73ffffffffffffffffffffffffffffffffffffffff1673ffffffffffffffffffffffffffffffffffffffff1681526020019081526020016000205490506000610a9e83610a90670de0b6b3a76400008561124390919063ffffffff16565b61125990919063ffffffff16565b9050600060056000610aae61126f565b73ffffffffffffffffffffffffffffffffffffffff1673ffffffffffffffffffffffffffffffffffffffff16815260200190815260200160002081905550610b52610af761126f565b610b0a848461135390919063ffffffff16565b600360009054906101000a900473ffffffffffffffffffffffffffffffffffffffff1673ffffffffffffffffffffffffffffffffffffffff166113699092919063ffffffff16565b7f1b635ab08b58021e21f603780e83a8c42a40e084d593563458eaf803147c7bad610b7b61126f565b8383604051610b8c93929190611e10565b60405180910390a1600193505050505b600160028190555090565b6000600160045414610bee576040517f08c379a0000000000000000000000000000000000000000000000000000000008152600401610be590611fc6565b60405180910390fd5b600060048190555060001515610c0a610c0561126f565b611230565b151514610c4c576040517f08c379a0000000000000000000000000000000000000000000000000000000008152600401610c4390611f46565b60405180910390fd5b600073ffffffffffffffffffffffffffffffffffffffff16610c6c61126f565b73ffffffffffffffffffffffffffffffffffffffff161415610cc3576040517f08c379a0000000000000000000000000000000000000000000000000000000008152600401610cba90611f26565b60405180910390fd5b670de0b6b3a7640000821015610d0e576040517f08c379a0000000000000000000000000000000000000000000000000000000008152600401610d0590611fa6565b60405180910390fd5b81600360009054906101000a900473ffffffffffffffffffffffffffffffffffffffff1673ffffffffffffffffffffffffffffffffffffffff1663dd62ed3e610d5561126f565b306040518363ffffffff1660e01b8152600401610d73929190611d87565b60206040518083038186803b158015610d8b57600080fd5b505afa158015610d9f573d6000803e3d6000fd5b505050506040513d601f19601f82011682018060405250810190610dc39190611878565b1015610e04576040517f08c379a0000000000000000000000000000000000000000000000000000000008152600401610dfb90611ea6565b60405180910390fd5b610e5a610e0f61126f565b3084600360009054906101000a900473ffffffffffffffffffffffffffffffffffffffff1673ffffffffffffffffffffffffffffffffffffffff166113ef909392919063ffffffff16565b6000610e6c610e6761126f565b6104e1565b90504360066000610e7b61126f565b73ffffffffffffffffffffffffffffffffffffffff1673ffffffffffffffffffffffffffffffffffffffff16815260200190815260200160002081905550600060056000610ec761126f565b73ffffffffffffffffffffffffffffffffffffffff1673ffffffffffffffffffffffffffffffffffffffff168152602001908152602001600020549050610f2982610f1b868461135390919063ffffffff16565b61135390919063ffffffff16565b60056000610f3561126f565b73ffffffffffffffffffffffffffffffffffffffff1673ffffffffffffffffffffffffffffffffffffffff168152602001908152602001600020819055506001925050506001600481905550919050565b6000600560008373ffffffffffffffffffffffffffffffffffffffff1673ffffffffffffffffffffffffffffffffffffffff168152602001908152602001600020549050919050565b606060008251905060008167ffffffffffffffff811115611019577f4e487b7100000000000000000000000000000000000000000000000000000000600052604160045260246000fd5b6040519080825280602002602001820160405280156110475781602001602082028036833780820191505090505b50905060005b8281101561112d5760056000868381518110611092577f4e487b7100000000000000000000000000000000000000000000000000000000600052603260045260246000fd5b602002602001015173ffffffffffffffffffffffffffffffffffffffff1673ffffffffffffffffffffffffffffffffffffffff1681526020019081526020016000205482828151811061110e577f4e487b7100000000000000000000000000000000000000000000000000000000600052603260045260246000fd5b602002602001018181525050808061112590612299565b91505061104d565b508092505050919050565b61114061126f565b73ffffffffffffffffffffffffffffffffffffffff1661115e6107c4565b73ffffffffffffffffffffffffffffffffffffffff16146111b4576040517f08c379a00000000000000000000000000000000000000000000000000000000081526004016111ab90611f06565b60405180910390fd5b600073ffffffffffffffffffffffffffffffffffffffff168173ffffffffffffffffffffffffffffffffffffffff161415611224576040517f08c379a000000000000000000000000000000000000000000000000000000000815260040161121b90611ec6565b60405180910390fd5b61122d81611277565b50565b600080823b905060008111915050919050565b60008183611251919061215f565b905092915050565b600081836112679190612190565b905092915050565b600033905090565b6000600160009054906101000a900473ffffffffffffffffffffffffffffffffffffffff16905081600160006101000a81548173ffffffffffffffffffffffffffffffffffffffff021916908373ffffffffffffffffffffffffffffffffffffffff1602179055508173ffffffffffffffffffffffffffffffffffffffff168173ffffffffffffffffffffffffffffffffffffffff167f8be0079c531659141344cd1fd0a4f28419497f9722a3daafe3b4186f6b6457e060405160405180910390a35050565b6000818361134b91906121ea565b905092915050565b600081836113619190612109565b905092915050565b6113ea8363a9059cbb60e01b8484604051602401611388929190611de7565b604051602081830303815290604052907bffffffffffffffffffffffffffffffffffffffffffffffffffffffff19166020820180517bffffffffffffffffffffffffffffffffffffffffffffffffffffffff8381831617835250505050611478565b505050565b611472846323b872dd60e01b85858560405160240161141093929190611db0565b604051602081830303815290604052907bffffffffffffffffffffffffffffffffffffffffffffffffffffffff19166020820180517bffffffffffffffffffffffffffffffffffffffffffffffffffffffff8381831617835250505050611478565b50505050565b60006114da826040518060400160405280602081526020017f5361666545524332303a206c6f772d6c6576656c2063616c6c206661696c65648152508573ffffffffffffffffffffffffffffffffffffffff1661153f9092919063ffffffff16565b905060008151111561153a57808060200190518101906114fa9190611826565b611539576040517f08c379a000000000000000000000000000000000000000000000000000000000815260040161153090611f86565b60405180910390fd5b5b505050565b606061154e8484600085611557565b90509392505050565b60608247101561159c576040517f08c379a000000000000000000000000000000000000000000000000000000000815260040161159390611ee6565b60405180910390fd5b6115a585611230565b6115e4576040517f08c379a00000000000000000000000000000000000000000000000000000000081526004016115db90611f66565b60405180910390fd5b6000808673ffffffffffffffffffffffffffffffffffffffff16858760405161160d9190611d55565b60006040518083038185875af1925050503d806000811461164a576040519150601f19603f3d011682016040523d82523d6000602084013e61164f565b606091505b509150915061165f82828661166b565b92505050949350505050565b6060831561167b578290506116cb565b60008351111561168e5782518084602001fd5b816040517f08c379a00000000000000000000000000000000000000000000000000000000081526004016116c29190611e84565b60405180910390fd5b9392505050565b60006116e56116e084612072565b612041565b9050808382526020820190508285602086028201111561170457600080fd5b60005b85811015611734578161171a888261173e565b845260208401935060208301925050600181019050611707565b5050509392505050565b60008135905061174d81612380565b92915050565b600082601f83011261176457600080fd5b81356117748482602086016116d2565b91505092915050565b60008151905061178c81612397565b92915050565b6000813590506117a1816123ae565b92915050565b6000815190506117b6816123ae565b92915050565b6000602082840312156117ce57600080fd5b60006117dc8482850161173e565b91505092915050565b6000602082840312156117f757600080fd5b600082013567ffffffffffffffff81111561181157600080fd5b61181d84828501611753565b91505092915050565b60006020828403121561183857600080fd5b60006118468482850161177d565b91505092915050565b60006020828403121561186157600080fd5b600061186f84828501611792565b91505092915050565b60006020828403121561188a57600080fd5b6000611898848285016117a7565b91505092915050565b60006118ad8383611d37565b60208301905092915050565b6118c28161221e565b82525050565b60006118d3826120ae565b6118dd81856120dc565b93506118e88361209e565b8060005b8381101561191957815161190088826118a1565b975061190b836120cf565b9250506001810190506118ec565b5085935050505092915050565b61192f81612230565b82525050565b6000611940826120b9565b61194a81856120ed565b935061195a818560208601612266565b80840191505092915050565b6000611971826120c4565b61197b81856120f8565b935061198b818560208601612266565b6119948161236f565b840191505092915050565b60006119ac6021836120f8565b91507f617070726f766520616d6f756e74206c65737320706c6564676520616d6f756e60008301527f74000000000000000000000000000000000000000000000000000000000000006020830152604082019050919050565b6000611a126026836120f8565b91507f4f776e61626c653a206e6577206f776e657220697320746865207a65726f206160008301527f64647265737300000000000000000000000000000000000000000000000000006020830152604082019050919050565b6000611a786026836120f8565b91507f416464726573733a20696e73756666696369656e742062616c616e636520666f60008301527f722063616c6c00000000000000000000000000000000000000000000000000006020830152604082019050919050565b6000611ade6020836120f8565b91507f4f776e61626c653a2063616c6c6572206973206e6f7420746865206f776e65726000830152602082019050919050565b6000611b1e600c836120f8565b91507f5a65726f204164647265737300000000000000000000000000000000000000006000830152602082019050919050565b6000611b5e6009836120f8565b91507f6e6f742068756d616e00000000000000000000000000000000000000000000006000830152602082019050919050565b6000611b9e601d836120f8565b91507f416464726573733a2063616c6c20746f206e6f6e2d636f6e74726163740000006000830152602082019050919050565b6000611bde602a836120f8565b91507f5361666545524332303a204552433230206f7065726174696f6e20646964206e60008301527f6f742073756363656564000000000000000000000000000000000000000000006020830152604082019050919050565b6000611c44601a836120f8565b91507f706c6564676520616d6f756e74206c657373203120746f6b656e0000000000006000830152602082019050919050565b6000611c846006836120f8565b91507f4c4f434b454400000000000000000000000000000000000000000000000000006000830152602082019050919050565b6000611cc4601f836120f8565b91507f5265656e7472616e637947756172643a207265656e7472616e742063616c6c006000830152602082019050919050565b6000611d04600a836120f8565b91507f6e6f742068756e6d616e000000000000000000000000000000000000000000006000830152602082019050919050565b611d408161225c565b82525050565b611d4f8161225c565b82525050565b6000611d618284611935565b915081905092915050565b6000602082019050611d8160008301846118b9565b92915050565b6000604082019050611d9c60008301856118b9565b611da960208301846118b9565b9392505050565b6000606082019050611dc560008301866118b9565b611dd260208301856118b9565b611ddf6040830184611d46565b949350505050565b6000604082019050611dfc60008301856118b9565b611e096020830184611d46565b9392505050565b6000606082019050611e2560008301866118b9565b611e326020830185611d46565b611e3f6040830184611d46565b949350505050565b60006020820190508181036000830152611e6181846118c8565b905092915050565b6000602082019050611e7e6000830184611926565b92915050565b60006020820190508181036000830152611e9e8184611966565b905092915050565b60006020820190508181036000830152611ebf8161199f565b9050919050565b60006020820190508181036000830152611edf81611a05565b9050919050565b60006020820190508181036000830152611eff81611a6b565b9050919050565b60006020820190508181036000830152611f1f81611ad1565b9050919050565b60006020820190508181036000830152611f3f81611b11565b9050919050565b60006020820190508181036000830152611f5f81611b51565b9050919050565b60006020820190508181036000830152611f7f81611b91565b9050919050565b60006020820190508181036000830152611f9f81611bd1565b9050919050565b60006020820190508181036000830152611fbf81611c37565b9050919050565b60006020820190508181036000830152611fdf81611c77565b9050919050565b60006020820190508181036000830152611fff81611cb7565b9050919050565b6000602082019050818103600083015261201f81611cf7565b9050919050565b600060208201905061203b6000830184611d46565b92915050565b6000604051905081810181811067ffffffffffffffff8211171561206857612067612340565b5b8060405250919050565b600067ffffffffffffffff82111561208d5761208c612340565b5b602082029050602081019050919050565b6000819050602082019050919050565b600081519050919050565b600081519050919050565b600081519050919050565b6000602082019050919050565b600082825260208201905092915050565b600081905092915050565b600082825260208201905092915050565b60006121148261225c565b915061211f8361225c565b9250827fffffffffffffffffffffffffffffffffffffffffffffffffffffffffffffffff03821115612154576121536122e2565b5b828201905092915050565b600061216a8261225c565b91506121758361225c565b92508261218557612184612311565b5b828204905092915050565b600061219b8261225c565b91506121a68361225c565b9250817fffffffffffffffffffffffffffffffffffffffffffffffffffffffffffffffff04831182151516156121df576121de6122e2565b5b828202905092915050565b60006121f58261225c565b91506122008361225c565b925082821015612213576122126122e2565b5b828203905092915050565b60006122298261223c565b9050919050565b60008115159050919050565b600073ffffffffffffffffffffffffffffffffffffffff82169050919050565b6000819050919050565b60005b83811015612284578082015181840152602081019050612269565b83811115612293576000848401525b50505050565b60006122a48261225c565b91507fffffffffffffffffffffffffffffffffffffffffffffffffffffffffffffffff8214156122d7576122d66122e2565b5b600182019050919050565b7f4e487b7100000000000000000000000000000000000000000000000000000000600052601160045260246000fd5b7f4e487b7100000000000000000000000000000000000000000000000000000000600052601260045260246000fd5b7f4e487b7100000000000000000000000000000000000000000000000000000000600052604160045260246000fd5b6000601f19601f8301169050919050565b6123898161221e565b811461239457600080fd5b50565b6123a081612230565b81146123ab57600080fd5b50565b6123b78161225c565b81146123c257600080fd5b5056fea2646970667358221220b9b2b3c0ce8b9f49b846f926f69acc7d6afc2ed53b7b031714bbad2c71953c5b64736f6c63430008000033",
  "immutableReferences": {},
  "source": "// SPDX-License-Identifier: MIT\r\npragma solidity ^0.8.0;\r\nimport \"@openzeppelin/contracts/utils/Address.sol\";\r\nimport \"./SafeControl.sol\";\r\nimport \"@openzeppelin/contracts/access/Ownable.sol\";\r\nimport \"@openzeppelin/contracts/utils/Context.sol\";\r\nimport \"@openzeppelin/contracts/utils/math/SafeMath.sol\";\r\nimport \"@openzeppelin/contracts/token/ERC20/utils/SafeERC20.sol\";\r\nimport \"@openzeppelin/contracts/security/ReentrancyGuard.sol\";\r\n\r\n/*\r\n==\r\nmyERC20Addr\r\n\r\n*/\r\n\r\ncontract StackContract is Context,SafeControl,Ownable,ReentrancyGuard {\r\n    using SafeMath for uint256;\r\n    using SafeERC20 for IERC20;\r\n    address public myERC20Addr;//token address\r\n    uint256 private aproveunlocked=1;//\r\n\r\n    mapping(address => uint256) public allocPoint;//--\r\n    mapping(address => uint256) public lastRewardBlock;//\r\n    uint256 public rewardTokenPerBlock;//\r\n    event Repevent(address user,uint point,uint reword);\r\n    constructor(uint256 _rewardTokenPerBlock,address _erc20address) {\r\n        rewardTokenPerBlock = _rewardTokenPerBlock;//token\r\n        myERC20Addr=_erc20address;\r\n    }  \r\n   /*...\r\n    stack  \r\n    stack your token\r\n    */\r\n    function stack(uint256 stackamount) public approvelock returns (bool) {\r\n        require(Address.isContract(_msgSender())==false,\"not human\");//not hunman\r\n        require(_msgSender()!=address(0),\"Zero Address\");//\r\n        require(stackamount>=1*10**18,\"pledge amount less 1 token\");//\r\n        require(IERC20(myERC20Addr).allowance(_msgSender(),address(this))>=stackamount,\"approve amount less pledge amount\");//\r\n        IERC20(myERC20Addr).safeTransferFrom(_msgSender(),address(this), stackamount);\r\n        uint256 reptmp=reapView(_msgSender());\r\n        lastRewardBlock[_msgSender()]=block.number;\r\n        uint256 nowPointTemp=allocPoint[_msgSender()];\r\n        allocPoint[_msgSender()]=nowPointTemp.add(stackamount).add(reptmp);\r\n        return true;\r\n    }\r\n    /*...\r\n    computationalPowerOf \r\n     addr  \r\n    token\r\n    */\r\n    function computationalPowerOf(address addr) public view returns (uint256) {\r\n        return allocPoint[addr];\r\n    }\r\n    /*...\r\n    computationalPowerOfBatch\r\n     addrs   \r\n    token\r\n    */\r\n    function computationalPowerOfBatch(address[] memory addrs) public view returns (uint256[] memory) {\r\n        uint len=addrs.length;\r\n        uint256[] memory res=new uint256[](len);\r\n        for(uint i=0;i<len;i++){\r\n            res[i]=allocPoint[addrs[i]];\r\n        }\r\n        return res;\r\n    }\r\n    //\r\n    function getRewardStack(address addr) public view returns (uint256) {\r\n        if(lastRewardBlock[addr]>=block.number){\r\n             return 0;\r\n        }\r\n       return block.number.sub(lastRewardBlock[addr]).mul(rewardTokenPerBlock);//-   x     = \r\n    }\r\n\r\n    /*...\r\n    reap  \r\n    token msg.sender   ,msg.sender \r\n    */\r\n    function reap() public nonReentrant returns (bool) {\r\n        require(Address.isContract(_msgSender())==false,\"not hunman\");//not hunman\r\n        if(allocPoint[_msgSender()]<=0){//0\r\n            return false;\r\n        }\r\n        if (block.number <= lastRewardBlock[_msgSender()]) {//blockNumber > blockNumber\r\n            return false;\r\n        }\r\n        uint256 blockReward = getRewardStack(_msgSender());//  \r\n        if (blockReward <= 0) {\r\n            return false;\r\n        }\r\n        uint256 allpointTemp=allocPoint[_msgSender()];\r\n        uint256 tokenReward = allpointTemp.div(10**18).mul(blockReward);// *stack \r\n        allocPoint[_msgSender()]=0;//  \r\n        IERC20(myERC20Addr).safeTransfer(_msgSender(), tokenReward.add(allpointTemp));\r\n        emit Repevent(_msgSender(),allpointTemp,tokenReward);\r\n        return true;\r\n    }\r\n    \r\n    /*...\r\n    reapView  \r\n    token msg.sender   \r\n    */\r\n    function reapView(address addr) public view returns (uint256) {\r\n      require(Address.isContract(addr)==false,\"not hunman\");//not hunman\r\n      require(addr!=address(0),\"Zero Address\");//\r\n        if(allocPoint[addr]<=0){//0\r\n            return 0;\r\n        }\r\n        if (block.number <= lastRewardBlock[addr]) {//blockNumber > blockNumber\r\n            return 0;\r\n        }\r\n        uint256 blockReward = getRewardStack(addr);//  \r\n        if (blockReward <= 0) {\r\n            return 0;\r\n        }\r\n        uint256 allpointTemp=allocPoint[addr];\r\n        uint256 tokenReward = allpointTemp.div(10**18).mul(blockReward);// *stack \r\n        return tokenReward;\r\n    }\r\n\r\n    function balanceOfBatch(address[] memory addrs) public view returns (uint256[] memory) {\r\n        uint256 len=addrs.length;\r\n        uint256[] memory amounts=new uint256[](len);\r\n        for(uint i=0;i<len;i++){\r\n            amounts[i]=IERC20(myERC20Addr).balanceOf(addrs[i]);//myerc20.balanceOf(addrs[i]);\r\n        }\r\n        return amounts;\r\n    }\r\n    \r\n    //approve \r\n     modifier approvelock(){\r\n        require(aproveunlocked==1,\"LOCKED\");\r\n        aproveunlocked=0;\r\n        _;\r\n        aproveunlocked=1;\r\n    }\r\n}",
  "sourcePath": "/c/Users/dx/Ethereum Studio/ECR/contracts/StakeContract.sol",
  "compiler": {
    "name": "solc",
    "version": "0.8.0+commit.c7dfd78e.Emscripten.clang"
  },
  "schemaVersion": "3.4.2",
  "updatedAt": "2022-02-09T05:33:14.096Z",
  "devdoc": {
    "kind": "dev",
    "methods": {
      "owner()": {
        "details": "Returns the address of the current owner."
      },
      "renounceOwnership()": {
        "details": "Leaves the contract without owner. It will not be possible to call `onlyOwner` functions anymore. Can only be called by the current owner. NOTE: Renouncing ownership will leave the contract without an owner, thereby removing any functionality that is only available to the owner."
      },
      "transferOwnership(address)": {
        "details": "Transfers ownership of the contract to a new account (`newOwner`). Can only be called by the current owner."
      }
    },
    "version": 1
  },
  "userdoc": {
    "kind": "user",
    "methods": {},
    "version": 1
  }
}